{
  "_format": "hh-sol-artifact-1",
  "contractName": "Distributor",
  "sourceName": "contracts/StakingDistributor.sol",
  "abi": [
    {
      "inputs": [
        {
          "internalType": "address",
          "name": "_treasury",
          "type": "address"
        },
        {
          "internalType": "address",
          "name": "_floor",
          "type": "address"
        },
        {
          "internalType": "address",
          "name": "_staking",
          "type": "address"
        },
        {
          "internalType": "address",
          "name": "_authority",
          "type": "address"
        }
      ],
      "stateMutability": "nonpayable",
      "type": "constructor"
    },
    {
      "anonymous": false,
      "inputs": [
        {
          "indexed": true,
          "internalType": "contract IFloorAuthority",
          "name": "authority",
          "type": "address"
        }
      ],
      "name": "AuthorityUpdated",
      "type": "event"
    },
    {
      "inputs": [
        {
          "internalType": "address",
          "name": "_recipient",
          "type": "address"
        },
        {
          "internalType": "uint256",
          "name": "_rewardRate",
          "type": "uint256"
        }
      ],
      "name": "addRecipient",
      "outputs": [],
      "stateMutability": "nonpayable",
      "type": "function"
    },
    {
      "inputs": [
        {
          "internalType": "uint256",
          "name": "",
          "type": "uint256"
        }
      ],
      "name": "adjustments",
      "outputs": [
        {
          "internalType": "bool",
          "name": "add",
          "type": "bool"
        },
        {
          "internalType": "uint256",
          "name": "rate",
          "type": "uint256"
        },
        {
          "internalType": "uint256",
          "name": "target",
          "type": "uint256"
        }
      ],
      "stateMutability": "view",
      "type": "function"
    },
    {
      "inputs": [],
      "name": "authority",
      "outputs": [
        {
          "internalType": "contract IFloorAuthority",
          "name": "",
          "type": "address"
        }
      ],
      "stateMutability": "view",
      "type": "function"
    },
    {
      "inputs": [],
      "name": "bounty",
      "outputs": [
        {
          "internalType": "uint256",
          "name": "",
          "type": "uint256"
        }
      ],
      "stateMutability": "view",
      "type": "function"
    },
    {
      "inputs": [],
      "name": "distribute",
      "outputs": [],
      "stateMutability": "nonpayable",
      "type": "function"
    },
    {
      "inputs": [
        {
          "internalType": "uint256",
          "name": "",
          "type": "uint256"
        }
      ],
      "name": "info",
      "outputs": [
        {
          "internalType": "uint256",
          "name": "rate",
          "type": "uint256"
        },
        {
          "internalType": "address",
          "name": "recipient",
          "type": "address"
        }
      ],
      "stateMutability": "view",
      "type": "function"
    },
    {
      "inputs": [
        {
          "internalType": "uint256",
          "name": "_rate",
          "type": "uint256"
        }
      ],
      "name": "nextRewardAt",
      "outputs": [
        {
          "internalType": "uint256",
          "name": "",
          "type": "uint256"
        }
      ],
      "stateMutability": "view",
      "type": "function"
    },
    {
      "inputs": [
        {
          "internalType": "address",
          "name": "_recipient",
          "type": "address"
        }
      ],
      "name": "nextRewardFor",
      "outputs": [
        {
          "internalType": "uint256",
          "name": "",
          "type": "uint256"
        }
      ],
      "stateMutability": "view",
      "type": "function"
    },
    {
      "inputs": [
        {
          "internalType": "uint256",
          "name": "_index",
          "type": "uint256"
        }
      ],
      "name": "removeRecipient",
      "outputs": [],
      "stateMutability": "nonpayable",
      "type": "function"
    },
    {
      "inputs": [
        {
          "internalType": "uint256",
          "name": "_index",
          "type": "uint256"
        },
        {
          "internalType": "bool",
          "name": "_add",
          "type": "bool"
        },
        {
          "internalType": "uint256",
          "name": "_rate",
          "type": "uint256"
        },
        {
          "internalType": "uint256",
          "name": "_target",
          "type": "uint256"
        }
      ],
      "name": "setAdjustment",
      "outputs": [],
      "stateMutability": "nonpayable",
      "type": "function"
    },
    {
      "inputs": [
        {
          "internalType": "contract IFloorAuthority",
          "name": "_newAuthority",
          "type": "address"
        }
      ],
      "name": "setAuthority",
      "outputs": [],
      "stateMutability": "nonpayable",
      "type": "function"
    },
    {
      "inputs": [
        {
          "internalType": "uint256",
          "name": "_bounty",
          "type": "uint256"
        }
      ],
      "name": "setBounty",
      "outputs": [],
      "stateMutability": "nonpayable",
      "type": "function"
    }
  ],
  "bytecode": "0x610140604052600c6101008190526b15539055551213d49256915160a21b61012090815262000032916000919062000222565b50620f424060e0523480156200004757600080fd5b5060405162001a1d38038062001a1d833981810160405260808110156200006d57600080fd5b5080516020820151604080840151606090940151600180546001600160a01b0319166001600160a01b038316908117909155915193949293909182917f2f658b440c35314f52658ea8a740e05b284cdc84dc9ae01e891f21b8933e7cad90600090a2506001600160a01b0384166200012c576040805162461bcd60e51b815260206004820152601660248201527f5a65726f20616464726573733a20547265617375727900000000000000000000604482015290519081900360640190fd5b6001600160601b0319606085901b1660a0526001600160a01b0383166200019a576040805162461bcd60e51b815260206004820152601360248201527f5a65726f20616464726573733a20464c4f4f5200000000000000000000000000604482015290519081900360640190fd5b6001600160601b0319606084901b166080526001600160a01b03821662000208576040805162461bcd60e51b815260206004820152601560248201527f5a65726f20616464726573733a205374616b696e670000000000000000000000604482015290519081900360640190fd5b5060601b6001600160601b03191660c05250620002ce9050565b828054600181600116156101000203166002900490600052602060002090601f0160209004810192826200025a5760008555620002a5565b82601f106200027557805160ff1916838001178555620002a5565b82800160010185558215620002a5579182015b82811115620002a557825182559160200191906001019062000288565b50620002b3929150620002b7565b5090565b5b80821115620002b35760008155600101620002b8565b60805160601c60a05160601c60c05160601c60e0516117016200031c60003980610c3252806110fe525080610cf15280610d99525080610df35280610ed3525080610c5752506117016000f3fe608060405234801561001057600080fd5b50600436106100d45760003560e01c8063943dfef111610081578063c9fa8b2a1161005b578063c9fa8b2a1461024b578063e4fc6b6d14610268578063f798224314610270576100d4565b8063943dfef1146101e2578063bc3b2b12146101ea578063bf7e214f14610227576100d4565b80635db854b0116100b25780635db854b01461016e5780637a9e5e4b1461019f5780638e69e255146101c5576100d4565b80632e340599146100d957806336d33f44146101175780635d87d3631461014f575b600080fd5b6100f6600480360360208110156100ef57600080fd5b503561029c565b604080519283526001600160a01b0390911660208301528051918290030190f35b61013d6004803603602081101561012d57600080fd5b50356001600160a01b03166102d3565b60408051918252519081900360200190f35b61016c6004803603602081101561016557600080fd5b5035610360565b005b61016c6004803603608081101561018457600080fd5b508035906020810135151590604081013590606001356104e4565b61016c600480360360208110156101b557600080fd5b50356001600160a01b0316610872565b61016c600480360360208110156101db57600080fd5b50356109b5565b61013d610bf0565b6102076004803603602081101561020057600080fd5b5035610bf6565b604080519315158452602084019290925282820152519081900360600190f35b61022f610c1c565b604080516001600160a01b039092168252519081900360200190f35b61013d6004803603602081101561026157600080fd5b5035610c2b565b61016c610ce6565b61016c6004803603604081101561028657600080fd5b506001600160a01b038135169060200135610fb5565b600481815481106102ac57600080fd5b6000918252602090912060029091020180546001909101549091506001600160a01b031682565b60008060005b60045481101561035957836001600160a01b0316600482815481106102fa57fe5b60009182526020909120600160029092020101546001600160a01b031614156103515761034e6103476004838154811061033057fe5b906000526020600020906002020160000154610c2b565b8390611213565b91505b6001016102d9565b5092915050565b600160009054906101000a90046001600160a01b03166001600160a01b0316630c340a246040518163ffffffff1660e01b815260040160206040518083038186803b1580156103ae57600080fd5b505afa1580156103c2573d6000803e3d6000fd5b505050506040513d60208110156103d857600080fd5b50516000906001600160a01b031633146104855760405162461bcd60e51b81526020600482019081528254600260001961010060018416150201909116046024830181905290918291604490910190849080156104765780601f1061044b57610100808354040283529160200191610476565b820191906000526020600020905b81548152906001019060200180831161045957829003601f168201915b50509250505060405180910390fd5b5063773594008111156104df576040805162461bcd60e51b815260206004820152600860248201527f546f6f206d756368000000000000000000000000000000000000000000000000604482015290519081900360640190fd5b600355565b600160009054906101000a90046001600160a01b03166001600160a01b0316630c340a246040518163ffffffff1660e01b815260040160206040518083038186803b15801561053257600080fd5b505afa158015610546573d6000803e3d6000fd5b505050506040513d602081101561055c57600080fd5b50516001600160a01b03163314806105f55750600160009054906101000a90046001600160a01b03166001600160a01b031663452a93206040518163ffffffff1660e01b815260040160206040518083038186803b1580156105bd57600080fd5b505afa1580156105d1573d6000803e3d6000fd5b505050506040513d60208110156105e757600080fd5b50516001600160a01b031633145b6106305760405162461bcd60e51b81526004018080602001828103825260228152602001806116836022913960400191505060405180910390fd5b60006001600160a01b03166004858154811061064857fe5b60009182526020909120600160029092020101546001600160a01b031614156106b8576040805162461bcd60e51b815260206004820152601860248201527f526563697069656e7420646f6573206e6f742065786973740000000000000000604482015290519081900360640190fd5b600160009054906101000a90046001600160a01b03166001600160a01b031663452a93206040518163ffffffff1660e01b815260040160206040518083038186803b15801561070657600080fd5b505afa15801561071a573d6000803e3d6000fd5b505050506040513d602081101561073057600080fd5b50516001600160a01b03163314156107cb576107776103e861077160196004888154811061075a57fe5b600091825260209091206002909102015490611274565b906112cd565b8211156107cb576040805162461bcd60e51b815260206004820152601f60248201527f4c696d697465723a2063616e6e6f742061646a757374206279203e322e352500604482015290519081900360640190fd5b8261082d57600484815481106107dd57fe5b90600052602060002090600202016000015482111561082d5760405162461bcd60e51b815260040180806020018281038252602f8152602001806116c6602f913960400191505060405180910390fd5b6040805160608101825293151584526020808501938452848201928352600095865260029081905294209251835460ff19169015151783559051600183015551910155565b600160009054906101000a90046001600160a01b03166001600160a01b0316630c340a246040518163ffffffff1660e01b815260040160206040518083038186803b1580156108c057600080fd5b505afa1580156108d4573d6000803e3d6000fd5b505050506040513d60208110156108ea57600080fd5b50516000906001600160a01b0316331461095d5760405162461bcd60e51b81526020600482019081528254600260001961010060018416150201909116046024830181905290918291604490910190849080156104765780601f1061044b57610100808354040283529160200191610476565b506001805473ffffffffffffffffffffffffffffffffffffffff19166001600160a01b0383169081179091556040517f2f658b440c35314f52658ea8a740e05b284cdc84dc9ae01e891f21b8933e7cad90600090a250565b600160009054906101000a90046001600160a01b03166001600160a01b0316630c340a246040518163ffffffff1660e01b815260040160206040518083038186803b158015610a0357600080fd5b505afa158015610a17573d6000803e3d6000fd5b505050506040513d6020811015610a2d57600080fd5b50516001600160a01b0316331480610ac65750600160009054906101000a90046001600160a01b03166001600160a01b031663452a93206040518163ffffffff1660e01b815260040160206040518083038186803b158015610a8e57600080fd5b505afa158015610aa2573d6000803e3d6000fd5b505050506040513d6020811015610ab857600080fd5b50516001600160a01b031633145b610b015760405162461bcd60e51b81526004018080602001828103825260228152602001806116836022913960400191505060405180910390fd5b60006001600160a01b031660048281548110610b1957fe5b60009182526020909120600160029092020101546001600160a01b03161415610b89576040805162461bcd60e51b815260206004820152601860248201527f526563697069656e7420646f6573206e6f742065786973740000000000000000604482015290519081900360640190fd5b600060048281548110610b9857fe5b906000526020600020906002020160010160006101000a8154816001600160a01b0302191690836001600160a01b03160217905550600060048281548110610bdc57fe5b600091825260209091206002909102015550565b60035481565b600260208190526000918252604090912080546001820154919092015460ff9092169183565b6001546001600160a01b031681565b6000610ce07f0000000000000000000000000000000000000000000000000000000000000000610771847f00000000000000000000000000000000000000000000000000000000000000006001600160a01b03166318160ddd6040518163ffffffff1660e01b815260040160206040518083038186803b158015610cae57600080fd5b505afa158015610cc2573d6000803e3d6000fd5b505050506040513d6020811015610cd857600080fd5b505190611274565b92915050565b336001600160a01b037f00000000000000000000000000000000000000000000000000000000000000001614610d63576040805162461bcd60e51b815260206004820152600c60248201527f4f6e6c79207374616b696e670000000000000000000000000000000000000000604482015290519081900360640190fd5b60005b600454811015610fb257600060048281548110610d7f57fe5b9060005260206000209060020201600001541115610faa577f00000000000000000000000000000000000000000000000000000000000000006001600160a01b031660048281548110610dce57fe5b60009182526020909120600160029092020101546001600160a01b03161415610ed1577f00000000000000000000000000000000000000000000000000000000000000006001600160a01b03166340c10f1960048381548110610e2d57fe5b906000526020600020906002020160010160009054906101000a90046001600160a01b0316610e6e600354610e686004878154811061033057fe5b90611213565b6040518363ffffffff1660e01b815260040180836001600160a01b0316815260200182815260200192505050600060405180830381600087803b158015610eb457600080fd5b505af1158015610ec8573d6000803e3d6000fd5b50505050610fa1565b7f00000000000000000000000000000000000000000000000000000000000000006001600160a01b03166340c10f1960048381548110610f0d57fe5b906000526020600020906002020160010160009054906101000a90046001600160a01b0316610f426004858154811061033057fe5b6040518363ffffffff1660e01b815260040180836001600160a01b0316815260200182815260200192505050600060405180830381600087803b158015610f8857600080fd5b505af1158015610f9c573d6000803e3d6000fd5b505050505b610faa8161130f565b600101610d66565b50565b600160009054906101000a90046001600160a01b03166001600160a01b0316630c340a246040518163ffffffff1660e01b815260040160206040518083038186803b15801561100357600080fd5b505afa158015611017573d6000803e3d6000fd5b505050506040513d602081101561102d57600080fd5b50516000906001600160a01b031633146110a05760405162461bcd60e51b81526020600482019081528254600260001961010060018416150201909116046024830181905290918291604490910190849080156104765780601f1061044b57610100808354040283529160200191610476565b506001600160a01b0382166110fc576040805162461bcd60e51b815260206004820152601760248201527f5a65726f20616464726573733a20526563697069656e74000000000000000000604482015290519081900360640190fd5b7f0000000000000000000000000000000000000000000000000000000000000000811115611171576040805162461bcd60e51b815260206004820152601e60248201527f526174652063616e6e6f74206578636565642064656e6f6d696e61746f720000604482015290519081900360640190fd5b604080518082019091529081526001600160a01b03918216602082019081526004805460018101825560009190915291517f8a35acfbc15ff81a39ae7d344fd709f28e8600b4aa8c65c6b64bfe7fe36bd19b600290930292830155517f8a35acfbc15ff81a39ae7d344fd709f28e8600b4aa8c65c6b64bfe7fe36bd19c909101805473ffffffffffffffffffffffffffffffffffffffff191691909216179055565b60008282018381101561126d576040805162461bcd60e51b815260206004820152601b60248201527f536166654d6174683a206164646974696f6e206f766572666c6f770000000000604482015290519081900360640190fd5b9392505050565b60008261128357506000610ce0565b8282028284828161129057fe5b041461126d5760405162461bcd60e51b81526004018080602001828103825260218152602001806116a56021913960400191505060405180910390fd5b600061126d83836040518060400160405280601a81526020017f536166654d6174683a206469766973696f6e206279207a65726f00000000000081525061150f565b61131761165f565b506000818152600260208181526040928390208351606081018552815460ff1615158152600182015492810183905292015492820192909252901561150b5780511561140f5761138981602001516004848154811061137257fe5b600091825260209091206002909102015490611213565b6004838154811061139657fe5b6000918252602090912060029091020155604081015160048054849081106113ba57fe5b9060005260206000209060020201600001541061140a576000828152600260205260408082206001019190915581015160048054849081106113f857fe5b60009182526020909120600290910201555b61150b565b80602001516004838154811061142157fe5b90600052602060002090600202016000015411156114885761146581602001516004848154811061144e57fe5b6000918252602090912060029091020154906115c8565b6004838154811061147257fe5b60009182526020909120600290910201556114a9565b60006004838154811061149757fe5b60009182526020909120600290910201555b8060400151600483815481106114bb57fe5b9060005260206000209060020201600001541161150b576000828152600260205260408082206001019190915581015160048054849081106114f957fe5b60009182526020909120600290910201555b5050565b6000818361159b5760405162461bcd60e51b81526004018080602001828103825283818151815260200191508051906020019080838360005b83811015611560578181015183820152602001611548565b50505050905090810190601f16801561158d5780820380516001836020036101000a031916815260200191505b509250505060405180910390fd5b5060008385816115a757fe5b0490508385816115b357fe5b068185020185146115c057fe5b949350505050565b600061126d83836040518060400160405280601e81526020017f536166654d6174683a207375627472616374696f6e206f766572666c6f770000815250600081848411156116575760405162461bcd60e51b8152602060048201818152835160248401528351909283926044909101919085019080838360008315611560578181015183820152602001611548565b505050900390565b60405180606001604052806000151581526020016000815260200160008152509056fe43616c6c6572206973206e6f7420676f7665726e6f72206f7220677561726469616e536166654d6174683a206d756c7469706c69636174696f6e206f766572666c6f7743616e6e6f742064656372656173652072617465206279206d6f7265207468616e20697420616c7265616479206973a164736f6c6343000705000a",
  "linkReferences": {},
  "deployedLinkReferences": {}
}