{
  "_format": "hh-sol-artifact-1",
  "contractName": "FloorBondDepository",
  "sourceName": "contracts/BondDepository.sol",
  "abi": [
    {
      "inputs": [
        {
          "internalType": "address",
          "name": "_FLOOR",
          "type": "address"
        },
        {
          "internalType": "address",
          "name": "_treasury",
          "type": "address"
        },
        {
          "internalType": "address",
          "name": "_authority",
          "type": "address"
        }
      ],
      "stateMutability": "nonpayable",
      "type": "constructor"
    },
    {
      "anonymous": false,
      "inputs": [
        {
          "indexed": true,
          "internalType": "contract IFloorAuthority",
          "name": "authority",
          "type": "address"
        }
      ],
      "name": "AuthorityUpdated",
      "type": "event"
    },
    {
      "anonymous": false,
      "inputs": [
        {
          "indexed": false,
          "internalType": "uint256",
          "name": "index",
          "type": "uint256"
        },
        {
          "indexed": false,
          "internalType": "uint256",
          "name": "amount",
          "type": "uint256"
        },
        {
          "indexed": false,
          "internalType": "uint256",
          "name": "payout",
          "type": "uint256"
        },
        {
          "indexed": false,
          "internalType": "uint256",
          "name": "expires",
          "type": "uint256"
        }
      ],
      "name": "CreateBond",
      "type": "event"
    },
    {
      "anonymous": false,
      "inputs": [
        {
          "indexed": false,
          "internalType": "uint256",
          "name": "index",
          "type": "uint256"
        },
        {
          "indexed": false,
          "internalType": "uint256",
          "name": "price",
          "type": "uint256"
        },
        {
          "indexed": false,
          "internalType": "uint256",
          "name": "internalPrice",
          "type": "uint256"
        },
        {
          "indexed": false,
          "internalType": "uint256",
          "name": "debtRatio",
          "type": "uint256"
        }
      ],
      "name": "afterBond",
      "type": "event"
    },
    {
      "anonymous": false,
      "inputs": [
        {
          "indexed": false,
          "internalType": "uint256",
          "name": "index",
          "type": "uint256"
        },
        {
          "indexed": false,
          "internalType": "uint256",
          "name": "price",
          "type": "uint256"
        },
        {
          "indexed": false,
          "internalType": "uint256",
          "name": "internalPrice",
          "type": "uint256"
        },
        {
          "indexed": false,
          "internalType": "uint256",
          "name": "debtRatio",
          "type": "uint256"
        }
      ],
      "name": "beforeBond",
      "type": "event"
    },
    {
      "inputs": [
        {
          "internalType": "uint256",
          "name": "",
          "type": "uint256"
        }
      ],
      "name": "IDs",
      "outputs": [
        {
          "internalType": "address",
          "name": "",
          "type": "address"
        }
      ],
      "stateMutability": "view",
      "type": "function"
    },
    {
      "inputs": [
        {
          "internalType": "address",
          "name": "_principal",
          "type": "address"
        },
        {
          "internalType": "address",
          "name": "_calculator",
          "type": "address"
        },
        {
          "internalType": "uint256",
          "name": "_capacity",
          "type": "uint256"
        },
        {
          "internalType": "bool",
          "name": "_capacityIsPayout",
          "type": "bool"
        }
      ],
      "name": "addBond",
      "outputs": [
        {
          "internalType": "uint256",
          "name": "id_",
          "type": "uint256"
        }
      ],
      "stateMutability": "nonpayable",
      "type": "function"
    },
    {
      "inputs": [],
      "name": "authority",
      "outputs": [
        {
          "internalType": "contract IFloorAuthority",
          "name": "",
          "type": "address"
        }
      ],
      "stateMutability": "view",
      "type": "function"
    },
    {
      "inputs": [
        {
          "internalType": "uint256",
          "name": "_BID",
          "type": "uint256"
        }
      ],
      "name": "bondInfo",
      "outputs": [
        {
          "internalType": "address",
          "name": "principal_",
          "type": "address"
        },
        {
          "internalType": "address",
          "name": "calculator_",
          "type": "address"
        },
        {
          "internalType": "uint256",
          "name": "totalDebt_",
          "type": "uint256"
        },
        {
          "internalType": "uint256",
          "name": "lastBondCreatedAt_",
          "type": "uint256"
        }
      ],
      "stateMutability": "view",
      "type": "function"
    },
    {
      "inputs": [
        {
          "internalType": "uint256",
          "name": "_BID",
          "type": "uint256"
        }
      ],
      "name": "bondPrice",
      "outputs": [
        {
          "internalType": "uint256",
          "name": "price_",
          "type": "uint256"
        }
      ],
      "stateMutability": "view",
      "type": "function"
    },
    {
      "inputs": [
        {
          "internalType": "uint256",
          "name": "_BID",
          "type": "uint256"
        }
      ],
      "name": "bondPriceInUSD",
      "outputs": [
        {
          "internalType": "uint256",
          "name": "price_",
          "type": "uint256"
        }
      ],
      "stateMutability": "view",
      "type": "function"
    },
    {
      "inputs": [
        {
          "internalType": "uint256",
          "name": "_BID",
          "type": "uint256"
        }
      ],
      "name": "bondTerms",
      "outputs": [
        {
          "internalType": "uint256",
          "name": "controlVariable_",
          "type": "uint256"
        },
        {
          "internalType": "uint256",
          "name": "vestingTerm_",
          "type": "uint256"
        },
        {
          "internalType": "uint256",
          "name": "minimumPrice_",
          "type": "uint256"
        },
        {
          "internalType": "uint256",
          "name": "maxPayout_",
          "type": "uint256"
        },
        {
          "internalType": "uint256",
          "name": "maxDebt_",
          "type": "uint256"
        }
      ],
      "stateMutability": "view",
      "type": "function"
    },
    {
      "inputs": [
        {
          "internalType": "uint256",
          "name": "",
          "type": "uint256"
        }
      ],
      "name": "bonds",
      "outputs": [
        {
          "internalType": "contract IERC20",
          "name": "principal",
          "type": "address"
        },
        {
          "internalType": "contract IBondingCalculator",
          "name": "calculator",
          "type": "address"
        },
        {
          "components": [
            {
              "internalType": "uint256",
              "name": "controlVariable",
              "type": "uint256"
            },
            {
              "internalType": "bool",
              "name": "fixedTerm",
              "type": "bool"
            },
            {
              "internalType": "uint256",
              "name": "vestingTerm",
              "type": "uint256"
            },
            {
              "internalType": "uint256",
              "name": "expiration",
              "type": "uint256"
            },
            {
              "internalType": "uint256",
              "name": "conclusion",
              "type": "uint256"
            },
            {
              "internalType": "uint256",
              "name": "minimumPrice",
              "type": "uint256"
            },
            {
              "internalType": "uint256",
              "name": "maxPayout",
              "type": "uint256"
            },
            {
              "internalType": "uint256",
              "name": "maxDebt",
              "type": "uint256"
            }
          ],
          "internalType": "struct FloorBondDepository.Terms",
          "name": "terms",
          "type": "tuple"
        },
        {
          "internalType": "bool",
          "name": "termsSet",
          "type": "bool"
        },
        {
          "internalType": "uint256",
          "name": "capacity",
          "type": "uint256"
        },
        {
          "internalType": "bool",
          "name": "capacityIsPayout",
          "type": "bool"
        },
        {
          "internalType": "uint256",
          "name": "totalDebt",
          "type": "uint256"
        },
        {
          "internalType": "uint256",
          "name": "lastDecay",
          "type": "uint256"
        }
      ],
      "stateMutability": "view",
      "type": "function"
    },
    {
      "inputs": [
        {
          "internalType": "uint256",
          "name": "_BID",
          "type": "uint256"
        }
      ],
      "name": "currentDebt",
      "outputs": [
        {
          "internalType": "uint256",
          "name": "",
          "type": "uint256"
        }
      ],
      "stateMutability": "view",
      "type": "function"
    },
    {
      "inputs": [
        {
          "internalType": "uint256",
          "name": "_BID",
          "type": "uint256"
        }
      ],
      "name": "debtDecay",
      "outputs": [
        {
          "internalType": "uint256",
          "name": "decay_",
          "type": "uint256"
        }
      ],
      "stateMutability": "view",
      "type": "function"
    },
    {
      "inputs": [
        {
          "internalType": "uint256",
          "name": "_BID",
          "type": "uint256"
        }
      ],
      "name": "debtRatio",
      "outputs": [
        {
          "internalType": "uint256",
          "name": "debtRatio_",
          "type": "uint256"
        }
      ],
      "stateMutability": "view",
      "type": "function"
    },
    {
      "inputs": [
        {
          "internalType": "uint256",
          "name": "_amount",
          "type": "uint256"
        },
        {
          "internalType": "uint256",
          "name": "_maxPrice",
          "type": "uint256"
        },
        {
          "internalType": "address",
          "name": "_depositor",
          "type": "address"
        },
        {
          "internalType": "uint256",
          "name": "_BID",
          "type": "uint256"
        },
        {
          "internalType": "address",
          "name": "_feo",
          "type": "address"
        }
      ],
      "name": "deposit",
      "outputs": [
        {
          "internalType": "uint256",
          "name": "",
          "type": "uint256"
        },
        {
          "internalType": "uint256",
          "name": "",
          "type": "uint256"
        }
      ],
      "stateMutability": "nonpayable",
      "type": "function"
    },
    {
      "inputs": [
        {
          "internalType": "uint256",
          "name": "_id",
          "type": "uint256"
        }
      ],
      "name": "deprecateBond",
      "outputs": [],
      "stateMutability": "nonpayable",
      "type": "function"
    },
    {
      "inputs": [
        {
          "internalType": "uint256",
          "name": "_BID",
          "type": "uint256"
        }
      ],
      "name": "maxPayout",
      "outputs": [
        {
          "internalType": "uint256",
          "name": "",
          "type": "uint256"
        }
      ],
      "stateMutability": "view",
      "type": "function"
    },
    {
      "inputs": [
        {
          "internalType": "uint256",
          "name": "_value",
          "type": "uint256"
        },
        {
          "internalType": "uint256",
          "name": "_BID",
          "type": "uint256"
        }
      ],
      "name": "payoutFor",
      "outputs": [
        {
          "internalType": "uint256",
          "name": "",
          "type": "uint256"
        }
      ],
      "stateMutability": "view",
      "type": "function"
    },
    {
      "inputs": [
        {
          "internalType": "uint256",
          "name": "_amount",
          "type": "uint256"
        },
        {
          "internalType": "uint256",
          "name": "_BID",
          "type": "uint256"
        }
      ],
      "name": "payoutForAmount",
      "outputs": [
        {
          "internalType": "uint256",
          "name": "",
          "type": "uint256"
        }
      ],
      "stateMutability": "view",
      "type": "function"
    },
    {
      "inputs": [
        {
          "internalType": "contract IFloorAuthority",
          "name": "_newAuthority",
          "type": "address"
        }
      ],
      "name": "setAuthority",
      "outputs": [],
      "stateMutability": "nonpayable",
      "type": "function"
    },
    {
      "inputs": [
        {
          "internalType": "address",
          "name": "_teller",
          "type": "address"
        }
      ],
      "name": "setTeller",
      "outputs": [],
      "stateMutability": "nonpayable",
      "type": "function"
    },
    {
      "inputs": [
        {
          "internalType": "uint256",
          "name": "_id",
          "type": "uint256"
        },
        {
          "internalType": "uint256",
          "name": "_controlVariable",
          "type": "uint256"
        },
        {
          "internalType": "bool",
          "name": "_fixedTerm",
          "type": "bool"
        },
        {
          "internalType": "uint256",
          "name": "_vestingTerm",
          "type": "uint256"
        },
        {
          "internalType": "uint256",
          "name": "_expiration",
          "type": "uint256"
        },
        {
          "internalType": "uint256",
          "name": "_conclusion",
          "type": "uint256"
        },
        {
          "internalType": "uint256",
          "name": "_minimumPrice",
          "type": "uint256"
        },
        {
          "internalType": "uint256",
          "name": "_maxPayout",
          "type": "uint256"
        },
        {
          "internalType": "uint256",
          "name": "_maxDebt",
          "type": "uint256"
        },
        {
          "internalType": "uint256",
          "name": "_initialDebt",
          "type": "uint256"
        }
      ],
      "name": "setTerms",
      "outputs": [],
      "stateMutability": "nonpayable",
      "type": "function"
    },
    {
      "inputs": [
        {
          "internalType": "uint256",
          "name": "_BID",
          "type": "uint256"
        }
      ],
      "name": "standardizedDebtRatio",
      "outputs": [
        {
          "internalType": "uint256",
          "name": "",
          "type": "uint256"
        }
      ],
      "stateMutability": "view",
      "type": "function"
    },
    {
      "inputs": [],
      "name": "teller",
      "outputs": [
        {
          "internalType": "contract ITeller",
          "name": "",
          "type": "address"
        }
      ],
      "stateMutability": "view",
      "type": "function"
    }
  ],
  "bytecode": "0x610100604052600c60c08190526b15539055551213d49256915160a21b60e0908152620000309160009190620000fe565b503480156200003e57600080fd5b5060405162002cf138038062002cf18339810160408190526200006191620001c7565b600180546001600160a01b0319166001600160a01b0383169081179091556040518291907f2f658b440c35314f52658ea8a740e05b284cdc84dc9ae01e891f21b8933e7cad90600090a2506001600160a01b038316620000c057600080fd5b6001600160601b0319606084901b1660a0526001600160a01b038216620000e657600080fd5b5060601b6001600160601b0319166080525062000210565b828054600181600116156101000203166002900490600052602060002090601f01602090048101928262000136576000855562000181565b82601f106200015157805160ff191683800117855562000181565b8280016001018555821562000181579182015b828111156200018157825182559160200191906001019062000164565b506200018f92915062000193565b5090565b5b808211156200018f576000815560010162000194565b80516001600160a01b0381168114620001c257600080fd5b919050565b600080600060608486031215620001dc578283fd5b620001e784620001aa565b9250620001f760208501620001aa565b91506200020760408501620001aa565b90509250925092565b60805160601c60a05160601c612aa8620002496000395080610a965280610c07528061111552806115085280611b7c5250612aa86000f3fe608060405234801561001057600080fd5b50600436106101775760003560e01c80636a6c575d116100d8578063aab114641161008c578063bf7e214f11610066578063bf7e214f1461032f578063effc99cd14610337578063f1b7dc781461034a57610177565b8063aab11464146102e5578063abbf4b1714610309578063bcb296671461031c57610177565b8063805b5bc2116100bd578063805b5bc2146102ac578063856519b5146102bf578063a817712a146102d257610177565b80636a6c575d146102865780637a9e5e4b1461029957610177565b806333ff77221161012f57806357edab4e1161011457806357edab4e146102375780635f1c17c01461024c5780636551df2c1461027357610177565b806333ff77221461020f57806357e333ba1461022457610177565b8063172c44ec11610160578063172c44ec146101c8578063187dcb85146101db57806319a64215146101fc57610177565b80630170bbd91461017c57806310fc6172146101a5575b600080fd5b61018f61018a36600461253e565b61035d565b60405161019c91906129e7565b60405180910390f35b6101b86101b336600461258e565b6106d1565b60405161019c94939291906126e4565b61018f6101d636600461258e565b6107dd565b6101ee6101e93660046125df565b610854565b60405161019c9291906129f0565b61018f61020a36600461258e565b610d71565b61022261021d366004612522565b610fa9565b005b61018f61023236600461258e565b6110ed565b61023f6111aa565b60405161019c91906126d0565b61025f61025a36600461258e565b6111b9565b60405161019c98979695949392919061275e565b61022261028136600461258e565b611269565b61018f6102943660046125be565b611369565b6102226102a7366004612522565b611397565b61018f6102ba3660046125be565b6114da565b61018f6102cd36600461258e565b61159f565b6102226102e0366004612634565b611749565b6102f86102f336600461258e565b61191a565b60405161019c959493929190612a19565b61018f61031736600461258e565b6119b0565b61018f61032a36600461258e565b611af6565b61023f611b1c565b61023f61034536600461258e565b611b2b565b61018f61035836600461258e565b611b55565b600154604080517f452a932000000000000000000000000000000000000000000000000000000000815290516000926001600160a01b03169163452a9320916004808301926020929190829003018186803b1580156103bb57600080fd5b505afa1580156103cf573d6000803e3d6000fd5b505050506040513d60208110156103e557600080fd5b50516000906001600160a01b031633146104925760405162461bcd60e51b81526020600482019081528254600260001961010060018416150201909116046024830181905290918291604490910190849080156104835780601f1061045857610100808354040283529160200191610483565b820191906000526020600020905b81548152906001019060200180831161046657829003601f168201915b50509250505060405180910390fd5b5061049b61246c565b60405180610100016040528060008152602001600015158152602001600081526020016000815260200160008152602001600081526020016000815260200160008152509050604051806101000160405280876001600160a01b03168152602001866001600160a01b031681526020018281526020016000151581526020018581526020018415158152602001600081526020014381525060026000600380549050815260200190815260200160002060008201518160000160006101000a8154816001600160a01b0302191690836001600160a01b0316021790555060208201518160010160006101000a8154816001600160a01b0302191690836001600160a01b031602179055506040820151816002016000820151816000015560208201518160010160006101000a81548160ff02191690831515021790555060408201518160020155606082015181600301556080820151816004015560a0820151816005015560c0820151816006015560e082015181600701555050606082015181600a0160006101000a81548160ff021916908315150217905550608082015181600b015560a082015181600c0160006101000a81548160ff02191690831515021790555060c082015181600d015560e082015181600e015590505060038054905091506003869080600181540180825580915050600190039060005260206000200160009091909190916101000a8154816001600160a01b0302191690836001600160a01b0316021790555050949350505050565b6000806000806106df6124b3565b50505060009283525050600260208181526040928390208351610100808201865282546001600160a01b03908116835260018401541682850190815286519182018752948301548152600383015460ff90811615159482019490945260048301548187015260058301546060808301919091526006840154608080840191909152600785015460a080850191909152600886015460c080860191909152600987015460e08087019190915299860194909452600a8601548716151592850192909252600b85015490840152600c840154909416151593820193909352600d820154928101839052600e90910154938101849052519151919391929091565b600061081f62989680610819633b9aca006108136107fa87611b55565b6000888152600260208190526040909120015490611c0b565b90611c64565b90611cbe565b60008381526002602052604090206007015490915081101561084f57506000818152600260205260409020600701545b919050565b6000806001600160a01b0385166108865760405162461bcd60e51b815260040161087d90612809565b60405180910390fd5b61088e6124b3565b5060008481526002602081815260408084208151610100808201845282546001600160a01b0390811683526001840154168286015283519081018452828601548152600383015460ff90811615158287015260048401548286015260058401546060808401919091526006850154608080850191909152600786015460a080860191909152600887015460c080870191909152600988015460e08088019190915298870195909552600a870154841680151593870193909352600b87015491860191909152600c860154909216151591840191909152600d84015491830191909152600e909201549281019290925293889052919052906109a15760405162461bcd60e51b815260040161087d90612877565b80604001516080015143106109c85760405162461bcd60e51b815260040161087d906128ae565b7f8f0783a6c1cb2d85a903a2db160118a565dc172b5e4da3d75733b7b5995a0fa1856109f387610d71565b6109fc886107dd565b610a0589611b55565b604051610a1594939291906129fe565b60405180910390a1610a2685611d00565b806040015160e001518160c001511115610a525760405162461bcd60e51b815260040161087d90612840565b610a5b85611d44565b871015610a7a5760405162461bcd60e51b815260040161087d90612953565b805160405163f182178360e01b81526000916001600160a01b037f0000000000000000000000000000000000000000000000000000000000000000169163f182178391610acb918d90600401612745565b60206040518083038186803b158015610ae357600080fd5b505afa158015610af7573d6000803e3d6000fd5b505050506040513d601f19601f82011682018060405250810190610b1b91906125a6565b90506000610b298288611369565b90508260a0015115610b72578083608001511015610b595760405162461bcd60e51b815260040161087d906128ae565b6080830151610b689082611eac565b6080840152610bab565b8983608001511015610b965760405162461bcd60e51b815260040161087d906128ae565b6080830151610ba5908b611eac565b60808401525b62989680811015610bce5760405162461bcd60e51b815260040161087d9061291c565b610bd7876110ed565b811115610bf65760405162461bcd60e51b815260040161087d906129b0565b8251610c2c906001600160a01b03167f00000000000000000000000000000000000000000000000000000000000000008c611eee565b60c0830151610c3b9083611c64565b600088815260026020526040808220600d01929092558482015190910151610c639043611c64565b9050836040015160200151610c7d57506040830151606001515b6000600460009054906101000a90046001600160a01b03166001600160a01b031663f7e4ee108b87600001518f87878e6040518763ffffffff1660e01b8152600401610cce9695949392919061270d565b602060405180830381600087803b158015610ce857600080fd5b505af1158015610cfc573d6000803e3d6000fd5b505050506040513d601f19601f82011682018060405250810190610d2091906125a6565b90507f6671c52657539dfe32e25a5646170ce70ec6adfebf197a90845ab3ec1e42569c898d8585604051610d5794939291906129fe565b60405180910390a1919b919a509098505050505050505050565b6000610d7b6124b3565b506000828152600260208181526040928390208351610100808201865282546001600160a01b0390811683526001840154811683860190815287519283018852958401548252600384015460ff90811615159583019590955260048401548288015260058401546060808401919091526006850154608080850191909152600786015460a080860191909152600887015460c080870191909152600988015460e0808801919091529a870195909552600a8701548816151592860192909252600b86015490850152600c850154909516151594830194909452600d83015490820152600e909101549381019390935290511615610f1457610f0d606461081983602001516001600160a01b03166332da80a385600001516040518263ffffffff1660e01b8152600401610eae91906126d0565b60206040518083038186803b158015610ec657600080fd5b505afa158015610eda573d6000803e3d6000fd5b505050506040513d601f19601f82011682018060405250810190610efe91906125a6565b610f07876107dd565b90611c0b565b9150610fa3565b610fa0606461081983600001516001600160a01b031663313ce5676040518163ffffffff1660e01b815260040160206040518083038186803b158015610f5957600080fd5b505afa158015610f6d573d6000803e3d6000fd5b505050506040513d601f19601f82011682018060405250810190610f9191906126a9565b60ff16600a0a610f07876107dd565b91505b50919050565b600160009054906101000a90046001600160a01b03166001600160a01b0316630c340a246040518163ffffffff1660e01b815260040160206040518083038186803b158015610ff757600080fd5b505afa15801561100b573d6000803e3d6000fd5b505050506040513d602081101561102157600080fd5b50516000906001600160a01b031633146110945760405162461bcd60e51b81526020600482019081528254600260001961010060018416150201909116046024830181905290918291604490910190849080156104835780601f1061045857610100808354040283529160200191610483565b506004546001600160a01b0316156110ab57600080fd5b6001600160a01b0381166110be57600080fd5b6004805473ffffffffffffffffffffffffffffffffffffffff19166001600160a01b0392909216919091179055565b60006111a4620186a061081960026000868152602001908152602001600020600201600601547f00000000000000000000000000000000000000000000000000000000000000006001600160a01b031663860f50486040518163ffffffff1660e01b815260040160206040518083038186803b15801561116c57600080fd5b505afa158015611180573d6000803e3d6000fd5b505050506040513d601f19601f82011682018060405250810190610f0791906125a6565b92915050565b6004546001600160a01b031681565b60026020818152600092835260409283902080546001820154855161010081018752948301548552600383015460ff9081161515948601949094526004830154958501959095526005820154606085015260068201546080850152600782015460a0850152600882015460c0850152600982015460e0850152600a820154600b830154600c840154600d850154600e909501546001600160a01b0394851698909416969592831694919392169188565b600160009054906101000a90046001600160a01b03166001600160a01b031663452a93206040518163ffffffff1660e01b815260040160206040518083038186803b1580156112b757600080fd5b505afa1580156112cb573d6000803e3d6000fd5b505050506040513d60208110156112e157600080fd5b50516000906001600160a01b031633146113545760405162461bcd60e51b81526020600482019081528254600260001961010060018416150201909116046024830181905290918291604490910190849080156104835780601f1061045857610100808354040283529160200191610483565b506000908152600260205260408120600b0155565b6000611390662386f26fc1000061081961138b86611386876107dd565b612071565b6121f3565b9392505050565b600160009054906101000a90046001600160a01b03166001600160a01b0316630c340a246040518163ffffffff1660e01b815260040160206040518083038186803b1580156113e557600080fd5b505afa1580156113f9573d6000803e3d6000fd5b505050506040513d602081101561140f57600080fd5b50516000906001600160a01b031633146114825760405162461bcd60e51b81526020600482019081528254600260001961010060018416150201909116046024830181905290918291604490910190849080156104835780601f1061045857610100808354040283529160200191610483565b506001805473ffffffffffffffffffffffffffffffffffffffff19166001600160a01b0383169081179091556040517f2f658b440c35314f52658ea8a740e05b284cdc84dc9ae01e891f21b8933e7cad90600090a250565b60008181526002602052604080822054905163f182178360e01b81526001600160a01b0391821691611597917f00000000000000000000000000000000000000000000000000000000000000009091169063f1821783906115419085908990600401612745565b60206040518083038186803b15801561155957600080fd5b505afa15801561156d573d6000803e3d6000fd5b505050506040513d601f19601f8201168201806040525081019061159191906125a6565b84611369565b949350505050565b60006115a96124b3565b506000828152600260208181526040928390208351610100808201865282546001600160a01b0390811683526001840154811683860190815287519283018852958401548252600384015460ff90811615159583019590955260048401548288015260058401546060808401919091526006850154608080850191909152600786015460a080860191909152600887015460c080870191909152600988015460e0808801919091529a870195909552600a8701548816151592860192909252600b86015490850152600c850154909516151594830194909452600d83015490820152600e90910154938101939093529051161561174057611738633b9aca0061081983602001516001600160a01b03166332da80a385600001516040518263ffffffff1660e01b81526004016116df91906126d0565b60206040518083038186803b1580156116f757600080fd5b505afa15801561170b573d6000803e3d6000fd5b505050506040513d601f19601f8201168201806040525081019061172f91906125a6565b610f0787611b55565b91505061084f565b61173883611b55565b600160009054906101000a90046001600160a01b03166001600160a01b031663452a93206040518163ffffffff1660e01b815260040160206040518083038186803b15801561179757600080fd5b505afa1580156117ab573d6000803e3d6000fd5b505050506040513d60208110156117c157600080fd5b50516000906001600160a01b031633146118345760405162461bcd60e51b81526020600482019081528254600260001961010060018416150201909116046024830181905290918291604490910190849080156104835780601f1061045857610100808354040283529160200191610483565b5060008a8152600260205260409020600a015460ff16156118675760405162461bcd60e51b815260040161087d906128e5565b61186f61246c565b506040805161010081018252998a529715156020808b019182528a8a0198895260608b0197885260808b0196875260a08b0195865260c08b0194855260e08b0193845260009b8c5260029081905298909a20985197890197909755975160038801805491151560ff1992831617905594516004880155925160058701559051600686015551600785015551600884015592516009830155600d820155600a0180549091166001179055565b600080600080600061192a61246c565b505050600093845250506002602081815260409384902084516101008101865292810154808452600382015460ff1615159284019290925260048101549483018590526005810154606084015260068101546080840152600781015460a08401819052600882015460c0850181905260099092015460e090940184905291959193509190565b60006119ba6124b3565b5060008281526002602081815260408084208151610100808201845282546001600160a01b0390811683526001840154168286015283519081018452948201548552600382015460ff90811615159486019490945260048201548584015260058201546060808701919091526006830154608080880191909152600784015460a080890191909152600885015460c0808a0191909152600986015460e0808b019190915296850198909852600a8501548716151592840192909252600b84015490830152600c830154909416151593810193909352600d81015493830193909352600e909201549181018290529190611ab4904390611eac565b9050611ad9826040015160400151610819838560c00151611c0b90919063ffffffff16565b92508160c00151831115611aef578160c0015192505b5050919050565b60006111a4611b04836119b0565b6000848152600260205260409020600d015490611eac565b6001546001600160a01b031681565b60038181548110611b3b57600080fd5b6000918252602090912001546001600160a01b0316905081565b60006111a4670de0b6b3a764000061081961138b611b7a633b9aca00610f0788611af6565b7f00000000000000000000000000000000000000000000000000000000000000006001600160a01b031663860f50486040518163ffffffff1660e01b815260040160206040518083038186803b158015611bd357600080fd5b505afa158015611be7573d6000803e3d6000fd5b505050506040513d601f19601f8201168201806040525081019061138691906125a6565b600082611c1a575060006111a4565b82820282848281611c2757fe5b04146113905760405162461bcd60e51b8152600401808060200182810382526021815260200180612a7b6021913960400191505060405180910390fd5b600082820183811015611390576040805162461bcd60e51b815260206004820152601b60248201527f536166654d6174683a206164646974696f6e206f766572666c6f770000000000604482015290519081900360640190fd5b600061139083836040518060400160405280601a81526020017f536166654d6174683a206469766973696f6e206279207a65726f00000000000081525061220b565b611d24611d0c826119b0565b6000838152600260205260409020600d015490611eac565b600091825260026020526040909120600d81019190915543600e90910155565b6000611d4e6124b3565b506000828152600260208181526040928390208351610100808201865282546001600160a01b0390811683526001840154168285015285519081018652938201548452600382015460ff90811615159385019390935260048201548486015260058201546060808601919091526006830154608080870191909152600784015460a080880191909152600885015460c080890191909152600986015460e0808a019190915298850197909752600a8501548616151592840192909252600b84015490830152600c830154909316151592810192909252600d81015492820192909252600e9091015491810191909152611e6462989680610819633b9aca00610813611e5888611b55565b60408701515190611c0b565b9150806040015160a00151821015611e8657806040015160a001519150610fa3565b604081015160a0015115610fa35760008381526002602052604081206007015550919050565b600061139083836040518060400160405280601e81526020017f536166654d6174683a207375627472616374696f6e206f766572666c6f7700008152506122bc565b604080516001600160a01b038481166024830152604480830185905283518084039091018152606490920183526020820180516001600160e01b03167fa9059cbb00000000000000000000000000000000000000000000000000000000178152925182516000946060949389169392918291908083835b60208310611f845780518252601f199092019160209182019101611f65565b6001836020036101000a0380198251168184511680821785525050505050509050019150506000604051808303816000865af19150503d8060008114611fe6576040519150601f19603f3d011682016040523d82523d6000602084013e611feb565b606091505b5091509150818015612019575080511580612019575080806020019051602081101561201657600080fd5b50515b61206a576040805162461bcd60e51b815260206004820152600f60248201527f5452414e534645525f4641494c45440000000000000000000000000000000000604482015290519081900360640190fd5b5050505050565b612079612500565b600082116120b85760405162461bcd60e51b8152600401808060200182810382526026815260200180612a556026913960400191505060405180910390fd5b826120d257506040805160208101909152600081526111a4565b71ffffffffffffffffffffffffffffffffffff831161217957600082607085901b816120fa57fe5b0490506001600160e01b03811115612159576040805162461bcd60e51b815260206004820152601e60248201527f4669786564506f696e743a3a6672616374696f6e3a206f766572666c6f770000604482015290519081900360640190fd5b6040518060200160405280826001600160e01b03168152509150506111a4565b6000612195846e01000000000000000000000000000085612316565b90506001600160e01b03811115612159576040805162461bcd60e51b815260206004820152601e60248201527f4669786564506f696e743a3a6672616374696f6e3a206f766572666c6f770000604482015290519081900360640190fd5b516612725dd1d243ab6001600160e01b039091160490565b600081836122975760405162461bcd60e51b81526004018080602001828103825283818151815260200191508051906020019080838360005b8381101561225c578181015183820152602001612244565b50505050905090810190601f1680156122895780820380516001836020036101000a031916815260200191505b509250505060405180910390fd5b5060008385816122a357fe5b0490508385816122af57fe5b0681850201851461159757fe5b6000818484111561230e5760405162461bcd60e51b815260206004820181815283516024840152835190928392604490910191908501908083836000831561225c578181015183820152602001612244565b505050900390565b600080600061232586866123cf565b915091506000848061233357fe5b868809905082811115612347576001820391505b9182900391816123655784838161235a57fe5b049350505050611390565b8482106123b9576040805162461bcd60e51b815260206004820152601a60248201527f46756c6c4d6174683a2046554c4c4449565f4f564552464c4f57000000000000604482015290519081900360640190fd5b6123c48383876123fc565b979650505050505050565b60008080600019848609905083850292508281039150828110156123f4576001820391505b509250929050565b6000818103821680838161240c57fe5b04925080858161241857fe5b04945080816000038161242757fe5b60028581038087028203028087028203028087028203028087028203028087028203028087028203029586029003909402930460010193909302939093010292915050565b604051806101000160405280600081526020016000151581526020016000815260200160008152602001600081526020016000815260200160008152602001600081525090565b6040805161010081018252600080825260208201529081016124d361246c565b81526020016000151581526020016000815260200160001515815260200160008152602001600081525090565b60408051602081019091526000815290565b8035801515811461084f57600080fd5b600060208284031215612533578081fd5b813561139081612a3c565b60008060008060808587031215612553578283fd5b843561255e81612a3c565b9350602085013561256e81612a3c565b92506040850135915061258360608601612512565b905092959194509250565b60006020828403121561259f578081fd5b5035919050565b6000602082840312156125b7578081fd5b5051919050565b600080604083850312156125d0578182fd5b50508035926020909101359150565b600080600080600060a086880312156125f6578081fd5b8535945060208601359350604086013561260f81612a3c565b925060608601359150608086013561262681612a3c565b809150509295509295909350565b6000806000806000806000806000806101408b8d031215612653578485fd5b8a35995060208b0135985061266a60408c01612512565b999c989b5098996060810135995060808101359860a0820135985060c0820135975060e082013596506101008201359550610120909101359350915050565b6000602082840312156126ba578081fd5b815160ff81168114611390578182fd5b15159052565b6001600160a01b0391909116815260200190565b6001600160a01b0394851681529290931660208301526040820152606081019190915260800190565b6001600160a01b039687168152948616602086015260408501939093526060840191909152608083015290911660a082015260c00190565b6001600160a01b03929092168252602082015260400190565b60006101e0820190506001600160a01b03808b168352808a166020840152508751604083015260208801511515606083015260408801516080830152606088015160a0830152608088015160c083015260a088015160e083015260c088015161010083015260e08801516101208301526127dc6101408301886126ca565b856101608301526127f16101808301866126ca565b6101a08201939093526101c001529695505050505050565b6020808252600f908201527f496e76616c696420616464726573730000000000000000000000000000000000604082015260600190565b60208082526011908201527f4d61782064656274206578636565646564000000000000000000000000000000604082015260600190565b6020808252600f908201527f4e6f7420696e697469616c697a65640000000000000000000000000000000000604082015260600190565b6020808252600e908201527f426f6e6420636f6e636c75646564000000000000000000000000000000000000604082015260600190565b6020808252600b908201527f416c726561647920736574000000000000000000000000000000000000000000604082015260600190565b6020808252600e908201527f426f6e6420746f6f20736d616c6c000000000000000000000000000000000000604082015260600190565b60208082526023908201527f536c697070616765206c696d69743a206d6f7265207468616e206d617820707260408201527f6963650000000000000000000000000000000000000000000000000000000000606082015260800190565b6020808252600e908201527f426f6e6420746f6f206c61726765000000000000000000000000000000000000604082015260600190565b90815260200190565b918252602082015260400190565b93845260208401929092526040830152606082015260800190565b948552602085019390935260408401919091526060830152608082015260a00190565b6001600160a01b0381168114612a5157600080fd5b5056fe4669786564506f696e743a3a6672616374696f6e3a206469766973696f6e206279207a65726f536166654d6174683a206d756c7469706c69636174696f6e206f766572666c6f77a164736f6c6343000705000a",
  "linkReferences": {},
  "deployedLinkReferences": {}
}