{
  "_format": "hh-sol-artifact-1",
  "contractName": "FloorBondingCalculator",
  "sourceName": "contracts/StandardBondingCalculator.sol",
  "abi": [
    {
      "inputs": [
        {
          "internalType": "address",
          "name": "_FLOOR",
          "type": "address"
        }
      ],
      "stateMutability": "nonpayable",
      "type": "constructor"
    },
    {
      "inputs": [
        {
          "internalType": "address",
          "name": "_pair",
          "type": "address"
        }
      ],
      "name": "getKValue",
      "outputs": [
        {
          "internalType": "uint256",
          "name": "k_",
          "type": "uint256"
        }
      ],
      "stateMutability": "view",
      "type": "function"
    },
    {
      "inputs": [
        {
          "internalType": "address",
          "name": "_pair",
          "type": "address"
        }
      ],
      "name": "getTotalValue",
      "outputs": [
        {
          "internalType": "uint256",
          "name": "_value",
          "type": "uint256"
        }
      ],
      "stateMutability": "view",
      "type": "function"
    },
    {
      "inputs": [
        {
          "internalType": "address",
          "name": "_pair",
          "type": "address"
        }
      ],
      "name": "markdown",
      "outputs": [
        {
          "internalType": "uint256",
          "name": "",
          "type": "uint256"
        }
      ],
      "stateMutability": "view",
      "type": "function"
    },
    {
      "inputs": [
        {
          "internalType": "address",
          "name": "_pair",
          "type": "address"
        },
        {
          "internalType": "uint256",
          "name": "amount_",
          "type": "uint256"
        }
      ],
      "name": "valuation",
      "outputs": [
        {
          "internalType": "uint256",
          "name": "_value",
          "type": "uint256"
        }
      ],
      "stateMutability": "view",
      "type": "function"
    }
  ],
  "bytecode": "0x60a060405234801561001057600080fd5b50604051610e92380380610e928339818101604052602081101561003357600080fd5b50516001600160a01b038116610090576040805162461bcd60e51b815260206004820152601360248201527f5a65726f20616464726573733a20464c4f4f5200000000000000000000000000604482015290519081900360640190fd5b606081901b6001600160601b0319166080526001600160a01b0316610dc66100cc600039806101c2528061024e528061034a5250610dc66000f3fe608060405234801561001057600080fd5b506004361061004c5760003560e01c806332da80a3146100515780634249719f14610089578063490084ef146100b557806368637549146100db575b600080fd5b6100776004803603602081101561006757600080fd5b50356001600160a01b0316610101565b60408051918252519081900360200190f35b6100776004803603604081101561009f57600080fd5b506001600160a01b0381351690602001356103ee565b610077600480360360208110156100cb57600080fd5b50356001600160a01b0316610496565b610077600480360360208110156100f157600080fd5b50356001600160a01b031661079c565b6000806000836001600160a01b0316630902f1ac6040518163ffffffff1660e01b815260040160606040518083038186803b15801561013f57600080fd5b505afa158015610153573d6000803e3d6000fd5b505050506040513d606081101561016957600080fd5b508051602091820151604080517f0dfe168100000000000000000000000000000000000000000000000000000000815290516dffffffffffffffffffffffffffff93841696509290911693506000926001600160a01b037f000000000000000000000000000000000000000000000000000000000000000081169390891692630dfe1681926004808301939192829003018186803b15801561020a57600080fd5b505afa15801561021e573d6000803e3d6000fd5b505050506040513d602081101561023457600080fd5b50516001600160a01b0316141561024c575080610339565b7f00000000000000000000000000000000000000000000000000000000000000006001600160a01b0316856001600160a01b031663d21220a76040518163ffffffff1660e01b815260040160206040518083038186803b1580156102af57600080fd5b505afa1580156102c3573d6000803e3d6000fd5b505050506040513d60208110156102d957600080fd5b50516001600160a01b031614610336576040805162461bcd60e51b815260206004820152600c60248201527f496e76616c696420706169720000000000000000000000000000000000000000604482015290519081900360640190fd5b50815b6103e36103458661079c565b6103dd7f00000000000000000000000000000000000000000000000000000000000000006001600160a01b031663313ce5676040518163ffffffff1660e01b815260040160206040518083038186803b1580156103a157600080fd5b505afa1580156103b5573d6000803e3d6000fd5b505050506040513d60208110156103cb57600080fd5b5051849060ff16600a0a6002026107c0565b90610820565b93505050505b919050565b6000806103fa8461079c565b90506000846001600160a01b03166318160ddd6040518163ffffffff1660e01b815260040160206040518083038186803b15801561043757600080fd5b505afa15801561044b573d6000803e3d6000fd5b505050506040513d602081101561046157600080fd5b5051905061048d670de0b6b3a76400006103dd6104866104818886610862565b6109e4565b85906107c0565b95945050505050565b600080826001600160a01b0316630dfe16816040518163ffffffff1660e01b815260040160206040518083038186803b1580156104d257600080fd5b505afa1580156104e6573d6000803e3d6000fd5b505050506040513d60208110156104fc57600080fd5b50516040805163313ce56760e01b815290516001600160a01b039092169163313ce56791600480820192602092909190829003018186803b15801561054057600080fd5b505afa158015610554573d6000803e3d6000fd5b505050506040513d602081101561056a57600080fd5b5051604080517fd21220a7000000000000000000000000000000000000000000000000000000008152905160ff90921692506000916001600160a01b0386169163d21220a7916004808301926020929190829003018186803b1580156105cf57600080fd5b505afa1580156105e3573d6000803e3d6000fd5b505050506040513d60208110156105f957600080fd5b50516040805163313ce56760e01b815290516001600160a01b039092169163313ce56791600480820192602092909190829003018186803b15801561063d57600080fd5b505afa158015610651573d6000803e3d6000fd5b505050506040513d602081101561066757600080fd5b50516040805163313ce56760e01b8152905160ff90921692506000916106f7916001600160a01b0388169163313ce56791600480820192602092909190829003018186803b1580156106b857600080fd5b505afa1580156106cc573d6000803e3d6000fd5b505050506040513d60208110156106e257600080fd5b505160ff166106f185856109fc565b90610a56565b9050600080866001600160a01b0316630902f1ac6040518163ffffffff1660e01b815260040160606040518083038186803b15801561073557600080fd5b505afa158015610749573d6000803e3d6000fd5b505050506040513d606081101561075f57600080fd5b5080516020909101516dffffffffffffffffffffffffffff9182169350169050610791600a84900a6103dd84846107c0565b979650505050505050565b60006107ba60026107b46107af85610496565b610a98565b906107c0565b92915050565b6000826107cf575060006107ba565b828202828482816107dc57fe5b04146108195760405162461bcd60e51b8152600401808060200182810382526021815260200180610d996021913960400191505060405180910390fd5b9392505050565b600061081983836040518060400160405280601a81526020017f536166654d6174683a206469766973696f6e206279207a65726f000000000000815250610b02565b61086a610d60565b600082116108a95760405162461bcd60e51b8152600401808060200182810382526026815260200180610d736026913960400191505060405180910390fd5b826108c357506040805160208101909152600081526107ba565b71ffffffffffffffffffffffffffffffffffff831161096a57600082607085901b816108eb57fe5b0490506001600160e01b0381111561094a576040805162461bcd60e51b815260206004820152601e60248201527f4669786564506f696e743a3a6672616374696f6e3a206f766572666c6f770000604482015290519081900360640190fd5b6040518060200160405280826001600160e01b03168152509150506107ba565b6000610986846e01000000000000000000000000000085610bbb565b90506001600160e01b0381111561094a576040805162461bcd60e51b815260206004820152601e60248201527f4669786564506f696e743a3a6672616374696f6e3a206f766572666c6f770000604482015290519081900360640190fd5b516612725dd1d243ab6001600160e01b039091160490565b600082820183811015610819576040805162461bcd60e51b815260206004820152601b60248201527f536166654d6174683a206164646974696f6e206f766572666c6f770000000000604482015290519081900360640190fd5b600061081983836040518060400160405280601e81526020017f536166654d6174683a207375627472616374696f6e206f766572666c6f770000815250610c69565b60006003821115610af45750806000610abc610ab5836002610820565b60016109fc565b90505b81811015610aee57809150610ae7610ae0610ada8584610820565b836109fc565b6002610820565b9050610abf565b506103e9565b81156103e957506001919050565b60008183610b8e5760405162461bcd60e51b81526004018080602001828103825283818151815260200191508051906020019080838360005b83811015610b53578181015183820152602001610b3b565b50505050905090810190601f168015610b805780820380516001836020036101000a031916815260200191505b509250505060405180910390fd5b506000838581610b9a57fe5b049050838581610ba657fe5b06818502018514610bb357fe5b949350505050565b6000806000610bca8686610cc3565b9150915060008480610bd857fe5b868809905082811115610bec576001820391505b918290039181610c0a57848381610bff57fe5b049350505050610819565b848210610c5e576040805162461bcd60e51b815260206004820152601a60248201527f46756c6c4d6174683a2046554c4c4449565f4f564552464c4f57000000000000604482015290519081900360640190fd5b610791838387610cf0565b60008184841115610cbb5760405162461bcd60e51b8152602060048201818152835160248401528351909283926044909101919085019080838360008315610b53578181015183820152602001610b3b565b505050900390565b6000808060001984860990508385029250828103915082811015610ce8576001820391505b509250929050565b60008181038216808381610d0057fe5b049250808581610d0c57fe5b049450808160000381610d1b57fe5b60028581038087028203028087028203028087028203028087028203028087028203028087028203029586029003909402930460010193909302939093010292915050565b6040805160208101909152600081529056fe4669786564506f696e743a3a6672616374696f6e3a206469766973696f6e206279207a65726f536166654d6174683a206d756c7469706c69636174696f6e206f766572666c6f77a164736f6c6343000705000a",
  "linkReferences": {},
  "deployedLinkReferences": {}
}