{
  "_format": "hh-sol-artifact-1",
  "contractName": "gFLOOR",
  "sourceName": "contracts/governance/gFLOOR.sol",
  "abi": [
    {
      "inputs": [
        {
          "internalType": "address",
          "name": "_migrator",
          "type": "address"
        },
        {
          "internalType": "address",
          "name": "_sFLOOR",
          "type": "address"
        }
      ],
      "stateMutability": "nonpayable",
      "type": "constructor"
    },
    {
      "anonymous": false,
      "inputs": [
        {
          "indexed": true,
          "internalType": "address",
          "name": "owner",
          "type": "address"
        },
        {
          "indexed": true,
          "internalType": "address",
          "name": "spender",
          "type": "address"
        },
        {
          "indexed": false,
          "internalType": "uint256",
          "name": "value",
          "type": "uint256"
        }
      ],
      "name": "Approval",
      "type": "event"
    },
    {
      "anonymous": false,
      "inputs": [
        {
          "indexed": true,
          "internalType": "address",
          "name": "delegator",
          "type": "address"
        },
        {
          "indexed": true,
          "internalType": "address",
          "name": "fromDelegate",
          "type": "address"
        },
        {
          "indexed": true,
          "internalType": "address",
          "name": "toDelegate",
          "type": "address"
        }
      ],
      "name": "DelegateChanged",
      "type": "event"
    },
    {
      "anonymous": false,
      "inputs": [
        {
          "indexed": true,
          "internalType": "address",
          "name": "delegate",
          "type": "address"
        },
        {
          "indexed": false,
          "internalType": "uint256",
          "name": "previousBalance",
          "type": "uint256"
        },
        {
          "indexed": false,
          "internalType": "uint256",
          "name": "newBalance",
          "type": "uint256"
        }
      ],
      "name": "DelegateVotesChanged",
      "type": "event"
    },
    {
      "anonymous": false,
      "inputs": [
        {
          "indexed": true,
          "internalType": "address",
          "name": "from",
          "type": "address"
        },
        {
          "indexed": true,
          "internalType": "address",
          "name": "to",
          "type": "address"
        },
        {
          "indexed": false,
          "internalType": "uint256",
          "name": "value",
          "type": "uint256"
        }
      ],
      "name": "Transfer",
      "type": "event"
    },
    {
      "inputs": [
        {
          "internalType": "address",
          "name": "owner",
          "type": "address"
        },
        {
          "internalType": "address",
          "name": "spender",
          "type": "address"
        }
      ],
      "name": "allowance",
      "outputs": [
        {
          "internalType": "uint256",
          "name": "",
          "type": "uint256"
        }
      ],
      "stateMutability": "view",
      "type": "function"
    },
    {
      "inputs": [
        {
          "internalType": "address",
          "name": "spender",
          "type": "address"
        },
        {
          "internalType": "uint256",
          "name": "amount",
          "type": "uint256"
        }
      ],
      "name": "approve",
      "outputs": [
        {
          "internalType": "bool",
          "name": "",
          "type": "bool"
        }
      ],
      "stateMutability": "nonpayable",
      "type": "function"
    },
    {
      "inputs": [],
      "name": "approved",
      "outputs": [
        {
          "internalType": "address",
          "name": "",
          "type": "address"
        }
      ],
      "stateMutability": "view",
      "type": "function"
    },
    {
      "inputs": [
        {
          "internalType": "uint256",
          "name": "_amount",
          "type": "uint256"
        }
      ],
      "name": "balanceFrom",
      "outputs": [
        {
          "internalType": "uint256",
          "name": "",
          "type": "uint256"
        }
      ],
      "stateMutability": "view",
      "type": "function"
    },
    {
      "inputs": [
        {
          "internalType": "address",
          "name": "account",
          "type": "address"
        }
      ],
      "name": "balanceOf",
      "outputs": [
        {
          "internalType": "uint256",
          "name": "",
          "type": "uint256"
        }
      ],
      "stateMutability": "view",
      "type": "function"
    },
    {
      "inputs": [
        {
          "internalType": "uint256",
          "name": "_amount",
          "type": "uint256"
        }
      ],
      "name": "balanceTo",
      "outputs": [
        {
          "internalType": "uint256",
          "name": "",
          "type": "uint256"
        }
      ],
      "stateMutability": "view",
      "type": "function"
    },
    {
      "inputs": [
        {
          "internalType": "address",
          "name": "_from",
          "type": "address"
        },
        {
          "internalType": "uint256",
          "name": "_amount",
          "type": "uint256"
        }
      ],
      "name": "burn",
      "outputs": [],
      "stateMutability": "nonpayable",
      "type": "function"
    },
    {
      "inputs": [
        {
          "internalType": "address",
          "name": "",
          "type": "address"
        },
        {
          "internalType": "uint256",
          "name": "",
          "type": "uint256"
        }
      ],
      "name": "checkpoints",
      "outputs": [
        {
          "internalType": "uint256",
          "name": "fromBlock",
          "type": "uint256"
        },
        {
          "internalType": "uint256",
          "name": "votes",
          "type": "uint256"
        }
      ],
      "stateMutability": "view",
      "type": "function"
    },
    {
      "inputs": [],
      "name": "decimals",
      "outputs": [
        {
          "internalType": "uint8",
          "name": "",
          "type": "uint8"
        }
      ],
      "stateMutability": "view",
      "type": "function"
    },
    {
      "inputs": [
        {
          "internalType": "address",
          "name": "spender",
          "type": "address"
        },
        {
          "internalType": "uint256",
          "name": "subtractedValue",
          "type": "uint256"
        }
      ],
      "name": "decreaseAllowance",
      "outputs": [
        {
          "internalType": "bool",
          "name": "",
          "type": "bool"
        }
      ],
      "stateMutability": "nonpayable",
      "type": "function"
    },
    {
      "inputs": [
        {
          "internalType": "address",
          "name": "delegatee",
          "type": "address"
        }
      ],
      "name": "delegate",
      "outputs": [],
      "stateMutability": "nonpayable",
      "type": "function"
    },
    {
      "inputs": [
        {
          "internalType": "address",
          "name": "",
          "type": "address"
        }
      ],
      "name": "delegates",
      "outputs": [
        {
          "internalType": "address",
          "name": "",
          "type": "address"
        }
      ],
      "stateMutability": "view",
      "type": "function"
    },
    {
      "inputs": [
        {
          "internalType": "address",
          "name": "account",
          "type": "address"
        }
      ],
      "name": "getCurrentVotes",
      "outputs": [
        {
          "internalType": "uint256",
          "name": "",
          "type": "uint256"
        }
      ],
      "stateMutability": "view",
      "type": "function"
    },
    {
      "inputs": [
        {
          "internalType": "address",
          "name": "account",
          "type": "address"
        },
        {
          "internalType": "uint256",
          "name": "blockNumber",
          "type": "uint256"
        }
      ],
      "name": "getPriorVotes",
      "outputs": [
        {
          "internalType": "uint256",
          "name": "",
          "type": "uint256"
        }
      ],
      "stateMutability": "view",
      "type": "function"
    },
    {
      "inputs": [
        {
          "internalType": "address",
          "name": "spender",
          "type": "address"
        },
        {
          "internalType": "uint256",
          "name": "addedValue",
          "type": "uint256"
        }
      ],
      "name": "increaseAllowance",
      "outputs": [
        {
          "internalType": "bool",
          "name": "",
          "type": "bool"
        }
      ],
      "stateMutability": "nonpayable",
      "type": "function"
    },
    {
      "inputs": [],
      "name": "index",
      "outputs": [
        {
          "internalType": "uint256",
          "name": "",
          "type": "uint256"
        }
      ],
      "stateMutability": "view",
      "type": "function"
    },
    {
      "inputs": [
        {
          "internalType": "address",
          "name": "_to",
          "type": "address"
        },
        {
          "internalType": "uint256",
          "name": "_amount",
          "type": "uint256"
        }
      ],
      "name": "mint",
      "outputs": [],
      "stateMutability": "nonpayable",
      "type": "function"
    },
    {
      "inputs": [],
      "name": "name",
      "outputs": [
        {
          "internalType": "string",
          "name": "",
          "type": "string"
        }
      ],
      "stateMutability": "view",
      "type": "function"
    },
    {
      "inputs": [
        {
          "internalType": "address",
          "name": "",
          "type": "address"
        }
      ],
      "name": "numCheckpoints",
      "outputs": [
        {
          "internalType": "uint256",
          "name": "",
          "type": "uint256"
        }
      ],
      "stateMutability": "view",
      "type": "function"
    },
    {
      "inputs": [],
      "name": "sFLOOR",
      "outputs": [
        {
          "internalType": "contract IsFLOOR",
          "name": "",
          "type": "address"
        }
      ],
      "stateMutability": "view",
      "type": "function"
    },
    {
      "inputs": [],
      "name": "symbol",
      "outputs": [
        {
          "internalType": "string",
          "name": "",
          "type": "string"
        }
      ],
      "stateMutability": "view",
      "type": "function"
    },
    {
      "inputs": [],
      "name": "totalSupply",
      "outputs": [
        {
          "internalType": "uint256",
          "name": "",
          "type": "uint256"
        }
      ],
      "stateMutability": "view",
      "type": "function"
    },
    {
      "inputs": [
        {
          "internalType": "address",
          "name": "recipient",
          "type": "address"
        },
        {
          "internalType": "uint256",
          "name": "amount",
          "type": "uint256"
        }
      ],
      "name": "transfer",
      "outputs": [
        {
          "internalType": "bool",
          "name": "",
          "type": "bool"
        }
      ],
      "stateMutability": "nonpayable",
      "type": "function"
    },
    {
      "inputs": [
        {
          "internalType": "address",
          "name": "sender",
          "type": "address"
        },
        {
          "internalType": "address",
          "name": "recipient",
          "type": "address"
        },
        {
          "internalType": "uint256",
          "name": "amount",
          "type": "uint256"
        }
      ],
      "name": "transferFrom",
      "outputs": [
        {
          "internalType": "bool",
          "name": "",
          "type": "bool"
        }
      ],
      "stateMutability": "nonpayable",
      "type": "function"
    }
  ],
  "bytecode": "0x60a06040523480156200001157600080fd5b5060405162001c8838038062001c88833981810160405260408110156200003757600080fd5b508051602091820151604080518082018252601081526f23b7bb32b93730b731b290232627a7a960811b8186019081528251808401909352600683526533a32627a7a960d11b9583019590955280519394929390926012916200009d91600391620001d5565b508151620000b3906004906020850190620001d5565b5060f81b7fff000000000000000000000000000000000000000000000000000000000000001660805250506001600160a01b0382166200013a576040805162461bcd60e51b815260206004820152601660248201527f5a65726f20616464726573733a204d69677261746f7200000000000000000000604482015290519081900360640190fd5b600680546001600160a01b0319166001600160a01b03848116919091179091558116620001ae576040805162461bcd60e51b815260206004820152601460248201527f5a65726f20616464726573733a2073464c4f4f52000000000000000000000000604482015290519081900360640190fd5b600580546001600160a01b0319166001600160a01b03929092169190911790555062000281565b828054600181600116156101000203166002900490600052602060002090601f0160209004810192826200020d576000855562000258565b82601f106200022857805160ff191683800117855562000258565b8280016001018555821562000258579182015b82811115620002585782518255916020019190600101906200023b565b50620002669291506200026a565b5090565b5b808211156200026657600081556001016200026b565b60805160f81c6119e96200029f600039806109fe52506119e96000f3fe608060405234801561001057600080fd5b50600436106101ae5760003560e01c80635c19a95c116100ee5780639dc29fac11610097578063a9059cbb11610071578063a9059cbb1461053d578063b4b5ea5714610569578063dd62ed3e1461058f578063f36080f1146105bd576101ae565b80639dc29fac146104c8578063a457c2d7146104f4578063a824876814610520576101ae565b806370a08231116100c857806370a082311461046e578063782d6fe11461049457806395d89b41146104c0576101ae565b80635c19a95c1461040557806366a5236c1461042b5780636fcfff4514610448576101ae565b806323b872dd1161015b578063313ce56711610135578063313ce56714610369578063395093511461038757806340c10f19146103b3578063587cde1e146103df576101ae565b806323b872dd146103235780632986c0e5146103595780632c678c6414610361576101ae565b80631068361f1161018c5780631068361f146102b557806318160ddd146102e557806319d40b08146102ff576101ae565b806306fdde03146101b3578063095ea7b3146102305780630cdfebfa14610270575b600080fd5b6101bb6105c5565b6040805160208082528351818301528351919283929083019185019080838360005b838110156101f55781810151838201526020016101dd565b50505050905090810190601f1680156102225780820380516001836020036101000a031916815260200191505b509250505060405180910390f35b61025c6004803603604081101561024657600080fd5b506001600160a01b03813516906020013561065b565b604080519115158252519081900360200190f35b61029c6004803603604081101561028657600080fd5b506001600160a01b038135169060200135610672565b6040805192835260208301919091528051918290030190f35b6102e3600480360360408110156102cb57600080fd5b506001600160a01b0381358116916020013516610696565b005b6102ed6108df565b60408051918252519081900360200190f35b6103076108e5565b604080516001600160a01b039092168252519081900360200190f35b61025c6004803603606081101561033957600080fd5b506001600160a01b038135811691602081013590911690604001356108f4565b6102ed61095d565b61025c6109ec565b6103716109fc565b6040805160ff9092168252519081900360200190f35b61025c6004803603604081101561039d57600080fd5b506001600160a01b038135169060200135610a20565b6102e3600480360360408110156103c957600080fd5b506001600160a01b038135169060200135610a56565b610307600480360360208110156103f557600080fd5b50356001600160a01b0316610ab3565b6102e36004803603602081101561041b57600080fd5b50356001600160a01b0316610ace565b6102ed6004803603602081101561044157600080fd5b5035610adb565b6102ed6004803603602081101561045e57600080fd5b50356001600160a01b0316610b06565b6102ed6004803603602081101561048457600080fd5b50356001600160a01b0316610b18565b6102ed600480360360408110156104aa57600080fd5b506001600160a01b038135169060200135610b33565b6101bb610cf5565b6102e3600480360360408110156104de57600080fd5b506001600160a01b038135169060200135610d56565b61025c6004803603604081101561050a57600080fd5b506001600160a01b038135169060200135610daf565b6102ed6004803603602081101561053657600080fd5b5035610dfe565b61025c6004803603604081101561055357600080fd5b506001600160a01b038135169060200135610e23565b6102ed6004803603602081101561057f57600080fd5b50356001600160a01b0316610e30565b6102ed600480360360408110156105a557600080fd5b506001600160a01b0381358116916020013516610e88565b610307610eb3565b60038054604080516020601f60026000196101006001881615020190951694909404938401819004810282018101909252828152606093909290918301828280156106515780601f1061062657610100808354040283529160200191610651565b820191906000526020600020905b81548152906001019060200180831161063457829003601f168201915b5050505050905090565b6000610668338484610ec2565b5060015b92915050565b60076020908152600092835260408084209091529082529020805460019091015482565b6006546001600160a01b031633146106e5576040805162461bcd60e51b815260206004820152600d60248201526c13db9b1e48185c1c1c9bdd9959609a1b604482015290519081900360640190fd5b600654600160a01b900460ff1615610744576040805162461bcd60e51b815260206004820152600860248201527f4d69677261746564000000000000000000000000000000000000000000000000604482015290519081900360640190fd5b600680547fffffffffffffffffffffff00ffffffffffffffffffffffffffffffffffffffff16600160a01b17908190556001600160a01b03838116911614156107d4576040805162461bcd60e51b815260206004820152601060248201527f496e76616c696420617267756d656e7400000000000000000000000000000000604482015290519081900360640190fd5b6001600160a01b03821661082f576040805162461bcd60e51b815260206004820152601260248201527f5a65726f206164647265737320666f756e640000000000000000000000000000604482015290519081900360640190fd5b6006805473ffffffffffffffffffffffffffffffffffffffff19166001600160a01b038481169190911790915581166108af576040805162461bcd60e51b815260206004820152601260248201527f5a65726f206164647265737320666f756e640000000000000000000000000000604482015290519081900360640190fd5b6005805473ffffffffffffffffffffffffffffffffffffffff19166001600160a01b039290921691909117905550565b60025490565b6006546001600160a01b031681565b6000610901848484610fae565b610953843361094e856040518060600160405280602881526020016118fd602891396001600160a01b038a1660009081526001602090815260408083203384529091529020549190611109565b610ec2565b5060019392505050565b600554604080517f2986c0e500000000000000000000000000000000000000000000000000000000815290516000926001600160a01b031691632986c0e5916004808301926020929190829003018186803b1580156109bb57600080fd5b505afa1580156109cf573d6000803e3d6000fd5b505050506040513d60208110156109e557600080fd5b5051905090565b600654600160a01b900460ff1681565b7f000000000000000000000000000000000000000000000000000000000000000090565b3360008181526001602090815260408083206001600160a01b0387168452909152812054909161066891859061094e90866111a0565b6006546001600160a01b03163314610aa5576040805162461bcd60e51b815260206004820152600d60248201526c13db9b1e48185c1c1c9bdd9959609a1b604482015290519081900360640190fd5b610aaf82826111fa565b5050565b6009602052600090815260409020546001600160a01b031681565b610ad833826112ea565b50565b600061066c610ae861095d565b610b00610af36109fc565b859060ff16600a0a611376565b906113cf565b60086020526000908152604090205481565b6001600160a01b031660009081526020819052604090205490565b6000438210610b735760405162461bcd60e51b815260040180806020018281038252602981526020018061198f6029913960400191505060405180910390fd5b6001600160a01b03831660009081526008602052604090205480610b9b57600091505061066c565b6001600160a01b0384166000908152600760209081526040808320600019850184529091529020548310610bfb576001600160a01b038416600090815260076020908152604080832060001990940183529290522060010154905061066c565b6001600160a01b0384166000908152600760209081526040808320838052909152902054831015610c3057600091505061066c565b600060001982015b81811115610cc5576002828203048103610c50611834565b506001600160a01b03871660009081526007602090815260408083208484528252918290208251808401909352805480845260019091015491830191909152871415610ca65760200151945061066c9350505050565b8051871115610cb757819350610cbe565b6001820392505b5050610c38565b506001600160a01b0385166000908152600760209081526040808320938352929052206001015491505092915050565b60048054604080516020601f60026000196101006001881615020190951694909404938401819004810282018101909252828152606093909290918301828280156106515780601f1061062657610100808354040283529160200191610651565b6006546001600160a01b03163314610da5576040805162461bcd60e51b815260206004820152600d60248201526c13db9b1e48185c1c1c9bdd9959609a1b604482015290519081900360640190fd5b610aaf8282611411565b6000610668338461094e856040518060600160405280602581526020016119b8602591393360009081526001602090815260408083206001600160a01b038d1684529091529020549190611109565b600061066c610e0b6109fc565b60ff16600a0a610b00610e1c61095d565b8590611376565b6000610668338484610fae565b6001600160a01b03811660009081526008602052604081205480610e55576000610e81565b6001600160a01b0383166000908152600760209081526040808320600019850184529091529020600101545b9392505050565b6001600160a01b03918216600090815260016020908152604080832093909416825291909152205490565b6005546001600160a01b031681565b6001600160a01b038316610f075760405162461bcd60e51b815260040180806020018281038252602481526020018061196b6024913960400191505060405180910390fd5b6001600160a01b038216610f4c5760405162461bcd60e51b81526004018080602001828103825260228152602001806118946022913960400191505060405180910390fd5b6001600160a01b03808416600081815260016020908152604080832094871680845294825291829020859055815185815291517f8c5be1e5ebec7d5bd14f71427d1e84f3dd0314c0f7b2291e5b200ac8c7c3b9259281900390910190a3505050565b6001600160a01b038316610ff35760405162461bcd60e51b81526004018080602001828103825260258152602001806119466025913960400191505060405180910390fd5b6001600160a01b0382166110385760405162461bcd60e51b815260040180806020018281038252602381526020018061184f6023913960400191505060405180910390fd5b61104383838361150d565b611080816040518060600160405280602681526020016118b6602691396001600160a01b0386166000908152602081905260409020549190611109565b6001600160a01b0380851660009081526020819052604080822093909355908416815220546110af90826111a0565b6001600160a01b038084166000818152602081815260409182902094909455805185815290519193928716927fddf252ad1be2c89b69c2b068fc378daa952ba7f163c4a11628f55a4df523b3ef92918290030190a3505050565b600081848411156111985760405162461bcd60e51b81526004018080602001828103825283818151815260200191508051906020019080838360005b8381101561115d578181015183820152602001611145565b50505050905090810190601f16801561118a5780820380516001836020036101000a031916815260200191505b509250505060405180910390fd5b505050900390565b600082820183811015610e81576040805162461bcd60e51b815260206004820152601b60248201527f536166654d6174683a206164646974696f6e206f766572666c6f770000000000604482015290519081900360640190fd5b6001600160a01b038216611255576040805162461bcd60e51b815260206004820152601f60248201527f45524332303a206d696e7420746f20746865207a65726f206164647265737300604482015290519081900360640190fd5b6112616000838361150d565b60025461126e90826111a0565b6002556001600160a01b03821660009081526020819052604090205461129490826111a0565b6001600160a01b0383166000818152602081815260408083209490945583518581529351929391927fddf252ad1be2c89b69c2b068fc378daa952ba7f163c4a11628f55a4df523b3ef9281900390910190a35050565b6001600160a01b0380831660008181526009602081815260408084208054858452828620549490935287871673ffffffffffffffffffffffffffffffffffffffff198416811790915590519190951694919391928592917f3134e8a2e6d97e929a7e54011ea5485d7d196dd5f0ba4d4ef95803e8e3fc257f9190a4611370828483611544565b50505050565b6000826113855750600061066c565b8282028284828161139257fe5b0414610e815760405162461bcd60e51b81526004018080602001828103825260218152602001806118dc6021913960400191505060405180910390fd5b6000610e8183836040518060400160405280601a81526020017f536166654d6174683a206469766973696f6e206279207a65726f000000000000815250611671565b6001600160a01b0382166114565760405162461bcd60e51b81526004018080602001828103825260218152602001806119256021913960400191505060405180910390fd5b6114628260008361150d565b61149f81604051806060016040528060228152602001611872602291396001600160a01b0385166000908152602081905260409020549190611109565b6001600160a01b0383166000908152602081905260409020556002546114c590826116ed565b6002556040805182815290516000916001600160a01b038516917fddf252ad1be2c89b69c2b068fc378daa952ba7f163c4a11628f55a4df523b3ef9181900360200190a35050565b6001600160a01b0380841660009081526009602052604080822054858416835291205461153f92918216911683611544565b505050565b816001600160a01b0316836001600160a01b0316141580156115665750600081115b1561153f576001600160a01b038316156115ec576001600160a01b03831660009081526008602052604081205490816115a05760006115cc565b6001600160a01b0385166000908152600760209081526040808320600019860184529091529020600101545b905060006115da82856116ed565b90506115e88684848461172f565b5050505b6001600160a01b0382161561153f576001600160a01b038216600090815260086020526040812054908161162157600061164d565b6001600160a01b0384166000908152600760209081526040808320600019860184529091529020600101545b9050600061165b82856111a0565b90506116698584848461172f565b505050505050565b600081836116c05760405162461bcd60e51b815260206004820181815283516024840152835190928392604490910191908501908083836000831561115d578181015183820152602001611145565b5060008385816116cc57fe5b0490508385816116d857fe5b068185020185146116e557fe5b949350505050565b6000610e8183836040518060400160405280601e81526020017f536166654d6174683a207375627472616374696f6e206f766572666c6f770000815250611109565b60008311801561176557506001600160a01b03841660009081526007602090815260408083206000198701845290915290205443145b1561179c576001600160a01b03841660009081526007602090815260408083206000198701845290915290206001018190556117eb565b60408051808201825243815260208082018481526001600160a01b0388166000818152600784528581208982528452858120945185559151600194850155815260089091529190912090840190555b604080518381526020810183905281516001600160a01b038716927fdec2bacdd2f05b59de34da9b523dff8be42e5e38e818c82fdb0bae774387a724928290030190a250505050565b60405180604001604052806000815260200160008152509056fe45524332303a207472616e7366657220746f20746865207a65726f206164647265737345524332303a206275726e20616d6f756e7420657863656564732062616c616e636545524332303a20617070726f766520746f20746865207a65726f206164647265737345524332303a207472616e7366657220616d6f756e7420657863656564732062616c616e6365536166654d6174683a206d756c7469706c69636174696f6e206f766572666c6f7745524332303a207472616e7366657220616d6f756e74206578636565647320616c6c6f77616e636545524332303a206275726e2066726f6d20746865207a65726f206164647265737345524332303a207472616e736665722066726f6d20746865207a65726f206164647265737345524332303a20617070726f76652066726f6d20746865207a65726f206164647265737367464c4f4f523a3a6765745072696f72566f7465733a206e6f74207965742064657465726d696e656445524332303a2064656372656173656420616c6c6f77616e63652062656c6f77207a65726fa164736f6c6343000705000a",
  "linkReferences": {},
  "deployedLinkReferences": {}
}