{
  "_format": "hh-sol-artifact-1",
  "contractName": "sFLOOR",
  "sourceName": "contracts/sFloorERC20.sol",
  "abi": [
    {
      "inputs": [],
      "stateMutability": "nonpayable",
      "type": "constructor"
    },
    {
      "anonymous": false,
      "inputs": [
        {
          "indexed": true,
          "internalType": "address",
          "name": "owner",
          "type": "address"
        },
        {
          "indexed": true,
          "internalType": "address",
          "name": "spender",
          "type": "address"
        },
        {
          "indexed": false,
          "internalType": "uint256",
          "name": "value",
          "type": "uint256"
        }
      ],
      "name": "Approval",
      "type": "event"
    },
    {
      "anonymous": false,
      "inputs": [
        {
          "indexed": true,
          "internalType": "uint256",
          "name": "epoch",
          "type": "uint256"
        },
        {
          "indexed": false,
          "internalType": "uint256",
          "name": "rebase",
          "type": "uint256"
        },
        {
          "indexed": false,
          "internalType": "uint256",
          "name": "index",
          "type": "uint256"
        }
      ],
      "name": "LogRebase",
      "type": "event"
    },
    {
      "anonymous": false,
      "inputs": [
        {
          "indexed": false,
          "internalType": "address",
          "name": "stakingContract",
          "type": "address"
        }
      ],
      "name": "LogStakingContractUpdated",
      "type": "event"
    },
    {
      "anonymous": false,
      "inputs": [
        {
          "indexed": true,
          "internalType": "uint256",
          "name": "epoch",
          "type": "uint256"
        },
        {
          "indexed": false,
          "internalType": "uint256",
          "name": "totalSupply",
          "type": "uint256"
        }
      ],
      "name": "LogSupply",
      "type": "event"
    },
    {
      "anonymous": false,
      "inputs": [
        {
          "indexed": true,
          "internalType": "address",
          "name": "from",
          "type": "address"
        },
        {
          "indexed": true,
          "internalType": "address",
          "name": "to",
          "type": "address"
        },
        {
          "indexed": false,
          "internalType": "uint256",
          "name": "value",
          "type": "uint256"
        }
      ],
      "name": "Transfer",
      "type": "event"
    },
    {
      "inputs": [],
      "name": "DOMAIN_SEPARATOR",
      "outputs": [
        {
          "internalType": "bytes32",
          "name": "",
          "type": "bytes32"
        }
      ],
      "stateMutability": "view",
      "type": "function"
    },
    {
      "inputs": [
        {
          "internalType": "address",
          "name": "owner_",
          "type": "address"
        },
        {
          "internalType": "address",
          "name": "spender",
          "type": "address"
        }
      ],
      "name": "allowance",
      "outputs": [
        {
          "internalType": "uint256",
          "name": "",
          "type": "uint256"
        }
      ],
      "stateMutability": "view",
      "type": "function"
    },
    {
      "inputs": [
        {
          "internalType": "address",
          "name": "spender",
          "type": "address"
        },
        {
          "internalType": "uint256",
          "name": "value",
          "type": "uint256"
        }
      ],
      "name": "approve",
      "outputs": [
        {
          "internalType": "bool",
          "name": "",
          "type": "bool"
        }
      ],
      "stateMutability": "nonpayable",
      "type": "function"
    },
    {
      "inputs": [
        {
          "internalType": "uint256",
          "name": "gons",
          "type": "uint256"
        }
      ],
      "name": "balanceForGons",
      "outputs": [
        {
          "internalType": "uint256",
          "name": "",
          "type": "uint256"
        }
      ],
      "stateMutability": "view",
      "type": "function"
    },
    {
      "inputs": [
        {
          "internalType": "address",
          "name": "who",
          "type": "address"
        }
      ],
      "name": "balanceOf",
      "outputs": [
        {
          "internalType": "uint256",
          "name": "",
          "type": "uint256"
        }
      ],
      "stateMutability": "view",
      "type": "function"
    },
    {
      "inputs": [
        {
          "internalType": "uint256",
          "name": "amount",
          "type": "uint256"
        },
        {
          "internalType": "address",
          "name": "debtor",
          "type": "address"
        },
        {
          "internalType": "bool",
          "name": "add",
          "type": "bool"
        }
      ],
      "name": "changeDebt",
      "outputs": [],
      "stateMutability": "nonpayable",
      "type": "function"
    },
    {
      "inputs": [],
      "name": "circulatingSupply",
      "outputs": [
        {
          "internalType": "uint256",
          "name": "",
          "type": "uint256"
        }
      ],
      "stateMutability": "view",
      "type": "function"
    },
    {
      "inputs": [
        {
          "internalType": "address",
          "name": "",
          "type": "address"
        }
      ],
      "name": "debtBalances",
      "outputs": [
        {
          "internalType": "uint256",
          "name": "",
          "type": "uint256"
        }
      ],
      "stateMutability": "view",
      "type": "function"
    },
    {
      "inputs": [],
      "name": "decimals",
      "outputs": [
        {
          "internalType": "uint8",
          "name": "",
          "type": "uint8"
        }
      ],
      "stateMutability": "view",
      "type": "function"
    },
    {
      "inputs": [
        {
          "internalType": "address",
          "name": "spender",
          "type": "address"
        },
        {
          "internalType": "uint256",
          "name": "subtractedValue",
          "type": "uint256"
        }
      ],
      "name": "decreaseAllowance",
      "outputs": [
        {
          "internalType": "bool",
          "name": "",
          "type": "bool"
        }
      ],
      "stateMutability": "nonpayable",
      "type": "function"
    },
    {
      "inputs": [
        {
          "internalType": "uint256",
          "name": "amount",
          "type": "uint256"
        }
      ],
      "name": "fromG",
      "outputs": [
        {
          "internalType": "uint256",
          "name": "",
          "type": "uint256"
        }
      ],
      "stateMutability": "view",
      "type": "function"
    },
    {
      "inputs": [],
      "name": "gFLOOR",
      "outputs": [
        {
          "internalType": "contract IgFLOOR",
          "name": "",
          "type": "address"
        }
      ],
      "stateMutability": "view",
      "type": "function"
    },
    {
      "inputs": [
        {
          "internalType": "uint256",
          "name": "amount",
          "type": "uint256"
        }
      ],
      "name": "gonsForBalance",
      "outputs": [
        {
          "internalType": "uint256",
          "name": "",
          "type": "uint256"
        }
      ],
      "stateMutability": "view",
      "type": "function"
    },
    {
      "inputs": [
        {
          "internalType": "address",
          "name": "spender",
          "type": "address"
        },
        {
          "internalType": "uint256",
          "name": "addedValue",
          "type": "uint256"
        }
      ],
      "name": "increaseAllowance",
      "outputs": [
        {
          "internalType": "bool",
          "name": "",
          "type": "bool"
        }
      ],
      "stateMutability": "nonpayable",
      "type": "function"
    },
    {
      "inputs": [],
      "name": "index",
      "outputs": [
        {
          "internalType": "uint256",
          "name": "",
          "type": "uint256"
        }
      ],
      "stateMutability": "view",
      "type": "function"
    },
    {
      "inputs": [
        {
          "internalType": "address",
          "name": "_stakingContract",
          "type": "address"
        },
        {
          "internalType": "address",
          "name": "_treasury",
          "type": "address"
        }
      ],
      "name": "initialize",
      "outputs": [],
      "stateMutability": "nonpayable",
      "type": "function"
    },
    {
      "inputs": [],
      "name": "name",
      "outputs": [
        {
          "internalType": "string",
          "name": "",
          "type": "string"
        }
      ],
      "stateMutability": "view",
      "type": "function"
    },
    {
      "inputs": [
        {
          "internalType": "address",
          "name": "owner",
          "type": "address"
        }
      ],
      "name": "nonces",
      "outputs": [
        {
          "internalType": "uint256",
          "name": "",
          "type": "uint256"
        }
      ],
      "stateMutability": "view",
      "type": "function"
    },
    {
      "inputs": [
        {
          "internalType": "address",
          "name": "owner",
          "type": "address"
        },
        {
          "internalType": "address",
          "name": "spender",
          "type": "address"
        },
        {
          "internalType": "uint256",
          "name": "value",
          "type": "uint256"
        },
        {
          "internalType": "uint256",
          "name": "deadline",
          "type": "uint256"
        },
        {
          "internalType": "uint8",
          "name": "v",
          "type": "uint8"
        },
        {
          "internalType": "bytes32",
          "name": "r",
          "type": "bytes32"
        },
        {
          "internalType": "bytes32",
          "name": "s",
          "type": "bytes32"
        }
      ],
      "name": "permit",
      "outputs": [],
      "stateMutability": "nonpayable",
      "type": "function"
    },
    {
      "inputs": [
        {
          "internalType": "uint256",
          "name": "profit_",
          "type": "uint256"
        },
        {
          "internalType": "uint256",
          "name": "epoch_",
          "type": "uint256"
        }
      ],
      "name": "rebase",
      "outputs": [
        {
          "internalType": "uint256",
          "name": "",
          "type": "uint256"
        }
      ],
      "stateMutability": "nonpayable",
      "type": "function"
    },
    {
      "inputs": [
        {
          "internalType": "uint256",
          "name": "",
          "type": "uint256"
        }
      ],
      "name": "rebases",
      "outputs": [
        {
          "internalType": "uint256",
          "name": "epoch",
          "type": "uint256"
        },
        {
          "internalType": "uint256",
          "name": "rebase",
          "type": "uint256"
        },
        {
          "internalType": "uint256",
          "name": "totalStakedBefore",
          "type": "uint256"
        },
        {
          "internalType": "uint256",
          "name": "totalStakedAfter",
          "type": "uint256"
        },
        {
          "internalType": "uint256",
          "name": "amountRebased",
          "type": "uint256"
        },
        {
          "internalType": "uint256",
          "name": "index",
          "type": "uint256"
        },
        {
          "internalType": "uint256",
          "name": "blockNumberOccured",
          "type": "uint256"
        }
      ],
      "stateMutability": "view",
      "type": "function"
    },
    {
      "inputs": [
        {
          "internalType": "uint256",
          "name": "_index",
          "type": "uint256"
        }
      ],
      "name": "setIndex",
      "outputs": [],
      "stateMutability": "nonpayable",
      "type": "function"
    },
    {
      "inputs": [
        {
          "internalType": "address",
          "name": "_gFLOOR",
          "type": "address"
        }
      ],
      "name": "setgFLOOR",
      "outputs": [],
      "stateMutability": "nonpayable",
      "type": "function"
    },
    {
      "inputs": [],
      "name": "stakingContract",
      "outputs": [
        {
          "internalType": "address",
          "name": "",
          "type": "address"
        }
      ],
      "stateMutability": "view",
      "type": "function"
    },
    {
      "inputs": [],
      "name": "symbol",
      "outputs": [
        {
          "internalType": "string",
          "name": "",
          "type": "string"
        }
      ],
      "stateMutability": "view",
      "type": "function"
    },
    {
      "inputs": [
        {
          "internalType": "uint256",
          "name": "amount",
          "type": "uint256"
        }
      ],
      "name": "toG",
      "outputs": [
        {
          "internalType": "uint256",
          "name": "",
          "type": "uint256"
        }
      ],
      "stateMutability": "view",
      "type": "function"
    },
    {
      "inputs": [],
      "name": "totalSupply",
      "outputs": [
        {
          "internalType": "uint256",
          "name": "",
          "type": "uint256"
        }
      ],
      "stateMutability": "view",
      "type": "function"
    },
    {
      "inputs": [
        {
          "internalType": "address",
          "name": "to",
          "type": "address"
        },
        {
          "internalType": "uint256",
          "name": "value",
          "type": "uint256"
        }
      ],
      "name": "transfer",
      "outputs": [
        {
          "internalType": "bool",
          "name": "",
          "type": "bool"
        }
      ],
      "stateMutability": "nonpayable",
      "type": "function"
    },
    {
      "inputs": [
        {
          "internalType": "address",
          "name": "from",
          "type": "address"
        },
        {
          "internalType": "address",
          "name": "to",
          "type": "address"
        },
        {
          "internalType": "uint256",
          "name": "value",
          "type": "uint256"
        }
      ],
      "name": "transferFrom",
      "outputs": [
        {
          "internalType": "bool",
          "name": "",
          "type": "bool"
        }
      ],
      "stateMutability": "nonpayable",
      "type": "function"
    },
    {
      "inputs": [],
      "name": "treasury",
      "outputs": [
        {
          "internalType": "address",
          "name": "",
          "type": "address"
        }
      ],
      "stateMutability": "view",
      "type": "function"
    }
  ],
  "bytecode": "0x6101606040527f6e71edae12b1b97f4d1f60370fef10105fa2faae0126114a169c64845d6126c9610140523480156200003757600080fd5b506040518060400160405280600c81526020016b29ba30b5b2b210232627a7a960a11b81525080604051806040016040528060018152602001603160f81b8152506040518060400160405280600c81526020016b29ba30b5b2b210232627a7a960a11b8152506040518060400160405280600681526020016539a32627a7a960d11b81525060098260039080519060200190620000d69291906200031a565b508151620000ec9060049060208501906200031a565b5060f81b7fff00000000000000000000000000000000000000000000000000000000000000166080525050815160208084019190912082519183019190912060e08290526101008190524660c081905291907f8b73c3c69bb8fe3d512ecc4cf759cc79239f7b179b0ffacaa9a75d522b39400f6200016c818484620001c4565b60a052610120525050600680546001600160a01b0319163317905550506611c37937e080006002819055620001bb925090508060001906600019036200020960201b620017701790919060201c565b600b55620003c6565b604080516020808201959095528082019390935260608301919091524660808301523060a0808401919091528151808403909101815260c09092019052805191012090565b60006200025383836040518060400160405280601a81526020017f536166654d6174683a206469766973696f6e206279207a65726f0000000000008152506200025a60201b60201c565b9392505050565b60008183620002ea5760405162461bcd60e51b81526004018080602001828103825283818151815260200191508051906020019080838360005b83811015620002ae57818101518382015260200162000294565b50505050905090810190601f168015620002dc5780820380516001836020036101000a031916815260200191505b509250505060405180910390fd5b506000838581620002f757fe5b0490508385816200030457fe5b068185020185146200031257fe5b949350505050565b828054600181600116156101000203166002900490600052602060002090601f0160209004810192826200035257600085556200039d565b82601f106200036d57805160ff19168380011785556200039d565b828001600101855582156200039d579182015b828111156200039d57825182559160200191906001019062000380565b50620003ab929150620003af565b5090565b5b80821115620003ab5760008155600101620003b0565b60805160f81c60a05160c05160e0516101005161012051610140516120946200041d60003980611613525080611aa7525080611ae9525080611ac8525080611a53525080611a7b525080610c4e52506120946000f3fe608060405234801561001057600080fd5b50600436106101da5760003560e01c806370a0823111610104578063a9059cbb116100a2578063c4ef1c4c11610071578063c4ef1c4c146105b9578063d505accf146105df578063dd62ed3e14610630578063ee99205c1461065e576101da565b8063a9059cbb14610534578063aad7a74c14610560578063ae5c6cd314610568578063b8fbd5331461059c576101da565b80637ecebe00116100de5780637ecebe00146104d25780639358928b146104f857806395d89b4114610500578063a457c2d714610508576101da565b806370a082311461043a57806373c69eb7146104605780637965d56d146104b5576101da565b806323b872dd1161017c578063395093511161014b578063395093511461039f57806340a5737f146103cb578063485cc955146103e857806361d027b314610416576101da565b806323b872dd1461033b5780632986c0e514610371578063313ce567146103795780633644e51514610397576101da565b8063095ea7b3116101b8578063095ea7b3146102ae57806318160ddd146102ee5780631bd39674146102f65780631e2318c014610313576101da565b8063058ecdb4146101df57806306fdde0314610214578063095be81814610291575b600080fd5b610202600480360360408110156101f557600080fd5b5080359060200135610666565b60408051918252519081900360200190f35b61021c6107f6565b6040805160208082528351818301528351919283929083019185019080838360005b8381101561025657818101518382015260200161023e565b50505050905090810190601f1680156102835780820380516001836020036101000a031916815260200191505b509250505060405180910390f35b610202600480360360208110156102a757600080fd5b503561088d565b6102da600480360360408110156102c457600080fd5b506001600160a01b038135169060200135610924565b604080519115158252519081900360200190f35b61020261093a565b6102026004803603602081101561030c57600080fd5b5035610940565b6103396004803603602081101561032957600080fd5b50356001600160a01b0316610957565b005b6102da6004803603606081101561035157600080fd5b506001600160a01b03813581169160208101359091169060400135610a72565b610202610c3a565b610381610c4c565b6040805160ff9092168252519081900360200190f35b610202610c70565b6102da600480360360408110156103b557600080fd5b506001600160a01b038135169060200135610c7a565b610339600480360360208110156103e157600080fd5b5035610cb5565b610339600480360360408110156103fe57600080fd5b506001600160a01b0381358116916020013516610d62565b61041e610f71565b604080516001600160a01b039092168252519081900360200190f35b6102026004803603602081101561045057600080fd5b50356001600160a01b0316610f80565b61047d6004803603602081101561047657600080fd5b5035610fa8565b604080519788526020880196909652868601949094526060860192909252608085015260a084015260c0830152519081900360e00190f35b610202600480360360208110156104cb57600080fd5b5035610ffa565b610202600480360360208110156104e857600080fd5b50356001600160a01b0316611011565b610202611032565b61021c6111ed565b6102da6004803603604081101561051e57600080fd5b506001600160a01b03813516906020013561124e565b6102da6004803603604081101561054a57600080fd5b506001600160a01b0381351690602001356112a3565b61041e6113d7565b6103396004803603606081101561057e57600080fd5b508035906001600160a01b03602082013516906040013515156113e6565b610202600480360360208110156105b257600080fd5b5035611543565b610202600480360360208110156105cf57600080fd5b50356001600160a01b03166115a8565b610339600480360360e08110156105f557600080fd5b506001600160a01b03813581169160208101359091169060408101359060608101359060ff6080820135169060a08101359060c001356115ba565b6102026004803603604081101561064657600080fd5b506001600160a01b0381358116916020013516611736565b61041e611761565b6008546000906001600160a01b031633146106b25760405162461bcd60e51b815260040180806020018281038252602e81526020018061205a602e913960400191505060405180910390fd5b6000806106bd611032565b90508461074c57600254604080519182525185917f0417b340e646d4be71f9b2da63b5c3c69bc9cfa069f0e0db4756271886130bf4919081900360200190a2837f6012dbce857565c4a40974aa5de8373a761fc429077ef0c8c8611d1e20d63fb26000610728610c3a565b6040805192835260208301919091528051918290030190a2600254925050506107f0565b8015610778576107718161076b600254886117b990919063ffffffff16565b90611770565b915061077c565b8491505b6002546107899083611812565b60028190556fffffffffffffffffffffffffffffffff10156107ba576fffffffffffffffffffffffffffffffff6002555b6107da6002546611c37937e08000600019816107d257fe5b061990611770565b600b556107e881868661186c565b600254925050505b92915050565b60038054604080516020601f60026000196101006001881615020190951694909404938401819004810282018101909252828152606093909290918301828280156108825780601f1061085757610100808354040283529160200191610882565b820191906000526020600020905b81548152906001019060200180831161086557829003601f168201915b505050505090505b90565b600954604080517f66a5236c0000000000000000000000000000000000000000000000000000000081526004810184905290516000926001600160a01b0316916366a5236c916024808301926020929190829003018186803b1580156108f257600080fd5b505afa158015610906573d6000803e3d6000fd5b505050506040513d602081101561091c57600080fd5b505192915050565b60006109313384846119aa565b50600192915050565b60025490565b60006107f0600b54836117b990919063ffffffff16565b6006546001600160a01b031633146109a05760405162461bcd60e51b81526004018080602001828103825260278152602001806120336027913960400191505060405180910390fd5b6009546001600160a01b0316156109fe576040805162461bcd60e51b815260206004820152601b60248201527f67464c4f4f523a202067464c4f4f5220616c7265616479207365740000000000604482015290519081900360640190fd5b6001600160a01b038116610a435760405162461bcd60e51b8152600401808060200182810382526027815260200180611fa76027913960400191505060405180910390fd5b6009805473ffffffffffffffffffffffffffffffffffffffff19166001600160a01b0392909216919091179055565b6001600160a01b0383166000908152600d60209081526040808320338452909152812054610aa09083611a0c565b6001600160a01b0385166000818152600d60209081526040808320338085529083529281902085905580519485525191937f8c5be1e5ebec7d5bd14f71427d1e84f3dd0314c0f7b2291e5b200ac8c7c3b925929081900390910190a36000610b0783610940565b6001600160a01b0386166000908152600c6020526040902054909150610b2d9082611a0c565b6001600160a01b038087166000908152600c60205260408082209390935590861681522054610b5c9082611812565b6001600160a01b038086166000908152600c60209081526040808320949094559188168152600f9091522054610b9186610f80565b1015610be4576040805162461bcd60e51b815260206004820152601c60248201527f446562743a2063616e6e6f74207472616e7366657220616d6f756e7400000000604482015290519081900360640190fd5b836001600160a01b0316856001600160a01b03167fddf252ad1be2c89b69c2b068fc378daa952ba7f163c4a11628f55a4df523b3ef856040518082815260200191505060405180910390a3506001949350505050565b6000610c47600754610ffa565b905090565b7f000000000000000000000000000000000000000000000000000000000000000090565b6000610c47611a4e565b336000818152600d602090815260408083206001600160a01b03871684529091528120549091610931918590610cb09086611812565b6119aa565b6006546001600160a01b03163314610cfe5760405162461bcd60e51b81526004018080602001828103825260278152602001806120336027913960400191505060405180910390fd5b60075415610d53576040805162461bcd60e51b815260206004820152601660248201527f43616e6e6f742073657420494e44455820616761696e00000000000000000000604482015290519081900360640190fd5b610d5c81610940565b60075550565b6006546001600160a01b03163314610dab5760405162461bcd60e51b81526004018080602001828103825260278152602001806120336027913960400191505060405180910390fd5b6001600160a01b038216610e06576040805162461bcd60e51b815260206004820152600760248201527f5374616b696e6700000000000000000000000000000000000000000000000000604482015290519081900360640190fd5b6008805473ffffffffffffffffffffffffffffffffffffffff19166001600160a01b0384811691909117918290559081166000908152600c60205260409020660e3d2cfe61ffff1990558116610ea3576040805162461bcd60e51b815260206004820152601660248201527f5a65726f20616464726573733a20547265617375727900000000000000000000604482015290519081900360640190fd5b600e805473ffffffffffffffffffffffffffffffffffffffff19166001600160a01b0383811691909117909155600854600254604080519182525191909216916000917fddf252ad1be2c89b69c2b068fc378daa952ba7f163c4a11628f55a4df523b3ef916020908290030190a3600854604080516001600160a01b039092168252517f817c653428858ed536dc085c5d8273734c517b55de44b55f5c5877a75e3373a19181900360200190a150506006805473ffffffffffffffffffffffffffffffffffffffff19169055565b600e546001600160a01b031681565b600b546001600160a01b0382166000908152600c602052604081205490916107f09190611770565b600a8181548110610fb857600080fd5b90600052602060002090600702016000915090508060000154908060010154908060020154908060030154908060040154908060050154908060060154905087565b60006107f0600b548361177090919063ffffffff16565b6001600160a01b03811660009081526005602052604081206107f090611b15565b6000610c47600860009054906101000a90046001600160a01b03166001600160a01b031663201386416040518163ffffffff1660e01b815260040160206040518083038186803b15801561108557600080fd5b505afa158015611099573d6000803e3d6000fd5b505050506040513d60208110156110af57600080fd5b5051600954604080517f18160ddd00000000000000000000000000000000000000000000000000000000815290516111e7926001600160a01b03169163a82487689183916318160ddd916004808301926020929190829003018186803b15801561111857600080fd5b505afa15801561112c573d6000803e3d6000fd5b505050506040513d602081101561114257600080fd5b5051604080517fffffffff0000000000000000000000000000000000000000000000000000000060e085901b1681526004810192909252516024808301926020929190829003018186803b15801561119957600080fd5b505afa1580156111ad573d6000803e3d6000fd5b505050506040513d60208110156111c357600080fd5b50516008546111e7906111de906001600160a01b0316610f80565b60025490611a0c565b90611812565b60048054604080516020601f60026000196101006001881615020190951694909404938401819004810282018101909252828152606093909290918301828280156108825780601f1061085757610100808354040283529160200191610882565b336000908152600d602090815260408083206001600160a01b038616845290915281205480831061128a57611285338560006119aa565b611299565b6112993385610cb08487611a0c565b5060019392505050565b6000806112bb600b54846117b990919063ffffffff16565b336000908152600c60205260409020549091506112d89082611a0c565b336000908152600c6020526040808220929092556001600160a01b038616815220546113049082611812565b6001600160a01b0385166000908152600c602090815260408083209390935533808352600f909152919020549061133a90610f80565b101561138d576040805162461bcd60e51b815260206004820152601c60248201527f446562743a2063616e6e6f74207472616e7366657220616d6f756e7400000000604482015290519081900360640190fd5b6040805184815290516001600160a01b0386169133917fddf252ad1be2c89b69c2b068fc378daa952ba7f163c4a11628f55a4df523b3ef9181900360200190a35060019392505050565b6009546001600160a01b031681565b600e546001600160a01b03163314611445576040805162461bcd60e51b815260206004820152600d60248201527f4f6e6c7920747265617375727900000000000000000000000000000000000000604482015290519081900360640190fd5b801561148c576001600160a01b0382166000908152600f602052604090205461146e9084611812565b6001600160a01b0383166000908152600f60205260409020556114c9565b6001600160a01b0382166000908152600f60205260409020546114af9084611a0c565b6001600160a01b0383166000908152600f60205260409020555b6114d282610f80565b6001600160a01b0383166000908152600f6020526040902054111561153e576040805162461bcd60e51b815260206004820152601c60248201527f73464c4f4f523a20696e73756666696369656e742062616c616e636500000000604482015290519081900360640190fd5b505050565b600954604080517fa82487680000000000000000000000000000000000000000000000000000000081526004810184905290516000926001600160a01b03169163a8248768916024808301926020929190829003018186803b1580156108f257600080fd5b600f6020526000908152604090205481565b8342111561160f576040805162461bcd60e51b815260206004820152601d60248201527f45524332305065726d69743a206578706972656420646561646c696e65000000604482015290519081900360640190fd5b60007f000000000000000000000000000000000000000000000000000000000000000088888861163e8c611b19565b8960405160200180878152602001866001600160a01b03168152602001856001600160a01b03168152602001848152602001838152602001828152602001965050505050505060405160208183030381529060405280519060200120905060006116a782611b4b565b905060006116b782878787611b5e565b9050896001600160a01b0316816001600160a01b03161461171f576040805162461bcd60e51b815260206004820152601e60248201527f45524332305065726d69743a20696e76616c6964207369676e61747572650000604482015290519081900360640190fd5b61172a8a8a8a6119aa565b50505050505050505050565b6001600160a01b039182166000908152600d6020908152604080832093909416825291909152205490565b6008546001600160a01b031681565b60006117b283836040518060400160405280601a81526020017f536166654d6174683a206469766973696f6e206279207a65726f000000000000815250611b86565b9392505050565b6000826117c8575060006107f0565b828202828482816117d557fe5b04146117b25760405162461bcd60e51b81526004018080602001828103825260218152602001806120126021913960400191505060405180910390fd5b6000828201838110156117b2576040805162461bcd60e51b815260206004820152601b60248201527f536166654d6174683a206164646974696f6e206f766572666c6f770000000000604482015290519081900360640190fd5b60006118848461076b85670de0b6b3a76400006117b9565b9050600a6040518060e001604052808481526020018381526020018681526020016118ad611032565b81526020018581526020016118c0610c3a565b81524360209182015282546001818101855560009485529382902083516007909202019081558282015193810193909355604080830151600280860191909155606084015160038601556080840151600486015560a0840151600586015560c09093015160069094019390935590548251908152915184927f0417b340e646d4be71f9b2da63b5c3c69bc9cfa069f0e0db4756271886130bf492908290030190a2817f6012dbce857565c4a40974aa5de8373a761fc429077ef0c8c8611d1e20d63fb28261198c610c3a565b6040805192835260208301919091528051918290030190a250505050565b6001600160a01b038084166000818152600d6020908152604080832094871680845294825291829020859055815185815291517f8c5be1e5ebec7d5bd14f71427d1e84f3dd0314c0f7b2291e5b200ac8c7c3b9259281900390910190a3505050565b60006117b283836040518060400160405280601e81526020017f536166654d6174683a207375627472616374696f6e206f766572666c6f770000815250611c3f565b6000467f0000000000000000000000000000000000000000000000000000000000000000811415611aa2577f000000000000000000000000000000000000000000000000000000000000000091505061088a565b611b0d7f00000000000000000000000000000000000000000000000000000000000000007f00000000000000000000000000000000000000000000000000000000000000007f0000000000000000000000000000000000000000000000000000000000000000611c99565b91505061088a565b5490565b6001600160a01b0381166000908152600560205260408120611b3a81611b15565b9150611b4581611cde565b50919050565b60006107f0611b58611a4e565b83611ce7565b6000806000611b6f87878787611d3d565b91509150611b7c81611e32565b5095945050505050565b60008183611c125760405162461bcd60e51b81526004018080602001828103825283818151815260200191508051906020019080838360005b83811015611bd7578181015183820152602001611bbf565b50505050905090810190601f168015611c045780820380516001836020036101000a031916815260200191505b509250505060405180910390fd5b506000838581611c1e57fe5b049050838581611c2a57fe5b06818502018514611c3757fe5b949350505050565b60008184841115611c915760405162461bcd60e51b8152602060048201818152835160248401528351909283926044909101919085019080838360008315611bd7578181015183820152602001611bbf565b505050900390565b604080516020808201959095528082019390935260608301919091524660808301523060a0808401919091528151808403909101815260c09092019052805191012090565b80546001019055565b604080517f19010000000000000000000000000000000000000000000000000000000000006020808301919091526022820194909452604280820193909352815180820390930183526062019052805191012090565b6000807f7fffffffffffffffffffffffffffffff5d576e7357a4501ddfe92f46681b20a0831115611d745750600090506003611e29565b8460ff16601b14158015611d8c57508460ff16601c14155b15611d9d5750600090506004611e29565b600060018787878760405160008152602001604052604051808581526020018460ff1681526020018381526020018281526020019450505050506020604051602081039080840390855afa158015611df9573d6000803e3d6000fd5b5050604051601f1901519150506001600160a01b038116611e2257600060019250925050611e29565b9150600090505b94509492505050565b6000816004811115611e4057fe5b1415611e4b57611fa3565b6001816004811115611e5957fe5b1415611eac576040805162461bcd60e51b815260206004820152601860248201527f45434453413a20696e76616c6964207369676e61747572650000000000000000604482015290519081900360640190fd5b6002816004811115611eba57fe5b1415611f0d576040805162461bcd60e51b815260206004820152601f60248201527f45434453413a20696e76616c6964207369676e6174757265206c656e67746800604482015290519081900360640190fd5b6003816004811115611f1b57fe5b1415611f585760405162461bcd60e51b8152600401808060200182810382526022815260200180611fce6022913960400191505060405180910390fd5b6004816004811115611f6657fe5b1415611fa35760405162461bcd60e51b8152600401808060200182810382526022815260200180611ff06022913960400191505060405180910390fd5b5056fe67464c4f4f523a202067464c4f4f52206973206e6f7420612076616c696420636f6e747261637445434453413a20696e76616c6964207369676e6174757265202773272076616c756545434453413a20696e76616c6964207369676e6174757265202776272076616c7565536166654d6174683a206d756c7469706c69636174696f6e206f766572666c6f77496e697469616c697a65723a202063616c6c6572206973206e6f7420696e697469616c697a65725374616b696e67436f6e74726163743a202063616c6c206973206e6f74207374616b696e6720636f6e7472616374a164736f6c6343000705000a",
  "linkReferences": {},
  "deployedLinkReferences": {}
}