{
  "address": "0xb9bEECD1A582768711dE1EE7B0A1d582D9d72a6C",
  "abi": [
    {
      "inputs": [
        {
          "internalType": "address",
          "name": "_authority",
          "type": "address"
        },
        {
          "internalType": "address",
          "name": "_treasury",
          "type": "address"
        },
        {
          "internalType": "address",
          "name": "_lusdTokenAddress",
          "type": "address"
        },
        {
          "internalType": "address",
          "name": "_lqtyTokenAddress",
          "type": "address"
        },
        {
          "internalType": "address",
          "name": "_stabilityPool",
          "type": "address"
        },
        {
          "internalType": "address",
          "name": "_lqtyStaking",
          "type": "address"
        },
        {
          "internalType": "address",
          "name": "_frontEndAddress",
          "type": "address"
        },
        {
          "internalType": "address",
          "name": "_wethAddress",
          "type": "address"
        },
        {
          "internalType": "address",
          "name": "_hopTokenAddress",
          "type": "address"
        },
        {
          "internalType": "address",
          "name": "_uniswapV3Router",
          "type": "address"
        }
      ],
      "stateMutability": "nonpayable",
      "type": "constructor"
    },
    {
      "anonymous": false,
      "inputs": [
        {
          "indexed": true,
          "internalType": "contract IOlympusAuthority",
          "name": "authority",
          "type": "address"
        }
      ],
      "name": "AuthorityUpdated",
      "type": "event"
    },
    {
      "anonymous": false,
      "inputs": [
        {
          "indexed": true,
          "internalType": "address",
          "name": "dst",
          "type": "address"
        },
        {
          "indexed": false,
          "internalType": "uint256",
          "name": "amount",
          "type": "uint256"
        }
      ],
      "name": "Deposit",
      "type": "event"
    },
    {
      "inputs": [],
      "name": "FEE_PRECISION",
      "outputs": [
        {
          "internalType": "uint256",
          "name": "",
          "type": "uint256"
        }
      ],
      "stateMutability": "view",
      "type": "function"
    },
    {
      "inputs": [],
      "name": "POOL_FEE_MAX",
      "outputs": [
        {
          "internalType": "uint256",
          "name": "",
          "type": "uint256"
        }
      ],
      "stateMutability": "view",
      "type": "function"
    },
    {
      "inputs": [],
      "name": "authority",
      "outputs": [
        {
          "internalType": "contract IOlympusAuthority",
          "name": "",
          "type": "address"
        }
      ],
      "stateMutability": "view",
      "type": "function"
    },
    {
      "inputs": [
        {
          "internalType": "uint256",
          "name": "amount",
          "type": "uint256"
        }
      ],
      "name": "deposit",
      "outputs": [],
      "stateMutability": "nonpayable",
      "type": "function"
    },
    {
      "inputs": [],
      "name": "ethToLUSDRatio",
      "outputs": [
        {
          "internalType": "uint256",
          "name": "",
          "type": "uint256"
        }
      ],
      "stateMutability": "view",
      "type": "function"
    },
    {
      "inputs": [],
      "name": "frontEndAddress",
      "outputs": [
        {
          "internalType": "address",
          "name": "",
          "type": "address"
        }
      ],
      "stateMutability": "view",
      "type": "function"
    },
    {
      "inputs": [],
      "name": "getETHRewards",
      "outputs": [
        {
          "internalType": "uint256",
          "name": "",
          "type": "uint256"
        }
      ],
      "stateMutability": "view",
      "type": "function"
    },
    {
      "inputs": [],
      "name": "getLQTYRewards",
      "outputs": [
        {
          "internalType": "uint256",
          "name": "",
          "type": "uint256"
        }
      ],
      "stateMutability": "view",
      "type": "function"
    },
    {
      "inputs": [
        {
          "internalType": "uint256",
          "name": "minETHLUSDRate",
          "type": "uint256"
        }
      ],
      "name": "harvest",
      "outputs": [
        {
          "internalType": "bool",
          "name": "",
          "type": "bool"
        }
      ],
      "stateMutability": "nonpayable",
      "type": "function"
    },
    {
      "inputs": [],
      "name": "hopTokenAddress",
      "outputs": [
        {
          "internalType": "address",
          "name": "",
          "type": "address"
        }
      ],
      "stateMutability": "view",
      "type": "function"
    },
    {
      "inputs": [],
      "name": "lqtyTokenAddress",
      "outputs": [
        {
          "internalType": "address",
          "name": "",
          "type": "address"
        }
      ],
      "stateMutability": "view",
      "type": "function"
    },
    {
      "inputs": [],
      "name": "lusdTokenAddress",
      "outputs": [
        {
          "internalType": "address",
          "name": "",
          "type": "address"
        }
      ],
      "stateMutability": "view",
      "type": "function"
    },
    {
      "inputs": [],
      "name": "poolFee",
      "outputs": [
        {
          "internalType": "uint256",
          "name": "",
          "type": "uint256"
        }
      ],
      "stateMutability": "view",
      "type": "function"
    },
    {
      "inputs": [
        {
          "internalType": "contract IOlympusAuthority",
          "name": "_newAuthority",
          "type": "address"
        }
      ],
      "name": "setAuthority",
      "outputs": [],
      "stateMutability": "nonpayable",
      "type": "function"
    },
    {
      "inputs": [
        {
          "internalType": "uint256",
          "name": "_ethToLUSDRatio",
          "type": "uint256"
        }
      ],
      "name": "setEthToLUSDRatio",
      "outputs": [],
      "stateMutability": "nonpayable",
      "type": "function"
    },
    {
      "inputs": [
        {
          "internalType": "address",
          "name": "_frontEndAddress",
          "type": "address"
        }
      ],
      "name": "setFrontEndAddress",
      "outputs": [],
      "stateMutability": "nonpayable",
      "type": "function"
    },
    {
      "inputs": [
        {
          "internalType": "address",
          "name": "_hopTokenAddress",
          "type": "address"
        }
      ],
      "name": "setHopTokenAddress",
      "outputs": [],
      "stateMutability": "nonpayable",
      "type": "function"
    },
    {
      "inputs": [
        {
          "internalType": "uint256",
          "name": "_poolFee",
          "type": "uint256"
        }
      ],
      "name": "setPoolFee",
      "outputs": [],
      "stateMutability": "nonpayable",
      "type": "function"
    },
    {
      "inputs": [],
      "name": "totalAmountDeployed",
      "outputs": [
        {
          "internalType": "uint256",
          "name": "",
          "type": "uint256"
        }
      ],
      "stateMutability": "view",
      "type": "function"
    },
    {
      "inputs": [],
      "name": "totalValueDeployed",
      "outputs": [
        {
          "internalType": "uint256",
          "name": "",
          "type": "uint256"
        }
      ],
      "stateMutability": "view",
      "type": "function"
    },
    {
      "inputs": [],
      "name": "treasury",
      "outputs": [
        {
          "internalType": "contract ITreasury",
          "name": "",
          "type": "address"
        }
      ],
      "stateMutability": "view",
      "type": "function"
    },
    {
      "inputs": [],
      "name": "updateTreasury",
      "outputs": [],
      "stateMutability": "nonpayable",
      "type": "function"
    },
    {
      "inputs": [
        {
          "internalType": "address",
          "name": "token",
          "type": "address"
        },
        {
          "internalType": "uint256",
          "name": "amount",
          "type": "uint256"
        }
      ],
      "name": "withdraw",
      "outputs": [],
      "stateMutability": "nonpayable",
      "type": "function"
    },
    {
      "stateMutability": "payable",
      "type": "receive"
    }
  ],
  "transactionHash": "0xf67d9ed1a47f8273bd4ca90805f3d808225e621ff743163e54f7ebddaf9e0299",
  "args": [
    "0xab16A69A5a8c12C732e0DEFF4BE56A70bb64c926",
    "0x38a024C0b412B9d1db8BC398140D00F5Af3093D4",
    "0xaf844BBaD90fB27ae949376338F7c9DA1251acFf",
    "0xf8A1aA1c34970aCE24041ef038A442732d942b89",
    "0xFd0dB2BA8BEaC72d45f12A76f40c345BBf5f6F8d",
    "0x35D3293EA6dD210b8Ca25668ae266ca4C834Ea1b",
    "0x0000000000000000000000000000000000000000",
    "0xc778417E063141139Fce010982780140Aa0cD5Ab",
    "0x0000000000000000000000000000000000000000",
    "0x0000000000000000000000000000000000000000"
  ],
  "solcInputHash": "2f738c977866186c6542f5c8d045b767",
  "bytecode": "0x610140604052600c6101008190526b15539055551213d49256915160a21b6101209081526200003291600091906200031c565b5062050910600355610bb86004553480156200004d57600080fd5b50604051620025e5380380620025e58339810160408190526200007091620003df565b600180546001600160a01b0319166001600160a01b038c169081179091556040518b91907f2f658b440c35314f52658ea8a740e05b284cdc84dc9ae01e891f21b8933e7cad90600090a250600280546001600160a01b03199081166001600160a01b038c81169182179093556007805483168c85161790556008805483168b851617905588831660805287831660a05260068054831688851617905585831660c0819052600580549093168685161790925591831660e052620001429160001962000203602090811b6200183017901c565b6200016d60e05160001960c0516001600160a01b03166200020360201b62001830179092919060201c565b60805160075462000199916001600160a01b039091169060001962000203602090811b6200183017901c565b600254600754620001c6916001600160a01b03918216911660001962000203602090811b6200183017901c565b600254600854620001f3916001600160a01b03918216911660001962000203602090811b6200183017901c565b5050505050505050505062000554565b604080516001600160a01b038481166024830152604480830185905283518084039091018152606490920183526020820180516001600160e01b031663095ea7b360e01b1790529151600092839290871691620002619190620004ae565b6000604051808303816000865af19150503d8060008114620002a0576040519150601f19603f3d011682016040523d82523d6000602084013e620002a5565b606091505b5091509150818015620002d3575080511580620002d3575080806020019051810190620002d39190620004ec565b620003155760405162461bcd60e51b815260206004820152600e60248201526d1054141493d59157d1905253115160921b604482015260640160405180910390fd5b5050505050565b8280546200032a9062000517565b90600052602060002090601f0160209004810192826200034e576000855562000399565b82601f106200036957805160ff191683800117855562000399565b8280016001018555821562000399579182015b82811115620003995782518255916020019190600101906200037c565b50620003a7929150620003ab565b5090565b5b80821115620003a75760008155600101620003ac565b80516001600160a01b0381168114620003da57600080fd5b919050565b6000806000806000806000806000806101408b8d0312156200040057600080fd5b6200040b8b620003c2565b99506200041b60208c01620003c2565b98506200042b60408c01620003c2565b97506200043b60608c01620003c2565b96506200044b60808c01620003c2565b95506200045b60a08c01620003c2565b94506200046b60c08c01620003c2565b93506200047b60e08c01620003c2565b92506200048c6101008c01620003c2565b91506200049d6101208c01620003c2565b90509295989b9194979a5092959850565b6000825160005b81811015620004d15760208186018101518583015201620004b5565b81811115620004e1576000828501525b509190910192915050565b600060208284031215620004ff57600080fd5b815180151581146200051057600080fd5b9392505050565b600181811c908216806200052c57607f821691505b602082108114156200054e57634e487b7160e01b600052602260045260246000fd5b50919050565b60805160a05160c05160e051612018620005cd600039600061123b015260008181611053015281816110db015281816111aa01528181611302015261138e015260008181610fe3015261173e0152600081816106780152818161070901528181610ef2015281816115b8015261198201526120186000f3fe6080604052600436106101835760003560e01c8063817f6481116100d6578063bf7e214f1161007f578063e616916a11610059578063e616916a14610438578063e63a391f1461044e578063f3fef3a31461046557600080fd5b8063bf7e214f146103d2578063c901761d146103f2578063ddc632621461040857600080fd5b80639c769787116100b05780639c7697871461037d578063b6b55f2514610392578063b7e78648146103b257600080fd5b8063817f6481146103275780639501dc8714610347578063987f56ff1461036757600080fd5b806361d027b31161013857806378289ed21161011257806378289ed2146102dd57806378767d05146102f25780637a9e5e4b1461030757600080fd5b806361d027b3146102875780636bd0fd0f146102a7578063739a4a37146102c757600080fd5b806310a18de21161016957806310a18de2146102255780631d2528fc146102455780635a762d641461026557600080fd5b806202fcd3146101c4578063089fe6aa1461020157600080fd5b366101bf5760405134815233907fe1fffcc4923d04b559f4d29a8bfc6cda04eb5b0d3c460751c2402c5c5cc9109c9060200160405180910390a2005b600080fd5b3480156101d057600080fd5b506007546101e4906001600160a01b031681565b6040516001600160a01b0390911681526020015b60405180910390f35b34801561020d57600080fd5b5061021760045481565b6040519081526020016101f8565b34801561023157600080fd5b506005546101e4906001600160a01b031681565b34801561025157600080fd5b506006546101e4906001600160a01b031681565b34801561027157600080fd5b50610285610280366004611c4a565b610485565b005b34801561029357600080fd5b506002546101e4906001600160a01b031681565b3480156102b357600080fd5b506102856102c2366004611c6e565b61055c565b3480156102d357600080fd5b5061021761271081565b3480156102e957600080fd5b50610217610660565b3480156102fe57600080fd5b506102176106f1565b34801561031357600080fd5b50610285610322366004611c4a565b610740565b34801561033357600080fd5b506008546101e4906001600160a01b031681565b34801561035357600080fd5b50610285610362366004611c6e565b610836565b34801561037357600080fd5b50610217600a5481565b34801561038957600080fd5b50610285610943565b34801561039e57600080fd5b506102856103ad366004611c6e565b610c19565b3480156103be57600080fd5b506102856103cd366004611c4a565b610d38565b3480156103de57600080fd5b506001546101e4906001600160a01b031681565b3480156103fe57600080fd5b5061021760095481565b34801561041457600080fd5b50610428610423366004611c6e565b610e06565b60405190151581526020016101f8565b34801561044457600080fd5b5061021760035481565b34801561045a57600080fd5b50610217620f424081565b34801561047157600080fd5b50610285610480366004611c87565b611445565b600160009054906101000a90046001600160a01b03166001600160a01b031663452a93206040518163ffffffff1660e01b8152600401602060405180830381865afa1580156104d8573d6000803e3d6000fd5b505050506040513d601f19601f820116820180604052508101906104fc9190611cb3565b6001600160a01b0316336001600160a01b0316146000906105395760405162461bcd60e51b81526004016105309190611cd0565b60405180910390fd5b50600580546001600160a01b0319166001600160a01b0392909216919091179055565b600160009054906101000a90046001600160a01b03166001600160a01b031663452a93206040518163ffffffff1660e01b8152600401602060405180830381865afa1580156105af573d6000803e3d6000fd5b505050506040513d601f19601f820116820180604052508101906105d39190611cb3565b6001600160a01b0316336001600160a01b0316146000906106075760405162461bcd60e51b81526004016105309190611cd0565b50620f424081111561065b5760405162461bcd60e51b815260206004820152601f60248201527f56616c7565206d757374206265206265747765656e203020616e6420316536006044820152606401610530565b600355565b60405163389e92a560e01b81523060048201526000907f00000000000000000000000000000000000000000000000000000000000000006001600160a01b03169063389e92a5906024015b602060405180830381865afa1580156106c8573d6000803e3d6000fd5b505050506040513d601f19601f820116820180604052508101906106ec9190611d78565b905090565b60405163f5f1595d60e01b81523060048201526000907f00000000000000000000000000000000000000000000000000000000000000006001600160a01b03169063f5f1595d906024016106ab565b600160009054906101000a90046001600160a01b03166001600160a01b0316630c340a246040518163ffffffff1660e01b8152600401602060405180830381865afa158015610793573d6000803e3d6000fd5b505050506040513d601f19601f820116820180604052508101906107b79190611cb3565b6001600160a01b0316336001600160a01b0316146000906107eb5760405162461bcd60e51b81526004016105309190611cd0565b50600180546001600160a01b0319166001600160a01b0383169081179091556040517f2f658b440c35314f52658ea8a740e05b284cdc84dc9ae01e891f21b8933e7cad90600090a250565b600160009054906101000a90046001600160a01b03166001600160a01b031663452a93206040518163ffffffff1660e01b8152600401602060405180830381865afa158015610889573d6000803e3d6000fd5b505050506040513d601f19601f820116820180604052508101906108ad9190611cb3565b6001600160a01b0316336001600160a01b0316146000906108e15760405162461bcd60e51b81526004016105309190611cd0565b5061271081111561093e5760405162461bcd60e51b815260206004820152602160248201527f56616c7565206d757374206265206265747765656e203020616e6420313030306044820152600360fc1b6064820152608401610530565b600455565b600160009054906101000a90046001600160a01b03166001600160a01b031663452a93206040518163ffffffff1660e01b8152600401602060405180830381865afa158015610996573d6000803e3d6000fd5b505050506040513d601f19601f820116820180604052508101906109ba9190611cb3565b6001600160a01b0316336001600160a01b0316146000906109ee5760405162461bcd60e51b81526004016105309190611cd0565b506001546040805163fbfa77cf60e01b815290516000926001600160a01b03169163fbfa77cf9160048083019260209291908290030181865afa158015610a39573d6000803e3d6000fd5b505050506040513d601f19601f82011682018060405250810190610a5d9190611cb3565b6001600160a01b03161415610ab45760405162461bcd60e51b815260206004820152601360248201527f5a65726f20616464726573733a205661756c74000000000000000000000000006044820152606401610530565b6002546001546040805163fbfa77cf60e01b815290516001600160a01b03938416939092169163fbfa77cf916004808201926020929091908290030181865afa158015610b05573d6000803e3d6000fd5b505050506040513d601f19601f82011682018060405250810190610b299190611cb3565b6001600160a01b03161415610b805760405162461bcd60e51b815260206004820152600960248201527f4e6f206368616e676500000000000000000000000000000000000000000000006044820152606401610530565b600160009054906101000a90046001600160a01b03166001600160a01b031663fbfa77cf6040518163ffffffff1660e01b8152600401602060405180830381865afa158015610bd3573d6000803e3d6000fd5b505050506040513d601f19601f82011682018060405250810190610bf79190611cb3565b600280546001600160a01b0319166001600160a01b0392909216919091179055565b600160009054906101000a90046001600160a01b03166001600160a01b031663452a93206040518163ffffffff1660e01b8152600401602060405180830381865afa158015610c6c573d6000803e3d6000fd5b505050506040513d601f19601f82011682018060405250810190610c909190611cb3565b6001600160a01b0316336001600160a01b031614600090610cc45760405162461bcd60e51b81526004016105309190611cd0565b5060025460075460405162b0eee360e41b81526001600160a01b03918216600482015260248101849052911690630b0eee3090604401600060405180830381600087803b158015610d1457600080fd5b505af1158015610d28573d6000803e3d6000fd5b50505050610d3581611959565b50565b600160009054906101000a90046001600160a01b03166001600160a01b031663452a93206040518163ffffffff1660e01b8152600401602060405180830381865afa158015610d8b573d6000803e3d6000fd5b505050506040513d601f19601f82011682018060405250810190610daf9190611cb3565b6001600160a01b0316336001600160a01b031614600090610de35760405162461bcd60e51b81526004016105309190611cd0565b50600680546001600160a01b0319166001600160a01b0392909216919091179055565b60015460408051630229549960e51b815290516000926001600160a01b03169163452a93209160048083019260209291908290030181865afa158015610e50573d6000803e3d6000fd5b505050506040513d601f19601f82011682018060405250810190610e749190611cb3565b6001600160a01b0316336001600160a01b031614600090610ea85760405162461bcd60e51b81526004016105309190611cd0565b506000610eb3610660565b90506000610ebf6106f1565b905081158015610ecd575080155b15610edc575060009392505050565b604051632e54bf9560e01b8152600060048201527f00000000000000000000000000000000000000000000000000000000000000006001600160a01b031690632e54bf9590602401600060405180830381600087803b158015610f3e57600080fd5b505af1158015610f52573d6000803e3d6000fd5b50506008546040516370a0823160e01b8152306004820152600093506001600160a01b0390911691506370a0823190602401602060405180830381865afa158015610fa1573d6000803e3d6000fd5b505050506040513d601f19601f82011682018060405250810190610fc59190611d78565b905080156110485760405163534a7e1d60e11b8152600481018290527f00000000000000000000000000000000000000000000000000000000000000006001600160a01b03169063a694fc3a90602401600060405180830381600087803b15801561102f57600080fd5b505af1158015611043573d6000803e3d6000fd5b505050505b47600081156112d9577f00000000000000000000000000000000000000000000000000000000000000006001600160a01b031663d0e30db0836040518263ffffffff1660e01b81526004016000604051808303818588803b1580156110ac57600080fd5b505af11580156110c0573d6000803e3d6000fd5b50506040516370a0823160e01b8152306004820152600093507f00000000000000000000000000000000000000000000000000000000000000006001600160a01b031692506370a082319150602401602060405180830381865afa15801561112c573d6000803e3d6000fd5b505050506040513d601f19601f820116820180604052508101906111509190611d78565b600354909150156112d7576000620f42406003548361116f9190611da7565b6111799190611dc6565b905060006111878a83611da7565b6040805160a0810182526004546005546007546bffffffffffffffffffffffff197f0000000000000000000000000000000000000000000000000000000000000000606090811b821660c087015260d4860185905292831b811660f4860152610108850193909352901b16610128820152815180820361011c01815261013c820183528152306020820152919250600091908101611226426019611de8565b815260200184815260200183815250905060007f00000000000000000000000000000000000000000000000000000000000000006001600160a01b031663c04b8d59836040518263ffffffff1660e01b81526004016112859190611e30565b6020604051808303816000875af11580156112a4573d6000803e3d6000fd5b505050506040513d601f19601f820116820180604052508101906112c89190611d78565b11156112d357600194505b5050505b505b60035415806112e55750805b156113b9576040516370a0823160e01b81523060048201526000907f00000000000000000000000000000000000000000000000000000000000000006001600160a01b0316906370a0823190602401602060405180830381865afa158015611351573d6000803e3d6000fd5b505050506040513d601f19601f820116820180604052508101906113759190611d78565b905080156113b7576002546113b7906001600160a01b037f00000000000000000000000000000000000000000000000000000000000000008116911683611a07565b505b6007546040516370a0823160e01b81523060048201526000916001600160a01b0316906370a0823190602401602060405180830381865afa158015611402573d6000803e3d6000fd5b505050506040513d601f19601f820116820180604052508101906114269190611d78565b905080156114375761143781611959565b506001979650505050505050565b600160009054906101000a90046001600160a01b03166001600160a01b031663452a93206040518163ffffffff1660e01b8152600401602060405180830381865afa158015611498573d6000803e3d6000fd5b505050506040513d601f19601f820116820180604052508101906114bc9190611cb3565b6001600160a01b0316336001600160a01b0316146000906114f05760405162461bcd60e51b81526004016105309190611cd0565b506007546001600160a01b038381169116148061151a57506008546001600160a01b038381169116145b61158c5760405162461bcd60e51b815260206004820152603060248201527f746f6b656e206164647265737320646f6573206e6f74206d61746368204c555360448201527f44206e6f72204c51545920746f6b656e000000000000000000000000000000006064820152608401610530565b6007546001600160a01b038381169116141561172857604051632e54bf9560e01b8152600481018290527f00000000000000000000000000000000000000000000000000000000000000006001600160a01b031690632e54bf9590602401600060405180830381600087803b15801561160457600080fd5b505af1158015611618573d6000803e3d6000fd5b50506040516370a0823160e01b8152306004820152600092506001600160a01b03851691506370a0823190602401602060405180830381865afa158015611663573d6000803e3d6000fd5b505050506040513d601f19601f820116820180604052508101906116879190611d78565b905060006116958483611b30565b90506116a382826000611bc0565b60025460405163bc157ac160e01b8152600481018490526001600160a01b038681166024830152604482018490529091169063bc157ac1906064016020604051808303816000875af11580156116fd573d6000803e3d6000fd5b505050506040513d601f19601f820116820180604052508101906117219190611d78565b5050505050565b6040516305c2fbcf60e31b8152600481018290527f00000000000000000000000000000000000000000000000000000000000000006001600160a01b031690632e17de7890602401600060405180830381600087803b15801561178a57600080fd5b505af115801561179e573d6000803e3d6000fd5b50506040516370a0823160e01b8152306004820152600092506001600160a01b03851691506370a0823190602401602060405180830381865afa1580156117e9573d6000803e3d6000fd5b505050506040513d601f19601f8201168201806040525081019061180d9190611d78565b60025490915061182a906001600160a01b03858116911683611a07565b505b5050565b604080516001600160a01b038481166024830152604480830185905283518084039091018152606490920183526020820180517bffffffffffffffffffffffffffffffffffffffffffffffffffffffff1663095ea7b360e01b17905291516000928392908716916118a19190611ea0565b6000604051808303816000865af19150503d80600081146118de576040519150601f19603f3d011682016040523d82523d6000602084013e6118e3565b606091505b509150915081801561190d57508051158061190d57508080602001905181019061190d9190611ebc565b6117215760405162461bcd60e51b815260206004820152600e60248201527f415050524f56455f4641494c45440000000000000000000000000000000000006044820152606401610530565b600654604051635f788d6560e01b8152600481018390526001600160a01b0391821660248201527f000000000000000000000000000000000000000000000000000000000000000090911690635f788d6590604401600060405180830381600087803b1580156119c857600080fd5b505af11580156119dc573d6000803e3d6000fd5b5050600754600092506119f991506001600160a01b031683611b30565b905061182c82826001611bc0565b604080516001600160a01b038481166024830152604480830185905283518084039091018152606490920183526020820180517bffffffffffffffffffffffffffffffffffffffffffffffffffffffff1663a9059cbb60e01b1790529151600092839290871691611a789190611ea0565b6000604051808303816000865af19150503d8060008114611ab5576040519150601f19603f3d011682016040523d82523d6000602084013e611aba565b606091505b5091509150818015611ae4575080511580611ae4575080806020019051810190611ae49190611ebc565b6117215760405162461bcd60e51b815260206004820152600f60248201527f5452414e534645525f4641494c454400000000000000000000000000000000006044820152606401610530565b6000826001600160a01b031663313ce5676040518163ffffffff1660e01b8152600401602060405180830381865afa158015611b70573d6000803e3d6000fd5b505050506040513d601f19601f82011682018060405250810190611b949190611ede565b611b9f90600a611fe5565b611bad83633b9aca00611da7565b611bb79190611dc6565b90505b92915050565b8015611bed5782600a54611bd49190611de8565b600a55600954611be5908390611de8565b60095561182a565b600a54831015611c0d5782600a54611c059190611ff4565b600a55611c13565b6000600a555b600954821015611c2b5781600954611be59190611ff4565b6000600955505050565b6001600160a01b0381168114610d3557600080fd5b600060208284031215611c5c57600080fd5b8135611c6781611c35565b9392505050565b600060208284031215611c8057600080fd5b5035919050565b60008060408385031215611c9a57600080fd5b8235611ca581611c35565b946020939093013593505050565b600060208284031215611cc557600080fd5b8151611c6781611c35565b600060208083526000845481600182811c915080831680611cf257607f831692505b858310811415611d1057634e487b7160e01b85526022600452602485fd5b878601838152602001818015611d2d5760018114611d3e57611d69565b60ff19861682528782019650611d69565b60008b81526020902060005b86811015611d6357815484820152908501908901611d4a565b83019750505b50949998505050505050505050565b600060208284031215611d8a57600080fd5b5051919050565b634e487b7160e01b600052601160045260246000fd5b6000816000190483118215151615611dc157611dc1611d91565b500290565b600082611de357634e487b7160e01b600052601260045260246000fd5b500490565b60008219821115611dfb57611dfb611d91565b500190565b60005b83811015611e1b578181015183820152602001611e03565b83811115611e2a576000848401525b50505050565b602081526000825160a0602084015280518060c0850152611e588160e0860160208501611e00565b6001600160a01b0360208601511660408501526040850151606085015260608501516080850152608085015160a085015260e0601f19601f8301168501019250505092915050565b60008251611eb2818460208701611e00565b9190910192915050565b600060208284031215611ece57600080fd5b81518015158114611c6757600080fd5b600060208284031215611ef057600080fd5b815160ff81168114611c6757600080fd5b600181815b80851115611f3c578160001904821115611f2257611f22611d91565b80851615611f2f57918102915b93841c9390800290611f06565b509250929050565b600082611f5357506001611bba565b81611f6057506000611bba565b8160018114611f765760028114611f8057611f9c565b6001915050611bba565b60ff841115611f9157611f91611d91565b50506001821b611bba565b5060208310610133831016604e8410600b8410161715611fbf575081810a611bba565b611fc98383611f01565b8060001904821115611fdd57611fdd611d91565b029392505050565b6000611bb760ff841683611f44565b60008282101561200657612006611d91565b50039056fea164736f6c634300080a000a",
  "devdoc": {
    "kind": "dev",
    "methods": {
      "deposit(uint256)": {
        "params": {
          "amount": "uint"
        }
      },
      "getETHRewards()": {
        "returns": {
          "_0": "uint"
        }
      },
      "getLQTYRewards()": {
        "returns": {
          "_0": "uint"
        }
      },
      "setFrontEndAddress(address)": {
        "params": {
          "_frontEndAddress": "address"
        }
      },
      "withdraw(address,uint256)": {
        "params": {
          "amount": "uint",
          "token": "address"
        }
      }
    },
    "version": 1
  },
  "userdoc": {
    "kind": "user",
    "methods": {
      "deposit(uint256)": {
        "notice": "withdraws asset from treasury, deposits asset into stability pool"
      },
      "ethToLUSDRatio()": {
        "notice": "The target percent of eth to swap to LUSD at uniswap.  divide by 1e6 to get actual value. Examples: 500000 => 500000 / 1e6 = 0.50 = 50% 330000 => 330000 / 1e6 = 0.33 = 33%"
      },
      "getETHRewards()": {
        "notice": "get ETH rewards from SP"
      },
      "getLQTYRewards()": {
        "notice": "get LQTY rewards from SP"
      },
      "harvest(uint256)": {
        "notice": "claims LQTY & ETH Rewards.   minETHLUSDRate minimum rate of when swapping ETH->LUSD.  e.g. 3500 means we swap at a rate of 1 ETH for a minimum 3500 LUSD 1.  Harvest from LUSD StabilityPool to get ETH+LQTY rewards 2.  Stake LQTY rewards from #1.  This txn will also give out any outstanding ETH+LUSD rewards from prior staking 3.  If we have eth, convert to weth, then swap a percentage of it to LUSD.  If swap successul then send all remaining WETH to treasury 4.  Deposit LUSD from #2 and potentially #3 into StabilityPool"
      },
      "poolFee()": {
        "notice": "poolFee parameter for uniswap swaprouter, divide by 1e6 to get the actual value.  See https://docs.uniswap.org/protocol/guides/swaps/multihop-swaps#calling-the-function-1 Maximum allowed value is 10000 (1%) Examples: poolFee =  3000 =>  3000 / 1e6 = 0.003 = 0.3% poolFee = 10000 => 10000 / 1e6 =  0.01 = 1.0%"
      },
      "setFrontEndAddress(address)": {
        "notice": "setsFrontEndAddress for Stability pool rewards"
      },
      "withdraw(address,uint256)": {
        "notice": "withdraws from stability pool, and deposits asset into treasury"
      }
    },
    "notice": "Contract deploys reserves from treasury into the liquity stabilty pool, and those rewards  are then paid out to the staking contract.  See harvest() function for more details.",
    "version": 1
  },
  "storageLayout": {
    "storage": [
      {
        "astId": 7414,
        "contract": "contracts/allocators/LUSDAllocator.sol:LUSDAllocator",
        "label": "UNAUTHORIZED",
        "offset": 0,
        "slot": "0",
        "type": "t_string_storage"
      },
      {
        "astId": 7417,
        "contract": "contracts/allocators/LUSDAllocator.sol:LUSDAllocator",
        "label": "authority",
        "offset": 0,
        "slot": "1",
        "type": "t_contract(IOlympusAuthority)3909"
      },
      {
        "astId": 1599,
        "contract": "contracts/allocators/LUSDAllocator.sol:LUSDAllocator",
        "label": "treasury",
        "offset": 0,
        "slot": "2",
        "type": "t_contract(ITreasury)4098"
      },
      {
        "astId": 1609,
        "contract": "contracts/allocators/LUSDAllocator.sol:LUSDAllocator",
        "label": "ethToLUSDRatio",
        "offset": 0,
        "slot": "3",
        "type": "t_uint256"
      },
      {
        "astId": 1613,
        "contract": "contracts/allocators/LUSDAllocator.sol:LUSDAllocator",
        "label": "poolFee",
        "offset": 0,
        "slot": "4",
        "type": "t_uint256"
      },
      {
        "astId": 1615,
        "contract": "contracts/allocators/LUSDAllocator.sol:LUSDAllocator",
        "label": "hopTokenAddress",
        "offset": 0,
        "slot": "5",
        "type": "t_address"
      },
      {
        "astId": 1617,
        "contract": "contracts/allocators/LUSDAllocator.sol:LUSDAllocator",
        "label": "frontEndAddress",
        "offset": 0,
        "slot": "6",
        "type": "t_address"
      },
      {
        "astId": 1619,
        "contract": "contracts/allocators/LUSDAllocator.sol:LUSDAllocator",
        "label": "lusdTokenAddress",
        "offset": 0,
        "slot": "7",
        "type": "t_address"
      },
      {
        "astId": 1621,
        "contract": "contracts/allocators/LUSDAllocator.sol:LUSDAllocator",
        "label": "lqtyTokenAddress",
        "offset": 0,
        "slot": "8",
        "type": "t_address"
      },
      {
        "astId": 1623,
        "contract": "contracts/allocators/LUSDAllocator.sol:LUSDAllocator",
        "label": "totalValueDeployed",
        "offset": 0,
        "slot": "9",
        "type": "t_uint256"
      },
      {
        "astId": 1625,
        "contract": "contracts/allocators/LUSDAllocator.sol:LUSDAllocator",
        "label": "totalAmountDeployed",
        "offset": 0,
        "slot": "10",
        "type": "t_uint256"
      }
    ],
    "types": {
      "t_address": {
        "encoding": "inplace",
        "label": "address",
        "numberOfBytes": "20"
      },
      "t_contract(IOlympusAuthority)3909": {
        "encoding": "inplace",
        "label": "contract IOlympusAuthority",
        "numberOfBytes": "20"
      },
      "t_contract(ITreasury)4098": {
        "encoding": "inplace",
        "label": "contract ITreasury",
        "numberOfBytes": "20"
      },
      "t_string_storage": {
        "encoding": "bytes",
        "label": "string",
        "numberOfBytes": "32"
      },
      "t_uint256": {
        "encoding": "inplace",
        "label": "uint256",
        "numberOfBytes": "32"
      }
    }
  }
}