{
  "address": "0x4344D30Bda9CC41eA5Dcc9f02F45ef3D3A415F6e",
  "abi": [
    {
      "inputs": [
        {
          "internalType": "contract ITreasury",
          "name": "_treasury",
          "type": "address"
        },
        {
          "internalType": "contract IERC20",
          "name": "_ohm",
          "type": "address"
        },
        {
          "internalType": "address",
          "name": "_staking",
          "type": "address"
        },
        {
          "internalType": "contract IOlympusAuthority",
          "name": "_authority",
          "type": "address"
        },
        {
          "internalType": "uint256",
          "name": "_initialRate",
          "type": "uint256"
        }
      ],
      "stateMutability": "nonpayable",
      "type": "constructor"
    },
    {
      "inputs": [],
      "name": "Adjustment_Limit",
      "type": "error"
    },
    {
      "inputs": [],
      "name": "Adjustment_Underflow",
      "type": "error"
    },
    {
      "inputs": [],
      "name": "No_Rebase_Occurred",
      "type": "error"
    },
    {
      "inputs": [],
      "name": "Not_Permissioned",
      "type": "error"
    },
    {
      "inputs": [],
      "name": "Not_Unlocked",
      "type": "error"
    },
    {
      "inputs": [],
      "name": "Only_Staking",
      "type": "error"
    },
    {
      "inputs": [],
      "name": "Sanity_Check",
      "type": "error"
    },
    {
      "anonymous": false,
      "inputs": [
        {
          "indexed": true,
          "internalType": "contract IOlympusAuthority",
          "name": "authority",
          "type": "address"
        }
      ],
      "name": "AuthorityUpdated",
      "type": "event"
    },
    {
      "inputs": [
        {
          "internalType": "uint256",
          "name": "index",
          "type": "uint256"
        },
        {
          "internalType": "address",
          "name": "pool",
          "type": "address"
        }
      ],
      "name": "addPool",
      "outputs": [],
      "stateMutability": "nonpayable",
      "type": "function"
    },
    {
      "inputs": [],
      "name": "adjustment",
      "outputs": [
        {
          "internalType": "bool",
          "name": "add",
          "type": "bool"
        },
        {
          "internalType": "uint256",
          "name": "rate",
          "type": "uint256"
        },
        {
          "internalType": "uint256",
          "name": "target",
          "type": "uint256"
        }
      ],
      "stateMutability": "view",
      "type": "function"
    },
    {
      "inputs": [],
      "name": "authority",
      "outputs": [
        {
          "internalType": "contract IOlympusAuthority",
          "name": "",
          "type": "address"
        }
      ],
      "stateMutability": "view",
      "type": "function"
    },
    {
      "inputs": [],
      "name": "bounty",
      "outputs": [
        {
          "internalType": "uint256",
          "name": "",
          "type": "uint256"
        }
      ],
      "stateMutability": "view",
      "type": "function"
    },
    {
      "inputs": [],
      "name": "distribute",
      "outputs": [],
      "stateMutability": "nonpayable",
      "type": "function"
    },
    {
      "inputs": [
        {
          "internalType": "address",
          "name": "who",
          "type": "address"
        }
      ],
      "name": "nextRewardFor",
      "outputs": [
        {
          "internalType": "uint256",
          "name": "",
          "type": "uint256"
        }
      ],
      "stateMutability": "view",
      "type": "function"
    },
    {
      "inputs": [
        {
          "internalType": "uint256",
          "name": "",
          "type": "uint256"
        }
      ],
      "name": "pools",
      "outputs": [
        {
          "internalType": "address",
          "name": "",
          "type": "address"
        }
      ],
      "stateMutability": "view",
      "type": "function"
    },
    {
      "inputs": [
        {
          "internalType": "uint256",
          "name": "index",
          "type": "uint256"
        },
        {
          "internalType": "address",
          "name": "pool",
          "type": "address"
        }
      ],
      "name": "removePool",
      "outputs": [],
      "stateMutability": "nonpayable",
      "type": "function"
    },
    {
      "inputs": [],
      "name": "retrieveBounty",
      "outputs": [
        {
          "internalType": "uint256",
          "name": "",
          "type": "uint256"
        }
      ],
      "stateMutability": "nonpayable",
      "type": "function"
    },
    {
      "inputs": [],
      "name": "rewardRate",
      "outputs": [
        {
          "internalType": "uint256",
          "name": "",
          "type": "uint256"
        }
      ],
      "stateMutability": "view",
      "type": "function"
    },
    {
      "inputs": [
        {
          "internalType": "bool",
          "name": "_add",
          "type": "bool"
        },
        {
          "internalType": "uint256",
          "name": "_rate",
          "type": "uint256"
        },
        {
          "internalType": "uint256",
          "name": "_target",
          "type": "uint256"
        }
      ],
      "name": "setAdjustment",
      "outputs": [],
      "stateMutability": "nonpayable",
      "type": "function"
    },
    {
      "inputs": [
        {
          "internalType": "contract IOlympusAuthority",
          "name": "_newAuthority",
          "type": "address"
        }
      ],
      "name": "setAuthority",
      "outputs": [],
      "stateMutability": "nonpayable",
      "type": "function"
    },
    {
      "inputs": [
        {
          "internalType": "uint256",
          "name": "_bounty",
          "type": "uint256"
        }
      ],
      "name": "setBounty",
      "outputs": [],
      "stateMutability": "nonpayable",
      "type": "function"
    },
    {
      "inputs": [
        {
          "internalType": "address[]",
          "name": "_pools",
          "type": "address[]"
        }
      ],
      "name": "setPools",
      "outputs": [],
      "stateMutability": "nonpayable",
      "type": "function"
    },
    {
      "inputs": [],
      "name": "triggerRebase",
      "outputs": [],
      "stateMutability": "nonpayable",
      "type": "function"
    }
  ],
  "transactionHash": "0xebb2dfd6648b9783f976cfeed9f27dea12062a4c50e441dd54b395a627920964",
  "args": [
    "0x7D7406e4E5Fdb636C888cF17aBb42B5edE8B3722",
    "0x784cA0C006b8651BAB183829A99fA46BeCe50dBc",
    "0x40a5F12aD1114608037ce80f028DDCF7C922Ef07",
    "0x81057Bef097462957B9388D8DCB7D4AB0699cADB",
    0
  ],
  "numDeployments": 1,
  "solcInputHash": "9e75ea4f8fbfe7117d1fa44a35652085",
  "bytecode": "0x610120604052600c60e09081526b15539055551213d49256915160a21b610100526000906200002f908262000174565b503480156200003d57600080fd5b506040516200164e3803806200164e833981016040819052620000609162000259565b600180546001600160a01b0319166001600160a01b0384169081179091556040518391907f2f658b440c35314f52658ea8a740e05b284cdc84dc9ae01e891f21b8933e7cad90600090a2506001600160a01b0394851660a0529284166080525090911660c052600255620002cd565b634e487b7160e01b600052604160045260246000fd5b600181811c90821680620000fa57607f821691505b6020821081036200011b57634e487b7160e01b600052602260045260246000fd5b50919050565b601f8211156200016f57600081815260208120601f850160051c810160208610156200014a5750805b601f850160051c820191505b818110156200016b5782815560010162000156565b5050505b505050565b81516001600160401b03811115620001905762000190620000cf565b620001a881620001a18454620000e5565b8462000121565b602080601f831160018114620001e05760008415620001c75750858301515b600019600386901b1c1916600185901b1785556200016b565b600085815260208120601f198616915b828110156200021157888601518255948401946001909101908401620001f0565b5085821015620002305787850151600019600388901b60f8161c191681555b5050505050600190811b01905550565b6001600160a01b03811681146200025657600080fd5b50565b600080600080600060a086880312156200027257600080fd5b85516200027f8162000240565b6020870151909550620002928162000240565b6040870151909450620002a58162000240565b6060870151909350620002b88162000240565b80925050608086015190509295509295909350565b60805160a05160c0516113206200032e60003960008181610271015281816108fe01528181610990015281816109b401528181610bcd0152610c5a01526000818161096101528181610a8f0152610c2d015260006104c201526113206000f3fe608060405234801561001057600080fd5b50600436106100f55760003560e01c80638544c53b11610097578063bf7e214f11610066578063bf7e214f146101f8578063e4fc6b6d1461020b578063e7187e8a14610213578063f2dff9681461021b57600080fd5b80638544c53b1461019e578063943dfef1146101b15780639b429108146101ba578063ac4afa38146101cd57600080fd5b8063451ee4a1116100d3578063451ee4a11461013d5780635d87d3631461016f5780637a9e5e4b146101825780637b0a47ee1461019557600080fd5b80630c7d3931146100fa57806333ba88821461010457806336d33f4414610117575b600080fd5b61010261022e565b005b610102610112366004611060565b610305565b61012a610125366004611090565b610496565b6040519081526020015b60405180910390f35b6004546005546006546101529260ff16919083565b604080519315158452602084019290925290820152606001610134565b61010261017d3660046110b4565b610547565b610102610190366004611090565b6105f8565b61012a60025481565b6101026101ac3660046110cd565b6106fb565b61012a60075481565b6101026101c8366004611060565b6107b8565b6101e06101db3660046110b4565b6108c9565b6040516001600160a01b039091168152602001610134565b6001546101e0906001600160a01b031681565b6101026108f3565b61012a610bc0565b610102610229366004611142565b610cd0565b6008805460ff1916600190811790915560405163990966d560e01b8152336004820152600060248201526044810182905260648101919091526001600160a01b037f0000000000000000000000000000000000000000000000000000000000000000169063990966d5906084016020604051808303816000875af11580156102ba573d6000803e3d6000fd5b505050506040513d601f19601f820116820180604052508101906102de919061117c565b5060085460ff16156103035760405163c92f022f60e01b815260040160405180910390fd5b565b600160009054906101000a90046001600160a01b03166001600160a01b0316630c340a246040518163ffffffff1660e01b8152600401602060405180830381865afa158015610358573d6000803e3d6000fd5b505050506040513d601f19601f8201168201806040525081019061037c9190611195565b6001600160a01b0316336001600160a01b0316146000906103b95760405162461bcd60e51b81526004016103b091906111b2565b60405180910390fd5b5060006001600160a01b0316600383815481106103d8576103d861125e565b6000918252602090912001546001600160a01b0316036104385780600383815481106104065761040661125e565b9060005260206000200160006101000a8154816001600160a01b0302191690836001600160a01b031602179055505050565b600380546001810182556000919091527fc2575a0e9e593c00f959f8c92f12db2869c3395a3b0502d05e2516446f71f85b0180546001600160a01b03831673ffffffffffffffffffffffffffffffffffffffff199091161790555050565b6002546040516370a0823160e01b81526001600160a01b038381166004830152600092620f42409290917f000000000000000000000000000000000000000000000000000000000000000016906370a0823190602401602060405180830381865afa158015610509573d6000803e3d6000fd5b505050506040513d601f19601f8201168201806040525081019061052d919061117c565b610537919061128a565b61054191906112a9565b92915050565b600160009054906101000a90046001600160a01b03166001600160a01b0316630c340a246040518163ffffffff1660e01b8152600401602060405180830381865afa15801561059a573d6000803e3d6000fd5b505050506040513d601f19601f820116820180604052508101906105be9190611195565b6001600160a01b0316336001600160a01b0316146000906105f25760405162461bcd60e51b81526004016103b091906111b2565b50600755565b600160009054906101000a90046001600160a01b03166001600160a01b0316630c340a246040518163ffffffff1660e01b8152600401602060405180830381865afa15801561064b573d6000803e3d6000fd5b505050506040513d601f19601f8201168201806040525081019061066f9190611195565b6001600160a01b0316336001600160a01b0316146000906106a35760405162461bcd60e51b81526004016103b091906111b2565b506001805473ffffffffffffffffffffffffffffffffffffffff19166001600160a01b0383169081179091556040517f2f658b440c35314f52658ea8a740e05b284cdc84dc9ae01e891f21b8933e7cad90600090a250565b600160009054906101000a90046001600160a01b03166001600160a01b0316630c340a246040518163ffffffff1660e01b8152600401602060405180830381865afa15801561074e573d6000803e3d6000fd5b505050506040513d601f19601f820116820180604052508101906107729190611195565b6001600160a01b0316336001600160a01b0316146000906107a65760405162461bcd60e51b81526004016103b091906111b2565b506107b360038383610fc3565b505050565b600160009054906101000a90046001600160a01b03166001600160a01b0316630c340a246040518163ffffffff1660e01b8152600401602060405180830381865afa15801561080b573d6000803e3d6000fd5b505050506040513d601f19601f8201168201806040525081019061082f9190611195565b6001600160a01b0316336001600160a01b0316146000906108635760405162461bcd60e51b81526004016103b091906111b2565b50806001600160a01b0316600383815481106108815761088161125e565b6000918252602090912001546001600160a01b0316146108b457604051630a87e13960e01b815260040160405180910390fd5b6000600383815481106104065761040661125e565b600381815481106108d957600080fd5b6000918252602090912001546001600160a01b0316905081565b336001600160a01b037f0000000000000000000000000000000000000000000000000000000000000000161461093c5760405163084df95960e01b815260040160405180910390fd5b60085460ff1661095f5760405163619171c960e01b815260040160405180910390fd5b7f00000000000000000000000000000000000000000000000000000000000000006001600160a01b03166340c10f197f00000000000000000000000000000000000000000000000000000000000000006109d87f0000000000000000000000000000000000000000000000000000000000000000610496565b6040517fffffffff0000000000000000000000000000000000000000000000000000000060e085901b1681526001600160a01b0390921660048301526024820152604401600060405180830381600087803b158015610a3657600080fd5b505af1158015610a4a573d6000803e3d6000fd5b5050505060005b600354811015610ba357600060038281548110610a7057610a7061125e565b6000918252602090912001546001600160a01b031690508015610b90577f00000000000000000000000000000000000000000000000000000000000000006001600160a01b03166340c10f1982610ac684610496565b6040517fffffffff0000000000000000000000000000000000000000000000000000000060e085901b1681526001600160a01b0390921660048301526024820152604401600060405180830381600087803b158015610b2457600080fd5b505af1158015610b38573d6000803e3d6000fd5b50505050806001600160a01b031663fff6cae96040518163ffffffff1660e01b8152600401600060405180830381600087803b158015610b7757600080fd5b505af1158015610b8b573d6000803e3d6000fd5b505050505b5080610b9b816112cb565b915050610a51565b5060055415610bb457610bb4610f3c565b6008805460ff19169055565b6000336001600160a01b037f00000000000000000000000000000000000000000000000000000000000000001614610c0b5760405163084df95960e01b815260040160405180910390fd5b60075415610cc9576007546040516340c10f1960e01b81526001600160a01b037f000000000000000000000000000000000000000000000000000000000000000016916340c10f1991610c96917f0000000000000000000000000000000000000000000000000000000000000000916004016001600160a01b03929092168252602082015260400190565b600060405180830381600087803b158015610cb057600080fd5b505af1158015610cc4573d6000803e3d6000fd5b505050505b5060075490565b600160009054906101000a90046001600160a01b03166001600160a01b0316630c340a246040518163ffffffff1660e01b8152600401602060405180830381865afa158015610d23573d6000803e3d6000fd5b505050506040513d601f19601f82011682018060405250810190610d479190611195565b6001600160a01b0316336001600160a01b031614158015610df05750600160009054906101000a90046001600160a01b03166001600160a01b031663452a93206040518163ffffffff1660e01b8152600401602060405180830381865afa158015610db6573d6000803e3d6000fd5b505050506040513d601f19601f82011682018060405250810190610dda9190611195565b6001600160a01b0316336001600160a01b031614155b15610e0e576040516362050a4360e01b815260040160405180910390fd5b600160009054906101000a90046001600160a01b03166001600160a01b031663452a93206040518163ffffffff1660e01b8152600401602060405180830381865afa158015610e61573d6000803e3d6000fd5b505050506040513d601f19601f82011682018060405250810190610e859190611195565b6001600160a01b0316336001600160a01b0316148015610ebf57506103e86002546019610eb2919061128a565b610ebc91906112a9565b82115b15610edd57604051639a9a991560e01b815260040160405180910390fd5b82158015610eec575060025482115b15610f0a57604051635c4fae2b60e11b815260040160405180910390fd5b604080516060810182529315158085526020850184905293018190526004805460ff1916909317909255600555600655565b60045460ff1615610f795760055460028054600090610f5c9084906112e4565b909155505060065460025410610303576000600555600654600255565b6005546002541115610fa55760055460028054600090610f9a9084906112fc565b90915550610fab9050565b60006002555b60065460025411610303576000600555600654600255565b828054828255906000526020600020908101928215611023579160200282015b8281111561102357815473ffffffffffffffffffffffffffffffffffffffff19166001600160a01b03843516178255602090920191600190910190610fe3565b5061102f929150611033565b5090565b5b8082111561102f5760008155600101611034565b6001600160a01b038116811461105d57600080fd5b50565b6000806040838503121561107357600080fd5b82359150602083013561108581611048565b809150509250929050565b6000602082840312156110a257600080fd5b81356110ad81611048565b9392505050565b6000602082840312156110c657600080fd5b5035919050565b600080602083850312156110e057600080fd5b823567ffffffffffffffff808211156110f857600080fd5b818501915085601f83011261110c57600080fd5b81358181111561111b57600080fd5b8660208260051b850101111561113057600080fd5b60209290920196919550909350505050565b60008060006060848603121561115757600080fd5b8335801515811461116757600080fd5b95602085013595506040909401359392505050565b60006020828403121561118e57600080fd5b5051919050565b6000602082840312156111a757600080fd5b81516110ad81611048565b600060208083526000845481600182811c9150808316806111d457607f831692505b85831081036111f157634e487b7160e01b85526022600452602485fd5b87860183815260200181801561120e57600181146112245761124f565b60ff198616825284151560051b8201965061124f565b60008b81526020902060005b8681101561124957815484820152908501908901611230565b83019750505b50949998505050505050505050565b634e487b7160e01b600052603260045260246000fd5b634e487b7160e01b600052601160045260246000fd5b60008160001904831182151516156112a4576112a4611274565b500290565b6000826112c657634e487b7160e01b600052601260045260246000fd5b500490565b6000600182016112dd576112dd611274565b5060010190565b600082198211156112f7576112f7611274565b500190565b60008282101561130e5761130e611274565b50039056fea164736f6c634300080f000a",
  "devdoc": {
    "kind": "dev",
    "methods": {
      "addPool(uint256,address)": {
        "details": "note you should find an empty slot offchain before callingif there are no empty slots, pass in an occupied index to push"
      },
      "setPools(address[])": {
        "details": "note that this overwrites the entire list (!!)"
      }
    },
    "version": 1
  },
  "userdoc": {
    "kind": "user",
    "methods": {
      "addPool(uint256,address)": {
        "notice": "adds a pool to the list"
      },
      "adjustment()": {
        "notice": "Information about adjusting reward rate"
      },
      "bounty()": {
        "notice": "A bounty for keepers to call the triggerRebase() function"
      },
      "distribute()": {
        "notice": "send epoch reward to staking contract"
      },
      "nextRewardFor(address)": {
        "notice": "view function for next reward for an address"
      },
      "pools(uint256)": {
        "notice": "Liquidity pools to receive rewards"
      },
      "removePool(uint256,address)": {
        "notice": "removes a pool from the list"
      },
      "rewardRate()": {
        "notice": "The % to increase balances per epoch"
      },
      "setAdjustment(bool,uint256,uint256)": {
        "notice": "set adjustment info for a collector's reward rate"
      },
      "setBounty(uint256)": {
        "notice": "set bounty to incentivize keepers"
      },
      "setPools(address[])": {
        "notice": "sets the liquidity pools for mint and sync"
      }
    },
    "notice": "Updated distributor adds the ability to mint and sync         into Uniswap V2-style liquidity pools, removing the         opportunity-cost dilemma of providing liquidity for         OHM, as well as patches a small bug in the staking contract         that pulls forward an amount of the next epoch rewards. Note that         this implementation bases staking reward distributions on staked supply.",
    "version": 1
  },
  "storageLayout": {
    "storage": [
      {
        "astId": 14907,
        "contract": "contracts/StakingDistributor.sol:Distributor",
        "label": "UNAUTHORIZED",
        "offset": 0,
        "slot": "0",
        "type": "t_string_storage"
      },
      {
        "astId": 14910,
        "contract": "contracts/StakingDistributor.sol:Distributor",
        "label": "authority",
        "offset": 0,
        "slot": "1",
        "type": "t_contract(IOlympusAuthority)6192"
      },
      {
        "astId": 2684,
        "contract": "contracts/StakingDistributor.sol:Distributor",
        "label": "rewardRate",
        "offset": 0,
        "slot": "2",
        "type": "t_uint256"
      },
      {
        "astId": 2688,
        "contract": "contracts/StakingDistributor.sol:Distributor",
        "label": "pools",
        "offset": 0,
        "slot": "3",
        "type": "t_array(t_address)dyn_storage"
      },
      {
        "astId": 2692,
        "contract": "contracts/StakingDistributor.sol:Distributor",
        "label": "adjustment",
        "offset": 0,
        "slot": "4",
        "type": "t_struct(Adjust)2670_storage"
      },
      {
        "astId": 2695,
        "contract": "contracts/StakingDistributor.sol:Distributor",
        "label": "bounty",
        "offset": 0,
        "slot": "7",
        "type": "t_uint256"
      },
      {
        "astId": 2737,
        "contract": "contracts/StakingDistributor.sol:Distributor",
        "label": "unlockRebase",
        "offset": 0,
        "slot": "8",
        "type": "t_bool"
      }
    ],
    "types": {
      "t_address": {
        "encoding": "inplace",
        "label": "address",
        "numberOfBytes": "20"
      },
      "t_array(t_address)dyn_storage": {
        "base": "t_address",
        "encoding": "dynamic_array",
        "label": "address[]",
        "numberOfBytes": "32"
      },
      "t_bool": {
        "encoding": "inplace",
        "label": "bool",
        "numberOfBytes": "1"
      },
      "t_contract(IOlympusAuthority)6192": {
        "encoding": "inplace",
        "label": "contract IOlympusAuthority",
        "numberOfBytes": "20"
      },
      "t_string_storage": {
        "encoding": "bytes",
        "label": "string",
        "numberOfBytes": "32"
      },
      "t_struct(Adjust)2670_storage": {
        "encoding": "inplace",
        "label": "struct Distributor.Adjust",
        "members": [
          {
            "astId": 2665,
            "contract": "contracts/StakingDistributor.sol:Distributor",
            "label": "add",
            "offset": 0,
            "slot": "0",
            "type": "t_bool"
          },
          {
            "astId": 2667,
            "contract": "contracts/StakingDistributor.sol:Distributor",
            "label": "rate",
            "offset": 0,
            "slot": "1",
            "type": "t_uint256"
          },
          {
            "astId": 2669,
            "contract": "contracts/StakingDistributor.sol:Distributor",
            "label": "target",
            "offset": 0,
            "slot": "2",
            "type": "t_uint256"
          }
        ],
        "numberOfBytes": "96"
      },
      "t_uint256": {
        "encoding": "inplace",
        "label": "uint256",
        "numberOfBytes": "32"
      }
    }
  }
}