{
  "address": "0xaBF0Bd70d1c197101a474F8F22A1C1c374B8B45B",
  "abi": [
    {
      "inputs": [
        {
          "internalType": "address",
          "name": "_treasury",
          "type": "address"
        },
        {
          "internalType": "address",
          "name": "_lusdTokenAddress",
          "type": "address"
        },
        {
          "internalType": "address",
          "name": "_lqtyTokenAddress",
          "type": "address"
        },
        {
          "internalType": "address",
          "name": "_stabilityPool",
          "type": "address"
        },
        {
          "internalType": "address",
          "name": "_lqtyStaking",
          "type": "address"
        },
        {
          "internalType": "address",
          "name": "_frontEndAddress",
          "type": "address"
        },
        {
          "internalType": "address",
          "name": "_wethAddress",
          "type": "address"
        }
      ],
      "stateMutability": "nonpayable",
      "type": "constructor"
    },
    {
      "anonymous": false,
      "inputs": [
        {
          "indexed": true,
          "internalType": "address",
          "name": "previousOwner",
          "type": "address"
        },
        {
          "indexed": true,
          "internalType": "address",
          "name": "newOwner",
          "type": "address"
        }
      ],
      "name": "OwnershipPulled",
      "type": "event"
    },
    {
      "anonymous": false,
      "inputs": [
        {
          "indexed": true,
          "internalType": "address",
          "name": "previousOwner",
          "type": "address"
        },
        {
          "indexed": true,
          "internalType": "address",
          "name": "newOwner",
          "type": "address"
        }
      ],
      "name": "OwnershipPushed",
      "type": "event"
    },
    {
      "inputs": [
        {
          "internalType": "address",
          "name": "token",
          "type": "address"
        },
        {
          "internalType": "uint256",
          "name": "amount",
          "type": "uint256"
        }
      ],
      "name": "deposit",
      "outputs": [],
      "stateMutability": "nonpayable",
      "type": "function"
    },
    {
      "inputs": [],
      "name": "frontEndAddress",
      "outputs": [
        {
          "internalType": "address",
          "name": "",
          "type": "address"
        }
      ],
      "stateMutability": "view",
      "type": "function"
    },
    {
      "inputs": [],
      "name": "getETHRewards",
      "outputs": [
        {
          "internalType": "uint256",
          "name": "",
          "type": "uint256"
        }
      ],
      "stateMutability": "view",
      "type": "function"
    },
    {
      "inputs": [],
      "name": "getLQTYRewards",
      "outputs": [
        {
          "internalType": "uint256",
          "name": "",
          "type": "uint256"
        }
      ],
      "stateMutability": "view",
      "type": "function"
    },
    {
      "inputs": [],
      "name": "harvest",
      "outputs": [
        {
          "internalType": "bool",
          "name": "",
          "type": "bool"
        }
      ],
      "stateMutability": "nonpayable",
      "type": "function"
    },
    {
      "inputs": [],
      "name": "lqtyTokenAddress",
      "outputs": [
        {
          "internalType": "address",
          "name": "",
          "type": "address"
        }
      ],
      "stateMutability": "view",
      "type": "function"
    },
    {
      "inputs": [],
      "name": "lusdTokenAddress",
      "outputs": [
        {
          "internalType": "address",
          "name": "",
          "type": "address"
        }
      ],
      "stateMutability": "view",
      "type": "function"
    },
    {
      "inputs": [],
      "name": "owner",
      "outputs": [
        {
          "internalType": "address",
          "name": "",
          "type": "address"
        }
      ],
      "stateMutability": "view",
      "type": "function"
    },
    {
      "inputs": [],
      "name": "pullManagement",
      "outputs": [],
      "stateMutability": "nonpayable",
      "type": "function"
    },
    {
      "inputs": [
        {
          "internalType": "address",
          "name": "newOwner_",
          "type": "address"
        }
      ],
      "name": "pushManagement",
      "outputs": [],
      "stateMutability": "nonpayable",
      "type": "function"
    },
    {
      "inputs": [],
      "name": "renounceManagement",
      "outputs": [],
      "stateMutability": "nonpayable",
      "type": "function"
    },
    {
      "inputs": [
        {
          "internalType": "address",
          "name": "_frontEndAddress",
          "type": "address"
        }
      ],
      "name": "setFrontEndAddress",
      "outputs": [],
      "stateMutability": "nonpayable",
      "type": "function"
    },
    {
      "inputs": [],
      "name": "totalAmountDeployed",
      "outputs": [
        {
          "internalType": "uint256",
          "name": "",
          "type": "uint256"
        }
      ],
      "stateMutability": "view",
      "type": "function"
    },
    {
      "inputs": [],
      "name": "totalValueDeployed",
      "outputs": [
        {
          "internalType": "uint256",
          "name": "",
          "type": "uint256"
        }
      ],
      "stateMutability": "view",
      "type": "function"
    },
    {
      "inputs": [
        {
          "internalType": "address",
          "name": "token",
          "type": "address"
        },
        {
          "internalType": "uint256",
          "name": "amount",
          "type": "uint256"
        }
      ],
      "name": "withdraw",
      "outputs": [],
      "stateMutability": "nonpayable",
      "type": "function"
    }
  ],
  "transactionHash": "0xd559f629a2d210028cafdf8775adf77cd2ab04cb65ac706f22ba018c684b3db3",
  "args": [
    "0x0b28Da6b497c984ed48b0d69f1DF4010071fC78e",
    "0xaf844BBaD90fB27ae949376338F7c9DA1251acFf",
    "0xf8A1aA1c34970aCE24041ef038A442732d942b89",
    "0xFd0dB2BA8BEaC72d45f12A76f40c345BBf5f6F8d",
    "0x35D3293EA6dD210b8Ca25668ae266ca4C834Ea1b",
    "0x0000000000000000000000000000000000000000",
    "0xc778417E063141139Fce010982780140Aa0cD5Ab"
  ],
  "solcInputHash": "308bdccd55d611a99abade2132ab32f3",
  "bytecode": "0x61010060405234801561001157600080fd5b5060405162001a8938038062001a89833981810160405260e081101561003657600080fd5b50805160208201516040808401516060850151608086015160a087015160c090970151600080546001600160a01b031916331780825595519798969794969395929491926001600160a01b0316917fea8258f2d9ddb679928cf34b78cf645b7feda9acc828e4dd82d014eaae270eba908290a36001600160a01b038716610104576040805162461bcd60e51b815260206004820152601e60248201527f747265617375727920616464726573732063616e6e6f74206265203078300000604482015290519081900360640190fd5b6001600160601b0319606088901b1660c0526001600160a01b038616610171576040805162461bcd60e51b815260206004820181905260248201527f4c55534420746f6b656e20616464726573732063616e6e6f7420626520307830604482015290519081900360640190fd5b600380546001600160a01b0319166001600160a01b038881169190911790915585166101e4576040805162461bcd60e51b815260206004820181905260248201527f4c51545920746f6b656e20616464726573732063616e6e6f7420626520307830604482015290519081900360640190fd5b600480546001600160a01b0319166001600160a01b038781169190911790915584166102425760405162461bcd60e51b815260040180806020018281038252602381526020018062001a666023913960400191505060405180910390fd5b6001600160601b0319606085901b166080526001600160a01b03831661029a5760405162461bcd60e51b815260040180806020018281038252602281526020018062001a446022913960400191505060405180910390fd5b606083901b6001600160601b03191660a052600280546001600160a01b0319166001600160a01b0384811691909117909155811661031f576040805162461bcd60e51b815260206004820181905260248201527f5745544820746f6b656e20616464726573732063616e6e6f7420626520307830604482015290519081900360640190fd5b6001600160601b031960609190911b1660e05250505050505060805160601c60a05160601c60c05160601c60e05160601c611675620003cf600039806107eb52806108ba52508061081a52806108dd5280610a785280610c3a528061112652806111ba528061127c52508061046752806104fc528061058b528061063752508061034352806106b8528061076b5280610b165280610bd45280610d9d5280610e3d528061100052506116756000f3fe608060405234801561001057600080fd5b50600436106100f45760003560e01c806378289ed211610097578063987f56ff11610066578063987f56ff146101d7578063b7e78648146101df578063c901761d14610205578063f3fef3a31461020d576100f4565b806378289ed2146101a557806378767d05146101bf578063817f6481146101c75780638da5cb5b146101cf576100f4565b80634641257d116100d35780634641257d1461012f57806346f68ee91461014b57806347e7ef24146101715780635a96ac0a1461019d576100f4565b806202fcd3146100f9578063089208d81461011d5780631d2528fc14610127575b600080fd5b610101610239565b604080516001600160a01b039092168252519081900360200190f35b610125610248565b005b6101016102fd565b61013761030c565b604080519115158252519081900360200190f35b6101256004803603602081101561016157600080fd5b50356001600160a01b0316610911565b6101256004803603604081101561018757600080fd5b506001600160a01b0381351690602001356109cb565b610125610cec565b6101ad610d99565b60408051918252519081900360200190f35b6101ad610e39565b610101610ea8565b610101610eb7565b6101ad610ec6565b610125600480360360208110156101f557600080fd5b50356001600160a01b0316610ecc565b6101ad610f4d565b6101256004803603604081101561022357600080fd5b506001600160a01b038135169060200135610f53565b6003546001600160a01b031681565b6000546001600160a01b031633146102a7576040805162461bcd60e51b815260206004820181905260248201527f4f776e61626c653a2063616c6c6572206973206e6f7420746865206f776e6572604482015290519081900360640190fd5b600080546040516001600160a01b03909116907faa151555690c956fc3ea32f106bb9f119b5237a061eaa8557cff3e51e3792c8d908390a3600080546001600160a01b0319908116909155600180549091169055565b6002546001600160a01b031681565b600080610317610d99565b90506000610323610e39565b905081158015610331575080155b156103415760009250505061090e565b7f00000000000000000000000000000000000000000000000000000000000000006001600160a01b0316632e54bf9560006040518263ffffffff1660e01b815260040180828152602001915050600060405180830381600087803b1580156103a857600080fd5b505af11580156103bc573d6000803e3d6000fd5b505060048054604080516370a0823160e01b8152309381019390935251600094506001600160a01b0390911692506370a0823191602480820192602092909190829003018186803b15801561041057600080fd5b505afa158015610424573d6000803e3d6000fd5b505050506040513d602081101561043a57600080fd5b5051905060008082156106975760408051638b9345ad60e01b815230600482015290516001600160a01b037f00000000000000000000000000000000000000000000000000000000000000001691638b9345ad916024808301926020929190829003018186803b1580156104ad57600080fd5b505afa1580156104c1573d6000803e3d6000fd5b505050506040513d60208110156104d757600080fd5b50516040805163026faad760e61b815230600482015290519193506001600160a01b037f00000000000000000000000000000000000000000000000000000000000000001691639beab5c091602480820192602092909190829003018186803b15801561054357600080fd5b505afa158015610557573d6000803e3d6000fd5b505050506040513d602081101561056d57600080fd5b5051600480546040805163095ea7b360e01b81526001600160a01b037f000000000000000000000000000000000000000000000000000000000000000081169482019490945260248101889052905193945091169163095ea7b3916044808201926020929091908290030181600087803b1580156105ea57600080fd5b505af11580156105fe573d6000803e3d6000fd5b505050506040513d602081101561061457600080fd5b50506040805163534a7e1d60e11b81526004810185905290516001600160a01b037f0000000000000000000000000000000000000000000000000000000000000000169163a694fc3a91602480830192600092919082900301818387803b15801561067e57600080fd5b505af1158015610692573d6000803e3d6000fd5b505050505b80156107ce576003546040805163095ea7b360e01b81526001600160a01b037f000000000000000000000000000000000000000000000000000000000000000081166004830152602482018590529151919092169163095ea7b39160448083019260209291908290030181600087803b15801561071357600080fd5b505af1158015610727573d6000803e3d6000fd5b505050506040513d602081101561073d57600080fd5b505060025460408051635f788d6560e01b8152600481018490526001600160a01b03928316602482015290517f000000000000000000000000000000000000000000000000000000000000000090921691635f788d659160448082019260009290919082900301818387803b1580156107b557600080fd5b505af11580156107c9573d6000803e3d6000fd5b505050505b60008511806107dd5750600082115b1561090457600082860190507f00000000000000000000000000000000000000000000000000000000000000006001600160a01b031663095ea7b37f0000000000000000000000000000000000000000000000000000000000000000836040518363ffffffff1660e01b815260040180836001600160a01b0316815260200182815260200192505050602060405180830381600087803b15801561088057600080fd5b505af1158015610894573d6000803e3d6000fd5b505050506040513d60208110156108aa57600080fd5b5061090290506001600160a01b037f000000000000000000000000000000000000000000000000000000000000000016307f0000000000000000000000000000000000000000000000000000000000000000846112f9565b505b6001955050505050505b90565b6000546001600160a01b03163314610970576040805162461bcd60e51b815260206004820181905260248201527f4f776e61626c653a2063616c6c6572206973206e6f7420746865206f776e6572604482015290519081900360640190fd5b600080546040516001600160a01b03808516939216917fea8258f2d9ddb679928cf34b78cf645b7feda9acc828e4dd82d014eaae270eba91a3600180546001600160a01b0319166001600160a01b0392909216919091179055565b6000546001600160a01b03163314610a2a576040805162461bcd60e51b815260206004820181905260248201527f4f776e61626c653a2063616c6c6572206973206e6f7420746865206f776e6572604482015290519081900360640190fd5b6003546001600160a01b03838116911614610a765760405162461bcd60e51b81526004018080602001828103825260278152602001806116426027913960400191505060405180910390fd5b7f00000000000000000000000000000000000000000000000000000000000000006001600160a01b0316630b0eee3083836040518363ffffffff1660e01b815260040180836001600160a01b0316815260200182815260200192505050600060405180830381600087803b158015610aed57600080fd5b505af1158015610b01573d6000803e3d6000fd5b50505050816001600160a01b031663095ea7b37f0000000000000000000000000000000000000000000000000000000000000000836040518363ffffffff1660e01b815260040180836001600160a01b0316815260200182815260200192505050602060405180830381600087803b158015610b7c57600080fd5b505af1158015610b90573d6000803e3d6000fd5b505050506040513d6020811015610ba657600080fd5b505060025460408051635f788d6560e01b8152600481018490526001600160a01b03928316602482015290517f000000000000000000000000000000000000000000000000000000000000000090921691635f788d659160448082019260009290919082900301818387803b158015610c1e57600080fd5b505af1158015610c32573d6000803e3d6000fd5b5050505060007f00000000000000000000000000000000000000000000000000000000000000006001600160a01b031663f182178384846040518363ffffffff1660e01b815260040180836001600160a01b031681526020018281526020019250505060206040518083038186803b158015610cad57600080fd5b505afa158015610cc1573d6000803e3d6000fd5b505050506040513d6020811015610cd757600080fd5b50519050610ce782826001611479565b505050565b6001546001600160a01b03163314610d355760405162461bcd60e51b81526004018080602001828103825260228152602001806116206022913960400191505060405180910390fd5b600154600080546040516001600160a01b0393841693909116917faa151555690c956fc3ea32f106bb9f119b5237a061eaa8557cff3e51e3792c8d91a360018054600080546001600160a01b03199081166001600160a01b03841617909155169055565b60007f00000000000000000000000000000000000000000000000000000000000000006001600160a01b031663389e92a5306040518263ffffffff1660e01b815260040180826001600160a01b0316815260200191505060206040518083038186803b158015610e0857600080fd5b505afa158015610e1c573d6000803e3d6000fd5b505050506040513d6020811015610e3257600080fd5b5051905090565b60007f00000000000000000000000000000000000000000000000000000000000000006001600160a01b031663f5f1595d306040518263ffffffff1660e01b815260040180826001600160a01b0316815260200191505060206040518083038186803b158015610e0857600080fd5b6004546001600160a01b031681565b6000546001600160a01b031690565b60065481565b6000546001600160a01b03163314610f2b576040805162461bcd60e51b815260206004820181905260248201527f4f776e61626c653a2063616c6c6572206973206e6f7420746865206f776e6572604482015290519081900360640190fd5b600280546001600160a01b0319166001600160a01b0392909216919091179055565b60055481565b6000546001600160a01b03163314610fb2576040805162461bcd60e51b815260206004820181905260248201527f4f776e61626c653a2063616c6c6572206973206e6f7420746865206f776e6572604482015290519081900360640190fd5b6003546001600160a01b03838116911614610ffe5760405162461bcd60e51b81526004018080602001828103825260278152602001806116426027913960400191505060405180910390fd5b7f00000000000000000000000000000000000000000000000000000000000000006001600160a01b0316632e54bf95826040518263ffffffff1660e01b815260040180828152602001915050600060405180830381600087803b15801561106457600080fd5b505af1158015611078573d6000803e3d6000fd5b505050506000826001600160a01b03166370a08231306040518263ffffffff1660e01b815260040180826001600160a01b0316815260200191505060206040518083038186803b1580156110cb57600080fd5b505afa1580156110df573d6000803e3d6000fd5b505050506040513d60208110156110f557600080fd5b50516040805163f182178360e01b81526001600160a01b0386811660048301526024820184905291519293506000927f00000000000000000000000000000000000000000000000000000000000000009092169163f182178391604480820192602092909190829003018186803b15801561116f57600080fd5b505afa158015611183573d6000803e3d6000fd5b505050506040513d602081101561119957600080fd5b505190506111a982826000611479565b836001600160a01b031663095ea7b37f0000000000000000000000000000000000000000000000000000000000000000846040518363ffffffff1660e01b815260040180836001600160a01b0316815260200182815260200192505050602060405180830381600087803b15801561122057600080fd5b505af1158015611234573d6000803e3d6000fd5b505050506040513d602081101561124a57600080fd5b50506040805163bc157ac160e01b8152600481018490526001600160a01b0386811660248301526044820184905291517f00000000000000000000000000000000000000000000000000000000000000009092169163bc157ac1916064808201926020929091908290030181600087803b1580156112c757600080fd5b505af11580156112db573d6000803e3d6000fd5b505050506040513d60208110156112f157600080fd5b505050505050565b604080516001600160a01b0385811660248301528481166044830152606480830185905283518084039091018152608490920183526020820180517bffffffffffffffffffffffffffffffffffffffffffffffffffffffff166323b872dd60e01b17815292518251600094606094938a169392918291908083835b602083106113935780518252601f199092019160209182019101611374565b6001836020036101000a0380198251168184511680821785525050505050509050019150506000604051808303816000865af19150503d80600081146113f5576040519150601f19603f3d011682016040523d82523d6000602084013e6113fa565b606091505b5091509150818015611428575080511580611428575080806020019051602081101561142557600080fd5b50515b6112f1576040805162461bcd60e51b815260206004820152601460248201527f5452414e534645525f46524f4d5f4641494c4544000000000000000000000000604482015290519081900360640190fd5b80156114a45760065461148c90846114ea565b60065560055461149c90836114ea565b600555610ce7565b6006548310156114c3576006546114bb908461154b565b6006556114c9565b60006006555b6005548210156114e05760055461149c908361154b565b6000600555505050565b600082820183811015611544576040805162461bcd60e51b815260206004820152601b60248201527f536166654d6174683a206164646974696f6e206f766572666c6f770000000000604482015290519081900360640190fd5b9392505050565b600061154483836040518060400160405280601e81526020017f536166654d6174683a207375627472616374696f6e206f766572666c6f770000815250600081848411156116175760405162461bcd60e51b81526004018080602001828103825283818151815260200191508051906020019080838360005b838110156115dc5781810151838201526020016115c4565b50505050905090810190601f1680156116095780820380516001836020036101000a031916815260200191505b509250505060405180910390fd5b50505090039056fe4f776e61626c653a206d757374206265206e6577206f776e657220746f2070756c6c746f6b656e206164647265737320646f6573206e6f74206d61746368204c55534420746f6b656ea164736f6c6343000705000a4c515459207374616b696e6720616464726573732063616e6e6f742062652030783073746162696c697479506f6f6c20616464726573732063616e6e6f7420626520307830",
  "devdoc": {
    "kind": "dev",
    "methods": {
      "deposit(address,uint256)": {
        "params": {
          "amount": "uint",
          "token": "address"
        }
      },
      "getETHRewards()": {
        "returns": {
          "_0": "uint"
        }
      },
      "getLQTYRewards()": {
        "returns": {
          "_0": "uint"
        }
      },
      "setFrontEndAddress(address)": {
        "params": {
          "_frontEndAddress": "address"
        }
      },
      "withdraw(address,uint256)": {
        "params": {
          "amount": "uint",
          "token": "address"
        }
      }
    },
    "version": 1
  },
  "userdoc": {
    "kind": "user",
    "methods": {
      "deposit(address,uint256)": {
        "notice": "withdraws asset from treasury, deposits asset into stability pool"
      },
      "getETHRewards()": {
        "notice": "get ETH rewards from SP"
      },
      "getLQTYRewards()": {
        "notice": "get LQTY rewards from SP"
      },
      "harvest()": {
        "notice": "claims LQTY & ETH Rewards 1.  Harvest from LUSD StabilityPool to get ETH+LQTY rewards 2.  Stake LQTY rewards from #1.  This txn will also give out any outstanding ETH+LUSD rewards from prior staking 3.  Deposit LUSD from #2 into StabilityPool 4.  Move ETH from #1 and #2 to treasury "
      },
      "setFrontEndAddress(address)": {
        "notice": "setsFrontEndAddress for Stability pool rewards"
      },
      "withdraw(address,uint256)": {
        "notice": "withdraws from stability pool, and deposits asset into treasury"
      }
    },
    "notice": "Contract deploys reserves from treasury into the Aave lending pool,  earning interest and $stkAAVE.",
    "version": 1
  },
  "storageLayout": {
    "storage": [
      {
        "astId": 19132,
        "contract": "contracts/allocators/LUSDAllocator.sol:LUSDAllocator",
        "label": "_owner",
        "offset": 0,
        "slot": "0",
        "type": "t_address"
      },
      {
        "astId": 19134,
        "contract": "contracts/allocators/LUSDAllocator.sol:LUSDAllocator",
        "label": "_newOwner",
        "offset": 0,
        "slot": "1",
        "type": "t_address"
      },
      {
        "astId": 10473,
        "contract": "contracts/allocators/LUSDAllocator.sol:LUSDAllocator",
        "label": "frontEndAddress",
        "offset": 0,
        "slot": "2",
        "type": "t_address"
      },
      {
        "astId": 10475,
        "contract": "contracts/allocators/LUSDAllocator.sol:LUSDAllocator",
        "label": "lusdTokenAddress",
        "offset": 0,
        "slot": "3",
        "type": "t_address"
      },
      {
        "astId": 10477,
        "contract": "contracts/allocators/LUSDAllocator.sol:LUSDAllocator",
        "label": "lqtyTokenAddress",
        "offset": 0,
        "slot": "4",
        "type": "t_address"
      },
      {
        "astId": 10479,
        "contract": "contracts/allocators/LUSDAllocator.sol:LUSDAllocator",
        "label": "totalValueDeployed",
        "offset": 0,
        "slot": "5",
        "type": "t_uint256"
      },
      {
        "astId": 10481,
        "contract": "contracts/allocators/LUSDAllocator.sol:LUSDAllocator",
        "label": "totalAmountDeployed",
        "offset": 0,
        "slot": "6",
        "type": "t_uint256"
      }
    ],
    "types": {
      "t_address": {
        "encoding": "inplace",
        "label": "address",
        "numberOfBytes": "20"
      },
      "t_uint256": {
        "encoding": "inplace",
        "label": "uint256",
        "numberOfBytes": "32"
      }
    }
  }
}