{
  "address": "0x10b27a31AA4d7544F89898ccAf3Faf776F5671C4",
  "abi": [
    {
      "inputs": [
        {
          "internalType": "address",
          "name": "_authority",
          "type": "address"
        }
      ],
      "stateMutability": "nonpayable",
      "type": "constructor"
    },
    {
      "anonymous": false,
      "inputs": [
        {
          "indexed": true,
          "internalType": "address",
          "name": "owner",
          "type": "address"
        },
        {
          "indexed": true,
          "internalType": "address",
          "name": "spender",
          "type": "address"
        },
        {
          "indexed": false,
          "internalType": "uint256",
          "name": "value",
          "type": "uint256"
        }
      ],
      "name": "Approval",
      "type": "event"
    },
    {
      "anonymous": false,
      "inputs": [
        {
          "indexed": true,
          "internalType": "contract IOlympusAuthority",
          "name": "authority",
          "type": "address"
        }
      ],
      "name": "AuthorityUpdated",
      "type": "event"
    },
    {
      "anonymous": false,
      "inputs": [
        {
          "indexed": true,
          "internalType": "address",
          "name": "from",
          "type": "address"
        },
        {
          "indexed": true,
          "internalType": "address",
          "name": "to",
          "type": "address"
        },
        {
          "indexed": false,
          "internalType": "uint256",
          "name": "value",
          "type": "uint256"
        }
      ],
      "name": "Transfer",
      "type": "event"
    },
    {
      "inputs": [],
      "name": "DOMAIN_SEPARATOR",
      "outputs": [
        {
          "internalType": "bytes32",
          "name": "",
          "type": "bytes32"
        }
      ],
      "stateMutability": "view",
      "type": "function"
    },
    {
      "inputs": [
        {
          "internalType": "address",
          "name": "owner",
          "type": "address"
        },
        {
          "internalType": "address",
          "name": "spender",
          "type": "address"
        }
      ],
      "name": "allowance",
      "outputs": [
        {
          "internalType": "uint256",
          "name": "",
          "type": "uint256"
        }
      ],
      "stateMutability": "view",
      "type": "function"
    },
    {
      "inputs": [
        {
          "internalType": "address",
          "name": "spender",
          "type": "address"
        },
        {
          "internalType": "uint256",
          "name": "amount",
          "type": "uint256"
        }
      ],
      "name": "approve",
      "outputs": [
        {
          "internalType": "bool",
          "name": "",
          "type": "bool"
        }
      ],
      "stateMutability": "nonpayable",
      "type": "function"
    },
    {
      "inputs": [],
      "name": "authority",
      "outputs": [
        {
          "internalType": "contract IOlympusAuthority",
          "name": "",
          "type": "address"
        }
      ],
      "stateMutability": "view",
      "type": "function"
    },
    {
      "inputs": [
        {
          "internalType": "address",
          "name": "account",
          "type": "address"
        }
      ],
      "name": "balanceOf",
      "outputs": [
        {
          "internalType": "uint256",
          "name": "",
          "type": "uint256"
        }
      ],
      "stateMutability": "view",
      "type": "function"
    },
    {
      "inputs": [
        {
          "internalType": "uint256",
          "name": "amount",
          "type": "uint256"
        }
      ],
      "name": "burn",
      "outputs": [],
      "stateMutability": "nonpayable",
      "type": "function"
    },
    {
      "inputs": [
        {
          "internalType": "address",
          "name": "account_",
          "type": "address"
        },
        {
          "internalType": "uint256",
          "name": "amount_",
          "type": "uint256"
        }
      ],
      "name": "burnFrom",
      "outputs": [],
      "stateMutability": "nonpayable",
      "type": "function"
    },
    {
      "inputs": [],
      "name": "decimals",
      "outputs": [
        {
          "internalType": "uint8",
          "name": "",
          "type": "uint8"
        }
      ],
      "stateMutability": "view",
      "type": "function"
    },
    {
      "inputs": [
        {
          "internalType": "address",
          "name": "spender",
          "type": "address"
        },
        {
          "internalType": "uint256",
          "name": "subtractedValue",
          "type": "uint256"
        }
      ],
      "name": "decreaseAllowance",
      "outputs": [
        {
          "internalType": "bool",
          "name": "",
          "type": "bool"
        }
      ],
      "stateMutability": "nonpayable",
      "type": "function"
    },
    {
      "inputs": [
        {
          "internalType": "address",
          "name": "spender",
          "type": "address"
        },
        {
          "internalType": "uint256",
          "name": "addedValue",
          "type": "uint256"
        }
      ],
      "name": "increaseAllowance",
      "outputs": [
        {
          "internalType": "bool",
          "name": "",
          "type": "bool"
        }
      ],
      "stateMutability": "nonpayable",
      "type": "function"
    },
    {
      "inputs": [
        {
          "internalType": "address",
          "name": "account_",
          "type": "address"
        },
        {
          "internalType": "uint256",
          "name": "amount_",
          "type": "uint256"
        }
      ],
      "name": "mint",
      "outputs": [],
      "stateMutability": "nonpayable",
      "type": "function"
    },
    {
      "inputs": [],
      "name": "name",
      "outputs": [
        {
          "internalType": "string",
          "name": "",
          "type": "string"
        }
      ],
      "stateMutability": "view",
      "type": "function"
    },
    {
      "inputs": [
        {
          "internalType": "address",
          "name": "owner",
          "type": "address"
        }
      ],
      "name": "nonces",
      "outputs": [
        {
          "internalType": "uint256",
          "name": "",
          "type": "uint256"
        }
      ],
      "stateMutability": "view",
      "type": "function"
    },
    {
      "inputs": [
        {
          "internalType": "address",
          "name": "owner",
          "type": "address"
        },
        {
          "internalType": "address",
          "name": "spender",
          "type": "address"
        },
        {
          "internalType": "uint256",
          "name": "value",
          "type": "uint256"
        },
        {
          "internalType": "uint256",
          "name": "deadline",
          "type": "uint256"
        },
        {
          "internalType": "uint8",
          "name": "v",
          "type": "uint8"
        },
        {
          "internalType": "bytes32",
          "name": "r",
          "type": "bytes32"
        },
        {
          "internalType": "bytes32",
          "name": "s",
          "type": "bytes32"
        }
      ],
      "name": "permit",
      "outputs": [],
      "stateMutability": "nonpayable",
      "type": "function"
    },
    {
      "inputs": [
        {
          "internalType": "contract IOlympusAuthority",
          "name": "_newAuthority",
          "type": "address"
        }
      ],
      "name": "setAuthority",
      "outputs": [],
      "stateMutability": "nonpayable",
      "type": "function"
    },
    {
      "inputs": [],
      "name": "symbol",
      "outputs": [
        {
          "internalType": "string",
          "name": "",
          "type": "string"
        }
      ],
      "stateMutability": "view",
      "type": "function"
    },
    {
      "inputs": [],
      "name": "totalSupply",
      "outputs": [
        {
          "internalType": "uint256",
          "name": "",
          "type": "uint256"
        }
      ],
      "stateMutability": "view",
      "type": "function"
    },
    {
      "inputs": [
        {
          "internalType": "address",
          "name": "recipient",
          "type": "address"
        },
        {
          "internalType": "uint256",
          "name": "amount",
          "type": "uint256"
        }
      ],
      "name": "transfer",
      "outputs": [
        {
          "internalType": "bool",
          "name": "",
          "type": "bool"
        }
      ],
      "stateMutability": "nonpayable",
      "type": "function"
    },
    {
      "inputs": [
        {
          "internalType": "address",
          "name": "sender",
          "type": "address"
        },
        {
          "internalType": "address",
          "name": "recipient",
          "type": "address"
        },
        {
          "internalType": "uint256",
          "name": "amount",
          "type": "uint256"
        }
      ],
      "name": "transferFrom",
      "outputs": [
        {
          "internalType": "bool",
          "name": "",
          "type": "bool"
        }
      ],
      "stateMutability": "nonpayable",
      "type": "function"
    }
  ],
  "transactionHash": "0xdb82e42a99d86bade41ce8309fb18ceec6935d1cd76f4da29775b236492030da",
  "args": [
    "0x4208befD8f546282aB43A30085774513227B656C"
  ],
  "solcInputHash": "af09906ff75a3b20b77faf1e51b1ecf7",
  "bytecode": "0x7f6e71edae12b1b97f4d1f60370fef10105fa2faae0126114a169c64845d6126c9610140526101a0604052600c6101608190526b15539055551213d49256915160a21b61018090815262000057916006919062000243565b503480156200006557600080fd5b5060405162001a5338038062001a53833981810160405260208110156200008b57600080fd5b50516040805180820182526007808252664f6c796d70757360c81b60208381018290528451808601865260018152603160f81b818301528551808701875293845283820192835285518087019096526003808752624f484d60e81b928701929092528351879686959294929390926009926200010992919062000243565b5081516200011f90600490602085019062000243565b5060f81b7fff00000000000000000000000000000000000000000000000000000000000000166080525050815160208084019190912082519183019190912060e08290526101008190524660c081905291907f8b73c3c69bb8fe3d512ecc4cf759cc79239f7b179b0ffacaa9a75d522b39400f6200019f818484620001fe565b60a052610120525050600780546001600160a01b0319166001600160a01b0387169081179091556040519094507f2f658b440c35314f52658ea8a740e05b284cdc84dc9ae01e891f21b8933e7cad9350600092509050a25050620002ef565b604080516020808201959095528082019390935260608301919091524660808301523060a0808401919091528151808403909101815260c09092019052805191012090565b828054600181600116156101000203166002900490600052602060002090601f0160209004810192826200027b5760008555620002c6565b82601f106200029657805160ff1916838001178555620002c6565b82800160010185558215620002c6579182015b82811115620002c6578251825591602001919060010190620002a9565b50620002d4929150620002d8565b5090565b5b80821115620002d45760008155600101620002d9565b60805160f81c60a05160c05160e05161010051610120516101405161170d6200034660003980610a26525080610eab525080610eed525080610ecc525080610e57525080610e7f5250806105bf525061170d6000f3fe608060405234801561001057600080fd5b50600436106101515760003560e01c806370a08231116100cd578063a457c2d711610081578063bf7e214f11610066578063bf7e214f146103fe578063d505accf14610422578063dd62ed3e1461047357610151565b8063a457c2d7146103a6578063a9059cbb146103d257610151565b80637a9e5e4b116100b25780637a9e5e4b146103525780637ecebe001461037857806395d89b411461039e57610151565b806370a082311461030057806379cc67901461032657610151565b8063313ce567116101245780633950935111610109578063395093511461028957806340c10f19146102b557806342966c68146102e357610151565b8063313ce567146102635780633644e5151461028157610151565b806306fdde0314610156578063095ea7b3146101d357806318160ddd1461021357806323b872dd1461022d575b600080fd5b61015e6104a1565b6040805160208082528351818301528351919283929083019185019080838360005b83811015610198578181015183820152602001610180565b50505050905090810190601f1680156101c55780820380516001836020036101000a031916815260200191505b509250505060405180910390f35b6101ff600480360360408110156101e957600080fd5b506001600160a01b038135169060200135610538565b604080519115158252519081900360200190f35b61021b61054e565b60408051918252519081900360200190f35b6101ff6004803603606081101561024357600080fd5b506001600160a01b03813581169160208101359091169060400135610554565b61026b6105bd565b6040805160ff9092168252519081900360200190f35b61021b6105e1565b6101ff6004803603604081101561029f57600080fd5b506001600160a01b0381351690602001356105f0565b6102e1600480360360408110156102cb57600080fd5b506001600160a01b038135169060200135610626565b005b6102e1600480360360208110156102f957600080fd5b503561075a565b61021b6004803603602081101561031657600080fd5b50356001600160a01b0316610767565b6102e16004803603604081101561033c57600080fd5b506001600160a01b038135169060200135610782565b6102e16004803603602081101561036857600080fd5b50356001600160a01b031661078c565b61021b6004803603602081101561038e57600080fd5b50356001600160a01b03166108da565b61015e610901565b6101ff600480360360408110156103bc57600080fd5b506001600160a01b038135169060200135610962565b6101ff600480360360408110156103e857600080fd5b506001600160a01b0381351690602001356109b1565b6104066109be565b604080516001600160a01b039092168252519081900360200190f35b6102e1600480360360e081101561043857600080fd5b506001600160a01b03813581169160208101359091169060408101359060608101359060ff6080820135169060a08101359060c001356109cd565b61021b6004803603604081101561048957600080fd5b506001600160a01b0381358116916020013516610b49565b60038054604080516020601f600260001961010060018816150201909516949094049384018190048102820181019092528281526060939092909183018282801561052d5780601f106105025761010080835404028352916020019161052d565b820191906000526020600020905b81548152906001019060200180831161051057829003601f168201915b505050505090505b90565b6000610545338484610b74565b50600192915050565b60025490565b6000610561848484610c60565b6105b384336105ae85604051806060016040528060288152602001611626602891396001600160a01b038a1660009081526001602090815260408083203384529091529020549190610dbb565b610b74565b5060019392505050565b7f000000000000000000000000000000000000000000000000000000000000000090565b60006105eb610e52565b905090565b3360008181526001602090815260408083206001600160a01b038716845290915281205490916105459185906105ae9086610f19565b600760009054906101000a90046001600160a01b03166001600160a01b031663fbfa77cf6040518163ffffffff1660e01b815260040160206040518083038186803b15801561067457600080fd5b505afa158015610688573d6000803e3d6000fd5b505050506040513d602081101561069e57600080fd5b50516006906001600160a01b0316331461074b5760405162461bcd60e51b815260206004820190815282546002600019610100600184161502019091160460248301819052909182916044909101908490801561073c5780601f106107115761010080835404028352916020019161073c565b820191906000526020600020905b81548152906001019060200180831161071f57829003601f168201915b50509250505060405180910390fd5b506107568282610f7a565b5050565b610764338261106a565b50565b6001600160a01b031660009081526020819052604090205490565b6107568282611166565b600760009054906101000a90046001600160a01b03166001600160a01b0316630c340a246040518163ffffffff1660e01b815260040160206040518083038186803b1580156107da57600080fd5b505afa1580156107ee573d6000803e3d6000fd5b505050506040513d602081101561080457600080fd5b50516006906001600160a01b031633146108775760405162461bcd60e51b815260206004820190815282546002600019610100600184161502019091160460248301819052909182916044909101908490801561073c5780601f106107115761010080835404028352916020019161073c565b50600780547fffffffffffffffffffffffff0000000000000000000000000000000000000000166001600160a01b0383169081179091556040517f2f658b440c35314f52658ea8a740e05b284cdc84dc9ae01e891f21b8933e7cad90600090a250565b6001600160a01b03811660009081526005602052604081206108fb906111b2565b92915050565b60048054604080516020601f600260001961010060018816150201909516949094049384018190048102820181019092528281526060939092909183018282801561052d5780601f106105025761010080835404028352916020019161052d565b600061054533846105ae856040518060600160405280602581526020016116dc602591393360009081526001602090815260408083206001600160a01b038d1684529091529020549190610dbb565b6000610545338484610c60565b6007546001600160a01b031681565b83421115610a22576040805162461bcd60e51b815260206004820152601d60248201527f45524332305065726d69743a206578706972656420646561646c696e65000000604482015290519081900360640190fd5b60007f0000000000000000000000000000000000000000000000000000000000000000888888610a518c6111b6565b8960405160200180878152602001866001600160a01b03168152602001856001600160a01b0316815260200184815260200183815260200182815260200196505050505050506040516020818303038152906040528051906020012090506000610aba826111e8565b90506000610aca828787876111fb565b9050896001600160a01b0316816001600160a01b031614610b32576040805162461bcd60e51b815260206004820152601e60248201527f45524332305065726d69743a20696e76616c6964207369676e61747572650000604482015290519081900360640190fd5b610b3d8a8a8a610b74565b50505050505050505050565b6001600160a01b03918216600090815260016020908152604080832093909416825291909152205490565b6001600160a01b038316610bb95760405162461bcd60e51b81526004018080602001828103825260248152602001806116b86024913960400191505060405180910390fd5b6001600160a01b038216610bfe5760405162461bcd60e51b815260040180806020018281038252602281526020018061159a6022913960400191505060405180910390fd5b6001600160a01b03808416600081815260016020908152604080832094871680845294825291829020859055815185815291517f8c5be1e5ebec7d5bd14f71427d1e84f3dd0314c0f7b2291e5b200ac8c7c3b9259281900390910190a3505050565b6001600160a01b038316610ca55760405162461bcd60e51b81526004018080602001828103825260258152602001806116936025913960400191505060405180910390fd5b6001600160a01b038216610cea5760405162461bcd60e51b81526004018080602001828103825260238152602001806115556023913960400191505060405180910390fd5b610cf58383836111ad565b610d32816040518060600160405280602681526020016115bc602691396001600160a01b0386166000908152602081905260409020549190610dbb565b6001600160a01b038085166000908152602081905260408082209390935590841681522054610d619082610f19565b6001600160a01b038084166000818152602081815260409182902094909455805185815290519193928716927fddf252ad1be2c89b69c2b068fc378daa952ba7f163c4a11628f55a4df523b3ef92918290030190a3505050565b60008184841115610e4a5760405162461bcd60e51b81526004018080602001828103825283818151815260200191508051906020019080838360005b83811015610e0f578181015183820152602001610df7565b50505050905090810190601f168015610e3c5780820380516001836020036101000a031916815260200191505b509250505060405180910390fd5b505050900390565b6000467f0000000000000000000000000000000000000000000000000000000000000000811415610ea6577f0000000000000000000000000000000000000000000000000000000000000000915050610535565b610f117f00000000000000000000000000000000000000000000000000000000000000007f00000000000000000000000000000000000000000000000000000000000000007f0000000000000000000000000000000000000000000000000000000000000000611223565b915050610535565b600082820183811015610f73576040805162461bcd60e51b815260206004820152601b60248201527f536166654d6174683a206164646974696f6e206f766572666c6f770000000000604482015290519081900360640190fd5b9392505050565b6001600160a01b038216610fd5576040805162461bcd60e51b815260206004820152601f60248201527f45524332303a206d696e7420746f20746865207a65726f206164647265737300604482015290519081900360640190fd5b610fe1600083836111ad565b600254610fee9082610f19565b6002556001600160a01b0382166000908152602081905260409020546110149082610f19565b6001600160a01b0383166000818152602081815260408083209490945583518581529351929391927fddf252ad1be2c89b69c2b068fc378daa952ba7f163c4a11628f55a4df523b3ef9281900390910190a35050565b6001600160a01b0382166110af5760405162461bcd60e51b81526004018080602001828103825260218152602001806116726021913960400191505060405180910390fd5b6110bb826000836111ad565b6110f881604051806060016040528060228152602001611578602291396001600160a01b0385166000908152602081905260409020549190610dbb565b6001600160a01b03831660009081526020819052604090205560025461111e9082611268565b6002556040805182815290516000916001600160a01b038516917fddf252ad1be2c89b69c2b068fc378daa952ba7f163c4a11628f55a4df523b3ef9181900360200190a35050565b60006111968260405180606001604052806024815260200161164e6024913961118f8633610b49565b9190610dbb565b90506111a3833383610b74565b6111ad838361106a565b505050565b5490565b6001600160a01b03811660009081526005602052604081206111d7816111b2565b91506111e2816112aa565b50919050565b60006108fb6111f5610e52565b836112b3565b600080600061120c878787876112ee565b91509150611219816113e3565b5095945050505050565b604080516020808201959095528082019390935260608301919091524660808301523060a0808401919091528151808403909101815260c09092019052805191012090565b6000610f7383836040518060400160405280601e81526020017f536166654d6174683a207375627472616374696f6e206f766572666c6f770000815250610dbb565b80546001019055565b6040805161190160f01b6020808301919091526022820194909452604280820193909352815180820390930183526062019052805191012090565b6000807f7fffffffffffffffffffffffffffffff5d576e7357a4501ddfe92f46681b20a083111561132557506000905060036113da565b8460ff16601b1415801561133d57508460ff16601c14155b1561134e57506000905060046113da565b600060018787878760405160008152602001604052604051808581526020018460ff1681526020018381526020018281526020019450505050506020604051602081039080840390855afa1580156113aa573d6000803e3d6000fd5b5050604051601f1901519150506001600160a01b0381166113d3576000600192509250506113da565b9150600090505b94509492505050565b60008160048111156113f157fe5b14156113fc57610764565b600181600481111561140a57fe5b141561145d576040805162461bcd60e51b815260206004820152601860248201527f45434453413a20696e76616c6964207369676e61747572650000000000000000604482015290519081900360640190fd5b600281600481111561146b57fe5b14156114be576040805162461bcd60e51b815260206004820152601f60248201527f45434453413a20696e76616c6964207369676e6174757265206c656e67746800604482015290519081900360640190fd5b60038160048111156114cc57fe5b14156115095760405162461bcd60e51b81526004018080602001828103825260228152602001806115e26022913960400191505060405180910390fd5b600481600481111561151757fe5b14156107645760405162461bcd60e51b81526004018080602001828103825260228152602001806116046022913960400191505060405180910390fdfe45524332303a207472616e7366657220746f20746865207a65726f206164647265737345524332303a206275726e20616d6f756e7420657863656564732062616c616e636545524332303a20617070726f766520746f20746865207a65726f206164647265737345524332303a207472616e7366657220616d6f756e7420657863656564732062616c616e636545434453413a20696e76616c6964207369676e6174757265202773272076616c756545434453413a20696e76616c6964207369676e6174757265202776272076616c756545524332303a207472616e7366657220616d6f756e74206578636565647320616c6c6f77616e636545524332303a206275726e20616d6f756e74206578636565647320616c6c6f77616e636545524332303a206275726e2066726f6d20746865207a65726f206164647265737345524332303a207472616e736665722066726f6d20746865207a65726f206164647265737345524332303a20617070726f76652066726f6d20746865207a65726f206164647265737345524332303a2064656372656173656420616c6c6f77616e63652062656c6f77207a65726fa164736f6c6343000705000a",
  "devdoc": {
    "kind": "dev",
    "methods": {
      "DOMAIN_SEPARATOR()": {
        "details": "See {IERC20Permit-DOMAIN_SEPARATOR}."
      },
      "allowance(address,address)": {
        "details": "Returns the remaining number of tokens that `spender` will be allowed to spend on behalf of `owner` through {transferFrom}. This is zero by default. This value changes when {approve} or {transferFrom} are called."
      },
      "approve(address,uint256)": {
        "details": "Sets `amount` as the allowance of `spender` over the caller's tokens. Returns a boolean value indicating whether the operation succeeded. IMPORTANT: Beware that changing an allowance with this method brings the risk that someone may use both the old and the new allowance by unfortunate transaction ordering. One possible solution to mitigate this race condition is to first reduce the spender's allowance to 0 and set the desired value afterwards: https://github.com/ethereum/EIPs/issues/20#issuecomment-263524729 Emits an {Approval} event."
      },
      "balanceOf(address)": {
        "details": "Returns the amount of tokens owned by `account`."
      },
      "nonces(address)": {
        "details": "See {IERC20Permit-nonces}."
      },
      "permit(address,address,uint256,uint256,uint8,bytes32,bytes32)": {
        "details": "See {IERC20Permit-permit}."
      },
      "totalSupply()": {
        "details": "Returns the amount of tokens in existence."
      },
      "transfer(address,uint256)": {
        "details": "Moves `amount` tokens from the caller's account to `recipient`. Returns a boolean value indicating whether the operation succeeded. Emits a {Transfer} event."
      },
      "transferFrom(address,address,uint256)": {
        "details": "Moves `amount` tokens from `sender` to `recipient` using the allowance mechanism. `amount` is then deducted from the caller's allowance. Returns a boolean value indicating whether the operation succeeded. Emits a {Transfer} event."
      }
    },
    "version": 1
  },
  "userdoc": {
    "kind": "user",
    "methods": {},
    "version": 1
  },
  "storageLayout": {
    "storage": [
      {
        "astId": 11660,
        "contract": "contracts/OlympusERC20.sol:OlympusERC20Token",
        "label": "_balances",
        "offset": 0,
        "slot": "0",
        "type": "t_mapping(t_address,t_uint256)"
      },
      {
        "astId": 11666,
        "contract": "contracts/OlympusERC20.sol:OlympusERC20Token",
        "label": "_allowances",
        "offset": 0,
        "slot": "1",
        "type": "t_mapping(t_address,t_mapping(t_address,t_uint256))"
      },
      {
        "astId": 11668,
        "contract": "contracts/OlympusERC20.sol:OlympusERC20Token",
        "label": "_totalSupply",
        "offset": 0,
        "slot": "2",
        "type": "t_uint256"
      },
      {
        "astId": 11670,
        "contract": "contracts/OlympusERC20.sol:OlympusERC20Token",
        "label": "_name",
        "offset": 0,
        "slot": "3",
        "type": "t_string_storage"
      },
      {
        "astId": 11672,
        "contract": "contracts/OlympusERC20.sol:OlympusERC20Token",
        "label": "_symbol",
        "offset": 0,
        "slot": "4",
        "type": "t_string_storage"
      },
      {
        "astId": 12141,
        "contract": "contracts/OlympusERC20.sol:OlympusERC20Token",
        "label": "_nonces",
        "offset": 0,
        "slot": "5",
        "type": "t_mapping(t_address,t_struct(Counter)8007_storage)"
      },
      {
        "astId": 12296,
        "contract": "contracts/OlympusERC20.sol:OlympusERC20Token",
        "label": "UNAUTHORIZED",
        "offset": 0,
        "slot": "6",
        "type": "t_string_storage"
      },
      {
        "astId": 12298,
        "contract": "contracts/OlympusERC20.sol:OlympusERC20Token",
        "label": "authority",
        "offset": 0,
        "slot": "7",
        "type": "t_contract(IOlympusAuthority)6869"
      }
    ],
    "types": {
      "t_address": {
        "encoding": "inplace",
        "label": "address",
        "numberOfBytes": "20"
      },
      "t_contract(IOlympusAuthority)6869": {
        "encoding": "inplace",
        "label": "contract IOlympusAuthority",
        "numberOfBytes": "20"
      },
      "t_mapping(t_address,t_mapping(t_address,t_uint256))": {
        "encoding": "mapping",
        "key": "t_address",
        "label": "mapping(address => mapping(address => uint256))",
        "numberOfBytes": "32",
        "value": "t_mapping(t_address,t_uint256)"
      },
      "t_mapping(t_address,t_struct(Counter)8007_storage)": {
        "encoding": "mapping",
        "key": "t_address",
        "label": "mapping(address => struct Counters.Counter)",
        "numberOfBytes": "32",
        "value": "t_struct(Counter)8007_storage"
      },
      "t_mapping(t_address,t_uint256)": {
        "encoding": "mapping",
        "key": "t_address",
        "label": "mapping(address => uint256)",
        "numberOfBytes": "32",
        "value": "t_uint256"
      },
      "t_string_storage": {
        "encoding": "bytes",
        "label": "string",
        "numberOfBytes": "32"
      },
      "t_struct(Counter)8007_storage": {
        "encoding": "inplace",
        "label": "struct Counters.Counter",
        "members": [
          {
            "astId": 8006,
            "contract": "contracts/OlympusERC20.sol:OlympusERC20Token",
            "label": "_value",
            "offset": 0,
            "slot": "0",
            "type": "t_uint256"
          }
        ],
        "numberOfBytes": "32"
      },
      "t_uint256": {
        "encoding": "inplace",
        "label": "uint256",
        "numberOfBytes": "32"
      }
    }
  }
}