{
  "address": "0x9Aca02ceBD184624DCc1869B33aeD9f8c9670462",
  "abi": [
    {
      "inputs": [
        {
          "internalType": "address",
          "name": "_ohm",
          "type": "address"
        },
        {
          "internalType": "address",
          "name": "_sOHM",
          "type": "address"
        },
        {
          "internalType": "address",
          "name": "_gOHM",
          "type": "address"
        },
        {
          "internalType": "uint256",
          "name": "_epochLength",
          "type": "uint256"
        },
        {
          "internalType": "uint256",
          "name": "_firstEpochNumber",
          "type": "uint256"
        },
        {
          "internalType": "uint256",
          "name": "_firstEpochTime",
          "type": "uint256"
        },
        {
          "internalType": "address",
          "name": "_authority",
          "type": "address"
        }
      ],
      "stateMutability": "nonpayable",
      "type": "constructor"
    },
    {
      "anonymous": false,
      "inputs": [
        {
          "indexed": true,
          "internalType": "contract IOlympusAuthority",
          "name": "authority",
          "type": "address"
        }
      ],
      "name": "AuthorityUpdated",
      "type": "event"
    },
    {
      "anonymous": false,
      "inputs": [
        {
          "indexed": false,
          "internalType": "address",
          "name": "distributor",
          "type": "address"
        }
      ],
      "name": "DistributorSet",
      "type": "event"
    },
    {
      "anonymous": false,
      "inputs": [
        {
          "indexed": false,
          "internalType": "uint256",
          "name": "warmup",
          "type": "uint256"
        }
      ],
      "name": "WarmupSet",
      "type": "event"
    },
    {
      "inputs": [],
      "name": "OHM",
      "outputs": [
        {
          "internalType": "contract IERC20",
          "name": "",
          "type": "address"
        }
      ],
      "stateMutability": "view",
      "type": "function"
    },
    {
      "inputs": [],
      "name": "authority",
      "outputs": [
        {
          "internalType": "contract IOlympusAuthority",
          "name": "",
          "type": "address"
        }
      ],
      "stateMutability": "view",
      "type": "function"
    },
    {
      "inputs": [
        {
          "internalType": "address",
          "name": "_to",
          "type": "address"
        },
        {
          "internalType": "bool",
          "name": "_rebasing",
          "type": "bool"
        }
      ],
      "name": "claim",
      "outputs": [
        {
          "internalType": "uint256",
          "name": "",
          "type": "uint256"
        }
      ],
      "stateMutability": "nonpayable",
      "type": "function"
    },
    {
      "inputs": [],
      "name": "distributor",
      "outputs": [
        {
          "internalType": "contract IDistributor",
          "name": "",
          "type": "address"
        }
      ],
      "stateMutability": "view",
      "type": "function"
    },
    {
      "inputs": [],
      "name": "epoch",
      "outputs": [
        {
          "internalType": "uint256",
          "name": "length",
          "type": "uint256"
        },
        {
          "internalType": "uint256",
          "name": "number",
          "type": "uint256"
        },
        {
          "internalType": "uint256",
          "name": "end",
          "type": "uint256"
        },
        {
          "internalType": "uint256",
          "name": "distribute",
          "type": "uint256"
        }
      ],
      "stateMutability": "view",
      "type": "function"
    },
    {
      "inputs": [],
      "name": "forfeit",
      "outputs": [
        {
          "internalType": "uint256",
          "name": "",
          "type": "uint256"
        }
      ],
      "stateMutability": "nonpayable",
      "type": "function"
    },
    {
      "inputs": [],
      "name": "gOHM",
      "outputs": [
        {
          "internalType": "contract IgOHM",
          "name": "",
          "type": "address"
        }
      ],
      "stateMutability": "view",
      "type": "function"
    },
    {
      "inputs": [],
      "name": "index",
      "outputs": [
        {
          "internalType": "uint256",
          "name": "",
          "type": "uint256"
        }
      ],
      "stateMutability": "view",
      "type": "function"
    },
    {
      "inputs": [],
      "name": "rebase",
      "outputs": [
        {
          "internalType": "uint256",
          "name": "",
          "type": "uint256"
        }
      ],
      "stateMutability": "nonpayable",
      "type": "function"
    },
    {
      "inputs": [],
      "name": "sOHM",
      "outputs": [
        {
          "internalType": "contract IsOHM",
          "name": "",
          "type": "address"
        }
      ],
      "stateMutability": "view",
      "type": "function"
    },
    {
      "inputs": [],
      "name": "secondsToNextEpoch",
      "outputs": [
        {
          "internalType": "uint256",
          "name": "",
          "type": "uint256"
        }
      ],
      "stateMutability": "view",
      "type": "function"
    },
    {
      "inputs": [
        {
          "internalType": "contract IOlympusAuthority",
          "name": "_newAuthority",
          "type": "address"
        }
      ],
      "name": "setAuthority",
      "outputs": [],
      "stateMutability": "nonpayable",
      "type": "function"
    },
    {
      "inputs": [
        {
          "internalType": "address",
          "name": "_distributor",
          "type": "address"
        }
      ],
      "name": "setDistributor",
      "outputs": [],
      "stateMutability": "nonpayable",
      "type": "function"
    },
    {
      "inputs": [
        {
          "internalType": "uint256",
          "name": "_warmupPeriod",
          "type": "uint256"
        }
      ],
      "name": "setWarmupLength",
      "outputs": [],
      "stateMutability": "nonpayable",
      "type": "function"
    },
    {
      "inputs": [
        {
          "internalType": "address",
          "name": "_to",
          "type": "address"
        },
        {
          "internalType": "uint256",
          "name": "_amount",
          "type": "uint256"
        },
        {
          "internalType": "bool",
          "name": "_rebasing",
          "type": "bool"
        },
        {
          "internalType": "bool",
          "name": "_claim",
          "type": "bool"
        }
      ],
      "name": "stake",
      "outputs": [
        {
          "internalType": "uint256",
          "name": "",
          "type": "uint256"
        }
      ],
      "stateMutability": "nonpayable",
      "type": "function"
    },
    {
      "inputs": [],
      "name": "supplyInWarmup",
      "outputs": [
        {
          "internalType": "uint256",
          "name": "",
          "type": "uint256"
        }
      ],
      "stateMutability": "view",
      "type": "function"
    },
    {
      "inputs": [],
      "name": "toggleLock",
      "outputs": [],
      "stateMutability": "nonpayable",
      "type": "function"
    },
    {
      "inputs": [
        {
          "internalType": "address",
          "name": "_to",
          "type": "address"
        },
        {
          "internalType": "uint256",
          "name": "_amount",
          "type": "uint256"
        },
        {
          "internalType": "bool",
          "name": "_trigger",
          "type": "bool"
        },
        {
          "internalType": "bool",
          "name": "_rebasing",
          "type": "bool"
        }
      ],
      "name": "unstake",
      "outputs": [
        {
          "internalType": "uint256",
          "name": "amount_",
          "type": "uint256"
        }
      ],
      "stateMutability": "nonpayable",
      "type": "function"
    },
    {
      "inputs": [
        {
          "internalType": "address",
          "name": "_to",
          "type": "address"
        },
        {
          "internalType": "uint256",
          "name": "_amount",
          "type": "uint256"
        }
      ],
      "name": "unwrap",
      "outputs": [
        {
          "internalType": "uint256",
          "name": "sBalance_",
          "type": "uint256"
        }
      ],
      "stateMutability": "nonpayable",
      "type": "function"
    },
    {
      "inputs": [
        {
          "internalType": "address",
          "name": "",
          "type": "address"
        }
      ],
      "name": "warmupInfo",
      "outputs": [
        {
          "internalType": "uint256",
          "name": "deposit",
          "type": "uint256"
        },
        {
          "internalType": "uint256",
          "name": "gons",
          "type": "uint256"
        },
        {
          "internalType": "uint256",
          "name": "expiry",
          "type": "uint256"
        },
        {
          "internalType": "bool",
          "name": "lock",
          "type": "bool"
        }
      ],
      "stateMutability": "view",
      "type": "function"
    },
    {
      "inputs": [],
      "name": "warmupPeriod",
      "outputs": [
        {
          "internalType": "uint256",
          "name": "",
          "type": "uint256"
        }
      ],
      "stateMutability": "view",
      "type": "function"
    },
    {
      "inputs": [
        {
          "internalType": "address",
          "name": "_to",
          "type": "address"
        },
        {
          "internalType": "uint256",
          "name": "_amount",
          "type": "uint256"
        }
      ],
      "name": "wrap",
      "outputs": [
        {
          "internalType": "uint256",
          "name": "gBalance_",
          "type": "uint256"
        }
      ],
      "stateMutability": "nonpayable",
      "type": "function"
    }
  ],
  "transactionHash": "0x1dbdba6c82f256dc9fe10e50b4e1abe2785d4bc5e52a90827c265d5ec7e946b0",
  "args": [
    "0x10b27a31AA4d7544F89898ccAf3Faf776F5671C4",
    "0x0fa861D68db468A477415445fBCA71995d8Ed591",
    "0xB4Aaf6857411248A79B95bcb1C13E86140fE9C29",
    "1000",
    "767",
    "1639430907",
    "0x4208befD8f546282aB43A30085774513227B656C"
  ],
  "solcInputHash": "902de087b8e2f430cce0936c30130584",
  "bytecode": "0x610120604052600c60e08190526b15539055551213d49256915160a21b6101009081526200003191600091906200023f565b503480156200003f57600080fd5b506040516200225b3803806200225b833981810160405260e08110156200006557600080fd5b50805160208201516040808401516060850151608086015160a087015160c090970151600180546001600160a01b0319166001600160a01b038316908117909155945196979596939592949193909182917f2f658b440c35314f52658ea8a740e05b284cdc84dc9ae01e891f21b8933e7cad90600090a2506001600160a01b0387166200012d576040805162461bcd60e51b81526020600482015260116024820152705a65726f20616464726573733a204f484d60781b604482015290519081900360640190fd5b6001600160601b0319606088901b166080526001600160a01b03861662000190576040805162461bcd60e51b81526020600482015260126024820152715a65726f20616464726573733a20734f484d60701b604482015290519081900360640190fd5b6001600160601b0319606087901b1660a0526001600160a01b038516620001f3576040805162461bcd60e51b81526020600482015260126024820152715a65726f20616464726573733a20674f484d60701b604482015290519081900360640190fd5b506001600160601b0319606094851b1660c05260408051608081018252848152602081018490529081018290526000940184905260029290925560035560045560055550620002eb9050565b828054600181600116156101000203166002900490600052602060002090601f016020900481019282620002775760008555620002c2565b82601f106200029257805160ff1916838001178555620002c2565b82800160010185558215620002c2579182015b82811115620002c2578251825591602001919060010190620002a5565b50620002d0929150620002d4565b5090565b5b80821115620002d05760008155600101620002d5565b60805160601c60a05160601c60c05160601c611ebd6200039e600039806103fc528061053a52806105c95280610d1d5280610d8252806112b0528061136a52806119c752806119f75280611b05525080610420528061044652806104df52806106665280610bd75280610cbd5280610f5a52806111ca52806112865280611528528061164d5280611997525080610e395280610ef65280610f28528061111352806113ff52806117685250611ebd6000f3fe608060405234801561001057600080fd5b50600436106101825760003560e01c80639483c1d7116100d8578063bf7e214f1161008c578063deac361a11610066578063deac361a146103e2578063f3d86e4a146103ea578063ff9413d8146103f257610182565b8063bf7e214f14610396578063bfe109281461039e578063d866c9d8146103a657610182565b8063a6c41fec116100bd578063a6c41fec1461035a578063af14052c14610362578063bf376c7a1461036a57610182565b80639483c1d714610316578063990966d51461031e57610182565b80636746f4c21161013a578063900cf0cf11610114578063900cf0cf1461029d5780639238d592146102cb57806392fd2daf146102e857610182565b80636746f4c21461020157806375619ab51461024f5780637a9e5e4b1461027757610182565b8063201386411161016b57806320138641146101b35780632986c0e5146101cd57806339f47693146101d557610182565b80630cd305851461018757806315079925146101ab575b600080fd5b61018f6103fa565b604080516001600160a01b039092168252519081900360200190f35b61018f61041e565b6101bb610442565b60408051918252519081900360200190f35b6101bb6104db565b6101bb600480360360408110156101eb57600080fd5b506001600160a01b038135169060200135610536565b6102276004803603602081101561021757600080fd5b50356001600160a01b0316610693565b6040805194855260208501939093528383019190915215156060830152519081900360800190f35b6102756004803603602081101561026557600080fd5b50356001600160a01b03166106bd565b005b6102756004803603602081101561028d57600080fd5b50356001600160a01b0316610844565b6102a5610987565b604080519485526020850193909352838301919091526060830152519081900360800190f35b610275600480360360208110156102e157600080fd5b5035610996565b6101bb600480360360408110156102fe57600080fd5b506001600160a01b0381351690602001351515610abd565b6101bb610c81565b6101bb6004803603608081101561033457600080fd5b506001600160a01b03813516906020810135906040810135151590606001351515610c96565b61018f610f26565b6101bb610f4a565b6101bb6004803603604081101561038057600080fd5b506001600160a01b038135169060200135611277565b61018f6113d2565b61018f6113e1565b6101bb600480360360808110156103bc57600080fd5b506001600160a01b038135169060208101359060408101351515906060013515156113f0565b6101bb6116d4565b6101bb6116da565b610275611796565b7f000000000000000000000000000000000000000000000000000000000000000081565b7f000000000000000000000000000000000000000000000000000000000000000081565b60007f00000000000000000000000000000000000000000000000000000000000000006001600160a01b0316637965d56d6009546040518263ffffffff1660e01b81526004018082815260200191505060206040518083038186803b1580156104aa57600080fd5b505afa1580156104be573d6000803e3d6000fd5b505050506040513d60208110156104d457600080fd5b5051905090565b60007f00000000000000000000000000000000000000000000000000000000000000006001600160a01b0316632986c0e56040518163ffffffff1660e01b815260040160206040518083038186803b1580156104aa57600080fd5b60007f00000000000000000000000000000000000000000000000000000000000000006001600160a01b0316639dc29fac33846040518363ffffffff1660e01b815260040180836001600160a01b0316815260200182815260200192505050600060405180830381600087803b1580156105af57600080fd5b505af11580156105c3573d6000803e3d6000fd5b505050507f00000000000000000000000000000000000000000000000000000000000000006001600160a01b031663a8248768836040518263ffffffff1660e01b81526004018082815260200191505060206040518083038186803b15801561062b57600080fd5b505afa15801561063f573d6000803e3d6000fd5b505050506040513d602081101561065557600080fd5b5051905061068d6001600160a01b037f00000000000000000000000000000000000000000000000000000000000000001684836117ba565b92915050565b60076020526000908152604090208054600182015460028301546003909301549192909160ff1684565b600160009054906101000a90046001600160a01b03166001600160a01b0316630c340a246040518163ffffffff1660e01b815260040160206040518083038186803b15801561070b57600080fd5b505afa15801561071f573d6000803e3d6000fd5b505050506040513d602081101561073557600080fd5b50516000906001600160a01b031633146107e25760405162461bcd60e51b81526020600482019081528254600260001961010060018416150201909116046024830181905290918291604490910190849080156107d35780601f106107a8576101008083540402835291602001916107d3565b820191906000526020600020905b8154815290600101906020018083116107b657829003601f168201915b50509250505060405180910390fd5b50600680546001600160a01b03831673ffffffffffffffffffffffffffffffffffffffff19909116811790915560408051918252517f86719c518c7d99ac94b3d405d462ea876ba5cd0a978461dc9a7c9862a94858869181900360200190a150565b600160009054906101000a90046001600160a01b03166001600160a01b0316630c340a246040518163ffffffff1660e01b815260040160206040518083038186803b15801561089257600080fd5b505afa1580156108a6573d6000803e3d6000fd5b505050506040513d60208110156108bc57600080fd5b50516000906001600160a01b0316331461092f5760405162461bcd60e51b81526020600482019081528254600260001961010060018416150201909116046024830181905290918291604490910190849080156107d35780601f106107a8576101008083540402835291602001916107d3565b506001805473ffffffffffffffffffffffffffffffffffffffff19166001600160a01b0383169081179091556040517f2f658b440c35314f52658ea8a740e05b284cdc84dc9ae01e891f21b8933e7cad90600090a250565b60025460035460045460055484565b600160009054906101000a90046001600160a01b03166001600160a01b0316630c340a246040518163ffffffff1660e01b815260040160206040518083038186803b1580156109e457600080fd5b505afa1580156109f8573d6000803e3d6000fd5b505050506040513d6020811015610a0e57600080fd5b50516000906001600160a01b03163314610a815760405162461bcd60e51b81526020600482019081528254600260001961010060018416150201909116046024830181905290918291604490910190849080156107d35780601f106107a8576101008083540402835291602001916107d3565b5060088190556040805182815290517fac17d51c35ac71d3eddc155985908430e88946d51e2f6093e93c1c0aba08f6c49181900360200190a150565b6000610ac7611e14565b506001600160a01b03831660009081526007602090815260409182902082516080810184528154815260018201549281019290925260028101549282019290925260039091015460ff16151560608201819052610b65576001600160a01b0384163314610b655760405162461bcd60e51b8152600401808060200182810382526026815260200180611e676026913960400191505060405180910390fd5b604081015160035410801590610b7e5750604081015115155b15610c77576001600160a01b038416600090815260076020908152604082208281556001810183905560028101929092556003909101805460ff19169055810151600954610bcb91611939565b600981905550610c6f847f00000000000000000000000000000000000000000000000000000000000000006001600160a01b0316637965d56d84602001516040518263ffffffff1660e01b81526004018082815260200191505060206040518083038186803b158015610c3d57600080fd5b505afa158015610c51573d6000803e3d6000fd5b505050506040513d6020811015610c6757600080fd5b505185611982565b91505061068d565b5060009392505050565b600454600090610c919042611939565b905090565b8260008315610caa57610ca7610f4a565b90505b8215610cf657610ce56001600160a01b037f000000000000000000000000000000000000000000000000000000000000000016333088611b9b565b610cef8282611d23565b9150610e19565b60408051632770a7eb60e21b81523360048201526024810187905290516001600160a01b037f00000000000000000000000000000000000000000000000000000000000000001691639dc29fac91604480830192600092919082900301818387803b158015610d6457600080fd5b505af1158015610d78573d6000803e3d6000fd5b50505050610e16817f00000000000000000000000000000000000000000000000000000000000000006001600160a01b031663a8248768856040518263ffffffff1660e01b81526004018082815260200191505060206040518083038186803b158015610de457600080fd5b505afa158015610df8573d6000803e3d6000fd5b505050506040513d6020811015610e0e57600080fd5b505190611d23565b91505b604080516370a0823160e01b815230600482015290516001600160a01b037f000000000000000000000000000000000000000000000000000000000000000016916370a08231916024808301926020929190829003018186803b158015610e7f57600080fd5b505afa158015610e93573d6000803e3d6000fd5b505050506040513d6020811015610ea957600080fd5b5051821115610ee95760405162461bcd60e51b8152600401808060200182810382526024815260200180611e8d6024913960400191505060405180910390fd5b610f1d6001600160a01b037f00000000000000000000000000000000000000000000000000000000000000001687846117ba565b50949350505050565b7f000000000000000000000000000000000000000000000000000000000000000081565b60008042600280015411610c91577f00000000000000000000000000000000000000000000000000000000000000006001600160a01b031663058ecdb46002600301546002600101546040518363ffffffff1660e01b81526004018083815260200182815260200192505050602060405180830381600087803b158015610fd057600080fd5b505af1158015610fe4573d6000803e3d6000fd5b505050506040513d6020811015610ffa57600080fd5b505060025460045461100b91611d23565b6004556003805460010190556006546001600160a01b03161561110f57600660009054906101000a90046001600160a01b03166001600160a01b031663e4fc6b6d6040518163ffffffff1660e01b8152600401600060405180830381600087803b15801561107857600080fd5b505af115801561108c573d6000803e3d6000fd5b50505050600660009054906101000a90046001600160a01b03166001600160a01b031663e7187e8a6040518163ffffffff1660e01b8152600401602060405180830381600087803b1580156110e057600080fd5b505af11580156110f4573d6000803e3d6000fd5b505050506040513d602081101561110a57600080fd5b505190505b60007f00000000000000000000000000000000000000000000000000000000000000006001600160a01b03166370a08231306040518263ffffffff1660e01b815260040180826001600160a01b0316815260200191505060206040518083038186803b15801561117e57600080fd5b505afa158015611192573d6000803e3d6000fd5b505050506040513d60208110156111a857600080fd5b505160408051639358928b60e01b815290519192506000916001600160a01b037f00000000000000000000000000000000000000000000000000000000000000001691639358928b916004808301926020929190829003018186803b15801561121057600080fd5b505afa158015611224573d6000803e3d6000fd5b505050506040513d602081101561123a57600080fd5b505190506112488184611d23565b8211611258576000600555611270565b61126c836112668484611939565b90611939565b6005555b5050905090565b60006112ae6001600160a01b037f000000000000000000000000000000000000000000000000000000000000000016333085611b9b565b7f00000000000000000000000000000000000000000000000000000000000000006001600160a01b03166366a5236c836040518263ffffffff1660e01b81526004018082815260200191505060206040518083038186803b15801561131257600080fd5b505afa158015611326573d6000803e3d6000fd5b505050506040513d602081101561133c57600080fd5b5051604080516340c10f1960e01b81526001600160a01b0386811660048301526024820184905291519293507f0000000000000000000000000000000000000000000000000000000000000000909116916340c10f199160448082019260009290919082900301818387803b1580156113b457600080fd5b505af11580156113c8573d6000803e3d6000fd5b5050505092915050565b6001546001600160a01b031681565b6006546001600160a01b031681565b60006114276001600160a01b037f000000000000000000000000000000000000000000000000000000000000000016333087611b9b565b611439611432610f4a565b8590611d23565b93508180156114485750600854155b1561145f57611458858585611982565b90506116cc565b611467611e14565b506001600160a01b03851660009081526007602090815260409182902082516080810184528154815260018201549281019290925260028101549282019290925260039091015460ff16151560608201819052611505576001600160a01b03861633146115055760405162461bcd60e51b8152600401808060200182810382526028815260200180611e3f6028913960400191505060405180910390fd5b60408051608081019091528151819061151e9088611d23565b81526020016115c17f00000000000000000000000000000000000000000000000000000000000000006001600160a01b0316631bd39674896040518263ffffffff1660e01b81526004018082815260200191505060206040518083038186803b15801561158a57600080fd5b505afa15801561159e573d6000803e3d6000fd5b505050506040513d60208110156115b457600080fd5b5051602085015190611d23565b81526008546003546020909201916115d891611d23565b815260608381015115156020928301526001600160a01b038981166000908152600784526040908190208551815585850151600182015585820151600282015594909201516003909401805460ff19169415159490941790935580516306f4e59d60e21b81526004810189905290516116c4937f00000000000000000000000000000000000000000000000000000000000000001692631bd396749260248082019391829003018186803b15801561168f57600080fd5b505afa1580156116a3573d6000803e3d6000fd5b505050506040513d60208110156116b957600080fd5b505160095490611d23565b600955508390505b949350505050565b60085481565b60006116e4611e14565b503360008181526007602081815260408084208151608081018352815481526001820180548286019081526002840180549584019590955260038401805460ff81161515606086015299895296909552918690559085905593905560ff199093169055905160095461175591611939565b6009558051611790906001600160a01b037f0000000000000000000000000000000000000000000000000000000000000000169033906117ba565b51905090565b336000908152600760205260409020600301805460ff19811660ff90911615179055565b604080516001600160a01b038481166024830152604480830185905283518084039091018152606490920183526020820180517bffffffffffffffffffffffffffffffffffffffffffffffffffffffff1663a9059cbb60e01b178152925182516000946060949389169392918291908083835b6020831061184c5780518252601f19909201916020918201910161182d565b6001836020036101000a0380198251168184511680821785525050505050509050019150506000604051808303816000865af19150503d80600081146118ae576040519150601f19603f3d011682016040523d82523d6000602084013e6118b3565b606091505b50915091508180156118e15750805115806118e157508080602001905160208110156118de57600080fd5b50515b611932576040805162461bcd60e51b815260206004820152600f60248201527f5452414e534645525f4641494c45440000000000000000000000000000000000604482015290519081900360640190fd5b5050505050565b600061197b83836040518060400160405280601e81526020017f536166654d6174683a207375627472616374696f6e206f766572666c6f770000815250611d7d565b9392505050565b600081156119c5576119be6001600160a01b037f00000000000000000000000000000000000000000000000000000000000000001685856117ba565b508161197b565b7f00000000000000000000000000000000000000000000000000000000000000006001600160a01b03166340c10f19857f00000000000000000000000000000000000000000000000000000000000000006001600160a01b03166366a5236c876040518263ffffffff1660e01b81526004018082815260200191505060206040518083038186803b158015611a5957600080fd5b505afa158015611a6d573d6000803e3d6000fd5b505050506040513d6020811015611a8357600080fd5b5051604080517fffffffff0000000000000000000000000000000000000000000000000000000060e086901b1681526001600160a01b039093166004840152602483019190915251604480830192600092919082900301818387803b158015611aeb57600080fd5b505af1158015611aff573d6000803e3d6000fd5b505050507f00000000000000000000000000000000000000000000000000000000000000006001600160a01b03166366a5236c846040518263ffffffff1660e01b81526004018082815260200191505060206040518083038186803b158015611b6757600080fd5b505afa158015611b7b573d6000803e3d6000fd5b505050506040513d6020811015611b9157600080fd5b5051949350505050565b604080516001600160a01b0385811660248301528481166044830152606480830185905283518084039091018152608490920183526020820180517bffffffffffffffffffffffffffffffffffffffffffffffffffffffff166323b872dd60e01b17815292518251600094606094938a169392918291908083835b60208310611c355780518252601f199092019160209182019101611c16565b6001836020036101000a0380198251168184511680821785525050505050509050019150506000604051808303816000865af19150503d8060008114611c97576040519150601f19603f3d011682016040523d82523d6000602084013e611c9c565b606091505b5091509150818015611cca575080511580611cca5750808060200190516020811015611cc757600080fd5b50515b611d1b576040805162461bcd60e51b815260206004820152601460248201527f5452414e534645525f46524f4d5f4641494c4544000000000000000000000000604482015290519081900360640190fd5b505050505050565b60008282018381101561197b576040805162461bcd60e51b815260206004820152601b60248201527f536166654d6174683a206164646974696f6e206f766572666c6f770000000000604482015290519081900360640190fd5b60008184841115611e0c5760405162461bcd60e51b81526004018080602001828103825283818151815260200191508051906020019080838360005b83811015611dd1578181015183820152602001611db9565b50505050905090810190601f168015611dfe5780820380516001836020036101000a031916815260200191505b509250505060405180910390fd5b505050900390565b6040518060800160405280600081526020016000815260200160008152602001600015158152509056fe45787465726e616c206465706f7369747320666f72206163636f756e7420617265206c6f636b656445787465726e616c20636c61696d7320666f72206163636f756e7420617265206c6f636b6564496e73756666696369656e74204f484d2062616c616e636520696e20636f6e7472616374a164736f6c6343000705000a",
  "devdoc": {
    "kind": "dev",
    "methods": {
      "claim(address,bool)": {
        "params": {
          "_rebasing": "bool",
          "_to": "address"
        },
        "returns": {
          "_0": "uint"
        }
      },
      "forfeit()": {
        "returns": {
          "_0": "uint"
        }
      },
      "index()": {
        "returns": {
          "_0": "uint"
        }
      },
      "rebase()": {
        "returns": {
          "_0": "uint256"
        }
      },
      "setDistributor(address)": {
        "params": {
          "_distributor": "address"
        }
      },
      "setWarmupLength(uint256)": {
        "params": {
          "_warmupPeriod": "uint"
        }
      },
      "stake(address,uint256,bool,bool)": {
        "params": {
          "_amount": "uint",
          "_claim": "bool",
          "_rebasing": "bool",
          "_to": "address"
        },
        "returns": {
          "_0": "uint"
        }
      },
      "unstake(address,uint256,bool,bool)": {
        "params": {
          "_amount": "uint",
          "_rebasing": "bool",
          "_to": "address",
          "_trigger": "bool"
        },
        "returns": {
          "amount_": "uint"
        }
      },
      "unwrap(address,uint256)": {
        "params": {
          "_amount": "uint",
          "_to": "address"
        },
        "returns": {
          "sBalance_": "uint"
        }
      },
      "wrap(address,uint256)": {
        "params": {
          "_amount": "uint",
          "_to": "address"
        },
        "returns": {
          "gBalance_": "uint"
        }
      }
    },
    "version": 1
  },
  "userdoc": {
    "kind": "user",
    "methods": {
      "claim(address,bool)": {
        "notice": "retrieve stake from warmup"
      },
      "forfeit()": {
        "notice": "forfeit stake and retrieve OHM"
      },
      "index()": {
        "notice": "returns the sOHM index, which tracks rebase growth"
      },
      "rebase()": {
        "notice": "trigger rebase if epoch over"
      },
      "secondsToNextEpoch()": {
        "notice": "seconds until the next epoch begins"
      },
      "setDistributor(address)": {
        "notice": "sets the contract address for LP staking"
      },
      "setWarmupLength(uint256)": {
        "notice": "set warmup period for new stakers"
      },
      "stake(address,uint256,bool,bool)": {
        "notice": "stake OHM to enter warmup"
      },
      "supplyInWarmup()": {
        "notice": "total supply in warmup"
      },
      "toggleLock()": {
        "notice": "prevent new deposits or claims from ext. address (protection from malicious activity)"
      },
      "unstake(address,uint256,bool,bool)": {
        "notice": "redeem sOHM for OHMs"
      },
      "unwrap(address,uint256)": {
        "notice": "convert _amount gOHM into sBalance_ sOHM"
      },
      "wrap(address,uint256)": {
        "notice": "convert _amount sOHM into gBalance_ gOHM"
      }
    },
    "version": 1
  },
  "storageLayout": {
    "storage": [
      {
        "astId": 12601,
        "contract": "contracts/Staking.sol:OlympusStaking",
        "label": "UNAUTHORIZED",
        "offset": 0,
        "slot": "0",
        "type": "t_string_storage"
      },
      {
        "astId": 12603,
        "contract": "contracts/Staking.sol:OlympusStaking",
        "label": "authority",
        "offset": 0,
        "slot": "1",
        "type": "t_contract(IOlympusAuthority)6856"
      },
      {
        "astId": 2233,
        "contract": "contracts/Staking.sol:OlympusStaking",
        "label": "epoch",
        "offset": 0,
        "slot": "2",
        "type": "t_struct(Epoch)2216_storage"
      },
      {
        "astId": 2235,
        "contract": "contracts/Staking.sol:OlympusStaking",
        "label": "distributor",
        "offset": 0,
        "slot": "6",
        "type": "t_contract(IDistributor)6618"
      },
      {
        "astId": 2239,
        "contract": "contracts/Staking.sol:OlympusStaking",
        "label": "warmupInfo",
        "offset": 0,
        "slot": "7",
        "type": "t_mapping(t_address,t_struct(Claim)2225_storage)"
      },
      {
        "astId": 2241,
        "contract": "contracts/Staking.sol:OlympusStaking",
        "label": "warmupPeriod",
        "offset": 0,
        "slot": "8",
        "type": "t_uint256"
      },
      {
        "astId": 2243,
        "contract": "contracts/Staking.sol:OlympusStaking",
        "label": "gonsInWarmup",
        "offset": 0,
        "slot": "9",
        "type": "t_uint256"
      }
    ],
    "types": {
      "t_address": {
        "encoding": "inplace",
        "label": "address",
        "numberOfBytes": "20"
      },
      "t_bool": {
        "encoding": "inplace",
        "label": "bool",
        "numberOfBytes": "1"
      },
      "t_contract(IDistributor)6618": {
        "encoding": "inplace",
        "label": "contract IDistributor",
        "numberOfBytes": "20"
      },
      "t_contract(IOlympusAuthority)6856": {
        "encoding": "inplace",
        "label": "contract IOlympusAuthority",
        "numberOfBytes": "20"
      },
      "t_mapping(t_address,t_struct(Claim)2225_storage)": {
        "encoding": "mapping",
        "key": "t_address",
        "label": "mapping(address => struct OlympusStaking.Claim)",
        "numberOfBytes": "32",
        "value": "t_struct(Claim)2225_storage"
      },
      "t_string_storage": {
        "encoding": "bytes",
        "label": "string",
        "numberOfBytes": "32"
      },
      "t_struct(Claim)2225_storage": {
        "encoding": "inplace",
        "label": "struct OlympusStaking.Claim",
        "members": [
          {
            "astId": 2218,
            "contract": "contracts/Staking.sol:OlympusStaking",
            "label": "deposit",
            "offset": 0,
            "slot": "0",
            "type": "t_uint256"
          },
          {
            "astId": 2220,
            "contract": "contracts/Staking.sol:OlympusStaking",
            "label": "gons",
            "offset": 0,
            "slot": "1",
            "type": "t_uint256"
          },
          {
            "astId": 2222,
            "contract": "contracts/Staking.sol:OlympusStaking",
            "label": "expiry",
            "offset": 0,
            "slot": "2",
            "type": "t_uint256"
          },
          {
            "astId": 2224,
            "contract": "contracts/Staking.sol:OlympusStaking",
            "label": "lock",
            "offset": 0,
            "slot": "3",
            "type": "t_bool"
          }
        ],
        "numberOfBytes": "128"
      },
      "t_struct(Epoch)2216_storage": {
        "encoding": "inplace",
        "label": "struct OlympusStaking.Epoch",
        "members": [
          {
            "astId": 2209,
            "contract": "contracts/Staking.sol:OlympusStaking",
            "label": "length",
            "offset": 0,
            "slot": "0",
            "type": "t_uint256"
          },
          {
            "astId": 2211,
            "contract": "contracts/Staking.sol:OlympusStaking",
            "label": "number",
            "offset": 0,
            "slot": "1",
            "type": "t_uint256"
          },
          {
            "astId": 2213,
            "contract": "contracts/Staking.sol:OlympusStaking",
            "label": "end",
            "offset": 0,
            "slot": "2",
            "type": "t_uint256"
          },
          {
            "astId": 2215,
            "contract": "contracts/Staking.sol:OlympusStaking",
            "label": "distribute",
            "offset": 0,
            "slot": "3",
            "type": "t_uint256"
          }
        ],
        "numberOfBytes": "128"
      },
      "t_uint256": {
        "encoding": "inplace",
        "label": "uint256",
        "numberOfBytes": "32"
      }
    }
  }
}