{
  "address": "0xD060D34DB3052BeE6fC614D1e4708E6fF7Ae31bc",
  "abi": [
    {
      "inputs": [
        {
          "internalType": "address",
          "name": "_OHM",
          "type": "address"
        }
      ],
      "stateMutability": "nonpayable",
      "type": "constructor"
    },
    {
      "inputs": [
        {
          "internalType": "address",
          "name": "_pair",
          "type": "address"
        }
      ],
      "name": "getKValue",
      "outputs": [
        {
          "internalType": "uint256",
          "name": "k_",
          "type": "uint256"
        }
      ],
      "stateMutability": "view",
      "type": "function"
    },
    {
      "inputs": [
        {
          "internalType": "address",
          "name": "_pair",
          "type": "address"
        }
      ],
      "name": "getTotalValue",
      "outputs": [
        {
          "internalType": "uint256",
          "name": "_value",
          "type": "uint256"
        }
      ],
      "stateMutability": "view",
      "type": "function"
    },
    {
      "inputs": [
        {
          "internalType": "address",
          "name": "_pair",
          "type": "address"
        }
      ],
      "name": "markdown",
      "outputs": [
        {
          "internalType": "uint256",
          "name": "",
          "type": "uint256"
        }
      ],
      "stateMutability": "view",
      "type": "function"
    },
    {
      "inputs": [
        {
          "internalType": "address",
          "name": "_pair",
          "type": "address"
        },
        {
          "internalType": "uint256",
          "name": "amount_",
          "type": "uint256"
        }
      ],
      "name": "valuation",
      "outputs": [
        {
          "internalType": "uint256",
          "name": "_value",
          "type": "uint256"
        }
      ],
      "stateMutability": "view",
      "type": "function"
    }
  ],
  "transactionHash": "0xa3f9bd44bb9f0b46a733eed9edccae817e2b7111aa545d2aee35fa6b43f3cad9",
  "args": [
    "0x10b27a31AA4d7544F89898ccAf3Faf776F5671C4"
  ],
  "solcInputHash": "af09906ff75a3b20b77faf1e51b1ecf7",
  "bytecode": "0x60a060405234801561001057600080fd5b50604051610e54380380610e548339818101604052602081101561003357600080fd5b50516001600160a01b038116610084576040805162461bcd60e51b81526020600482015260116024820152705a65726f20616464726573733a204f484d60781b604482015290519081900360640190fd5b606081901b6001600160601b0319166080526001600160a01b0316610d946100c0600039806101a9528061023552806103315250610d946000f3fe608060405234801561001057600080fd5b506004361061004c5760003560e01c806332da80a3146100515780634249719f14610089578063490084ef146100b557806368637549146100db575b600080fd5b6100776004803603602081101561006757600080fd5b50356001600160a01b0316610101565b60408051918252519081900360200190f35b6100776004803603604081101561009f57600080fd5b506001600160a01b0381351690602001356103d5565b610077600480360360208110156100cb57600080fd5b50356001600160a01b031661047d565b610077600480360360208110156100f157600080fd5b50356001600160a01b031661076a565b6000806000836001600160a01b0316630902f1ac6040518163ffffffff1660e01b815260040160606040518083038186803b15801561013f57600080fd5b505afa158015610153573d6000803e3d6000fd5b505050506040513d606081101561016957600080fd5b50805160209182015160408051630dfe168160e01b815290516dffffffffffffffffffffffffffff93841696509290911693506000926001600160a01b037f000000000000000000000000000000000000000000000000000000000000000081169390891692630dfe1681926004808301939192829003018186803b1580156101f157600080fd5b505afa158015610205573d6000803e3d6000fd5b505050506040513d602081101561021b57600080fd5b50516001600160a01b03161415610233575080610320565b7f00000000000000000000000000000000000000000000000000000000000000006001600160a01b0316856001600160a01b031663d21220a76040518163ffffffff1660e01b815260040160206040518083038186803b15801561029657600080fd5b505afa1580156102aa573d6000803e3d6000fd5b505050506040513d60208110156102c057600080fd5b50516001600160a01b03161461031d576040805162461bcd60e51b815260206004820152600c60248201527f496e76616c696420706169720000000000000000000000000000000000000000604482015290519081900360640190fd5b50815b6103ca61032c8661076a565b6103c47f00000000000000000000000000000000000000000000000000000000000000006001600160a01b031663313ce5676040518163ffffffff1660e01b815260040160206040518083038186803b15801561038857600080fd5b505afa15801561039c573d6000803e3d6000fd5b505050506040513d60208110156103b257600080fd5b5051849060ff16600a0a60020261078e565b906107ee565b93505050505b919050565b6000806103e18461076a565b90506000846001600160a01b03166318160ddd6040518163ffffffff1660e01b815260040160206040518083038186803b15801561041e57600080fd5b505afa158015610432573d6000803e3d6000fd5b505050506040513d602081101561044857600080fd5b50519050610474670de0b6b3a76400006103c461046d6104688886610830565b6109b2565b859061078e565b95945050505050565b600080826001600160a01b0316630dfe16816040518163ffffffff1660e01b815260040160206040518083038186803b1580156104b957600080fd5b505afa1580156104cd573d6000803e3d6000fd5b505050506040513d60208110156104e357600080fd5b50516040805163313ce56760e01b815290516001600160a01b039092169163313ce56791600480820192602092909190829003018186803b15801561052757600080fd5b505afa15801561053b573d6000803e3d6000fd5b505050506040513d602081101561055157600080fd5b50516040805163d21220a760e01b8152905160ff90921692506000916001600160a01b0386169163d21220a7916004808301926020929190829003018186803b15801561059d57600080fd5b505afa1580156105b1573d6000803e3d6000fd5b505050506040513d60208110156105c757600080fd5b50516040805163313ce56760e01b815290516001600160a01b039092169163313ce56791600480820192602092909190829003018186803b15801561060b57600080fd5b505afa15801561061f573d6000803e3d6000fd5b505050506040513d602081101561063557600080fd5b50516040805163313ce56760e01b8152905160ff90921692506000916106c5916001600160a01b0388169163313ce56791600480820192602092909190829003018186803b15801561068657600080fd5b505afa15801561069a573d6000803e3d6000fd5b505050506040513d60208110156106b057600080fd5b505160ff166106bf85856109ca565b90610a24565b9050600080866001600160a01b0316630902f1ac6040518163ffffffff1660e01b815260040160606040518083038186803b15801561070357600080fd5b505afa158015610717573d6000803e3d6000fd5b505050506040513d606081101561072d57600080fd5b5080516020909101516dffffffffffffffffffffffffffff918216935016905061075f600a84900a6103c4848461078e565b979650505050505050565b6000610788600261078261077d8561047d565b610a66565b9061078e565b92915050565b60008261079d57506000610788565b828202828482816107aa57fe5b04146107e75760405162461bcd60e51b8152600401808060200182810382526021815260200180610d676021913960400191505060405180910390fd5b9392505050565b60006107e783836040518060400160405280601a81526020017f536166654d6174683a206469766973696f6e206279207a65726f000000000000815250610ad0565b610838610d2e565b600082116108775760405162461bcd60e51b8152600401808060200182810382526026815260200180610d416026913960400191505060405180910390fd5b826108915750604080516020810190915260008152610788565b71ffffffffffffffffffffffffffffffffffff831161093857600082607085901b816108b957fe5b0490506001600160e01b03811115610918576040805162461bcd60e51b815260206004820152601e60248201527f4669786564506f696e743a3a6672616374696f6e3a206f766572666c6f770000604482015290519081900360640190fd5b6040518060200160405280826001600160e01b0316815250915050610788565b6000610954846e01000000000000000000000000000085610b89565b90506001600160e01b03811115610918576040805162461bcd60e51b815260206004820152601e60248201527f4669786564506f696e743a3a6672616374696f6e3a206f766572666c6f770000604482015290519081900360640190fd5b516612725dd1d243ab6001600160e01b039091160490565b6000828201838110156107e7576040805162461bcd60e51b815260206004820152601b60248201527f536166654d6174683a206164646974696f6e206f766572666c6f770000000000604482015290519081900360640190fd5b60006107e783836040518060400160405280601e81526020017f536166654d6174683a207375627472616374696f6e206f766572666c6f770000815250610c37565b60006003821115610ac25750806000610a8a610a838360026107ee565b60016109ca565b90505b81811015610abc57809150610ab5610aae610aa885846107ee565b836109ca565b60026107ee565b9050610a8d565b506103d0565b81156103d057506001919050565b60008183610b5c5760405162461bcd60e51b81526004018080602001828103825283818151815260200191508051906020019080838360005b83811015610b21578181015183820152602001610b09565b50505050905090810190601f168015610b4e5780820380516001836020036101000a031916815260200191505b509250505060405180910390fd5b506000838581610b6857fe5b049050838581610b7457fe5b06818502018514610b8157fe5b949350505050565b6000806000610b988686610c91565b9150915060008480610ba657fe5b868809905082811115610bba576001820391505b918290039181610bd857848381610bcd57fe5b0493505050506107e7565b848210610c2c576040805162461bcd60e51b815260206004820152601a60248201527f46756c6c4d6174683a2046554c4c4449565f4f564552464c4f57000000000000604482015290519081900360640190fd5b61075f838387610cbe565b60008184841115610c895760405162461bcd60e51b8152602060048201818152835160248401528351909283926044909101919085019080838360008315610b21578181015183820152602001610b09565b505050900390565b6000808060001984860990508385029250828103915082811015610cb6576001820391505b509250929050565b60008181038216808381610cce57fe5b049250808581610cda57fe5b049450808160000381610ce957fe5b60028581038087028203028087028203028087028203028087028203028087028203028087028203029586029003909402930460010193909302939093010292915050565b6040805160208101909152600081529056fe4669786564506f696e743a3a6672616374696f6e3a206469766973696f6e206279207a65726f536166654d6174683a206d756c7469706c69636174696f6e206f766572666c6f77a164736f6c6343000705000a",
  "devdoc": {
    "kind": "dev",
    "methods": {},
    "version": 1
  },
  "userdoc": {
    "kind": "user",
    "methods": {},
    "version": 1
  },
  "storageLayout": {
    "storage": [],
    "types": null
  }
}