{
  "address": "0x0fa861D68db468A477415445fBCA71995d8Ed591",
  "abi": [
    {
      "inputs": [],
      "stateMutability": "nonpayable",
      "type": "constructor"
    },
    {
      "anonymous": false,
      "inputs": [
        {
          "indexed": true,
          "internalType": "address",
          "name": "owner",
          "type": "address"
        },
        {
          "indexed": true,
          "internalType": "address",
          "name": "spender",
          "type": "address"
        },
        {
          "indexed": false,
          "internalType": "uint256",
          "name": "value",
          "type": "uint256"
        }
      ],
      "name": "Approval",
      "type": "event"
    },
    {
      "anonymous": false,
      "inputs": [
        {
          "indexed": true,
          "internalType": "uint256",
          "name": "epoch",
          "type": "uint256"
        },
        {
          "indexed": false,
          "internalType": "uint256",
          "name": "rebase",
          "type": "uint256"
        },
        {
          "indexed": false,
          "internalType": "uint256",
          "name": "index",
          "type": "uint256"
        }
      ],
      "name": "LogRebase",
      "type": "event"
    },
    {
      "anonymous": false,
      "inputs": [
        {
          "indexed": false,
          "internalType": "address",
          "name": "stakingContract",
          "type": "address"
        }
      ],
      "name": "LogStakingContractUpdated",
      "type": "event"
    },
    {
      "anonymous": false,
      "inputs": [
        {
          "indexed": true,
          "internalType": "uint256",
          "name": "epoch",
          "type": "uint256"
        },
        {
          "indexed": false,
          "internalType": "uint256",
          "name": "totalSupply",
          "type": "uint256"
        }
      ],
      "name": "LogSupply",
      "type": "event"
    },
    {
      "anonymous": false,
      "inputs": [
        {
          "indexed": true,
          "internalType": "address",
          "name": "from",
          "type": "address"
        },
        {
          "indexed": true,
          "internalType": "address",
          "name": "to",
          "type": "address"
        },
        {
          "indexed": false,
          "internalType": "uint256",
          "name": "value",
          "type": "uint256"
        }
      ],
      "name": "Transfer",
      "type": "event"
    },
    {
      "inputs": [],
      "name": "DOMAIN_SEPARATOR",
      "outputs": [
        {
          "internalType": "bytes32",
          "name": "",
          "type": "bytes32"
        }
      ],
      "stateMutability": "view",
      "type": "function"
    },
    {
      "inputs": [
        {
          "internalType": "address",
          "name": "owner_",
          "type": "address"
        },
        {
          "internalType": "address",
          "name": "spender",
          "type": "address"
        }
      ],
      "name": "allowance",
      "outputs": [
        {
          "internalType": "uint256",
          "name": "",
          "type": "uint256"
        }
      ],
      "stateMutability": "view",
      "type": "function"
    },
    {
      "inputs": [
        {
          "internalType": "address",
          "name": "spender",
          "type": "address"
        },
        {
          "internalType": "uint256",
          "name": "value",
          "type": "uint256"
        }
      ],
      "name": "approve",
      "outputs": [
        {
          "internalType": "bool",
          "name": "",
          "type": "bool"
        }
      ],
      "stateMutability": "nonpayable",
      "type": "function"
    },
    {
      "inputs": [
        {
          "internalType": "uint256",
          "name": "gons",
          "type": "uint256"
        }
      ],
      "name": "balanceForGons",
      "outputs": [
        {
          "internalType": "uint256",
          "name": "",
          "type": "uint256"
        }
      ],
      "stateMutability": "view",
      "type": "function"
    },
    {
      "inputs": [
        {
          "internalType": "address",
          "name": "who",
          "type": "address"
        }
      ],
      "name": "balanceOf",
      "outputs": [
        {
          "internalType": "uint256",
          "name": "",
          "type": "uint256"
        }
      ],
      "stateMutability": "view",
      "type": "function"
    },
    {
      "inputs": [
        {
          "internalType": "uint256",
          "name": "amount",
          "type": "uint256"
        },
        {
          "internalType": "address",
          "name": "debtor",
          "type": "address"
        },
        {
          "internalType": "bool",
          "name": "add",
          "type": "bool"
        }
      ],
      "name": "changeDebt",
      "outputs": [],
      "stateMutability": "nonpayable",
      "type": "function"
    },
    {
      "inputs": [],
      "name": "circulatingSupply",
      "outputs": [
        {
          "internalType": "uint256",
          "name": "",
          "type": "uint256"
        }
      ],
      "stateMutability": "view",
      "type": "function"
    },
    {
      "inputs": [
        {
          "internalType": "address",
          "name": "",
          "type": "address"
        }
      ],
      "name": "debtBalances",
      "outputs": [
        {
          "internalType": "uint256",
          "name": "",
          "type": "uint256"
        }
      ],
      "stateMutability": "view",
      "type": "function"
    },
    {
      "inputs": [],
      "name": "decimals",
      "outputs": [
        {
          "internalType": "uint8",
          "name": "",
          "type": "uint8"
        }
      ],
      "stateMutability": "view",
      "type": "function"
    },
    {
      "inputs": [
        {
          "internalType": "address",
          "name": "spender",
          "type": "address"
        },
        {
          "internalType": "uint256",
          "name": "subtractedValue",
          "type": "uint256"
        }
      ],
      "name": "decreaseAllowance",
      "outputs": [
        {
          "internalType": "bool",
          "name": "",
          "type": "bool"
        }
      ],
      "stateMutability": "nonpayable",
      "type": "function"
    },
    {
      "inputs": [
        {
          "internalType": "uint256",
          "name": "amount",
          "type": "uint256"
        }
      ],
      "name": "fromG",
      "outputs": [
        {
          "internalType": "uint256",
          "name": "",
          "type": "uint256"
        }
      ],
      "stateMutability": "view",
      "type": "function"
    },
    {
      "inputs": [],
      "name": "gOHM",
      "outputs": [
        {
          "internalType": "contract IgOHM",
          "name": "",
          "type": "address"
        }
      ],
      "stateMutability": "view",
      "type": "function"
    },
    {
      "inputs": [
        {
          "internalType": "uint256",
          "name": "amount",
          "type": "uint256"
        }
      ],
      "name": "gonsForBalance",
      "outputs": [
        {
          "internalType": "uint256",
          "name": "",
          "type": "uint256"
        }
      ],
      "stateMutability": "view",
      "type": "function"
    },
    {
      "inputs": [
        {
          "internalType": "address",
          "name": "spender",
          "type": "address"
        },
        {
          "internalType": "uint256",
          "name": "addedValue",
          "type": "uint256"
        }
      ],
      "name": "increaseAllowance",
      "outputs": [
        {
          "internalType": "bool",
          "name": "",
          "type": "bool"
        }
      ],
      "stateMutability": "nonpayable",
      "type": "function"
    },
    {
      "inputs": [],
      "name": "index",
      "outputs": [
        {
          "internalType": "uint256",
          "name": "",
          "type": "uint256"
        }
      ],
      "stateMutability": "view",
      "type": "function"
    },
    {
      "inputs": [
        {
          "internalType": "address",
          "name": "_stakingContract",
          "type": "address"
        },
        {
          "internalType": "address",
          "name": "_treasury",
          "type": "address"
        }
      ],
      "name": "initialize",
      "outputs": [],
      "stateMutability": "nonpayable",
      "type": "function"
    },
    {
      "inputs": [],
      "name": "name",
      "outputs": [
        {
          "internalType": "string",
          "name": "",
          "type": "string"
        }
      ],
      "stateMutability": "view",
      "type": "function"
    },
    {
      "inputs": [
        {
          "internalType": "address",
          "name": "owner",
          "type": "address"
        }
      ],
      "name": "nonces",
      "outputs": [
        {
          "internalType": "uint256",
          "name": "",
          "type": "uint256"
        }
      ],
      "stateMutability": "view",
      "type": "function"
    },
    {
      "inputs": [
        {
          "internalType": "address",
          "name": "owner",
          "type": "address"
        },
        {
          "internalType": "address",
          "name": "spender",
          "type": "address"
        },
        {
          "internalType": "uint256",
          "name": "value",
          "type": "uint256"
        },
        {
          "internalType": "uint256",
          "name": "deadline",
          "type": "uint256"
        },
        {
          "internalType": "uint8",
          "name": "v",
          "type": "uint8"
        },
        {
          "internalType": "bytes32",
          "name": "r",
          "type": "bytes32"
        },
        {
          "internalType": "bytes32",
          "name": "s",
          "type": "bytes32"
        }
      ],
      "name": "permit",
      "outputs": [],
      "stateMutability": "nonpayable",
      "type": "function"
    },
    {
      "inputs": [
        {
          "internalType": "uint256",
          "name": "profit_",
          "type": "uint256"
        },
        {
          "internalType": "uint256",
          "name": "epoch_",
          "type": "uint256"
        }
      ],
      "name": "rebase",
      "outputs": [
        {
          "internalType": "uint256",
          "name": "",
          "type": "uint256"
        }
      ],
      "stateMutability": "nonpayable",
      "type": "function"
    },
    {
      "inputs": [
        {
          "internalType": "uint256",
          "name": "",
          "type": "uint256"
        }
      ],
      "name": "rebases",
      "outputs": [
        {
          "internalType": "uint256",
          "name": "epoch",
          "type": "uint256"
        },
        {
          "internalType": "uint256",
          "name": "rebase",
          "type": "uint256"
        },
        {
          "internalType": "uint256",
          "name": "totalStakedBefore",
          "type": "uint256"
        },
        {
          "internalType": "uint256",
          "name": "totalStakedAfter",
          "type": "uint256"
        },
        {
          "internalType": "uint256",
          "name": "amountRebased",
          "type": "uint256"
        },
        {
          "internalType": "uint256",
          "name": "index",
          "type": "uint256"
        },
        {
          "internalType": "uint256",
          "name": "blockNumberOccured",
          "type": "uint256"
        }
      ],
      "stateMutability": "view",
      "type": "function"
    },
    {
      "inputs": [
        {
          "internalType": "uint256",
          "name": "_index",
          "type": "uint256"
        }
      ],
      "name": "setIndex",
      "outputs": [],
      "stateMutability": "nonpayable",
      "type": "function"
    },
    {
      "inputs": [
        {
          "internalType": "address",
          "name": "_gOHM",
          "type": "address"
        }
      ],
      "name": "setgOHM",
      "outputs": [],
      "stateMutability": "nonpayable",
      "type": "function"
    },
    {
      "inputs": [],
      "name": "stakingContract",
      "outputs": [
        {
          "internalType": "address",
          "name": "",
          "type": "address"
        }
      ],
      "stateMutability": "view",
      "type": "function"
    },
    {
      "inputs": [],
      "name": "symbol",
      "outputs": [
        {
          "internalType": "string",
          "name": "",
          "type": "string"
        }
      ],
      "stateMutability": "view",
      "type": "function"
    },
    {
      "inputs": [
        {
          "internalType": "uint256",
          "name": "amount",
          "type": "uint256"
        }
      ],
      "name": "toG",
      "outputs": [
        {
          "internalType": "uint256",
          "name": "",
          "type": "uint256"
        }
      ],
      "stateMutability": "view",
      "type": "function"
    },
    {
      "inputs": [],
      "name": "totalSupply",
      "outputs": [
        {
          "internalType": "uint256",
          "name": "",
          "type": "uint256"
        }
      ],
      "stateMutability": "view",
      "type": "function"
    },
    {
      "inputs": [
        {
          "internalType": "address",
          "name": "to",
          "type": "address"
        },
        {
          "internalType": "uint256",
          "name": "value",
          "type": "uint256"
        }
      ],
      "name": "transfer",
      "outputs": [
        {
          "internalType": "bool",
          "name": "",
          "type": "bool"
        }
      ],
      "stateMutability": "nonpayable",
      "type": "function"
    },
    {
      "inputs": [
        {
          "internalType": "address",
          "name": "from",
          "type": "address"
        },
        {
          "internalType": "address",
          "name": "to",
          "type": "address"
        },
        {
          "internalType": "uint256",
          "name": "value",
          "type": "uint256"
        }
      ],
      "name": "transferFrom",
      "outputs": [
        {
          "internalType": "bool",
          "name": "",
          "type": "bool"
        }
      ],
      "stateMutability": "nonpayable",
      "type": "function"
    },
    {
      "inputs": [],
      "name": "treasury",
      "outputs": [
        {
          "internalType": "address",
          "name": "",
          "type": "address"
        }
      ],
      "stateMutability": "view",
      "type": "function"
    }
  ],
  "transactionHash": "0x8dde43f815ecb74675137f1e31229ee9b54c877c07791975e00ca46c9566c7e8",
  "args": [],
  "solcInputHash": "af09906ff75a3b20b77faf1e51b1ecf7",
  "bytecode": "0x6101606040527f6e71edae12b1b97f4d1f60370fef10105fa2faae0126114a169c64845d6126c9610140523480156200003757600080fd5b506040518060400160405280600a8152602001695374616b6564204f484d60b01b81525080604051806040016040528060018152602001603160f81b8152506040518060400160405280600a8152602001695374616b6564204f484d60b01b81525060405180604001604052806004815260200163734f484d60e01b81525060098260039080519060200190620000d092919062000314565b508151620000e690600490602085019062000314565b5060f81b7fff00000000000000000000000000000000000000000000000000000000000000166080525050815160208084019190912082519183019190912060e08290526101008190524660c081905291907f8b73c3c69bb8fe3d512ecc4cf759cc79239f7b179b0ffacaa9a75d522b39400f62000166818484620001be565b60a052610120525050600680546001600160a01b0319163317905550506611c37937e080006002819055620001b5925090508060001906600019036200020360201b620016f11790919060201c565b600b55620003c0565b604080516020808201959095528082019390935260608301919091524660808301523060a0808401919091528151808403909101815260c09092019052805191012090565b60006200024d83836040518060400160405280601a81526020017f536166654d6174683a206469766973696f6e206279207a65726f0000000000008152506200025460201b60201c565b9392505050565b60008183620002e45760405162461bcd60e51b81526004018080602001828103825283818151815260200191508051906020019080838360005b83811015620002a85781810151838201526020016200028e565b50505050905090810190601f168015620002d65780820380516001836020036101000a031916815260200191505b509250505060405180910390fd5b506000838581620002f157fe5b049050838581620002fe57fe5b068185020185146200030c57fe5b949350505050565b828054600181600116156101000203166002900490600052602060002090601f0160209004810192826200034c576000855562000397565b82601f106200036757805160ff191683800117855562000397565b8280016001018555821562000397579182015b82811115620003975782518255916020019190600101906200037a565b50620003a5929150620003a9565b5090565b5b80821115620003a55760008155600101620003aa565b60805160f81c60a05160c05160e051610100516101205161014051611ff66200041760003980611594525080611a28525080611a6a525080611a495250806119d45250806119fc525080610c375250611ff66000f3fe608060405234801561001057600080fd5b50600436106101da5760003560e01c806361d027b311610104578063a457c2d7116100a2578063c4ef1c4c11610071578063c4ef1c4c146105b9578063d505accf146105df578063dd62ed3e14610630578063ee99205c1461065e576101da565b8063a457c2d714610510578063a9059cbb1461053c578063ae5c6cd314610568578063b8fbd5331461059c576101da565b80637965d56d116100de5780637965d56d146104bd5780637ecebe00146104da5780639358928b1461050057806395d89b4114610508576101da565b806361d027b31461043a57806370a082311461044257806373c69eb714610468576101da565b806323b872dd1161017c5780633644e5151161014b5780633644e515146103bb57806339509351146103c357806340a5737f146103ef578063485cc9551461040c576101da565b806323b872dd14610337578063245c0e991461036d5780632986c0e514610395578063313ce5671461039d576101da565b8063095ea7b3116101b8578063095ea7b3146102ae5780630cd30585146102ee57806318160ddd146103125780631bd396741461031a576101da565b8063058ecdb4146101df57806306fdde0314610214578063095be81814610291575b600080fd5b610202600480360360408110156101f557600080fd5b5080359060200135610666565b60408051918252519081900360200190f35b61021c6107f6565b6040805160208082528351818301528351919283929083019185019080838360005b8381101561025657818101518382015260200161023e565b50505050905090810190601f1680156102835780820380516001836020036101000a031916815260200191505b509250505060405180910390f35b610202600480360360208110156102a757600080fd5b503561088d565b6102da600480360360408110156102c457600080fd5b506001600160a01b03813516906020013561090b565b604080519115158252519081900360200190f35b6102f6610921565b604080516001600160a01b039092168252519081900360200190f35b610202610930565b6102026004803603602081101561033057600080fd5b5035610936565b6102da6004803603606081101561034d57600080fd5b506001600160a01b0381358116916020810135909116906040013561094d565b6103936004803603602081101561038357600080fd5b50356001600160a01b0316610b15565b005b610202610c23565b6103a5610c35565b6040805160ff9092168252519081900360200190f35b610202610c59565b6102da600480360360408110156103d957600080fd5b506001600160a01b038135169060200135610c63565b6103936004803603602081101561040557600080fd5b5035610c9e565b6103936004803603604081101561042257600080fd5b506001600160a01b0381358116916020013516610d4b565b6102f6610f33565b6102026004803603602081101561045857600080fd5b50356001600160a01b0316610f42565b6104856004803603602081101561047e57600080fd5b5035610f6a565b604080519788526020880196909652868601949094526060860192909252608085015260a084015260c0830152519081900360e00190f35b610202600480360360208110156104d357600080fd5b5035610fbc565b610202600480360360208110156104f057600080fd5b50356001600160a01b0316610fd3565b610202610ff4565b61021c611196565b6102da6004803603604081101561052657600080fd5b506001600160a01b0381351690602001356111f7565b6102da6004803603604081101561055257600080fd5b506001600160a01b03813516906020013561124c565b6103936004803603606081101561057e57600080fd5b508035906001600160a01b0360208201351690604001351515611380565b610202600480360360208110156105b257600080fd5b50356114dd565b610202600480360360208110156105cf57600080fd5b50356001600160a01b0316611529565b610393600480360360e08110156105f557600080fd5b506001600160a01b03813581169160208101359091169060408101359060608101359060ff6080820135169060a08101359060c0013561153b565b6102026004803603604081101561064657600080fd5b506001600160a01b03813581169160200135166116b7565b6102f66116e2565b6008546000906001600160a01b031633146106b25760405162461bcd60e51b815260040180806020018281038252602e815260200180611fbc602e913960400191505060405180910390fd5b6000806106bd610ff4565b90508461074c57600254604080519182525185917f0417b340e646d4be71f9b2da63b5c3c69bc9cfa069f0e0db4756271886130bf4919081900360200190a2837f6012dbce857565c4a40974aa5de8373a761fc429077ef0c8c8611d1e20d63fb26000610728610c23565b6040805192835260208301919091528051918290030190a2600254925050506107f0565b8015610778576107718161076b6002548861173a90919063ffffffff16565b906116f1565b915061077c565b8491505b6002546107899083611793565b60028190556fffffffffffffffffffffffffffffffff10156107ba576fffffffffffffffffffffffffffffffff6002555b6107da6002546611c37937e08000600019816107d257fe5b0619906116f1565b600b556107e88186866117ed565b600254925050505b92915050565b60038054604080516020601f60026000196101006001881615020190951694909404938401819004810282018101909252828152606093909290918301828280156108825780601f1061085757610100808354040283529160200191610882565b820191906000526020600020905b81548152906001019060200180831161086557829003601f168201915b505050505090505b90565b600954604080516319a948db60e21b81526004810184905290516000926001600160a01b0316916366a5236c916024808301926020929190829003018186803b1580156108d957600080fd5b505afa1580156108ed573d6000803e3d6000fd5b505050506040513d602081101561090357600080fd5b505192915050565b600061091833848461192b565b50600192915050565b6009546001600160a01b031681565b60025490565b60006107f0600b548361173a90919063ffffffff16565b6001600160a01b0383166000908152600d6020908152604080832033845290915281205461097b908361198d565b6001600160a01b0385166000818152600d60209081526040808320338085529083529281902085905580519485525191937f8c5be1e5ebec7d5bd14f71427d1e84f3dd0314c0f7b2291e5b200ac8c7c3b925929081900390910190a360006109e283610936565b6001600160a01b0386166000908152600c6020526040902054909150610a08908261198d565b6001600160a01b038087166000908152600c60205260408082209390935590861681522054610a379082611793565b6001600160a01b038086166000908152600c60209081526040808320949094559188168152600f9091522054610a6c86610f42565b1015610abf576040805162461bcd60e51b815260206004820152601c60248201527f446562743a2063616e6e6f74207472616e7366657220616d6f756e7400000000604482015290519081900360640190fd5b836001600160a01b0316856001600160a01b03167fddf252ad1be2c89b69c2b068fc378daa952ba7f163c4a11628f55a4df523b3ef856040518082815260200191505060405180910390a3506001949350505050565b6006546001600160a01b03163314610b5e5760405162461bcd60e51b8152600401808060200182810382526027815260200180611f956027913960400191505060405180910390fd5b6009546001600160a01b031615610bbc576040805162461bcd60e51b815260206004820152601760248201527f674f484d3a2020674f484d20616c726561647920736574000000000000000000604482015290519081900360640190fd5b6001600160a01b038116610c015760405162461bcd60e51b8152600401808060200182810382526023815260200180611f0d6023913960400191505060405180910390fd5b600980546001600160a01b0319166001600160a01b0392909216919091179055565b6000610c30600754610fbc565b905090565b7f000000000000000000000000000000000000000000000000000000000000000090565b6000610c306119cf565b336000818152600d602090815260408083206001600160a01b03871684529091528120549091610918918590610c999086611793565b61192b565b6006546001600160a01b03163314610ce75760405162461bcd60e51b8152600401808060200182810382526027815260200180611f956027913960400191505060405180910390fd5b60075415610d3c576040805162461bcd60e51b815260206004820152601660248201527f43616e6e6f742073657420494e44455820616761696e00000000000000000000604482015290519081900360640190fd5b610d4581610936565b60075550565b6006546001600160a01b03163314610d945760405162461bcd60e51b8152600401808060200182810382526027815260200180611f956027913960400191505060405180910390fd5b6001600160a01b038216610def576040805162461bcd60e51b815260206004820152600760248201527f5374616b696e6700000000000000000000000000000000000000000000000000604482015290519081900360640190fd5b600880546001600160a01b0319166001600160a01b0384811691909117918290559081166000908152600c60205260409020660e3d2cfe61ffff1990558116610e7f576040805162461bcd60e51b815260206004820152601660248201527f5a65726f20616464726573733a20547265617375727900000000000000000000604482015290519081900360640190fd5b600e80546001600160a01b0319166001600160a01b0383811691909117909155600854600254604080519182525191909216916000917fddf252ad1be2c89b69c2b068fc378daa952ba7f163c4a11628f55a4df523b3ef916020908290030190a3600854604080516001600160a01b039092168252517f817c653428858ed536dc085c5d8273734c517b55de44b55f5c5877a75e3373a19181900360200190a15050600680546001600160a01b0319169055565b600e546001600160a01b031681565b600b546001600160a01b0382166000908152600c602052604081205490916107f091906116f1565b600a8181548110610f7a57600080fd5b90600052602060002090600702016000915090508060000154908060010154908060020154908060030154908060040154908060050154908060060154905087565b60006107f0600b54836116f190919063ffffffff16565b6001600160a01b03811660009081526005602052604081206107f090611a96565b6000610c30600860009054906101000a90046001600160a01b03166001600160a01b031663201386416040518163ffffffff1660e01b815260040160206040518083038186803b15801561104757600080fd5b505afa15801561105b573d6000803e3d6000fd5b505050506040513d602081101561107157600080fd5b5051600954604080516318160ddd60e01b81529051611190926001600160a01b03169163a82487689183916318160ddd916004808301926020929190829003018186803b1580156110c157600080fd5b505afa1580156110d5573d6000803e3d6000fd5b505050506040513d60208110156110eb57600080fd5b5051604080517fffffffff0000000000000000000000000000000000000000000000000000000060e085901b1681526004810192909252516024808301926020929190829003018186803b15801561114257600080fd5b505afa158015611156573d6000803e3d6000fd5b505050506040513d602081101561116c57600080fd5b505160085461119090611187906001600160a01b0316610f42565b6002549061198d565b90611793565b60048054604080516020601f60026000196101006001881615020190951694909404938401819004810282018101909252828152606093909290918301828280156108825780601f1061085757610100808354040283529160200191610882565b336000908152600d602090815260408083206001600160a01b03861684529091528120548083106112335761122e3385600061192b565b611242565b6112423385610c99848761198d565b5060019392505050565b600080611264600b548461173a90919063ffffffff16565b336000908152600c6020526040902054909150611281908261198d565b336000908152600c6020526040808220929092556001600160a01b038616815220546112ad9082611793565b6001600160a01b0385166000908152600c602090815260408083209390935533808352600f90915291902054906112e390610f42565b1015611336576040805162461bcd60e51b815260206004820152601c60248201527f446562743a2063616e6e6f74207472616e7366657220616d6f756e7400000000604482015290519081900360640190fd5b6040805184815290516001600160a01b0386169133917fddf252ad1be2c89b69c2b068fc378daa952ba7f163c4a11628f55a4df523b3ef9181900360200190a35060019392505050565b600e546001600160a01b031633146113df576040805162461bcd60e51b815260206004820152600d60248201527f4f6e6c7920747265617375727900000000000000000000000000000000000000604482015290519081900360640190fd5b8015611426576001600160a01b0382166000908152600f60205260409020546114089084611793565b6001600160a01b0383166000908152600f6020526040902055611463565b6001600160a01b0382166000908152600f6020526040902054611449908461198d565b6001600160a01b0383166000908152600f60205260409020555b61146c82610f42565b6001600160a01b0383166000908152600f602052604090205411156114d8576040805162461bcd60e51b815260206004820152601a60248201527f734f484d3a20696e73756666696369656e742062616c616e6365000000000000604482015290519081900360640190fd5b505050565b6009546040805163150490ed60e31b81526004810184905290516000926001600160a01b03169163a8248768916024808301926020929190829003018186803b1580156108d957600080fd5b600f6020526000908152604090205481565b83421115611590576040805162461bcd60e51b815260206004820152601d60248201527f45524332305065726d69743a206578706972656420646561646c696e65000000604482015290519081900360640190fd5b60007f00000000000000000000000000000000000000000000000000000000000000008888886115bf8c611a9a565b8960405160200180878152602001866001600160a01b03168152602001856001600160a01b031681526020018481526020018381526020018281526020019650505050505050604051602081830303815290604052805190602001209050600061162882611acc565b9050600061163882878787611adf565b9050896001600160a01b0316816001600160a01b0316146116a0576040805162461bcd60e51b815260206004820152601e60248201527f45524332305065726d69743a20696e76616c6964207369676e61747572650000604482015290519081900360640190fd5b6116ab8a8a8a61192b565b50505050505050505050565b6001600160a01b039182166000908152600d6020908152604080832093909416825291909152205490565b6008546001600160a01b031681565b600061173383836040518060400160405280601a81526020017f536166654d6174683a206469766973696f6e206279207a65726f000000000000815250611b07565b9392505050565b600082611749575060006107f0565b8282028284828161175657fe5b04146117335760405162461bcd60e51b8152600401808060200182810382526021815260200180611f746021913960400191505060405180910390fd5b600082820183811015611733576040805162461bcd60e51b815260206004820152601b60248201527f536166654d6174683a206164646974696f6e206f766572666c6f770000000000604482015290519081900360640190fd5b60006118058461076b85670de0b6b3a764000061173a565b9050600a6040518060e0016040528084815260200183815260200186815260200161182e610ff4565b8152602001858152602001611841610c23565b81524360209182015282546001818101855560009485529382902083516007909202019081558282015193810193909355604080830151600280860191909155606084015160038601556080840151600486015560a0840151600586015560c09093015160069094019390935590548251908152915184927f0417b340e646d4be71f9b2da63b5c3c69bc9cfa069f0e0db4756271886130bf492908290030190a2817f6012dbce857565c4a40974aa5de8373a761fc429077ef0c8c8611d1e20d63fb28261190d610c23565b6040805192835260208301919091528051918290030190a250505050565b6001600160a01b038084166000818152600d6020908152604080832094871680845294825291829020859055815185815291517f8c5be1e5ebec7d5bd14f71427d1e84f3dd0314c0f7b2291e5b200ac8c7c3b9259281900390910190a3505050565b600061173383836040518060400160405280601e81526020017f536166654d6174683a207375627472616374696f6e206f766572666c6f770000815250611bc0565b6000467f0000000000000000000000000000000000000000000000000000000000000000811415611a23577f000000000000000000000000000000000000000000000000000000000000000091505061088a565b611a8e7f00000000000000000000000000000000000000000000000000000000000000007f00000000000000000000000000000000000000000000000000000000000000007f0000000000000000000000000000000000000000000000000000000000000000611c1a565b91505061088a565b5490565b6001600160a01b0381166000908152600560205260408120611abb81611a96565b9150611ac681611c5f565b50919050565b60006107f0611ad96119cf565b83611c68565b6000806000611af087878787611ca3565b91509150611afd81611d98565b5095945050505050565b60008183611b935760405162461bcd60e51b81526004018080602001828103825283818151815260200191508051906020019080838360005b83811015611b58578181015183820152602001611b40565b50505050905090810190601f168015611b855780820380516001836020036101000a031916815260200191505b509250505060405180910390fd5b506000838581611b9f57fe5b049050838581611bab57fe5b06818502018514611bb857fe5b949350505050565b60008184841115611c125760405162461bcd60e51b8152602060048201818152835160248401528351909283926044909101919085019080838360008315611b58578181015183820152602001611b40565b505050900390565b604080516020808201959095528082019390935260608301919091524660808301523060a0808401919091528151808403909101815260c09092019052805191012090565b80546001019055565b6040805161190160f01b6020808301919091526022820194909452604280820193909352815180820390930183526062019052805191012090565b6000807f7fffffffffffffffffffffffffffffff5d576e7357a4501ddfe92f46681b20a0831115611cda5750600090506003611d8f565b8460ff16601b14158015611cf257508460ff16601c14155b15611d035750600090506004611d8f565b600060018787878760405160008152602001604052604051808581526020018460ff1681526020018381526020018281526020019450505050506020604051602081039080840390855afa158015611d5f573d6000803e3d6000fd5b5050604051601f1901519150506001600160a01b038116611d8857600060019250925050611d8f565b9150600090505b94509492505050565b6000816004811115611da657fe5b1415611db157611f09565b6001816004811115611dbf57fe5b1415611e12576040805162461bcd60e51b815260206004820152601860248201527f45434453413a20696e76616c6964207369676e61747572650000000000000000604482015290519081900360640190fd5b6002816004811115611e2057fe5b1415611e73576040805162461bcd60e51b815260206004820152601f60248201527f45434453413a20696e76616c6964207369676e6174757265206c656e67746800604482015290519081900360640190fd5b6003816004811115611e8157fe5b1415611ebe5760405162461bcd60e51b8152600401808060200182810382526022815260200180611f306022913960400191505060405180910390fd5b6004816004811115611ecc57fe5b1415611f095760405162461bcd60e51b8152600401808060200182810382526022815260200180611f526022913960400191505060405180910390fd5b5056fe674f484d3a2020674f484d206973206e6f7420612076616c696420636f6e747261637445434453413a20696e76616c6964207369676e6174757265202773272076616c756545434453413a20696e76616c6964207369676e6174757265202776272076616c7565536166654d6174683a206d756c7469706c69636174696f6e206f766572666c6f77496e697469616c697a65723a202063616c6c6572206973206e6f7420696e697469616c697a65725374616b696e67436f6e74726163743a202063616c6c206973206e6f74207374616b696e6720636f6e7472616374a164736f6c6343000705000a",
  "devdoc": {
    "kind": "dev",
    "methods": {
      "DOMAIN_SEPARATOR()": {
        "details": "See {IERC20Permit-DOMAIN_SEPARATOR}."
      },
      "nonces(address)": {
        "details": "See {IERC20Permit-nonces}."
      },
      "permit(address,address,uint256,uint256,uint8,bytes32,bytes32)": {
        "details": "See {IERC20Permit-permit}."
      },
      "rebase(uint256,uint256)": {
        "params": {
          "profit_": "uint256"
        },
        "returns": {
          "_0": "uint256"
        }
      },
      "totalSupply()": {
        "details": "Returns the amount of tokens in existence."
      }
    },
    "version": 1
  },
  "userdoc": {
    "kind": "user",
    "methods": {
      "rebase(uint256,uint256)": {
        "notice": "increases rOHM supply to increase staking balances relative to profit_"
      }
    },
    "version": 1
  },
  "storageLayout": {
    "storage": [
      {
        "astId": 11660,
        "contract": "contracts/sOlympusERC20.sol:sOlympus",
        "label": "_balances",
        "offset": 0,
        "slot": "0",
        "type": "t_mapping(t_address,t_uint256)"
      },
      {
        "astId": 11666,
        "contract": "contracts/sOlympusERC20.sol:sOlympus",
        "label": "_allowances",
        "offset": 0,
        "slot": "1",
        "type": "t_mapping(t_address,t_mapping(t_address,t_uint256))"
      },
      {
        "astId": 11668,
        "contract": "contracts/sOlympusERC20.sol:sOlympus",
        "label": "_totalSupply",
        "offset": 0,
        "slot": "2",
        "type": "t_uint256"
      },
      {
        "astId": 11670,
        "contract": "contracts/sOlympusERC20.sol:sOlympus",
        "label": "_name",
        "offset": 0,
        "slot": "3",
        "type": "t_string_storage"
      },
      {
        "astId": 11672,
        "contract": "contracts/sOlympusERC20.sol:sOlympus",
        "label": "_symbol",
        "offset": 0,
        "slot": "4",
        "type": "t_string_storage"
      },
      {
        "astId": 12141,
        "contract": "contracts/sOlympusERC20.sol:sOlympus",
        "label": "_nonces",
        "offset": 0,
        "slot": "5",
        "type": "t_mapping(t_address,t_struct(Counter)8007_storage)"
      },
      {
        "astId": 10803,
        "contract": "contracts/sOlympusERC20.sol:sOlympus",
        "label": "initializer",
        "offset": 0,
        "slot": "6",
        "type": "t_address"
      },
      {
        "astId": 10805,
        "contract": "contracts/sOlympusERC20.sol:sOlympus",
        "label": "INDEX",
        "offset": 0,
        "slot": "7",
        "type": "t_uint256"
      },
      {
        "astId": 10807,
        "contract": "contracts/sOlympusERC20.sol:sOlympus",
        "label": "stakingContract",
        "offset": 0,
        "slot": "8",
        "type": "t_address"
      },
      {
        "astId": 10809,
        "contract": "contracts/sOlympusERC20.sol:sOlympus",
        "label": "gOHM",
        "offset": 0,
        "slot": "9",
        "type": "t_contract(IgOHM)7450"
      },
      {
        "astId": 10812,
        "contract": "contracts/sOlympusERC20.sol:sOlympus",
        "label": "rebases",
        "offset": 0,
        "slot": "10",
        "type": "t_array(t_struct(Rebase)10801_storage)dyn_storage"
      },
      {
        "astId": 10843,
        "contract": "contracts/sOlympusERC20.sol:sOlympus",
        "label": "_gonsPerFragment",
        "offset": 0,
        "slot": "11",
        "type": "t_uint256"
      },
      {
        "astId": 10847,
        "contract": "contracts/sOlympusERC20.sol:sOlympus",
        "label": "_gonBalances",
        "offset": 0,
        "slot": "12",
        "type": "t_mapping(t_address,t_uint256)"
      },
      {
        "astId": 10853,
        "contract": "contracts/sOlympusERC20.sol:sOlympus",
        "label": "_allowedValue",
        "offset": 0,
        "slot": "13",
        "type": "t_mapping(t_address,t_mapping(t_address,t_uint256))"
      },
      {
        "astId": 10855,
        "contract": "contracts/sOlympusERC20.sol:sOlympus",
        "label": "treasury",
        "offset": 0,
        "slot": "14",
        "type": "t_address"
      },
      {
        "astId": 10860,
        "contract": "contracts/sOlympusERC20.sol:sOlympus",
        "label": "debtBalances",
        "offset": 0,
        "slot": "15",
        "type": "t_mapping(t_address,t_uint256)"
      }
    ],
    "types": {
      "t_address": {
        "encoding": "inplace",
        "label": "address",
        "numberOfBytes": "20"
      },
      "t_array(t_struct(Rebase)10801_storage)dyn_storage": {
        "base": "t_struct(Rebase)10801_storage",
        "encoding": "dynamic_array",
        "label": "struct sOlympus.Rebase[]",
        "numberOfBytes": "32"
      },
      "t_contract(IgOHM)7450": {
        "encoding": "inplace",
        "label": "contract IgOHM",
        "numberOfBytes": "20"
      },
      "t_mapping(t_address,t_mapping(t_address,t_uint256))": {
        "encoding": "mapping",
        "key": "t_address",
        "label": "mapping(address => mapping(address => uint256))",
        "numberOfBytes": "32",
        "value": "t_mapping(t_address,t_uint256)"
      },
      "t_mapping(t_address,t_struct(Counter)8007_storage)": {
        "encoding": "mapping",
        "key": "t_address",
        "label": "mapping(address => struct Counters.Counter)",
        "numberOfBytes": "32",
        "value": "t_struct(Counter)8007_storage"
      },
      "t_mapping(t_address,t_uint256)": {
        "encoding": "mapping",
        "key": "t_address",
        "label": "mapping(address => uint256)",
        "numberOfBytes": "32",
        "value": "t_uint256"
      },
      "t_string_storage": {
        "encoding": "bytes",
        "label": "string",
        "numberOfBytes": "32"
      },
      "t_struct(Counter)8007_storage": {
        "encoding": "inplace",
        "label": "struct Counters.Counter",
        "members": [
          {
            "astId": 8006,
            "contract": "contracts/sOlympusERC20.sol:sOlympus",
            "label": "_value",
            "offset": 0,
            "slot": "0",
            "type": "t_uint256"
          }
        ],
        "numberOfBytes": "32"
      },
      "t_struct(Rebase)10801_storage": {
        "encoding": "inplace",
        "label": "struct sOlympus.Rebase",
        "members": [
          {
            "astId": 10788,
            "contract": "contracts/sOlympusERC20.sol:sOlympus",
            "label": "epoch",
            "offset": 0,
            "slot": "0",
            "type": "t_uint256"
          },
          {
            "astId": 10790,
            "contract": "contracts/sOlympusERC20.sol:sOlympus",
            "label": "rebase",
            "offset": 0,
            "slot": "1",
            "type": "t_uint256"
          },
          {
            "astId": 10792,
            "contract": "contracts/sOlympusERC20.sol:sOlympus",
            "label": "totalStakedBefore",
            "offset": 0,
            "slot": "2",
            "type": "t_uint256"
          },
          {
            "astId": 10794,
            "contract": "contracts/sOlympusERC20.sol:sOlympus",
            "label": "totalStakedAfter",
            "offset": 0,
            "slot": "3",
            "type": "t_uint256"
          },
          {
            "astId": 10796,
            "contract": "contracts/sOlympusERC20.sol:sOlympus",
            "label": "amountRebased",
            "offset": 0,
            "slot": "4",
            "type": "t_uint256"
          },
          {
            "astId": 10798,
            "contract": "contracts/sOlympusERC20.sol:sOlympus",
            "label": "index",
            "offset": 0,
            "slot": "5",
            "type": "t_uint256"
          },
          {
            "astId": 10800,
            "contract": "contracts/sOlympusERC20.sol:sOlympus",
            "label": "blockNumberOccured",
            "offset": 0,
            "slot": "6",
            "type": "t_uint256"
          }
        ],
        "numberOfBytes": "224"
      },
      "t_uint256": {
        "encoding": "inplace",
        "label": "uint256",
        "numberOfBytes": "32"
      }
    }
  }
}