{
  "address": "0x2b954551307FB929DF8BB96657DB69fB4d72617c",
  "abi": [
    {
      "inputs": [
        {
          "internalType": "contract ITreasury",
          "name": "_treasury",
          "type": "address"
        },
        {
          "internalType": "contract IERC20",
          "name": "_ohm",
          "type": "address"
        },
        {
          "internalType": "address",
          "name": "_staking",
          "type": "address"
        },
        {
          "internalType": "contract IOlympusAuthority",
          "name": "_authority",
          "type": "address"
        },
        {
          "internalType": "uint256",
          "name": "_initialRate",
          "type": "uint256"
        }
      ],
      "stateMutability": "nonpayable",
      "type": "constructor"
    },
    {
      "inputs": [],
      "name": "Adjustment_Limit",
      "type": "error"
    },
    {
      "inputs": [],
      "name": "Adjustment_Underflow",
      "type": "error"
    },
    {
      "inputs": [],
      "name": "No_Rebase_Occurred",
      "type": "error"
    },
    {
      "inputs": [],
      "name": "Not_Permissioned",
      "type": "error"
    },
    {
      "inputs": [],
      "name": "Not_Unlocked",
      "type": "error"
    },
    {
      "inputs": [],
      "name": "Only_Staking",
      "type": "error"
    },
    {
      "inputs": [],
      "name": "Sanity_Check",
      "type": "error"
    },
    {
      "anonymous": false,
      "inputs": [
        {
          "indexed": true,
          "internalType": "contract IOlympusAuthority",
          "name": "authority",
          "type": "address"
        }
      ],
      "name": "AuthorityUpdated",
      "type": "event"
    },
    {
      "inputs": [
        {
          "internalType": "uint256",
          "name": "index",
          "type": "uint256"
        },
        {
          "internalType": "address",
          "name": "pool",
          "type": "address"
        }
      ],
      "name": "addPool",
      "outputs": [],
      "stateMutability": "nonpayable",
      "type": "function"
    },
    {
      "inputs": [],
      "name": "adjustment",
      "outputs": [
        {
          "internalType": "bool",
          "name": "add",
          "type": "bool"
        },
        {
          "internalType": "uint256",
          "name": "rate",
          "type": "uint256"
        },
        {
          "internalType": "uint256",
          "name": "target",
          "type": "uint256"
        }
      ],
      "stateMutability": "view",
      "type": "function"
    },
    {
      "inputs": [],
      "name": "authority",
      "outputs": [
        {
          "internalType": "contract IOlympusAuthority",
          "name": "",
          "type": "address"
        }
      ],
      "stateMutability": "view",
      "type": "function"
    },
    {
      "inputs": [],
      "name": "bounty",
      "outputs": [
        {
          "internalType": "uint256",
          "name": "",
          "type": "uint256"
        }
      ],
      "stateMutability": "view",
      "type": "function"
    },
    {
      "inputs": [],
      "name": "distribute",
      "outputs": [],
      "stateMutability": "nonpayable",
      "type": "function"
    },
    {
      "inputs": [
        {
          "internalType": "address",
          "name": "who",
          "type": "address"
        }
      ],
      "name": "nextRewardFor",
      "outputs": [
        {
          "internalType": "uint256",
          "name": "",
          "type": "uint256"
        }
      ],
      "stateMutability": "view",
      "type": "function"
    },
    {
      "inputs": [
        {
          "internalType": "uint256",
          "name": "",
          "type": "uint256"
        }
      ],
      "name": "pools",
      "outputs": [
        {
          "internalType": "address",
          "name": "",
          "type": "address"
        }
      ],
      "stateMutability": "view",
      "type": "function"
    },
    {
      "inputs": [
        {
          "internalType": "uint256",
          "name": "index",
          "type": "uint256"
        },
        {
          "internalType": "address",
          "name": "pool",
          "type": "address"
        }
      ],
      "name": "removePool",
      "outputs": [],
      "stateMutability": "nonpayable",
      "type": "function"
    },
    {
      "inputs": [],
      "name": "retrieveBounty",
      "outputs": [
        {
          "internalType": "uint256",
          "name": "",
          "type": "uint256"
        }
      ],
      "stateMutability": "nonpayable",
      "type": "function"
    },
    {
      "inputs": [],
      "name": "rewardRate",
      "outputs": [
        {
          "internalType": "uint256",
          "name": "",
          "type": "uint256"
        }
      ],
      "stateMutability": "view",
      "type": "function"
    },
    {
      "inputs": [
        {
          "internalType": "bool",
          "name": "_add",
          "type": "bool"
        },
        {
          "internalType": "uint256",
          "name": "_rate",
          "type": "uint256"
        },
        {
          "internalType": "uint256",
          "name": "_target",
          "type": "uint256"
        }
      ],
      "name": "setAdjustment",
      "outputs": [],
      "stateMutability": "nonpayable",
      "type": "function"
    },
    {
      "inputs": [
        {
          "internalType": "contract IOlympusAuthority",
          "name": "_newAuthority",
          "type": "address"
        }
      ],
      "name": "setAuthority",
      "outputs": [],
      "stateMutability": "nonpayable",
      "type": "function"
    },
    {
      "inputs": [
        {
          "internalType": "uint256",
          "name": "_bounty",
          "type": "uint256"
        }
      ],
      "name": "setBounty",
      "outputs": [],
      "stateMutability": "nonpayable",
      "type": "function"
    },
    {
      "inputs": [
        {
          "internalType": "address[]",
          "name": "_pools",
          "type": "address[]"
        }
      ],
      "name": "setPools",
      "outputs": [],
      "stateMutability": "nonpayable",
      "type": "function"
    },
    {
      "inputs": [],
      "name": "triggerRebase",
      "outputs": [],
      "stateMutability": "nonpayable",
      "type": "function"
    }
  ],
  "transactionHash": "0xe0b327877494d9ad16ea2db6d9822cf37ab59c45fdc6ad97820861fb0ba426e8",
  "args": [
    "0xB3e1dF7951a62fFb5eF7D3b1C9D80CF09325580A",
    "0x0595328847AF962F951a4f8F8eE9A3Bf261e4f6b",
    "0x7263372b9ff6E619d8774aEB046cE313677E2Ec7",
    "0x4A8c9502A34962a2C6d73c5D181dAaeF3dcDc88D",
    "3000"
  ],
  "solcInputHash": "425eb1f5993ee96e475c14c00fa27971",
  "bytecode": "0x610120604052600c60e08190526b15539055551213d49256915160a21b610100908152620000319160009190620000d1565b503480156200003f57600080fd5b50604051620015c1380380620015c1833981016040819052620000629162000190565b600180546001600160a01b0319166001600160a01b0384169081179091556040518391907f2f658b440c35314f52658ea8a740e05b284cdc84dc9ae01e891f21b8933e7cad90600090a2506001600160a01b0394851660a0529284166080525090911660c05260025562000241565b828054620000df9062000204565b90600052602060002090601f0160209004810192826200010357600085556200014e565b82601f106200011e57805160ff19168380011785556200014e565b828001600101855582156200014e579182015b828111156200014e57825182559160200191906001019062000131565b506200015c92915062000160565b5090565b5b808211156200015c576000815560010162000161565b6001600160a01b03811681146200018d57600080fd5b50565b600080600080600060a08688031215620001a957600080fd5b8551620001b68162000177565b6020870151909550620001c98162000177565b6040870151909450620001dc8162000177565b6060870151909350620001ef8162000177565b80925050608086015190509295509295909350565b600181811c908216806200021957607f821691505b602082108114156200023b57634e487b7160e01b600052602260045260246000fd5b50919050565b60805160a05160c05161131f620002a260003960008181610271015281816108ff01528181610991015281816109b501528181610bce0152610c5b01526000818161096201528181610a900152610c2e015260006104c3015261131f6000f3fe608060405234801561001057600080fd5b50600436106100f55760003560e01c80638544c53b11610097578063bf7e214f11610066578063bf7e214f146101f8578063e4fc6b6d1461020b578063e7187e8a14610213578063f2dff9681461021b57600080fd5b80638544c53b1461019e578063943dfef1146101b15780639b429108146101ba578063ac4afa38146101cd57600080fd5b8063451ee4a1116100d3578063451ee4a11461013d5780635d87d3631461016f5780637a9e5e4b146101825780637b0a47ee1461019557600080fd5b80630c7d3931146100fa57806333ba88821461010457806336d33f4414610117575b600080fd5b61010261022e565b005b610102610112366004611061565b610305565b61012a610125366004611091565b610497565b6040519081526020015b60405180910390f35b6004546005546006546101529260ff16919083565b604080519315158452602084019290925290820152606001610134565b61010261017d3660046110b5565b610548565b610102610190366004611091565b6105f9565b61012a60025481565b6101026101ac3660046110ce565b6106fc565b61012a60075481565b6101026101c8366004611061565b6107b9565b6101e06101db3660046110b5565b6108ca565b6040516001600160a01b039091168152602001610134565b6001546101e0906001600160a01b031681565b6101026108f4565b61012a610bc1565b610102610229366004611143565b610cd1565b6008805460ff1916600190811790915560405163990966d560e01b8152336004820152600060248201526044810182905260648101919091526001600160a01b037f0000000000000000000000000000000000000000000000000000000000000000169063990966d5906084016020604051808303816000875af11580156102ba573d6000803e3d6000fd5b505050506040513d601f19601f820116820180604052508101906102de919061117d565b5060085460ff16156103035760405163c92f022f60e01b815260040160405180910390fd5b565b600160009054906101000a90046001600160a01b03166001600160a01b0316630c340a246040518163ffffffff1660e01b8152600401602060405180830381865afa158015610358573d6000803e3d6000fd5b505050506040513d601f19601f8201168201806040525081019061037c9190611196565b6001600160a01b0316336001600160a01b0316146000906103b95760405162461bcd60e51b81526004016103b091906111b3565b60405180910390fd5b5060006001600160a01b0316600383815481106103d8576103d861125b565b6000918252602090912001546001600160a01b031614156104395780600383815481106104075761040761125b565b9060005260206000200160006101000a8154816001600160a01b0302191690836001600160a01b031602179055505050565b600380546001810182556000919091527fc2575a0e9e593c00f959f8c92f12db2869c3395a3b0502d05e2516446f71f85b0180546001600160a01b03831673ffffffffffffffffffffffffffffffffffffffff199091161790555050565b6002546040516370a0823160e01b81526001600160a01b038381166004830152600092620f42409290917f000000000000000000000000000000000000000000000000000000000000000016906370a0823190602401602060405180830381865afa15801561050a573d6000803e3d6000fd5b505050506040513d601f19601f8201168201806040525081019061052e919061117d565b6105389190611287565b61054291906112a6565b92915050565b600160009054906101000a90046001600160a01b03166001600160a01b0316630c340a246040518163ffffffff1660e01b8152600401602060405180830381865afa15801561059b573d6000803e3d6000fd5b505050506040513d601f19601f820116820180604052508101906105bf9190611196565b6001600160a01b0316336001600160a01b0316146000906105f35760405162461bcd60e51b81526004016103b091906111b3565b50600755565b600160009054906101000a90046001600160a01b03166001600160a01b0316630c340a246040518163ffffffff1660e01b8152600401602060405180830381865afa15801561064c573d6000803e3d6000fd5b505050506040513d601f19601f820116820180604052508101906106709190611196565b6001600160a01b0316336001600160a01b0316146000906106a45760405162461bcd60e51b81526004016103b091906111b3565b506001805473ffffffffffffffffffffffffffffffffffffffff19166001600160a01b0383169081179091556040517f2f658b440c35314f52658ea8a740e05b284cdc84dc9ae01e891f21b8933e7cad90600090a250565b600160009054906101000a90046001600160a01b03166001600160a01b0316630c340a246040518163ffffffff1660e01b8152600401602060405180830381865afa15801561074f573d6000803e3d6000fd5b505050506040513d601f19601f820116820180604052508101906107739190611196565b6001600160a01b0316336001600160a01b0316146000906107a75760405162461bcd60e51b81526004016103b091906111b3565b506107b460038383610fc4565b505050565b600160009054906101000a90046001600160a01b03166001600160a01b0316630c340a246040518163ffffffff1660e01b8152600401602060405180830381865afa15801561080c573d6000803e3d6000fd5b505050506040513d601f19601f820116820180604052508101906108309190611196565b6001600160a01b0316336001600160a01b0316146000906108645760405162461bcd60e51b81526004016103b091906111b3565b50806001600160a01b0316600383815481106108825761088261125b565b6000918252602090912001546001600160a01b0316146108b557604051630a87e13960e01b815260040160405180910390fd5b6000600383815481106104075761040761125b565b600381815481106108da57600080fd5b6000918252602090912001546001600160a01b0316905081565b336001600160a01b037f0000000000000000000000000000000000000000000000000000000000000000161461093d5760405163084df95960e01b815260040160405180910390fd5b60085460ff166109605760405163619171c960e01b815260040160405180910390fd5b7f00000000000000000000000000000000000000000000000000000000000000006001600160a01b03166340c10f197f00000000000000000000000000000000000000000000000000000000000000006109d97f0000000000000000000000000000000000000000000000000000000000000000610497565b6040517fffffffff0000000000000000000000000000000000000000000000000000000060e085901b1681526001600160a01b0390921660048301526024820152604401600060405180830381600087803b158015610a3757600080fd5b505af1158015610a4b573d6000803e3d6000fd5b5050505060005b600354811015610ba457600060038281548110610a7157610a7161125b565b6000918252602090912001546001600160a01b031690508015610b91577f00000000000000000000000000000000000000000000000000000000000000006001600160a01b03166340c10f1982610ac784610497565b6040517fffffffff0000000000000000000000000000000000000000000000000000000060e085901b1681526001600160a01b0390921660048301526024820152604401600060405180830381600087803b158015610b2557600080fd5b505af1158015610b39573d6000803e3d6000fd5b50505050806001600160a01b031663fff6cae96040518163ffffffff1660e01b8152600401600060405180830381600087803b158015610b7857600080fd5b505af1158015610b8c573d6000803e3d6000fd5b505050505b5080610b9c816112c8565b915050610a52565b5060055415610bb557610bb5610f3d565b6008805460ff19169055565b6000336001600160a01b037f00000000000000000000000000000000000000000000000000000000000000001614610c0c5760405163084df95960e01b815260040160405180910390fd5b60075415610cca576007546040516340c10f1960e01b81526001600160a01b037f000000000000000000000000000000000000000000000000000000000000000016916340c10f1991610c97917f0000000000000000000000000000000000000000000000000000000000000000916004016001600160a01b03929092168252602082015260400190565b600060405180830381600087803b158015610cb157600080fd5b505af1158015610cc5573d6000803e3d6000fd5b505050505b5060075490565b600160009054906101000a90046001600160a01b03166001600160a01b0316630c340a246040518163ffffffff1660e01b8152600401602060405180830381865afa158015610d24573d6000803e3d6000fd5b505050506040513d601f19601f82011682018060405250810190610d489190611196565b6001600160a01b0316336001600160a01b031614158015610df15750600160009054906101000a90046001600160a01b03166001600160a01b031663452a93206040518163ffffffff1660e01b8152600401602060405180830381865afa158015610db7573d6000803e3d6000fd5b505050506040513d601f19601f82011682018060405250810190610ddb9190611196565b6001600160a01b0316336001600160a01b031614155b15610e0f576040516362050a4360e01b815260040160405180910390fd5b600160009054906101000a90046001600160a01b03166001600160a01b031663452a93206040518163ffffffff1660e01b8152600401602060405180830381865afa158015610e62573d6000803e3d6000fd5b505050506040513d601f19601f82011682018060405250810190610e869190611196565b6001600160a01b0316336001600160a01b0316148015610ec057506103e86002546019610eb39190611287565b610ebd91906112a6565b82115b15610ede57604051639a9a991560e01b815260040160405180910390fd5b82158015610eed575060025482115b15610f0b57604051635c4fae2b60e11b815260040160405180910390fd5b604080516060810182529315158085526020850184905293018190526004805460ff1916909317909255600555600655565b60045460ff1615610f7a5760055460028054600090610f5d9084906112e3565b909155505060065460025410610303576000600555600654600255565b6005546002541115610fa65760055460028054600090610f9b9084906112fb565b90915550610fac9050565b60006002555b60065460025411610303576000600555600654600255565b828054828255906000526020600020908101928215611024579160200282015b8281111561102457815473ffffffffffffffffffffffffffffffffffffffff19166001600160a01b03843516178255602090920191600190910190610fe4565b50611030929150611034565b5090565b5b808211156110305760008155600101611035565b6001600160a01b038116811461105e57600080fd5b50565b6000806040838503121561107457600080fd5b82359150602083013561108681611049565b809150509250929050565b6000602082840312156110a357600080fd5b81356110ae81611049565b9392505050565b6000602082840312156110c757600080fd5b5035919050565b600080602083850312156110e157600080fd5b823567ffffffffffffffff808211156110f957600080fd5b818501915085601f83011261110d57600080fd5b81358181111561111c57600080fd5b8660208260051b850101111561113157600080fd5b60209290920196919550909350505050565b60008060006060848603121561115857600080fd5b8335801515811461116857600080fd5b95602085013595506040909401359392505050565b60006020828403121561118f57600080fd5b5051919050565b6000602082840312156111a857600080fd5b81516110ae81611049565b600060208083526000845481600182811c9150808316806111d557607f831692505b8583108114156111f357634e487b7160e01b85526022600452602485fd5b87860183815260200181801561121057600181146112215761124c565b60ff1986168252878201965061124c565b60008b81526020902060005b868110156112465781548482015290850190890161122d565b83019750505b50949998505050505050505050565b634e487b7160e01b600052603260045260246000fd5b634e487b7160e01b600052601160045260246000fd5b60008160001904831182151516156112a1576112a1611271565b500290565b6000826112c357634e487b7160e01b600052601260045260246000fd5b500490565b60006000198214156112dc576112dc611271565b5060010190565b600082198211156112f6576112f6611271565b500190565b60008282101561130d5761130d611271565b50039056fea164736f6c634300080a000a",
  "devdoc": {
    "kind": "dev",
    "methods": {
      "addPool(uint256,address)": {
        "details": "note you should find an empty slot offchain before callingif there are no empty slots, pass in an occupied index to push"
      },
      "setPools(address[])": {
        "details": "note that this overwrites the entire list (!!)"
      }
    },
    "version": 1
  },
  "userdoc": {
    "kind": "user",
    "methods": {
      "addPool(uint256,address)": {
        "notice": "adds a pool to the list"
      },
      "adjustment()": {
        "notice": "Information about adjusting reward rate"
      },
      "bounty()": {
        "notice": "A bounty for keepers to call the triggerRebase() function"
      },
      "distribute()": {
        "notice": "send epoch reward to staking contract"
      },
      "nextRewardFor(address)": {
        "notice": "view function for next reward for an address"
      },
      "pools(uint256)": {
        "notice": "Liquidity pools to receive rewards"
      },
      "removePool(uint256,address)": {
        "notice": "removes a pool from the list"
      },
      "rewardRate()": {
        "notice": "The % to increase balances per epoch"
      },
      "setAdjustment(bool,uint256,uint256)": {
        "notice": "set adjustment info for a collector's reward rate"
      },
      "setBounty(uint256)": {
        "notice": "set bounty to incentivize keepers"
      },
      "setPools(address[])": {
        "notice": "sets the liquidity pools for mint and sync"
      }
    },
    "notice": "Updated distributor adds the ability to mint and sync         into Uniswap V2-style liquidity pools, removing the         opportunity-cost dilemma of providing liquidity for         OHM, as well as patches a small bug in the staking contract         that pulls forward an amount of the next epoch rewards. Note that         this implementation bases staking reward distributions on staked supply.",
    "version": 1
  },
  "storageLayout": {
    "storage": [
      {
        "astId": 16788,
        "contract": "contracts/testnet/DistributorV2.sol:DistributorV2",
        "label": "UNAUTHORIZED",
        "offset": 0,
        "slot": "0",
        "type": "t_string_storage"
      },
      {
        "astId": 16791,
        "contract": "contracts/testnet/DistributorV2.sol:DistributorV2",
        "label": "authority",
        "offset": 0,
        "slot": "1",
        "type": "t_contract(IOlympusAuthority)5040"
      },
      {
        "astId": 12230,
        "contract": "contracts/testnet/DistributorV2.sol:DistributorV2",
        "label": "rewardRate",
        "offset": 0,
        "slot": "2",
        "type": "t_uint256"
      },
      {
        "astId": 12234,
        "contract": "contracts/testnet/DistributorV2.sol:DistributorV2",
        "label": "pools",
        "offset": 0,
        "slot": "3",
        "type": "t_array(t_address)dyn_storage"
      },
      {
        "astId": 12238,
        "contract": "contracts/testnet/DistributorV2.sol:DistributorV2",
        "label": "adjustment",
        "offset": 0,
        "slot": "4",
        "type": "t_struct(Adjust)12216_storage"
      },
      {
        "astId": 12241,
        "contract": "contracts/testnet/DistributorV2.sol:DistributorV2",
        "label": "bounty",
        "offset": 0,
        "slot": "7",
        "type": "t_uint256"
      },
      {
        "astId": 12283,
        "contract": "contracts/testnet/DistributorV2.sol:DistributorV2",
        "label": "unlockRebase",
        "offset": 0,
        "slot": "8",
        "type": "t_bool"
      }
    ],
    "types": {
      "t_address": {
        "encoding": "inplace",
        "label": "address",
        "numberOfBytes": "20"
      },
      "t_array(t_address)dyn_storage": {
        "base": "t_address",
        "encoding": "dynamic_array",
        "label": "address[]",
        "numberOfBytes": "32"
      },
      "t_bool": {
        "encoding": "inplace",
        "label": "bool",
        "numberOfBytes": "1"
      },
      "t_contract(IOlympusAuthority)5040": {
        "encoding": "inplace",
        "label": "contract IOlympusAuthority",
        "numberOfBytes": "20"
      },
      "t_string_storage": {
        "encoding": "bytes",
        "label": "string",
        "numberOfBytes": "32"
      },
      "t_struct(Adjust)12216_storage": {
        "encoding": "inplace",
        "label": "struct DistributorV2.Adjust",
        "members": [
          {
            "astId": 12211,
            "contract": "contracts/testnet/DistributorV2.sol:DistributorV2",
            "label": "add",
            "offset": 0,
            "slot": "0",
            "type": "t_bool"
          },
          {
            "astId": 12213,
            "contract": "contracts/testnet/DistributorV2.sol:DistributorV2",
            "label": "rate",
            "offset": 0,
            "slot": "1",
            "type": "t_uint256"
          },
          {
            "astId": 12215,
            "contract": "contracts/testnet/DistributorV2.sol:DistributorV2",
            "label": "target",
            "offset": 0,
            "slot": "2",
            "type": "t_uint256"
          }
        ],
        "numberOfBytes": "96"
      },
      "t_uint256": {
        "encoding": "inplace",
        "label": "uint256",
        "numberOfBytes": "32"
      }
    }
  }
}