{
  "address": "0xAda3336fcD233Ff0Eb39BeA0b1a7784E43aD4B00",
  "abi": [
    {
      "inputs": [
        {
          "internalType": "contract IOlympusAuthority",
          "name": "_authority",
          "type": "address"
        },
        {
          "internalType": "contract IERC20",
          "name": "_ohm",
          "type": "address"
        },
        {
          "internalType": "contract IgOHM",
          "name": "_gohm",
          "type": "address"
        },
        {
          "internalType": "contract IStaking",
          "name": "_staking",
          "type": "address"
        },
        {
          "internalType": "contract ITreasury",
          "name": "_treasury",
          "type": "address"
        }
      ],
      "stateMutability": "nonpayable",
      "type": "constructor"
    },
    {
      "anonymous": false,
      "inputs": [
        {
          "indexed": true,
          "internalType": "contract IOlympusAuthority",
          "name": "authority",
          "type": "address"
        }
      ],
      "name": "AuthorityUpdated",
      "type": "event"
    },
    {
      "anonymous": false,
      "inputs": [
        {
          "indexed": true,
          "internalType": "uint256",
          "name": "id",
          "type": "uint256"
        },
        {
          "indexed": false,
          "internalType": "uint256",
          "name": "amount",
          "type": "uint256"
        },
        {
          "indexed": false,
          "internalType": "uint256",
          "name": "price",
          "type": "uint256"
        }
      ],
      "name": "Bond",
      "type": "event"
    },
    {
      "anonymous": false,
      "inputs": [
        {
          "indexed": true,
          "internalType": "uint256",
          "name": "id",
          "type": "uint256"
        }
      ],
      "name": "CloseMarket",
      "type": "event"
    },
    {
      "anonymous": false,
      "inputs": [
        {
          "indexed": true,
          "internalType": "uint256",
          "name": "id",
          "type": "uint256"
        },
        {
          "indexed": true,
          "internalType": "address",
          "name": "baseToken",
          "type": "address"
        },
        {
          "indexed": true,
          "internalType": "address",
          "name": "quoteToken",
          "type": "address"
        },
        {
          "indexed": false,
          "internalType": "uint256",
          "name": "initialPrice",
          "type": "uint256"
        }
      ],
      "name": "CreateMarket",
      "type": "event"
    },
    {
      "anonymous": false,
      "inputs": [
        {
          "indexed": true,
          "internalType": "uint256",
          "name": "id",
          "type": "uint256"
        },
        {
          "indexed": false,
          "internalType": "uint64",
          "name": "oldControlVariable",
          "type": "uint64"
        },
        {
          "indexed": false,
          "internalType": "uint64",
          "name": "newControlVariable",
          "type": "uint64"
        }
      ],
      "name": "Tuned",
      "type": "event"
    },
    {
      "inputs": [
        {
          "internalType": "uint256",
          "name": "",
          "type": "uint256"
        }
      ],
      "name": "adjustments",
      "outputs": [
        {
          "internalType": "uint64",
          "name": "change",
          "type": "uint64"
        },
        {
          "internalType": "uint48",
          "name": "lastAdjustment",
          "type": "uint48"
        },
        {
          "internalType": "uint48",
          "name": "timeToAdjusted",
          "type": "uint48"
        },
        {
          "internalType": "bool",
          "name": "active",
          "type": "bool"
        }
      ],
      "stateMutability": "view",
      "type": "function"
    },
    {
      "inputs": [],
      "name": "authority",
      "outputs": [
        {
          "internalType": "contract IOlympusAuthority",
          "name": "",
          "type": "address"
        }
      ],
      "stateMutability": "view",
      "type": "function"
    },
    {
      "inputs": [
        {
          "internalType": "uint256",
          "name": "_id",
          "type": "uint256"
        }
      ],
      "name": "close",
      "outputs": [],
      "stateMutability": "nonpayable",
      "type": "function"
    },
    {
      "inputs": [
        {
          "internalType": "contract IERC20",
          "name": "_quoteToken",
          "type": "address"
        },
        {
          "internalType": "uint256[3]",
          "name": "_market",
          "type": "uint256[3]"
        },
        {
          "internalType": "bool[2]",
          "name": "_booleans",
          "type": "bool[2]"
        },
        {
          "internalType": "uint256[2]",
          "name": "_terms",
          "type": "uint256[2]"
        },
        {
          "internalType": "uint32[2]",
          "name": "_intervals",
          "type": "uint32[2]"
        }
      ],
      "name": "create",
      "outputs": [
        {
          "internalType": "uint256",
          "name": "id_",
          "type": "uint256"
        }
      ],
      "stateMutability": "nonpayable",
      "type": "function"
    },
    {
      "inputs": [
        {
          "internalType": "uint256",
          "name": "_id",
          "type": "uint256"
        }
      ],
      "name": "currentControlVariable",
      "outputs": [
        {
          "internalType": "uint256",
          "name": "",
          "type": "uint256"
        }
      ],
      "stateMutability": "view",
      "type": "function"
    },
    {
      "inputs": [
        {
          "internalType": "uint256",
          "name": "_id",
          "type": "uint256"
        }
      ],
      "name": "currentDebt",
      "outputs": [
        {
          "internalType": "uint256",
          "name": "",
          "type": "uint256"
        }
      ],
      "stateMutability": "view",
      "type": "function"
    },
    {
      "inputs": [],
      "name": "daoReward",
      "outputs": [
        {
          "internalType": "uint256",
          "name": "",
          "type": "uint256"
        }
      ],
      "stateMutability": "view",
      "type": "function"
    },
    {
      "inputs": [
        {
          "internalType": "uint256",
          "name": "_id",
          "type": "uint256"
        }
      ],
      "name": "debtDecay",
      "outputs": [
        {
          "internalType": "uint64",
          "name": "",
          "type": "uint64"
        }
      ],
      "stateMutability": "view",
      "type": "function"
    },
    {
      "inputs": [
        {
          "internalType": "uint256",
          "name": "_id",
          "type": "uint256"
        }
      ],
      "name": "debtRatio",
      "outputs": [
        {
          "internalType": "uint256",
          "name": "",
          "type": "uint256"
        }
      ],
      "stateMutability": "view",
      "type": "function"
    },
    {
      "inputs": [
        {
          "internalType": "uint256",
          "name": "_id",
          "type": "uint256"
        },
        {
          "internalType": "uint256",
          "name": "_amount",
          "type": "uint256"
        },
        {
          "internalType": "uint256",
          "name": "_maxPrice",
          "type": "uint256"
        },
        {
          "internalType": "address",
          "name": "_user",
          "type": "address"
        },
        {
          "internalType": "address",
          "name": "_referral",
          "type": "address"
        }
      ],
      "name": "deposit",
      "outputs": [
        {
          "internalType": "uint256",
          "name": "payout_",
          "type": "uint256"
        },
        {
          "internalType": "uint256",
          "name": "expiry_",
          "type": "uint256"
        },
        {
          "internalType": "uint256",
          "name": "index_",
          "type": "uint256"
        }
      ],
      "stateMutability": "nonpayable",
      "type": "function"
    },
    {
      "inputs": [],
      "name": "getReward",
      "outputs": [],
      "stateMutability": "nonpayable",
      "type": "function"
    },
    {
      "inputs": [
        {
          "internalType": "address",
          "name": "_user",
          "type": "address"
        }
      ],
      "name": "indexesFor",
      "outputs": [
        {
          "internalType": "uint256[]",
          "name": "",
          "type": "uint256[]"
        }
      ],
      "stateMutability": "view",
      "type": "function"
    },
    {
      "inputs": [
        {
          "internalType": "uint256",
          "name": "_id",
          "type": "uint256"
        }
      ],
      "name": "isLive",
      "outputs": [
        {
          "internalType": "bool",
          "name": "",
          "type": "bool"
        }
      ],
      "stateMutability": "view",
      "type": "function"
    },
    {
      "inputs": [],
      "name": "liveMarkets",
      "outputs": [
        {
          "internalType": "uint256[]",
          "name": "",
          "type": "uint256[]"
        }
      ],
      "stateMutability": "view",
      "type": "function"
    },
    {
      "inputs": [
        {
          "internalType": "address",
          "name": "_token",
          "type": "address"
        }
      ],
      "name": "liveMarketsFor",
      "outputs": [
        {
          "internalType": "uint256[]",
          "name": "",
          "type": "uint256[]"
        }
      ],
      "stateMutability": "view",
      "type": "function"
    },
    {
      "inputs": [
        {
          "internalType": "uint256",
          "name": "_id",
          "type": "uint256"
        }
      ],
      "name": "marketPrice",
      "outputs": [
        {
          "internalType": "uint256",
          "name": "",
          "type": "uint256"
        }
      ],
      "stateMutability": "view",
      "type": "function"
    },
    {
      "inputs": [
        {
          "internalType": "uint256",
          "name": "",
          "type": "uint256"
        }
      ],
      "name": "markets",
      "outputs": [
        {
          "internalType": "uint256",
          "name": "capacity",
          "type": "uint256"
        },
        {
          "internalType": "contract IERC20",
          "name": "quoteToken",
          "type": "address"
        },
        {
          "internalType": "bool",
          "name": "capacityInQuote",
          "type": "bool"
        },
        {
          "internalType": "uint64",
          "name": "totalDebt",
          "type": "uint64"
        },
        {
          "internalType": "uint64",
          "name": "maxPayout",
          "type": "uint64"
        },
        {
          "internalType": "uint64",
          "name": "sold",
          "type": "uint64"
        },
        {
          "internalType": "uint256",
          "name": "purchased",
          "type": "uint256"
        }
      ],
      "stateMutability": "view",
      "type": "function"
    },
    {
      "inputs": [
        {
          "internalType": "address",
          "name": "",
          "type": "address"
        },
        {
          "internalType": "uint256",
          "name": "",
          "type": "uint256"
        }
      ],
      "name": "marketsForQuote",
      "outputs": [
        {
          "internalType": "uint256",
          "name": "",
          "type": "uint256"
        }
      ],
      "stateMutability": "view",
      "type": "function"
    },
    {
      "inputs": [
        {
          "internalType": "uint256",
          "name": "",
          "type": "uint256"
        }
      ],
      "name": "metadata",
      "outputs": [
        {
          "internalType": "uint48",
          "name": "lastTune",
          "type": "uint48"
        },
        {
          "internalType": "uint48",
          "name": "lastDecay",
          "type": "uint48"
        },
        {
          "internalType": "uint48",
          "name": "length",
          "type": "uint48"
        },
        {
          "internalType": "uint48",
          "name": "depositInterval",
          "type": "uint48"
        },
        {
          "internalType": "uint48",
          "name": "tuneInterval",
          "type": "uint48"
        },
        {
          "internalType": "uint8",
          "name": "quoteDecimals",
          "type": "uint8"
        }
      ],
      "stateMutability": "view",
      "type": "function"
    },
    {
      "inputs": [
        {
          "internalType": "address",
          "name": "",
          "type": "address"
        },
        {
          "internalType": "uint256",
          "name": "",
          "type": "uint256"
        }
      ],
      "name": "notes",
      "outputs": [
        {
          "internalType": "uint256",
          "name": "payout",
          "type": "uint256"
        },
        {
          "internalType": "uint48",
          "name": "created",
          "type": "uint48"
        },
        {
          "internalType": "uint48",
          "name": "matured",
          "type": "uint48"
        },
        {
          "internalType": "uint48",
          "name": "redeemed",
          "type": "uint48"
        },
        {
          "internalType": "uint48",
          "name": "marketID",
          "type": "uint48"
        }
      ],
      "stateMutability": "view",
      "type": "function"
    },
    {
      "inputs": [
        {
          "internalType": "uint256",
          "name": "_amount",
          "type": "uint256"
        },
        {
          "internalType": "uint256",
          "name": "_id",
          "type": "uint256"
        }
      ],
      "name": "payoutFor",
      "outputs": [
        {
          "internalType": "uint256",
          "name": "",
          "type": "uint256"
        }
      ],
      "stateMutability": "view",
      "type": "function"
    },
    {
      "inputs": [
        {
          "internalType": "address",
          "name": "_user",
          "type": "address"
        },
        {
          "internalType": "uint256",
          "name": "_index",
          "type": "uint256"
        }
      ],
      "name": "pendingFor",
      "outputs": [
        {
          "internalType": "uint256",
          "name": "payout_",
          "type": "uint256"
        },
        {
          "internalType": "bool",
          "name": "matured_",
          "type": "bool"
        }
      ],
      "stateMutability": "view",
      "type": "function"
    },
    {
      "inputs": [
        {
          "internalType": "address",
          "name": "_from",
          "type": "address"
        },
        {
          "internalType": "uint256",
          "name": "_index",
          "type": "uint256"
        }
      ],
      "name": "pullNote",
      "outputs": [
        {
          "internalType": "uint256",
          "name": "newIndex_",
          "type": "uint256"
        }
      ],
      "stateMutability": "nonpayable",
      "type": "function"
    },
    {
      "inputs": [
        {
          "internalType": "address",
          "name": "_to",
          "type": "address"
        },
        {
          "internalType": "uint256",
          "name": "_index",
          "type": "uint256"
        }
      ],
      "name": "pushNote",
      "outputs": [],
      "stateMutability": "nonpayable",
      "type": "function"
    },
    {
      "inputs": [
        {
          "internalType": "address",
          "name": "_user",
          "type": "address"
        },
        {
          "internalType": "uint256[]",
          "name": "_indexes",
          "type": "uint256[]"
        },
        {
          "internalType": "bool",
          "name": "_sendgOHM",
          "type": "bool"
        }
      ],
      "name": "redeem",
      "outputs": [
        {
          "internalType": "uint256",
          "name": "payout_",
          "type": "uint256"
        }
      ],
      "stateMutability": "nonpayable",
      "type": "function"
    },
    {
      "inputs": [
        {
          "internalType": "address",
          "name": "_user",
          "type": "address"
        },
        {
          "internalType": "bool",
          "name": "_sendgOHM",
          "type": "bool"
        }
      ],
      "name": "redeemAll",
      "outputs": [
        {
          "internalType": "uint256",
          "name": "",
          "type": "uint256"
        }
      ],
      "stateMutability": "nonpayable",
      "type": "function"
    },
    {
      "inputs": [],
      "name": "refReward",
      "outputs": [
        {
          "internalType": "uint256",
          "name": "",
          "type": "uint256"
        }
      ],
      "stateMutability": "view",
      "type": "function"
    },
    {
      "inputs": [
        {
          "internalType": "address",
          "name": "",
          "type": "address"
        }
      ],
      "name": "rewards",
      "outputs": [
        {
          "internalType": "uint256",
          "name": "",
          "type": "uint256"
        }
      ],
      "stateMutability": "view",
      "type": "function"
    },
    {
      "inputs": [
        {
          "internalType": "contract IOlympusAuthority",
          "name": "_newAuthority",
          "type": "address"
        }
      ],
      "name": "setAuthority",
      "outputs": [],
      "stateMutability": "nonpayable",
      "type": "function"
    },
    {
      "inputs": [
        {
          "internalType": "uint256",
          "name": "_toFrontEnd",
          "type": "uint256"
        },
        {
          "internalType": "uint256",
          "name": "_toDAO",
          "type": "uint256"
        }
      ],
      "name": "setRewards",
      "outputs": [],
      "stateMutability": "nonpayable",
      "type": "function"
    },
    {
      "inputs": [
        {
          "internalType": "uint256",
          "name": "",
          "type": "uint256"
        }
      ],
      "name": "terms",
      "outputs": [
        {
          "internalType": "bool",
          "name": "fixedTerm",
          "type": "bool"
        },
        {
          "internalType": "uint64",
          "name": "controlVariable",
          "type": "uint64"
        },
        {
          "internalType": "uint48",
          "name": "vesting",
          "type": "uint48"
        },
        {
          "internalType": "uint48",
          "name": "conclusion",
          "type": "uint48"
        },
        {
          "internalType": "uint64",
          "name": "maxDebt",
          "type": "uint64"
        }
      ],
      "stateMutability": "view",
      "type": "function"
    },
    {
      "inputs": [],
      "name": "updateTreasury",
      "outputs": [],
      "stateMutability": "nonpayable",
      "type": "function"
    },
    {
      "inputs": [
        {
          "internalType": "address",
          "name": "_operator",
          "type": "address"
        }
      ],
      "name": "whitelist",
      "outputs": [],
      "stateMutability": "nonpayable",
      "type": "function"
    },
    {
      "inputs": [
        {
          "internalType": "address",
          "name": "",
          "type": "address"
        }
      ],
      "name": "whitelisted",
      "outputs": [
        {
          "internalType": "bool",
          "name": "",
          "type": "bool"
        }
      ],
      "stateMutability": "view",
      "type": "function"
    }
  ],
  "transactionHash": "0xe60b3c5ceec6f01970f01dc9f8cc9530720f8768a0362085b2c5d2d4153f971a",
  "args": [
    "0x4A8c9502A34962a2C6d73c5D181dAaeF3dcDc88D",
    "0x0595328847AF962F951a4f8F8eE9A3Bf261e4f6b",
    "0xC1863141dc1861122d5410fB5973951c82871d98",
    "0x7263372b9ff6E619d8774aEB046cE313677E2Ec7",
    "0xB3e1dF7951a62fFb5eF7D3b1C9D80CF09325580A"
  ],
  "solcInputHash": "425eb1f5993ee96e475c14c00fa27971",
  "bytecode": "0x610120604052600c60e08190526b15539055551213d49256915160a21b6101009081526200003191600091906200017b565b503480156200003f57600080fd5b50604051620045f6380380620045f683398101604081905262000062916200023a565b600180546001600160a01b0319166001600160a01b038716908117909155604051869186918691869186918691869183917f2f658b440c35314f52658ea8a740e05b284cdc84dc9ae01e891f21b8933e7cad90600090a2506001600160a01b0390811660805293841660a0525090821660c052600880546001600160a01b03191691831691909117905560405163095ea7b360e01b81528582166004820152722cd76fe086b93ce2f768a00b22a000000000006024820152908716925063095ea7b391506044016020604051808303816000875af115801562000149573d6000803e3d6000fd5b505050506040513d601f19601f820116820180604052508101906200016f9190620002ba565b50505050505062000322565b8280546200018990620002e5565b90600052602060002090601f016020900481019282620001ad5760008555620001f8565b82601f10620001c857805160ff1916838001178555620001f8565b82800160010185558215620001f8579182015b82811115620001f8578251825591602001919060010190620001db565b50620002069291506200020a565b5090565b5b808211156200020657600081556001016200020b565b6001600160a01b03811681146200023757600080fd5b50565b600080600080600060a086880312156200025357600080fd5b8551620002608162000221565b6020870151909550620002738162000221565b6040870151909450620002868162000221565b6060870151909350620002998162000221565b6080870151909250620002ac8162000221565b809150509295509295909350565b600060208284031215620002cd57600080fd5b81518015158114620002de57600080fd5b9392505050565b600181811c90821680620002fa57607f821691505b602082108114156200031c57634e487b7160e01b600052602260045260246000fd5b50919050565b60805160a05160c05161428f62000367600039600081816125380152612ff901526000818161249f0152612dfb015260008181610f5801526110e0015261428f6000f3fe608060405234801561001057600080fd5b50600436106102265760003560e01c8063abbf4b171161012a578063c9b67af5116100bd578063e0b117ff1161008c578063e481b26511610071578063e481b26514610680578063f1b7dc7814610693578063f3191a46146106a657600080fd5b8063e0b117ff146105e1578063e3684e391461062957600080fd5b8063c9b67af514610590578063d62fbdd314610598578063d6db4df8146105ab578063d936547e146105be57600080fd5b8063bf7e214f116100f9578063bf7e214f146104db578063c0680e2014610506578063c0aa0e8a14610519578063c3e0fb1c1461056857600080fd5b8063abbf4b17146103a8578063b1283e77146103d3578063bc3b2b1214610433578063bcb29667146104c857600080fd5b806346aed74e116101bd5780637a9e5e4b1161018c5780639b19251a116101715780639b19251a1461037a5780639c7697871461038d578063a42206101461039557600080fd5b80637a9e5e4b146103395780637c770aae1461034c57600080fd5b806346aed74e146102e057806364914439146102f3578063654e51e7146103135780636a6c575d1461032657600080fd5b806321a7d29b116101f957806321a7d29b1461028f57806327507458146102a25780633adec5a7146102c55780633d18b912146102d857600080fd5b80630700037d1461022b5780630a9d85eb1461025e5780630aebeb4e146102715780631885f58014610286575b600080fd5b61024b610239366004613a1a565b60046020526000908152604090205481565b6040519081526020015b60405180910390f35b61024b61026c366004613a37565b6106af565b61028461027f366004613a37565b610707565b005b61024b60025481565b61024b61029d366004613bd7565b610852565b6102b56102b0366004613a37565b610fe0565b6040519015158152602001610255565b61024b6102d3366004613a37565b611049565b6102846110a5565b61024b6102ee366004613c98565b611151565b610306610301366004613a1a565b61116d565b6040516102559190613cd1565b610284610321366004613d15565b6112fb565b61024b610334366004613d15565b6113b2565b610284610347366004613a1a565b611482565b61035f61035a366004613d37565b611585565b60408051938452602084019290925290820152606001610255565b610284610388366004613a1a565b61199c565b610284611a71565b61024b6103a3366004613d8d565b611d12565b6103bb6103b6366004613a37565b611fa5565b6040516001600160401b039091168152602001610255565b6103e66103e1366004613a37565b612089565b604080519788526001600160a01b039096166020880152931515948601949094526001600160401b0391821660608601528116608085015290911660a083015260c082015260e001610255565b610490610441366004613a37565b600c602052600090815260409020546001600160401b0381169065ffffffffffff600160401b82048116916e01000000000000000000000000000081049091169060ff600160a01b9091041684565b604080516001600160401b0395909516855265ffffffffffff9384166020860152919092169083015215156060820152608001610255565b61024b6104d6366004613a37565b6120f7565b6001546104ee906001600160a01b031681565b6040516001600160a01b039091168152602001610255565b61024b610514366004613d8d565b612153565b61052c610527366004613a37565b612184565b6040805195151586526001600160401b03948516602087015265ffffffffffff938416908601529116606084015216608082015260a001610255565b61057b610576366004613d8d565b6121e3565b60408051928352901515602083015201610255565b6103066122ae565b61024b6105a6366004613db9565b612396565b6102846105b9366004613d8d565b6125af565b6102b56105cc366004613a1a565b60056020526000908152604090205460ff1681565b6105f46105ef366004613d8d565b61267e565b6040805195865265ffffffffffff9485166020870152928416928501929092528216606084015216608082015260a001610255565b61063c610637366004613a37565b6126e1565b6040805165ffffffffffff97881681529587166020870152938616938501939093529084166060840152909216608082015260ff90911660a082015260c001610255565b61030661068e366004613a1a565b61273f565b61024b6106a1366004613a37565b612963565b61024b60035481565b6000806106bb83612a0e565b5050905080600a84815481106106d3576106d3613e83565b6000918252602090912001546106f7919061010090046001600160401b0316613eaf565b6001600160401b03169392505050565b600160009054906101000a90046001600160a01b03166001600160a01b0316630505c8c96040518163ffffffff1660e01b8152600401602060405180830381865afa15801561075a573d6000803e3d6000fd5b505050506040513d601f19601f8201168201806040525081019061077e9190613ed7565b6001600160a01b0316336001600160a01b0316146000906107bb5760405162461bcd60e51b81526004016107b29190613ef4565b60405180910390fd5b5042600a82815481106107d0576107d0613e83565b90600052602060002001600001600f6101000a81548165ffffffffffff021916908365ffffffffffff16021790555060006009828154811061081457610814613e83565b6000918252602082206004909102019190915560405182917f8401d05adbea6548a6999cc1540766e6d2ff919292142862893d0e62ec79fbe591a250565b60015460408051630505c8c960e01b815290516000926001600160a01b031691630505c8c99160048083019260209291908290030181865afa15801561089c573d6000803e3d6000fd5b505050506040513d601f19601f820116820180604052508101906108c09190613ed7565b6001600160a01b0316336001600160a01b0316146000906108f45760405162461bcd60e51b81526004016107b29190613ef4565b506020830151600090610908904290613f9c565b90506000876001600160a01b031663313ce5676040518163ffffffff1660e01b8152600401602060405180830381865afa15801561094a573d6000803e3d6000fd5b505050506040513d601f19601f8201168201806040525081019061096e9190613fb3565b60ff1690506000868160200201516109875787516109bf565b61099282600a6140ba565b602089015189516109ab90670de0b6b3a76400006140c6565b6109b591906140fb565b6109bf91906140fb565b855190915060009084906109d99063ffffffff168461410f565b6001600160401b03166109ec91906140fb565b90506000620186a08a60026020020151610a0f906001600160401b0386166140c6565b610a1991906140fb565b610a2c906001600160401b03851661413e565b90506000836001600160401b0316600860009054906101000a90046001600160a01b03166001600160a01b031663860f50486040518163ffffffff1660e01b8152600401602060405180830381865afa158015610a8d573d6000803e3d6000fd5b505050506040513d601f19601f82011682018060405250810190610ab19190614156565b60208d0151610ac091906140c6565b610aca91906140fb565b600980546040805160e0810190915290995091925090808d6000602002015181526020018e6001600160a01b031681526020018c600060028110610b1057610b10613e83565b60209081029190910151151582526001600160401b0380891683830152878116604080850191909152600060608086018290526080958601829052875460018181018a5598835291859020875160049093020191825593860151818801805488850151968901518616600160a81b0267ffffffffffffffff60a81b19971515600160a01b027fffffffffffffffffffffff0000000000000000000000000000000000000000009092166001600160a01b03909416939093171795909516179093559284015160028301805460a0808801518516600160401b026fffffffffffffffffffffffffffffffff19909216939094169290921791909117905560c09093015160039091015580519182019052600a9181908d90602002015115158152602001836001600160401b031681526020018b600060028110610c5457610c54613e83565b602002015165ffffffffffff1681526020018b600160028110610c7957610c79613e83565b6020908102919091015165ffffffffffff90811683526001600160401b038088169383019390935284546001810186556000958652828620855191018054868501516040808901516060808b01516080909b01518a16600160a81b0267ffffffffffffffff60a81b199b8916600160781b027fffffffffffffffffffffff000000000000ffffffffffffffffffffffffffffff938a16690100000000000000000002939093167fffffffffffffffffffffff000000000000000000000000ffffffffffffffffff95909b166101000268ffffffffffffffff00199815159890981668ffffffffffffffffff1990961695909517969096179290921697909717179690961695909517909455825160c081018452428216808252928101929092528a1691810191909152600b9290918201908b906020908102919091015163ffffffff168252018a6001602002015163ffffffff1665ffffffffffff1681526020018760ff168152509080600181540180825580915050600190039060005260206000200160009091909190915060008201518160000160006101000a81548165ffffffffffff021916908365ffffffffffff16021790555060208201518160000160066101000a81548165ffffffffffff021916908365ffffffffffff160217905550604082015181600001600c6101000a81548165ffffffffffff021916908365ffffffffffff16021790555060608201518160000160126101000a81548165ffffffffffff021916908365ffffffffffff16021790555060808201518160000160186101000a81548165ffffffffffff021916908365ffffffffffff16021790555060a082015181600001601e6101000a81548160ff021916908360ff1602179055505050600d60008d6001600160a01b03166001600160a01b031681526020019081526020016000208790806001815401808255809150506001900390600052602060002001600090919091909150558b6001600160a01b03167f00000000000000000000000000000000000000000000000000000000000000006001600160a01b0316887f2f6ff727bd580b1d1b8332e28aa93ed4ec9d8b08d6e30d6b4c9f7aa63ca17f638e600160038110610fb557610fb5613e83565b6020020151604051610fc991815260200190565b60405180910390a450505050505095945050505050565b600060098281548110610ff557610ff5613e83565b906000526020600020906004020160000154600014158015611043575042600a838154811061102657611026613e83565b600091825260209091200154600160781b900465ffffffffffff16115b92915050565b6000600b828154811061105e5761105e613e83565b60009182526020909120015461107f90600160f01b900460ff16600a61416f565b61108883612963565b611091846106af565b61109b91906140c6565b61104391906140fb565b33600081815260046020819052604080832080549390555163a9059cbb60e01b81529081019290925260248201819052906001600160a01b037f0000000000000000000000000000000000000000000000000000000000000000169063a9059cbb906044016020604051808303816000875af1158015611129573d6000803e3d6000fd5b505050506040513d601f19601f8201168201806040525081019061114d919061417e565b5050565b6000611166836111608561273f565b84612396565b9392505050565b6001600160a01b0381166000908152600d602090815260408083208054825181850281018501909352808352606094938301828280156111cc57602002820191906000526020600020905b8154815260200190600101908083116111b8575b50505050509050600080600090505b825181101561122b576112068382815181106111f9576111f9613e83565b6020026020010151610fe0565b1561121957816112158161419b565b9250505b806112238161419b565b9150506111db565b506000816001600160401b0381111561124657611246613a50565b60405190808252806020026020018201604052801561126f578160200160208202803683370190505b5090506000805b84518110156112f0576112948582815181106111f9576111f9613e83565b156112de578481815181106112ab576112ab613e83565b60200260200101518383815181106112c5576112c5613e83565b6020908102919091010152816112da8161419b565b9250505b806112e88161419b565b915050611276565b509095945050505050565b600160009054906101000a90046001600160a01b03166001600160a01b0316630c340a246040518163ffffffff1660e01b8152600401602060405180830381865afa15801561134e573d6000803e3d6000fd5b505050506040513d601f19601f820116820180604052508101906113729190613ed7565b6001600160a01b0316336001600160a01b0316146000906113a65760405162461bcd60e51b81526004016107b29190613ef4565b50600391909155600255565b600080600b83815481106113c8576113c8613e83565b60009182526020918290206040805160c081018252919092015465ffffffffffff8082168352600160301b8204811694830194909452600160601b8104841692820192909252600160901b820483166060820152600160c01b8204909216608083015260ff600160f01b9091041660a0820181905290915061144b90600a61416f565b61145484611049565b61146686670de0b6b3a76400006140c6565b61147091906140fb565b61147a91906140fb565b949350505050565b600160009054906101000a90046001600160a01b03166001600160a01b0316630c340a246040518163ffffffff1660e01b8152600401602060405180830381865afa1580156114d5573d6000803e3d6000fd5b505050506040513d601f19601f820116820180604052508101906114f99190613ed7565b6001600160a01b0316336001600160a01b03161460009061152d5760405162461bcd60e51b81526004016107b29190613ef4565b506001805473ffffffffffffffffffffffffffffffffffffffff19166001600160a01b0383169081179091556040517f2f658b440c35314f52658ea8a740e05b284cdc84dc9ae01e891f21b8933e7cad90600090a250565b6000806000806009898154811061159e5761159e613e83565b906000526020600020906004020190506000600a8a815481106115c3576115c3613e83565b60009182526020918290206040805160a081018252919092015460ff8116151582526001600160401b03610100820481169483019490945265ffffffffffff69010000000000000000008204811693830193909352600160781b8104831660608301819052600160a81b9091049093166080820152925042919082161061168c5760405162461bcd60e51b815260206004820152601c60248201527f4465706f7369746f72793a206d61726b657420636f6e636c756465640000000060448201526064016107b2565b6116968b82612b06565b60006116a18c612d44565b9050898111156116f35760405162461bcd60e51b815260206004820152601f60248201527f4465706f7369746f72793a206d6f7265207468616e206d61782070726963650060448201526064016107b2565b600b8c8154811061170657611706613e83565b60009182526020909120015461172790600160f01b900460ff16600a61416f565b8161173a8d670de0b6b3a76400006140c6565b61174491906140fb565b61174e91906140fb565b60028501549097506001600160401b03168711156117ae5760405162461bcd60e51b815260206004820152601d60248201527f4465706f7369746f72793a206d61782073697a6520657863656564656400000060448201526064016107b2565b6001840154600160a01b900460ff166117c757866117c9565b8a5b8460000160008282546117dc9190613f9c565b909155505082516117f1578260400151611801565b81836040015161180191906141b6565b65ffffffffffff1695508a84600301600082825461181f919061413e565b909155505060028401805488919060089061184b908490600160401b90046001600160401b03166141e0565b92506101000a8154816001600160401b0302191690836001600160401b03160217905550868460010160158282829054906101000a90046001600160401b031661189591906141e0565b92506101000a8154816001600160401b0302191690836001600160401b031602179055508b7f7880508a48fd3aee88f7e15917d85e39c3ad059e51ad4aca9bb46e7b4938b9618c836040516118f4929190918252602082015260400190565b60405180910390a26119098988888f8c612dba565b600854600186015491965061192d916001600160a01b03908116913391168e61307b565b600184015460808401516001600160401b03600160a81b9092048216911610156119835760008085556040518d917f8401d05adbea6548a6999cc1540766e6d2ff919292142862893d0e62ec79fbe591a261198d565b61198d8c836131ac565b50505050955095509592505050565b600160009054906101000a90046001600160a01b03166001600160a01b0316630505c8c96040518163ffffffff1660e01b8152600401602060405180830381865afa1580156119ef573d6000803e3d6000fd5b505050506040513d601f19601f82011682018060405250810190611a139190613ed7565b6001600160a01b0316336001600160a01b031614600090611a475760405162461bcd60e51b81526004016107b29190613ef4565b506001600160a01b03166000908152600560205260409020805460ff19811660ff90911615179055565b600160009054906101000a90046001600160a01b03166001600160a01b0316630c340a246040518163ffffffff1660e01b8152600401602060405180830381865afa158015611ac4573d6000803e3d6000fd5b505050506040513d601f19601f82011682018060405250810190611ae89190613ed7565b6001600160a01b0316336001600160a01b03161480611b8e5750600160009054906101000a90046001600160a01b03166001600160a01b031663452a93206040518163ffffffff1660e01b8152600401602060405180830381865afa158015611b55573d6000803e3d6000fd5b505050506040513d601f19601f82011682018060405250810190611b799190613ed7565b6001600160a01b0316336001600160a01b0316145b80611c205750600160009054906101000a90046001600160a01b03166001600160a01b0316630505c8c96040518163ffffffff1660e01b8152600401602060405180830381865afa158015611be7573d6000803e3d6000fd5b505050506040513d601f19601f82011682018060405250810190611c0b9190613ed7565b6001600160a01b0316336001600160a01b0316145b611c6c5760405162461bcd60e51b815260206004820152600f60248201527f4f6e6c7920617574686f72697a6564000000000000000000000000000000000060448201526064016107b2565b600160009054906101000a90046001600160a01b03166001600160a01b031663fbfa77cf6040518163ffffffff1660e01b8152600401602060405180830381865afa158015611cbf573d6000803e3d6000fd5b505050506040513d601f19601f82011682018060405250810190611ce39190613ed7565b6008805473ffffffffffffffffffffffffffffffffffffffff19166001600160a01b0392909216919091179055565b6001600160a01b0382811660009081526007602090815260408083208584529091528120549091163314611d885760405162461bcd60e51b815260206004820152601e60248201527f4465706f7369746f72793a207472616e73666572206e6f7420666f756e64000060448201526064016107b2565b6001600160a01b0383166000908152600660205260409020805483908110611db257611db2613e83565b6000918252602090912060029091020160010154600160601b900465ffffffffffff1615611e225760405162461bcd60e51b815260206004820152601960248201527f4465706f7369746f72793a206e6f74652072656465656d65640000000000000060448201526064016107b2565b503360009081526006602052604080822080546001600160a01b038616845291909220805491929184908110611e5a57611e5a613e83565b600091825260208083208454600181810187559585528285206002948502909201805491909402909101908155918401805492909401805465ffffffffffff19811665ffffffffffff94851690811783558654600160301b908190048616026bffffffffffffffffffffffff1990921617178082558554600160601b9081900485160271ffffffffffff000000000000000000000000198216811783559554600160901b9081900490941690930265ffffffffffff60901b1990951677ffffffffffffffffffffffff00000000000000000000000019909316929092179390931790556001600160a01b0385168152600690915260409020805483908110611f6457611f64613e83565b60009182526020822060029091020190815560010180547fffffffffffffffff00000000000000000000000000000000000000000000000016905592915050565b600080600b8381548110611fbb57611fbb613e83565b600091825260208083206040805160c081018252939091015465ffffffffffff8082168552600160301b82048116938501849052600160601b8204811692850192909252600160901b810482166060850152600160c01b81049091166080840152600160f01b900460ff1660a08301529092506120389042613f9c565b9050816040015165ffffffffffff16816009868154811061205b5761205b613e83565b60009182526020909120600490910201600101546114709190600160a81b90046001600160401b03166140c6565b6009818154811061209957600080fd5b600091825260209091206004909102018054600182015460028301546003909301549193506001600160a01b0381169260ff600160a01b830416926001600160401b03600160a81b90930483169282811692600160401b9004169087565b600061210282611fa5565b6009838154811061211557612115613e83565b906000526020600020906004020160010160159054906101000a90046001600160401b03166121449190613eaf565b6001600160401b031692915050565b600d602052816000526040600020818154811061216f57600080fd5b90600052602060002001600091509150505481565b600a818154811061219457600080fd5b60009182526020909120015460ff811691506001600160401b03610100820481169165ffffffffffff69010000000000000000008204811692600160781b830490911691600160a81b90041685565b6001600160a01b03821660009081526006602052604081208054829182918590811061221157612211613e83565b60009182526020918290206040805160a0810182526002909302909101805480845260019091015465ffffffffffff80821695850195909552600160301b8104851692840192909252600160601b8204841660608401819052600160901b90920490931660808301529194509150158015612298575042816040015165ffffffffffff1611155b80156122a45750805115155b9150509250929050565b60606000805b6009548110156122ec576122c781610fe0565b156122da57816122d68161419b565b9250505b806122e48161419b565b9150506122b4565b506000816001600160401b0381111561230757612307613a50565b604051908082528060200260200182016040528015612330578160200160208202803683370190505b5090506000805b60095481101561238d5761234a81610fe0565b1561237b578083838151811061236257612362613e83565b6020908102919091010152816123778161419b565b9250505b806123858161419b565b915050612337565b50909392505050565b600042815b8451811015612472576000806123ca888885815181106123bd576123bd613e83565b60200260200101516121e3565b91509150801561245d576001600160a01b0388166000908152600660205260409020875185919089908690811061240357612403613e83565b60200260200101518154811061241b5761241b613e83565b9060005260206000209060020201600101600c6101000a81548165ffffffffffff021916908365ffffffffffff160217905550818561245a919061413e565b94505b5050808061246a9061419b565b91505061239b565b5082156125125760405163a9059cbb60e01b81526001600160a01b038681166004830152602482018490527f0000000000000000000000000000000000000000000000000000000000000000169063a9059cbb906044016020604051808303816000875af11580156124e8573d6000803e3d6000fd5b505050506040513d601f19601f8201168201806040525081019061250c919061417e565b506125a7565b6040516339f4769360e01b81526001600160a01b038681166004830152602482018490527f000000000000000000000000000000000000000000000000000000000000000016906339f47693906044016020604051808303816000875af1158015612581573d6000803e3d6000fd5b505050506040513d601f19601f820116820180604052508101906125a59190614156565b505b509392505050565b3360009081526006602052604090208054829081106125d0576125d0613e83565b600091825260209091206001600290920201015465ffffffffffff166126385760405162461bcd60e51b815260206004820152601a60248201527f4465706f7369746f72793a206e6f7465206e6f7420666f756e6400000000000060448201526064016107b2565b33600090815260076020908152604080832093835292905220805473ffffffffffffffffffffffffffffffffffffffff19166001600160a01b0392909216919091179055565b6006602052816000526040600020818154811061269a57600080fd5b60009182526020909120600290910201805460019091015490925065ffffffffffff8082169250600160301b8204811691600160601b8104821691600160901b9091041685565b600b81815481106126f157600080fd5b60009182526020909120015465ffffffffffff8082169250600160301b8204811691600160601b8104821691600160901b8204811691600160c01b810490911690600160f01b900460ff1686565b6001600160a01b0381166000908152600660209081526040808320805482518185028101850190935280835260609493849084015b828210156127ea5760008481526020908190206040805160a081018252600286029092018054835260019081015465ffffffffffff80821685870152600160301b8204811693850193909352600160601b810483166060850152600160901b900490911660808301529083529092019101612774565b505050509050600080600090505b82518110156128795782818151811061281357612813613e83565b60200260200101516060015165ffffffffffff166000148015612854575082818151811061284357612843613e83565b602002602001015160000151600014155b1561286757816128638161419b565b9250505b806128718161419b565b9150506127f8565b506000816001600160401b0381111561289457612894613a50565b6040519080825280602002602001820160405280156128bd578160200160208202803683370190505b5090506000805b84518110156112f0578481815181106128df576128df613e83565b60200260200101516060015165ffffffffffff166000148015612920575084818151811061290f5761290f613e83565b602002602001015160000151600014155b15612951578083838151811061293857612938613e83565b60209081029190910101528161294d8161419b565b9250505b8061295b8161419b565b9150506128c4565b600854604080516310c1ea0960e31b815290516000926001600160a01b03169163860f50489160048083019260209291908290030181865afa1580156129ad573d6000803e3d6000fd5b505050506040513d601f19601f820116820180604052508101906129d19190614156565b600b83815481106129e4576129e4613e83565b600091825260209091200154612a0590600160f01b900460ff16600a61416f565b611091846120f7565b6000818152600c60209081526040808320815160808101835290546001600160401b0381168252600160401b810465ffffffffffff908116948301949094526e010000000000000000000000000000810490931691810191909152600160a01b90910460ff1615156060820181905282918291612a9657600080600093509350935050612aff565b6020810151612aa59042614202565b9250806040015165ffffffffffff168365ffffffffffff1610915081612acc578051612afb565b806040015165ffffffffffff168365ffffffffffff168260000151612af1919061410f565b612afb9190614221565b9350505b9193909250565b612b0f82611fa5565b60098381548110612b2257612b22613e83565b906000526020600020906004020160010160158282829054906101000a90046001600160401b0316612b549190613eaf565b92506101000a8154816001600160401b0302191690836001600160401b0316021790555080600b8381548110612b8c57612b8c613e83565b60009182526020808320909101805465ffffffffffff94909416600160301b026bffffffffffff0000000000001990941693909317909255838152600c909152604090205460ff600160a01b909104161561114d576000828152600c60205260408120908080612bfb86612a0e565b92509250925082600a8781548110612c1557612c15613e83565b60009182526020909120018054600190612c3e90849061010090046001600160401b0316613eaf565b92506101000a8154816001600160401b0302191690836001600160401b031602179055508015612d1557835483908590600090612c859084906001600160401b0316613eaf565b92506101000a8154816001600160401b0302191690836001600160401b031602179055508184600001600e8282829054906101000a900465ffffffffffff16612cce9190614202565b82546101009290920a65ffffffffffff81810219909316918316021790915585546dffffffffffff00000000000000001916600160401b9188169190910217855550612d3c565b83547fffffffffffffffffffffff00ffffffffffffffffffffffffffffffffffffffff1684555b505050505050565b6000600b8281548110612d5957612d59613e83565b600091825260209091200154612d7a90600160f01b900460ff16600a61416f565b612d8383613723565b600a8481548110612d9657612d96613e83565b60009182526020909120015461109b919061010090046001600160401b03166140c6565b6001600160a01b03858116600090815260066020526040908190208054825160a08101938490526319a948db60e21b90935260a483018890529290919081907f0000000000000000000000000000000000000000000000000000000000000000166366a5236c60c48301602060405180830381865afa158015612e41573d6000803e3d6000fd5b505050506040513d601f19601f82011682018060405250810190612e659190614156565b815265ffffffffffff428116602080840191909152888216604080850191909152600060608086018290528a8516608096870152875460018181018a55988352848320885160029092020190815593870151939097018054928701519787015196909501518416600160901b0265ffffffffffff60901b19968516600160601b029690961677ffffffffffffffffffffffff00000000000000000000000019978516600160301b026bffffffffffffffffffffffff199093169390941692909217179490941617919091179055612f3c8684613806565b6008549091506001600160a01b03166340c10f1930612f5b848a61413e565b6040517fffffffff0000000000000000000000000000000000000000000000000000000060e085901b1681526001600160a01b0390921660048301526024820152604401600060405180830381600087803b158015612fb957600080fd5b505af1158015612fcd573d6000803e3d6000fd5b5050604051631b0cd93b60e31b81523060048201526024810189905260006044820152600160648201527f00000000000000000000000000000000000000000000000000000000000000006001600160a01b0316925063d866c9d891506084016020604051808303816000875af115801561304c573d6000803e3d6000fd5b505050506040513d601f19601f820116820180604052508101906130709190614156565b505095945050505050565b604080516001600160a01b0385811660248301528481166044830152606480830185905283518084039091018152608490920183526020820180517bffffffffffffffffffffffffffffffffffffffffffffffffffffffff166323b872dd60e01b17905291516000928392908816916130f49190614247565b6000604051808303816000865af19150503d8060008114613131576040519150601f19603f3d011682016040523d82523d6000602084013e613136565b606091505b5091509150818015613160575080511580613160575080806020019051810190613160919061417e565b612d3c5760405162461bcd60e51b815260206004820152601460248201527f5452414e534645525f46524f4d5f4641494c454400000000000000000000000060448201526064016107b2565b6000600b83815481106131c1576131c1613e83565b60009182526020918290206040805160c081018252929091015465ffffffffffff808216808552600160301b8304821695850195909552600160601b8204811692840192909252600160901b810482166060840152600160c01b810490911660808301819052600160f01b90910460ff1660a0830152909250613243916141b6565b65ffffffffffff168265ffffffffffff161061371e5760006009848154811061326e5761326e613e83565b600091825260208083206040805160e08101825260049094029091018054845260018101546001600160a01b0381169385019390935260ff600160a01b8404161515918401919091526001600160401b03600160a81b9092048216606084015260028101548083166080850152600160401b900490911660a08301526003015460c0820152600a805491935085918790811061330c5761330c613e83565b6000918252602090912001546133319190600160781b900465ffffffffffff16614202565b65ffffffffffff169050600061334686612d44565b90506000836040015161335a578351613394565b60a085015161336a90600a61416f565b8451839061338090670de0b6b3a76400006140c6565b61338a91906140fb565b61339491906140fb565b905082856060015165ffffffffffff16826133af91906140c6565b6133b991906140fb565b600988815481106133cc576133cc613e83565b906000526020600020906004020160020160006101000a8154816001600160401b0302191690836001600160401b03160217905550600083866040015165ffffffffffff168361341c91906140c6565b61342691906140fb565b9050600081600860009054906101000a90046001600160a01b03166001600160a01b031663860f50486040518163ffffffff1660e01b8152600401602060405180830381865afa15801561347e573d6000803e3d6000fd5b505050506040513d601f19601f820116820180604052508101906134a29190614156565b6134ac90866140c6565b6134b691906140fb565b9050887f3070b0e3e52b8713c7489d32604ea4b0970024f74c6e05319269a19bc1e3a9d9600a8b815481106134ed576134ed613e83565b60009182526020918290200154604080516101009092046001600160401b0390811683528616928201929092520160405180910390a2600a898154811061353657613536613e83565b6000918252602090912001546001600160401b036101009091048116908216106135a45780600a8a8154811061356e5761356e613e83565b9060005260206000200160000160016101000a8154816001600160401b0302191690836001600160401b031602179055506136dc565b600081600a8b815481106135ba576135ba613e83565b6000918252602090912001546135de919061010090046001600160401b0316613eaf565b90506040518060800160405280826001600160401b031681526020018a65ffffffffffff168152602001896080015165ffffffffffff16815260200160011515815250600c60008c815260200190815260200160002060008201518160000160006101000a8154816001600160401b0302191690836001600160401b0316021790555060208201518160000160086101000a81548165ffffffffffff021916908365ffffffffffff160217905550604082015181600001600e6101000a81548165ffffffffffff021916908365ffffffffffff16021790555060608201518160000160146101000a81548160ff021916908315150217905550905050505b87600b8a815481106136f0576136f0613e83565b6000918252602090912001805465ffffffffffff191665ffffffffffff929092169190911790555050505050505b505050565b600854604080516310c1ea0960e31b815290516000926001600160a01b03169163860f50489160048083019260209291908290030181865afa15801561376d573d6000803e3d6000fd5b505050506040513d601f19601f820116820180604052508101906137919190614156565b600b83815481106137a4576137a4613e83565b6000918252602090912001546137c590600160f01b900460ff16600a61416f565b600984815481106137d8576137d8613e83565b600091825260209091206004909102016001015461109b9190600160a81b90046001600160401b03166140c6565b6000806127106002548561381a91906140c6565b61382491906140fb565b905060006127106003548661383991906140c6565b61384391906140fb565b6001600160a01b03851660009081526005602052604090205490915060ff1615613940576001600160a01b0384166000908152600460205260408120805483929061388f90849061413e565b909155505060015460408051630229549960e51b8152905184926004926000926001600160a01b039092169163452a93209180860191602091819003870181865afa1580156138e2573d6000803e3d6000fd5b505050506040513d601f19601f820116820180604052508101906139069190613ed7565b6001600160a01b03166001600160a01b031681526020019081526020016000206000828254613935919061413e565b909155506139ef9050565b61394a818361413e565b60015460408051630229549960e51b815290516004926000926001600160a01b039091169163452a93209180860191602091819003870181865afa158015613996573d6000803e3d6000fd5b505050506040513d601f19601f820116820180604052508101906139ba9190613ed7565b6001600160a01b03166001600160a01b0316815260200190815260200160002060008282546139e9919061413e565b90915550505b6139f9818361413e565b95945050505050565b6001600160a01b0381168114613a1757600080fd5b50565b600060208284031215613a2c57600080fd5b813561116681613a02565b600060208284031215613a4957600080fd5b5035919050565b634e487b7160e01b600052604160045260246000fd5b604080519081016001600160401b0381118282101715613a8857613a88613a50565b60405290565b604051601f8201601f191681016001600160401b0381118282101715613ab657613ab6613a50565b604052919050565b6000604051606081018181106001600160401b0382111715613ae257613ae2613a50565b6040529050806060830184811115613af957600080fd5b835b81811015613b13578035835260209283019201613afb565b50505092915050565b8015158114613a1757600080fd5b8035613b3581613b1c565b919050565b600082601f830112613b4b57600080fd5b613b53613a66565b806040840185811115613b6557600080fd5b845b818110156112f0578035845260209384019301613b67565b600082601f830112613b9057600080fd5b613b98613a66565b806040840185811115613baa57600080fd5b845b818110156112f057803563ffffffff81168114613bc95760008081fd5b845260209384019301613bac565b60008060008060006101408688031215613bf057600080fd5b8535613bfb81613a02565b94506020603f87018813613c0e57600080fd5b613c1a88828901613abe565b945087609f880112613c2b57600080fd5b613c33613a66565b8060c089018a811115613c4557600080fd5b60808a015b81811015613c6a578035613c5d81613b1c565b8452928401928401613c4a565b50819650613c788b82613b3a565b955050505050613c8c876101008801613b7f565b90509295509295909350565b60008060408385031215613cab57600080fd5b8235613cb681613a02565b91506020830135613cc681613b1c565b809150509250929050565b6020808252825182820181905260009190848201906040850190845b81811015613d0957835183529284019291840191600101613ced565b50909695505050505050565b60008060408385031215613d2857600080fd5b50508035926020909101359150565b600080600080600060a08688031215613d4f57600080fd5b8535945060208601359350604086013592506060860135613d6f81613a02565b91506080860135613d7f81613a02565b809150509295509295909350565b60008060408385031215613da057600080fd5b8235613dab81613a02565b946020939093013593505050565b600080600060608486031215613dce57600080fd5b8335613dd981613a02565b92506020848101356001600160401b0380821115613df657600080fd5b818701915087601f830112613e0a57600080fd5b813581811115613e1c57613e1c613a50565b8060051b9150613e2d848301613a8e565b818152918301840191848101908a841115613e4757600080fd5b938501935b83851015613e6557843582529385019390850190613e4c565b809750505050505050613e7a60408501613b2a565b90509250925092565b634e487b7160e01b600052603260045260246000fd5b634e487b7160e01b600052601160045260246000fd5b60006001600160401b0383811690831681811015613ecf57613ecf613e99565b039392505050565b600060208284031215613ee957600080fd5b815161116681613a02565b600060208083526000845481600182811c915080831680613f1657607f831692505b858310811415613f3457634e487b7160e01b85526022600452602485fd5b878601838152602001818015613f515760018114613f6257613f8d565b60ff19861682528782019650613f8d565b60008b81526020902060005b86811015613f8757815484820152908501908901613f6e565b83019750505b50949998505050505050505050565b600082821015613fae57613fae613e99565b500390565b600060208284031215613fc557600080fd5b815160ff8116811461116657600080fd5b600181815b80851115614011578160001904821115613ff757613ff7613e99565b8085161561400457918102915b93841c9390800290613fdb565b509250929050565b60008261402857506001611043565b8161403557506000611043565b816001811461404b576002811461405557614071565b6001915050611043565b60ff84111561406657614066613e99565b50506001821b611043565b5060208310610133831016604e8410600b8410161715614094575081810a611043565b61409e8383613fd6565b80600019048211156140b2576140b2613e99565b029392505050565b60006111668383614019565b60008160001904831182151516156140e0576140e0613e99565b500290565b634e487b7160e01b600052601260045260246000fd5b60008261410a5761410a6140e5565b500490565b60006001600160401b038083168185168183048111821515161561413557614135613e99565b02949350505050565b6000821982111561415157614151613e99565b500190565b60006020828403121561416857600080fd5b5051919050565b600061116660ff841683614019565b60006020828403121561419057600080fd5b815161116681613b1c565b60006000198214156141af576141af613e99565b5060010190565b600065ffffffffffff8083168185168083038211156141d7576141d7613e99565b01949350505050565b60006001600160401b038083168185168083038211156141d7576141d7613e99565b600065ffffffffffff83811690831681811015613ecf57613ecf613e99565b60006001600160401b038084168061423b5761423b6140e5565b92169190910492915050565b6000825160005b81811015614268576020818601810151858301520161424e565b81811115614277576000828501525b50919091019291505056fea164736f6c634300080a000a",
  "devdoc": {
    "author": "Zeus, Indigo Review by: JeffX",
    "kind": "dev",
    "methods": {
      "close(uint256)": {
        "params": {
          "_id": "ID of market to close"
        }
      },
      "create(address,uint256[3],bool[2],uint256[2],uint32[2])": {
        "details": "current price should be in 9 decimals.",
        "params": {
          "_booleans": "[capacity in quote, fixed term]",
          "_intervals": "[deposit interval (seconds), tune interval (seconds)]",
          "_market": "[capacity (in OHM or quote), initial price / OHM (9 decimals), debt buffer (3 decimals)]",
          "_quoteToken": "token used to deposit",
          "_terms": "[vesting length (if fixed term) or vested timestamp, conclusion timestamp]"
        },
        "returns": {
          "id_": "        ID of new bond market"
        }
      },
      "currentControlVariable(uint256)": {
        "details": "accounts for control variable adjustment",
        "params": {
          "_id": "ID of market"
        },
        "returns": {
          "_0": "control variable for market in OHM decimals"
        }
      },
      "currentDebt(uint256)": {
        "details": "accounts for debt decay since last deposit",
        "params": {
          "_id": "ID of market"
        },
        "returns": {
          "_0": "current debt for market in OHM decimals"
        }
      },
      "debtDecay(uint256)": {
        "params": {
          "_id": "ID of market"
        },
        "returns": {
          "_0": "amount of debt to decay"
        }
      },
      "debtRatio(uint256)": {
        "details": "uses current debt, which accounts for debt decay since last deposit (vs _debtRatio())",
        "params": {
          "_id": "ID of market"
        },
        "returns": {
          "_0": "debt ratio for market in quote decimals"
        }
      },
      "deposit(uint256,uint256,uint256,address,address)": {
        "params": {
          "_amount": "the amount of quote token to spend",
          "_id": "the ID of the market",
          "_maxPrice": "the maximum price at which to buy",
          "_referral": "the front end operator address",
          "_user": "the recipient of the payout"
        },
        "returns": {
          "expiry_": "    the timestamp at which payout is redeemable",
          "index_": "     the user index of the Note (used to redeem or query information)",
          "payout_": "    the amount of gOHM due"
        }
      },
      "indexesFor(address)": {
        "params": {
          "_user": "the user to query notes for"
        },
        "returns": {
          "_0": "the pending notes for the user"
        }
      },
      "isLive(uint256)": {
        "params": {
          "_id": "ID of market"
        }
      },
      "liveMarketsFor(address)": {
        "params": {
          "_token": "quote token to check for"
        }
      },
      "marketPrice(uint256)": {
        "details": "accounts for debt and control variable decay since last deposit (vs _marketPrice())",
        "params": {
          "_id": "ID of market"
        },
        "returns": {
          "_0": "price for market in OHM decimals price is derived from the equation p = cv * dr where p = price cv = control variable dr = debt ratio dr = d / s  where d = debt s = supply of token at market creation d -= ( d * (dt / l) )  where dt = change in time l = length of program"
        }
      },
      "payoutFor(uint256,uint256)": {
        "details": "accounts for debt and control variable decay so it is up to date1e18 = ohm decimals (9) + market price decimals (9)",
        "params": {
          "_amount": "amount of quote tokens to spend",
          "_id": "ID of market"
        },
        "returns": {
          "_0": "amount of OHM to be paid in OHM decimals"
        }
      },
      "pendingFor(address,uint256)": {
        "params": {
          "_index": "the index of the note in the user's array",
          "_user": "the user that the note belongs to"
        },
        "returns": {
          "matured_": "   if the payout can be redeemed",
          "payout_": "    the payout due, in gOHM"
        }
      },
      "pullNote(address,uint256)": {
        "params": {
          "_from": "the address that approved the note transfer",
          "_index": "the index of the note to transfer (in the sender's array)"
        }
      },
      "pushNote(address,uint256)": {
        "params": {
          "_index": "index of note to approve transfer for",
          "_to": "address to approve note transfer for"
        }
      },
      "redeem(address,uint256[],bool)": {
        "params": {
          "_indexes": "the note indexes to redeem",
          "_sendgOHM": "send payout as gOHM or sOHM",
          "_user": "the user to redeem for"
        },
        "returns": {
          "payout_": "    sum of payout sent, in gOHM"
        }
      },
      "redeemAll(address,bool)": {
        "details": "if possible, query indexesFor() off-chain and input in redeem() to save gas",
        "params": {
          "_sendgOHM": "send payout as gOHM or sOHM",
          "_user": "user to redeem all notes for"
        },
        "returns": {
          "_0": "sum of payout sent, in gOHM"
        }
      }
    },
    "title": "Olympus Bond Depository V2",
    "version": 1
  },
  "userdoc": {
    "kind": "user",
    "methods": {
      "close(uint256)": {
        "notice": "disable existing market"
      },
      "create(address,uint256[3],bool[2],uint256[2],uint32[2])": {
        "notice": "creates a new market type"
      },
      "currentControlVariable(uint256)": {
        "notice": "up to date control variable"
      },
      "currentDebt(uint256)": {
        "notice": "calculate debt factoring in decay"
      },
      "debtDecay(uint256)": {
        "notice": "amount of debt to decay from total debt for market ID"
      },
      "debtRatio(uint256)": {
        "notice": "calculate current ratio of debt to supply"
      },
      "deposit(uint256,uint256,uint256,address,address)": {
        "notice": "deposit quote tokens in exchange for a bond from a specified market"
      },
      "indexesFor(address)": {
        "notice": "all pending notes for user"
      },
      "isLive(uint256)": {
        "notice": "is a given market accepting deposits"
      },
      "liveMarkets()": {
        "notice": "returns an array of all active market IDs"
      },
      "liveMarketsFor(address)": {
        "notice": "returns an array of all active market IDs for a given quote token"
      },
      "marketPrice(uint256)": {
        "notice": "calculate current market price of quote token in base token"
      },
      "payoutFor(uint256,uint256)": {
        "notice": "payout due for amount of quote tokens"
      },
      "pendingFor(address,uint256)": {
        "notice": "calculate amount available for claim for a single note"
      },
      "pullNote(address,uint256)": {
        "notice": "transfer a note that has been approved by an address"
      },
      "pushNote(address,uint256)": {
        "notice": "approve an address to transfer a note"
      },
      "redeem(address,uint256[],bool)": {
        "notice": "redeem notes for user"
      },
      "redeemAll(address,bool)": {
        "notice": "redeem all redeemable markets for user"
      },
      "setRewards(uint256,uint256)": {
        "notice": "set rewards for front end operators and DAO"
      },
      "whitelist(address)": {
        "notice": "add or remove addresses from the reward whitelist"
      }
    },
    "version": 1
  },
  "storageLayout": {
    "storage": [
      {
        "astId": 16788,
        "contract": "contracts/BondDepository.sol:OlympusBondDepositoryV2",
        "label": "UNAUTHORIZED",
        "offset": 0,
        "slot": "0",
        "type": "t_string_storage"
      },
      {
        "astId": 16791,
        "contract": "contracts/BondDepository.sol:OlympusBondDepositoryV2",
        "label": "authority",
        "offset": 0,
        "slot": "1",
        "type": "t_contract(IOlympusAuthority)5040"
      },
      {
        "astId": 16091,
        "contract": "contracts/BondDepository.sol:OlympusBondDepositoryV2",
        "label": "daoReward",
        "offset": 0,
        "slot": "2",
        "type": "t_uint256"
      },
      {
        "astId": 16093,
        "contract": "contracts/BondDepository.sol:OlympusBondDepositoryV2",
        "label": "refReward",
        "offset": 0,
        "slot": "3",
        "type": "t_uint256"
      },
      {
        "astId": 16097,
        "contract": "contracts/BondDepository.sol:OlympusBondDepositoryV2",
        "label": "rewards",
        "offset": 0,
        "slot": "4",
        "type": "t_mapping(t_address,t_uint256)"
      },
      {
        "astId": 16101,
        "contract": "contracts/BondDepository.sol:OlympusBondDepositoryV2",
        "label": "whitelisted",
        "offset": 0,
        "slot": "5",
        "type": "t_mapping(t_address,t_bool)"
      },
      {
        "astId": 16265,
        "contract": "contracts/BondDepository.sol:OlympusBondDepositoryV2",
        "label": "notes",
        "offset": 0,
        "slot": "6",
        "type": "t_mapping(t_address,t_array(t_struct(Note)4879_storage)dyn_storage)"
      },
      {
        "astId": 16271,
        "contract": "contracts/BondDepository.sol:OlympusBondDepositoryV2",
        "label": "noteTransfers",
        "offset": 0,
        "slot": "7",
        "type": "t_mapping(t_address,t_mapping(t_uint256,t_address))"
      },
      {
        "astId": 16280,
        "contract": "contracts/BondDepository.sol:OlympusBondDepositoryV2",
        "label": "treasury",
        "offset": 0,
        "slot": "8",
        "type": "t_contract(ITreasury)5229"
      },
      {
        "astId": 48,
        "contract": "contracts/BondDepository.sol:OlympusBondDepositoryV2",
        "label": "markets",
        "offset": 0,
        "slot": "9",
        "type": "t_array(t_struct(Market)4522_storage)dyn_storage"
      },
      {
        "astId": 52,
        "contract": "contracts/BondDepository.sol:OlympusBondDepositoryV2",
        "label": "terms",
        "offset": 0,
        "slot": "10",
        "type": "t_array(t_struct(Terms)4533_storage)dyn_storage"
      },
      {
        "astId": 56,
        "contract": "contracts/BondDepository.sol:OlympusBondDepositoryV2",
        "label": "metadata",
        "offset": 0,
        "slot": "11",
        "type": "t_array(t_struct(Metadata)4546_storage)dyn_storage"
      },
      {
        "astId": 61,
        "contract": "contracts/BondDepository.sol:OlympusBondDepositoryV2",
        "label": "adjustments",
        "offset": 0,
        "slot": "12",
        "type": "t_mapping(t_uint256,t_struct(Adjustment)4555_storage)"
      },
      {
        "astId": 66,
        "contract": "contracts/BondDepository.sol:OlympusBondDepositoryV2",
        "label": "marketsForQuote",
        "offset": 0,
        "slot": "13",
        "type": "t_mapping(t_address,t_array(t_uint256)dyn_storage)"
      }
    ],
    "types": {
      "t_address": {
        "encoding": "inplace",
        "label": "address",
        "numberOfBytes": "20"
      },
      "t_array(t_struct(Market)4522_storage)dyn_storage": {
        "base": "t_struct(Market)4522_storage",
        "encoding": "dynamic_array",
        "label": "struct IBondDepository.Market[]",
        "numberOfBytes": "32"
      },
      "t_array(t_struct(Metadata)4546_storage)dyn_storage": {
        "base": "t_struct(Metadata)4546_storage",
        "encoding": "dynamic_array",
        "label": "struct IBondDepository.Metadata[]",
        "numberOfBytes": "32"
      },
      "t_array(t_struct(Note)4879_storage)dyn_storage": {
        "base": "t_struct(Note)4879_storage",
        "encoding": "dynamic_array",
        "label": "struct INoteKeeper.Note[]",
        "numberOfBytes": "32"
      },
      "t_array(t_struct(Terms)4533_storage)dyn_storage": {
        "base": "t_struct(Terms)4533_storage",
        "encoding": "dynamic_array",
        "label": "struct IBondDepository.Terms[]",
        "numberOfBytes": "32"
      },
      "t_array(t_uint256)dyn_storage": {
        "base": "t_uint256",
        "encoding": "dynamic_array",
        "label": "uint256[]",
        "numberOfBytes": "32"
      },
      "t_bool": {
        "encoding": "inplace",
        "label": "bool",
        "numberOfBytes": "1"
      },
      "t_contract(IERC20)4809": {
        "encoding": "inplace",
        "label": "contract IERC20",
        "numberOfBytes": "20"
      },
      "t_contract(IOlympusAuthority)5040": {
        "encoding": "inplace",
        "label": "contract IOlympusAuthority",
        "numberOfBytes": "20"
      },
      "t_contract(ITreasury)5229": {
        "encoding": "inplace",
        "label": "contract ITreasury",
        "numberOfBytes": "20"
      },
      "t_mapping(t_address,t_array(t_struct(Note)4879_storage)dyn_storage)": {
        "encoding": "mapping",
        "key": "t_address",
        "label": "mapping(address => struct INoteKeeper.Note[])",
        "numberOfBytes": "32",
        "value": "t_array(t_struct(Note)4879_storage)dyn_storage"
      },
      "t_mapping(t_address,t_array(t_uint256)dyn_storage)": {
        "encoding": "mapping",
        "key": "t_address",
        "label": "mapping(address => uint256[])",
        "numberOfBytes": "32",
        "value": "t_array(t_uint256)dyn_storage"
      },
      "t_mapping(t_address,t_bool)": {
        "encoding": "mapping",
        "key": "t_address",
        "label": "mapping(address => bool)",
        "numberOfBytes": "32",
        "value": "t_bool"
      },
      "t_mapping(t_address,t_mapping(t_uint256,t_address))": {
        "encoding": "mapping",
        "key": "t_address",
        "label": "mapping(address => mapping(uint256 => address))",
        "numberOfBytes": "32",
        "value": "t_mapping(t_uint256,t_address)"
      },
      "t_mapping(t_address,t_uint256)": {
        "encoding": "mapping",
        "key": "t_address",
        "label": "mapping(address => uint256)",
        "numberOfBytes": "32",
        "value": "t_uint256"
      },
      "t_mapping(t_uint256,t_address)": {
        "encoding": "mapping",
        "key": "t_uint256",
        "label": "mapping(uint256 => address)",
        "numberOfBytes": "32",
        "value": "t_address"
      },
      "t_mapping(t_uint256,t_struct(Adjustment)4555_storage)": {
        "encoding": "mapping",
        "key": "t_uint256",
        "label": "mapping(uint256 => struct IBondDepository.Adjustment)",
        "numberOfBytes": "32",
        "value": "t_struct(Adjustment)4555_storage"
      },
      "t_string_storage": {
        "encoding": "bytes",
        "label": "string",
        "numberOfBytes": "32"
      },
      "t_struct(Adjustment)4555_storage": {
        "encoding": "inplace",
        "label": "struct IBondDepository.Adjustment",
        "members": [
          {
            "astId": 4548,
            "contract": "contracts/BondDepository.sol:OlympusBondDepositoryV2",
            "label": "change",
            "offset": 0,
            "slot": "0",
            "type": "t_uint64"
          },
          {
            "astId": 4550,
            "contract": "contracts/BondDepository.sol:OlympusBondDepositoryV2",
            "label": "lastAdjustment",
            "offset": 8,
            "slot": "0",
            "type": "t_uint48"
          },
          {
            "astId": 4552,
            "contract": "contracts/BondDepository.sol:OlympusBondDepositoryV2",
            "label": "timeToAdjusted",
            "offset": 14,
            "slot": "0",
            "type": "t_uint48"
          },
          {
            "astId": 4554,
            "contract": "contracts/BondDepository.sol:OlympusBondDepositoryV2",
            "label": "active",
            "offset": 20,
            "slot": "0",
            "type": "t_bool"
          }
        ],
        "numberOfBytes": "32"
      },
      "t_struct(Market)4522_storage": {
        "encoding": "inplace",
        "label": "struct IBondDepository.Market",
        "members": [
          {
            "astId": 4508,
            "contract": "contracts/BondDepository.sol:OlympusBondDepositoryV2",
            "label": "capacity",
            "offset": 0,
            "slot": "0",
            "type": "t_uint256"
          },
          {
            "astId": 4511,
            "contract": "contracts/BondDepository.sol:OlympusBondDepositoryV2",
            "label": "quoteToken",
            "offset": 0,
            "slot": "1",
            "type": "t_contract(IERC20)4809"
          },
          {
            "astId": 4513,
            "contract": "contracts/BondDepository.sol:OlympusBondDepositoryV2",
            "label": "capacityInQuote",
            "offset": 20,
            "slot": "1",
            "type": "t_bool"
          },
          {
            "astId": 4515,
            "contract": "contracts/BondDepository.sol:OlympusBondDepositoryV2",
            "label": "totalDebt",
            "offset": 21,
            "slot": "1",
            "type": "t_uint64"
          },
          {
            "astId": 4517,
            "contract": "contracts/BondDepository.sol:OlympusBondDepositoryV2",
            "label": "maxPayout",
            "offset": 0,
            "slot": "2",
            "type": "t_uint64"
          },
          {
            "astId": 4519,
            "contract": "contracts/BondDepository.sol:OlympusBondDepositoryV2",
            "label": "sold",
            "offset": 8,
            "slot": "2",
            "type": "t_uint64"
          },
          {
            "astId": 4521,
            "contract": "contracts/BondDepository.sol:OlympusBondDepositoryV2",
            "label": "purchased",
            "offset": 0,
            "slot": "3",
            "type": "t_uint256"
          }
        ],
        "numberOfBytes": "128"
      },
      "t_struct(Metadata)4546_storage": {
        "encoding": "inplace",
        "label": "struct IBondDepository.Metadata",
        "members": [
          {
            "astId": 4535,
            "contract": "contracts/BondDepository.sol:OlympusBondDepositoryV2",
            "label": "lastTune",
            "offset": 0,
            "slot": "0",
            "type": "t_uint48"
          },
          {
            "astId": 4537,
            "contract": "contracts/BondDepository.sol:OlympusBondDepositoryV2",
            "label": "lastDecay",
            "offset": 6,
            "slot": "0",
            "type": "t_uint48"
          },
          {
            "astId": 4539,
            "contract": "contracts/BondDepository.sol:OlympusBondDepositoryV2",
            "label": "length",
            "offset": 12,
            "slot": "0",
            "type": "t_uint48"
          },
          {
            "astId": 4541,
            "contract": "contracts/BondDepository.sol:OlympusBondDepositoryV2",
            "label": "depositInterval",
            "offset": 18,
            "slot": "0",
            "type": "t_uint48"
          },
          {
            "astId": 4543,
            "contract": "contracts/BondDepository.sol:OlympusBondDepositoryV2",
            "label": "tuneInterval",
            "offset": 24,
            "slot": "0",
            "type": "t_uint48"
          },
          {
            "astId": 4545,
            "contract": "contracts/BondDepository.sol:OlympusBondDepositoryV2",
            "label": "quoteDecimals",
            "offset": 30,
            "slot": "0",
            "type": "t_uint8"
          }
        ],
        "numberOfBytes": "32"
      },
      "t_struct(Note)4879_storage": {
        "encoding": "inplace",
        "label": "struct INoteKeeper.Note",
        "members": [
          {
            "astId": 4870,
            "contract": "contracts/BondDepository.sol:OlympusBondDepositoryV2",
            "label": "payout",
            "offset": 0,
            "slot": "0",
            "type": "t_uint256"
          },
          {
            "astId": 4872,
            "contract": "contracts/BondDepository.sol:OlympusBondDepositoryV2",
            "label": "created",
            "offset": 0,
            "slot": "1",
            "type": "t_uint48"
          },
          {
            "astId": 4874,
            "contract": "contracts/BondDepository.sol:OlympusBondDepositoryV2",
            "label": "matured",
            "offset": 6,
            "slot": "1",
            "type": "t_uint48"
          },
          {
            "astId": 4876,
            "contract": "contracts/BondDepository.sol:OlympusBondDepositoryV2",
            "label": "redeemed",
            "offset": 12,
            "slot": "1",
            "type": "t_uint48"
          },
          {
            "astId": 4878,
            "contract": "contracts/BondDepository.sol:OlympusBondDepositoryV2",
            "label": "marketID",
            "offset": 18,
            "slot": "1",
            "type": "t_uint48"
          }
        ],
        "numberOfBytes": "64"
      },
      "t_struct(Terms)4533_storage": {
        "encoding": "inplace",
        "label": "struct IBondDepository.Terms",
        "members": [
          {
            "astId": 4524,
            "contract": "contracts/BondDepository.sol:OlympusBondDepositoryV2",
            "label": "fixedTerm",
            "offset": 0,
            "slot": "0",
            "type": "t_bool"
          },
          {
            "astId": 4526,
            "contract": "contracts/BondDepository.sol:OlympusBondDepositoryV2",
            "label": "controlVariable",
            "offset": 1,
            "slot": "0",
            "type": "t_uint64"
          },
          {
            "astId": 4528,
            "contract": "contracts/BondDepository.sol:OlympusBondDepositoryV2",
            "label": "vesting",
            "offset": 9,
            "slot": "0",
            "type": "t_uint48"
          },
          {
            "astId": 4530,
            "contract": "contracts/BondDepository.sol:OlympusBondDepositoryV2",
            "label": "conclusion",
            "offset": 15,
            "slot": "0",
            "type": "t_uint48"
          },
          {
            "astId": 4532,
            "contract": "contracts/BondDepository.sol:OlympusBondDepositoryV2",
            "label": "maxDebt",
            "offset": 21,
            "slot": "0",
            "type": "t_uint64"
          }
        ],
        "numberOfBytes": "32"
      },
      "t_uint256": {
        "encoding": "inplace",
        "label": "uint256",
        "numberOfBytes": "32"
      },
      "t_uint48": {
        "encoding": "inplace",
        "label": "uint48",
        "numberOfBytes": "6"
      },
      "t_uint64": {
        "encoding": "inplace",
        "label": "uint64",
        "numberOfBytes": "8"
      },
      "t_uint8": {
        "encoding": "inplace",
        "label": "uint8",
        "numberOfBytes": "1"
      }
    }
  }
}