{
  "address": "0xFf68EF8802146C824C3f096EBBB13d7F6825A8f8",
  "abi": [
    {
      "inputs": [
        {
          "internalType": "address",
          "name": "_staking",
          "type": "address"
        },
        {
          "internalType": "address",
          "name": "_sOHM",
          "type": "address"
        }
      ],
      "stateMutability": "nonpayable",
      "type": "constructor"
    },
    {
      "inputs": [
        {
          "internalType": "address",
          "name": "_staker",
          "type": "address"
        },
        {
          "internalType": "uint256",
          "name": "_amount",
          "type": "uint256"
        }
      ],
      "name": "retrieve",
      "outputs": [],
      "stateMutability": "nonpayable",
      "type": "function"
    },
    {
      "inputs": [],
      "name": "sOHM",
      "outputs": [
        {
          "internalType": "address",
          "name": "",
          "type": "address"
        }
      ],
      "stateMutability": "view",
      "type": "function"
    },
    {
      "inputs": [],
      "name": "staking",
      "outputs": [
        {
          "internalType": "address",
          "name": "",
          "type": "address"
        }
      ],
      "stateMutability": "view",
      "type": "function"
    }
  ],
  "transactionHash": "0xeb14c701a85cc76cc1393de2c836ca7fd5b90e30be9672c5f1a5fb03ced7b167",
  "args": [
    "0x2868546dB0850fE969de651395887F18e66A2d26",
    "0x018C3877ef779fb977E7700BFDF08B6f63BD07B8"
  ],
  "solcInputHash": "a80fbfe274646b3985ea0cec4b683baa",
  "bytecode": "0x60c060405234801561001057600080fd5b5060405161028b38038061028b8339818101604052604081101561003357600080fd5b5080516020909101516001600160a01b03821661004f57600080fd5b6001600160601b0319606083901b166080526001600160a01b03811661007457600080fd5b606081811b6001600160601b03191660a052608051901c91506001600160a01b03166101d16100ba6000398060a2528061011f52508060c6528060f352506101d16000f3fe608060405234801561001057600080fd5b50600436106100415760003560e01c806315079925146100465780634cf088d91461006a578063c3a2a66514610072575b600080fd5b61004e6100a0565b604080516001600160a01b039092168252519081900360200190f35b61004e6100c4565b61009e6004803603604081101561008857600080fd5b506001600160a01b0381351690602001356100e8565b005b7f000000000000000000000000000000000000000000000000000000000000000081565b7f000000000000000000000000000000000000000000000000000000000000000081565b336001600160a01b037f0000000000000000000000000000000000000000000000000000000000000000161461011d57600080fd5b7f00000000000000000000000000000000000000000000000000000000000000006001600160a01b031663a9059cbb83836040518363ffffffff1660e01b815260040180836001600160a01b0316815260200182815260200192505050602060405180830381600087803b15801561019457600080fd5b505af11580156101a8573d6000803e3d6000fd5b505050506040513d60208110156101be57600080fd5b5050505056fea164736f6c6343000705000a",
  "devdoc": {
    "kind": "dev",
    "methods": {},
    "version": 1
  },
  "userdoc": {
    "kind": "user",
    "methods": {},
    "version": 1
  },
  "storageLayout": {
    "storage": [],
    "types": null
  }
}