{
  "address": "0x2868546dB0850fE969de651395887F18e66A2d26",
  "abi": [
    {
      "inputs": [
        {
          "internalType": "address",
          "name": "_OHM",
          "type": "address"
        },
        {
          "internalType": "address",
          "name": "_sOHM",
          "type": "address"
        },
        {
          "internalType": "uint256",
          "name": "_epochLength",
          "type": "uint256"
        },
        {
          "internalType": "uint256",
          "name": "_firstEpochNumber",
          "type": "uint256"
        },
        {
          "internalType": "uint256",
          "name": "_firstEpochBlock",
          "type": "uint256"
        }
      ],
      "stateMutability": "nonpayable",
      "type": "constructor"
    },
    {
      "anonymous": false,
      "inputs": [
        {
          "indexed": true,
          "internalType": "address",
          "name": "previousOwner",
          "type": "address"
        },
        {
          "indexed": true,
          "internalType": "address",
          "name": "newOwner",
          "type": "address"
        }
      ],
      "name": "OwnershipPulled",
      "type": "event"
    },
    {
      "anonymous": false,
      "inputs": [
        {
          "indexed": true,
          "internalType": "address",
          "name": "previousOwner",
          "type": "address"
        },
        {
          "indexed": true,
          "internalType": "address",
          "name": "newOwner",
          "type": "address"
        }
      ],
      "name": "OwnershipPushed",
      "type": "event"
    },
    {
      "inputs": [],
      "name": "OHM",
      "outputs": [
        {
          "internalType": "address",
          "name": "",
          "type": "address"
        }
      ],
      "stateMutability": "view",
      "type": "function"
    },
    {
      "inputs": [
        {
          "internalType": "address",
          "name": "_recipient",
          "type": "address"
        }
      ],
      "name": "claim",
      "outputs": [],
      "stateMutability": "nonpayable",
      "type": "function"
    },
    {
      "inputs": [],
      "name": "contractBalance",
      "outputs": [
        {
          "internalType": "uint256",
          "name": "",
          "type": "uint256"
        }
      ],
      "stateMutability": "view",
      "type": "function"
    },
    {
      "inputs": [],
      "name": "distributor",
      "outputs": [
        {
          "internalType": "address",
          "name": "",
          "type": "address"
        }
      ],
      "stateMutability": "view",
      "type": "function"
    },
    {
      "inputs": [],
      "name": "epoch",
      "outputs": [
        {
          "internalType": "uint256",
          "name": "length",
          "type": "uint256"
        },
        {
          "internalType": "uint256",
          "name": "number",
          "type": "uint256"
        },
        {
          "internalType": "uint256",
          "name": "endBlock",
          "type": "uint256"
        },
        {
          "internalType": "uint256",
          "name": "distribute",
          "type": "uint256"
        }
      ],
      "stateMutability": "view",
      "type": "function"
    },
    {
      "inputs": [],
      "name": "forfeit",
      "outputs": [],
      "stateMutability": "nonpayable",
      "type": "function"
    },
    {
      "inputs": [
        {
          "internalType": "uint256",
          "name": "_amount",
          "type": "uint256"
        }
      ],
      "name": "giveLockBonus",
      "outputs": [],
      "stateMutability": "nonpayable",
      "type": "function"
    },
    {
      "inputs": [],
      "name": "index",
      "outputs": [
        {
          "internalType": "uint256",
          "name": "",
          "type": "uint256"
        }
      ],
      "stateMutability": "view",
      "type": "function"
    },
    {
      "inputs": [],
      "name": "locker",
      "outputs": [
        {
          "internalType": "address",
          "name": "",
          "type": "address"
        }
      ],
      "stateMutability": "view",
      "type": "function"
    },
    {
      "inputs": [],
      "name": "manager",
      "outputs": [
        {
          "internalType": "address",
          "name": "",
          "type": "address"
        }
      ],
      "stateMutability": "view",
      "type": "function"
    },
    {
      "inputs": [],
      "name": "pullManagement",
      "outputs": [],
      "stateMutability": "nonpayable",
      "type": "function"
    },
    {
      "inputs": [
        {
          "internalType": "address",
          "name": "newOwner_",
          "type": "address"
        }
      ],
      "name": "pushManagement",
      "outputs": [],
      "stateMutability": "nonpayable",
      "type": "function"
    },
    {
      "inputs": [],
      "name": "rebase",
      "outputs": [],
      "stateMutability": "nonpayable",
      "type": "function"
    },
    {
      "inputs": [],
      "name": "renounceManagement",
      "outputs": [],
      "stateMutability": "nonpayable",
      "type": "function"
    },
    {
      "inputs": [
        {
          "internalType": "uint256",
          "name": "_amount",
          "type": "uint256"
        }
      ],
      "name": "returnLockBonus",
      "outputs": [],
      "stateMutability": "nonpayable",
      "type": "function"
    },
    {
      "inputs": [],
      "name": "sOHM",
      "outputs": [
        {
          "internalType": "address",
          "name": "",
          "type": "address"
        }
      ],
      "stateMutability": "view",
      "type": "function"
    },
    {
      "inputs": [
        {
          "internalType": "enum StakingV1.CONTRACTS",
          "name": "_contract",
          "type": "uint8"
        },
        {
          "internalType": "address",
          "name": "_address",
          "type": "address"
        }
      ],
      "name": "setContract",
      "outputs": [],
      "stateMutability": "nonpayable",
      "type": "function"
    },
    {
      "inputs": [
        {
          "internalType": "uint256",
          "name": "_warmupPeriod",
          "type": "uint256"
        }
      ],
      "name": "setWarmup",
      "outputs": [],
      "stateMutability": "nonpayable",
      "type": "function"
    },
    {
      "inputs": [
        {
          "internalType": "uint256",
          "name": "_amount",
          "type": "uint256"
        },
        {
          "internalType": "address",
          "name": "_recipient",
          "type": "address"
        }
      ],
      "name": "stake",
      "outputs": [
        {
          "internalType": "bool",
          "name": "",
          "type": "bool"
        }
      ],
      "stateMutability": "nonpayable",
      "type": "function"
    },
    {
      "inputs": [],
      "name": "toggleDepositLock",
      "outputs": [],
      "stateMutability": "nonpayable",
      "type": "function"
    },
    {
      "inputs": [],
      "name": "totalBonus",
      "outputs": [
        {
          "internalType": "uint256",
          "name": "",
          "type": "uint256"
        }
      ],
      "stateMutability": "view",
      "type": "function"
    },
    {
      "inputs": [
        {
          "internalType": "uint256",
          "name": "_amount",
          "type": "uint256"
        },
        {
          "internalType": "bool",
          "name": "_trigger",
          "type": "bool"
        }
      ],
      "name": "unstake",
      "outputs": [],
      "stateMutability": "nonpayable",
      "type": "function"
    },
    {
      "inputs": [],
      "name": "warmupContract",
      "outputs": [
        {
          "internalType": "address",
          "name": "",
          "type": "address"
        }
      ],
      "stateMutability": "view",
      "type": "function"
    },
    {
      "inputs": [
        {
          "internalType": "address",
          "name": "",
          "type": "address"
        }
      ],
      "name": "warmupInfo",
      "outputs": [
        {
          "internalType": "uint256",
          "name": "deposit",
          "type": "uint256"
        },
        {
          "internalType": "uint256",
          "name": "gons",
          "type": "uint256"
        },
        {
          "internalType": "uint256",
          "name": "expiry",
          "type": "uint256"
        },
        {
          "internalType": "bool",
          "name": "lock",
          "type": "bool"
        }
      ],
      "stateMutability": "view",
      "type": "function"
    },
    {
      "inputs": [],
      "name": "warmupPeriod",
      "outputs": [
        {
          "internalType": "uint256",
          "name": "",
          "type": "uint256"
        }
      ],
      "stateMutability": "view",
      "type": "function"
    }
  ],
  "transactionHash": "0xfaa730939ae607d960371e4f6ebbf7bd05521d44498242f7053d870c1e12b7c6",
  "args": [
    "0x5f99F707470E81784eA064377b302Ff111b5a95A",
    "0x018C3877ef779fb977E7700BFDF08B6f63BD07B8",
    "2200",
    "550",
    "7500000"
  ],
  "solcInputHash": "3c3265c95d62c3527833557b16afaef2",
  "bytecode": "0x60c060405234801561001057600080fd5b50604051611a5a380380611a5a833981810160405260a081101561003357600080fd5b50805160208201516040808401516060850151608090950151600080546001600160a01b031916331780825593519596949592949391926001600160a01b0392909216917fea8258f2d9ddb679928cf34b78cf645b7feda9acc828e4dd82d014eaae270eba908290a36001600160a01b0385166100af57600080fd5b6001600160601b0319606086901b166080526001600160a01b0384166100d457600080fd5b6001600160601b0319606094851b1660a0526040805160808101825284815260208101849052908101829052600094018490526002929092556003556004556005555060805160601c60a05160601c6118d46101866000398061043b5280610512528061060b52806107045280610a7b5280610b875280610e405280610ed1528061102c528061120552806113655250806109855280610d505280610e755280610e9e528061130452506118d46000f3fe608060405234801561001057600080fd5b50600436106101a35760003560e01c80638f077b83116100ee578063bfe1092811610097578063deac361a11610071578063deac361a146103ce578063ed4acaa8146103d6578063f3d86e4a146103de578063f62ae76a146103e6576101a3565b8063bfe10928146103a1578063c9f464ff146103a9578063d7b96d4e146103c6576101a3565b8063a6c41fec116100c8578063a6c41fec14610389578063a8dd07dc14610391578063af14052c14610399576101a3565b80638f077b831461032e578063900cf0cf146103365780639ebea88c14610364576101a3565b8063481c6a75116101505780637acb77571161012a5780637acb7757146102b7578063865e6fd3146102f75780638b7afe2e14610326576101a3565b8063481c6a75146102595780635a96ac0a146102615780636746f4c214610269576101a3565b80631e83409a116101815780631e83409a146101f35780632986c0e51461021957806346f68ee914610233576101a3565b806303c23670146101a8578063089208d8146101c757806315079925146101cf575b600080fd5b6101c5600480360360208110156101be57600080fd5b5035610403565b005b6101c5610467565b6101d7610510565b604080516001600160a01b039092168252519081900360200190f35b6101c56004803603602081101561020957600080fd5b50356001600160a01b0316610534565b610221610700565b60408051918252519081900360200190f35b6101c56004803603602081101561024957600080fd5b50356001600160a01b031661078c565b6101d761088b565b6101c561089a565b61028f6004803603602081101561027f57600080fd5b50356001600160a01b0316610944565b6040805194855260208501939093528383019190915215156060830152519081900360800190f35b6102e3600480360360408110156102cd57600080fd5b50803590602001356001600160a01b031661096e565b604080519115158252519081900360200190f35b6101c56004803603604081101561030d57600080fd5b50803560ff1690602001356001600160a01b0316610bba565b610221610d46565b6101c5610df2565b61033e610e16565b604080519485526020850193909352838301919091526060830152519081900360800190f35b6101c56004803603604081101561037a57600080fd5b50803590602001351515610e25565b6101d7610e9c565b610221610ec0565b6101c5610ec6565b6101d76110d4565b6101c5600480360360208110156103bf57600080fd5b50356110e3565b6101d7611147565b610221611156565b6101d761115c565b6101c561116b565b6101c5600480360360208110156103fc57600080fd5b503561132d565b6007546001600160a01b0316331461041a57600080fd5b600854610427908261138f565b600855600754610464906001600160a01b037f000000000000000000000000000000000000000000000000000000000000000081169116836113f0565b50565b6000546001600160a01b031633146104c6576040805162461bcd60e51b815260206004820181905260248201527f4f776e61626c653a2063616c6c6572206973206e6f7420746865206f776e6572604482015290519081900360640190fd5b600080546040516001600160a01b03909116907fea8258f2d9ddb679928cf34b78cf645b7feda9acc828e4dd82d014eaae270eba908390a3600080546001600160a01b0319169055565b7f000000000000000000000000000000000000000000000000000000000000000081565b61053c6117e5565b506001600160a01b0381166000908152600b6020908152604091829020825160808101845281548152600182015492810192909252600281015492820183905260039081015460ff1615156060830152549091118015906105a05750604081015115155b156106fc576001600160a01b038083166000908152600b602090815260408083208381556001810184905560028101939093556003909201805460ff19169055600954848201518351637965d56d60e01b8152600481019190915292519084169363c3a2a6659387937f000000000000000000000000000000000000000000000000000000000000000090921692637965d56d92602480840193919291829003018186803b15801561065157600080fd5b505afa158015610665573d6000803e3d6000fd5b505050506040513d602081101561067b57600080fd5b5051604080517fffffffff0000000000000000000000000000000000000000000000000000000060e086901b1681526001600160a01b039093166004840152602483019190915251604480830192600092919082900301818387803b1580156106e357600080fd5b505af11580156106f7573d6000803e3d6000fd5b505050505b5050565b60007f00000000000000000000000000000000000000000000000000000000000000006001600160a01b0316632986c0e56040518163ffffffff1660e01b815260040160206040518083038186803b15801561075b57600080fd5b505afa15801561076f573d6000803e3d6000fd5b505050506040513d602081101561078557600080fd5b5051905090565b6000546001600160a01b031633146107eb576040805162461bcd60e51b815260206004820181905260248201527f4f776e61626c653a2063616c6c6572206973206e6f7420746865206f776e6572604482015290519081900360640190fd5b6001600160a01b0381166108305760405162461bcd60e51b81526004018080602001828103825260268152602001806118336026913960400191505060405180910390fd5b600080546040516001600160a01b03808516939216917fea8258f2d9ddb679928cf34b78cf645b7feda9acc828e4dd82d014eaae270eba91a3600180546001600160a01b0319166001600160a01b0392909216919091179055565b6000546001600160a01b031690565b6001546001600160a01b031633146108e35760405162461bcd60e51b815260040180806020018281038252602281526020018061187c6022913960400191505060405180910390fd5b600154600080546040516001600160a01b0393841693909116917faa151555690c956fc3ea32f106bb9f119b5237a061eaa8557cff3e51e3792c8d91a3600154600080546001600160a01b0319166001600160a01b03909216919091179055565b600b6020526000908152604090208054600182015460028301546003909301549192909160ff1684565b6000610978610ec6565b6109ad6001600160a01b037f00000000000000000000000000000000000000000000000000000000000000001633308661145c565b6109b56117e5565b506001600160a01b0382166000908152600b602090815260409182902082516080810184528154815260018201549281019290925260028101549282019290925260039091015460ff161580156060830152610a58576040805162461bcd60e51b815260206004820152601f60248201527f4465706f7369747320666f72206163636f756e7420617265206c6f636b656400604482015290519081900360640190fd5b604080516080810190915281518190610a71908761138f565b8152602001610b147f00000000000000000000000000000000000000000000000000000000000000006001600160a01b0316631bd39674886040518263ffffffff1660e01b81526004018082815260200191505060206040518083038186803b158015610add57600080fd5b505afa158015610af1573d6000803e3d6000fd5b505050506040513d6020811015610b0757600080fd5b505160208501519061138f565b8152600a54600354602090920191610b2b9161138f565b8152600060209182018190526001600160a01b038681168252600b8352604091829020845181559284015160018401559083015160028301556060909201516003909101805460ff1916911515919091179055600954610bb0917f000000000000000000000000000000000000000000000000000000000000000081169116866113f0565b5060019392505050565b6000546001600160a01b03163314610c19576040805162461bcd60e51b815260206004820181905260248201527f4f776e61626c653a2063616c6c6572206973206e6f7420746865206f776e6572604482015290519081900360640190fd5b6000826002811115610c2757fe5b1415610c4d57600680546001600160a01b0319166001600160a01b0383161790556106fc565b6001826002811115610c5b57fe5b1415610cc9576009546001600160a01b031615610ca95760405162461bcd60e51b81526004018080602001828103825260238152602001806118596023913960400191505060405180910390fd5b600980546001600160a01b0319166001600160a01b0383161790556106fc565b6002826002811115610cd757fe5b14156106fc576007546001600160a01b031615610d255760405162461bcd60e51b81526004018080602001828103825260238152602001806118106023913960400191505060405180910390fd5b600780546001600160a01b0383166001600160a01b03199091161790555050565b6000610ded6008547f00000000000000000000000000000000000000000000000000000000000000006001600160a01b03166370a08231306040518263ffffffff1660e01b815260040180826001600160a01b0316815260200191505060206040518083038186803b158015610dbb57600080fd5b505afa158015610dcf573d6000803e3d6000fd5b505050506040513d6020811015610de557600080fd5b50519061138f565b905090565b336000908152600b60205260409020600301805460ff19811660ff90911615179055565b60025460035460045460055484565b8015610e3357610e33610ec6565b610e686001600160a01b037f00000000000000000000000000000000000000000000000000000000000000001633308561145c565b6106fc6001600160a01b037f00000000000000000000000000000000000000000000000000000000000000001633846113f0565b7f000000000000000000000000000000000000000000000000000000000000000081565b60085481565b60045443106110d2577f00000000000000000000000000000000000000000000000000000000000000006001600160a01b031663058ecdb46002600301546002600101546040518363ffffffff1660e01b81526004018083815260200182815260200192505050602060405180830381600087803b158015610f4757600080fd5b505af1158015610f5b573d6000803e3d6000fd5b505050506040513d6020811015610f7157600080fd5b5050600254600454610f829161138f565b6004556003805460010190556006546001600160a01b03161561101c57600660009054906101000a90046001600160a01b03166001600160a01b031663e4fc6b6d6040518163ffffffff1660e01b8152600401602060405180830381600087803b158015610fef57600080fd5b505af1158015611003573d6000803e3d6000fd5b505050506040513d602081101561101957600080fd5b50505b6000611026610d46565b905060007f00000000000000000000000000000000000000000000000000000000000000006001600160a01b0316639358928b6040518163ffffffff1660e01b815260040160206040518083038186803b15801561108357600080fd5b505afa158015611097573d6000803e3d6000fd5b505050506040513d60208110156110ad57600080fd5b505190508082116110c25760006005556106fc565b6110cc82826114d1565b60055550505b565b6006546001600160a01b031681565b6000546001600160a01b03163314611142576040805162461bcd60e51b815260206004820181905260248201527f4f776e61626c653a2063616c6c6572206973206e6f7420746865206f776e6572604482015290519081900360640190fd5b600a55565b6007546001600160a01b031681565b600a5481565b6009546001600160a01b031681565b6111736117e5565b50336000818152600b602081815260408084208151608081018352815481526001820180548286019081526002840180548487015260038501805460ff8116151560608701529a8a5297875293889055908790559590915560ff1990951690925560095492518251637965d56d60e01b8152600481019190915291516001600160a01b039384169363c3a2a6659330937f000000000000000000000000000000000000000000000000000000000000000090921692637965d56d92602480840193919291829003018186803b15801561124b57600080fd5b505afa15801561125f573d6000803e3d6000fd5b505050506040513d602081101561127557600080fd5b5051604080517fffffffff0000000000000000000000000000000000000000000000000000000060e086901b1681526001600160a01b039093166004840152602483019190915251604480830192600092919082900301818387803b1580156112dd57600080fd5b505af11580156112f1573d6000803e3d6000fd5b5050825161046492506001600160a01b037f000000000000000000000000000000000000000000000000000000000000000016915033906113f0565b6007546001600160a01b0316331461134457600080fd5b60085461135190826114d1565b600855600754610464906001600160a01b037f000000000000000000000000000000000000000000000000000000000000000081169116308461145c565b6000828201838110156113e9576040805162461bcd60e51b815260206004820152601b60248201527f536166654d6174683a206164646974696f6e206f766572666c6f770000000000604482015290519081900360640190fd5b9392505050565b604080516001600160a01b038416602482015260448082018490528251808303909101815260649091019091526020810180517bffffffffffffffffffffffffffffffffffffffffffffffffffffffff1663a9059cbb60e01b179052611457908490611513565b505050565b604080516001600160a01b0380861660248301528416604482015260648082018490528251808303909101815260849091019091526020810180517bffffffffffffffffffffffffffffffffffffffffffffffffffffffff166323b872dd60e01b1790526114cb908590611513565b50505050565b60006113e983836040518060400160405280601e81526020017f536166654d6174683a207375627472616374696f6e206f766572666c6f7700008152506115c4565b6060611568826040518060400160405280602081526020017f5361666545524332303a206c6f772d6c6576656c2063616c6c206661696c6564815250856001600160a01b031661165b9092919063ffffffff16565b8051909150156114575780806020019051602081101561158757600080fd5b50516114575760405162461bcd60e51b815260040180806020018281038252602a81526020018061189e602a913960400191505060405180910390fd5b600081848411156116535760405162461bcd60e51b81526004018080602001828103825283818151815260200191508051906020019080838360005b83811015611618578181015183820152602001611600565b50505050905090810190601f1680156116455780820380516001836020036101000a031916815260200191505b509250505060405180910390fd5b505050900390565b606061166a8484600085611672565b949350505050565b606061167d856117df565b6116ce576040805162461bcd60e51b815260206004820152601d60248201527f416464726573733a2063616c6c20746f206e6f6e2d636f6e7472616374000000604482015290519081900360640190fd5b60006060866001600160a01b031685876040518082805190602001908083835b6020831061170d5780518252601f1990920191602091820191016116ee565b6001836020036101000a03801982511681845116808217855250505050505090500191505060006040518083038185875af1925050503d806000811461176f576040519150601f19603f3d011682016040523d82523d6000602084013e611774565b606091505b5091509150811561178857915061166a9050565b8051156117985780518082602001fd5b60405162461bcd60e51b8152602060048201818152865160248401528651879391928392604401919085019080838360008315611618578181015183820152602001611600565b3b151590565b6040518060800160405280600081526020016000815260200160008152602001600015158152509056fe4c6f636b65722063616e6e6f7420626520736574206d6f7265207468616e206f6e63654f776e61626c653a206e6577206f776e657220697320746865207a65726f20616464726573735761726d75702063616e6e6f7420626520736574206d6f7265207468616e206f6e63654f776e61626c653a206d757374206265206e6577206f776e657220746f2070756c6c5361666545524332303a204552433230206f7065726174696f6e20646964206e6f742073756363656564a164736f6c6343000705000a",
  "devdoc": {
    "kind": "dev",
    "methods": {
      "claim(address)": {
        "params": {
          "_recipient": "address"
        }
      },
      "contractBalance()": {
        "returns": {
          "_0": "uint"
        }
      },
      "giveLockBonus(uint256)": {
        "params": {
          "_amount": "uint"
        }
      },
      "index()": {
        "returns": {
          "_0": "uint"
        }
      },
      "returnLockBonus(uint256)": {
        "params": {
          "_amount": "uint"
        }
      },
      "setContract(uint8,address)": {
        "params": {
          "_contract": "address"
        }
      },
      "setWarmup(uint256)": {
        "params": {
          "_warmupPeriod": "uint"
        }
      },
      "stake(uint256,address)": {
        "params": {
          "_amount": "uint"
        },
        "returns": {
          "_0": "bool"
        }
      },
      "unstake(uint256,bool)": {
        "params": {
          "_amount": "uint",
          "_trigger": "bool"
        }
      }
    },
    "version": 1
  },
  "userdoc": {
    "kind": "user",
    "methods": {
      "claim(address)": {
        "notice": "retrieve sOHM from warmup"
      },
      "contractBalance()": {
        "notice": "returns contract OHM holdings, including bonuses provided"
      },
      "forfeit()": {
        "notice": "forfeit sOHM in warmup and retrieve OHM"
      },
      "giveLockBonus(uint256)": {
        "notice": "provide bonus to locked staking contract"
      },
      "index()": {
        "notice": "returns the sOHM index, which tracks rebase growth"
      },
      "rebase()": {
        "notice": "trigger rebase if epoch over"
      },
      "returnLockBonus(uint256)": {
        "notice": "reclaim bonus from locked staking contract"
      },
      "setContract(uint8,address)": {
        "notice": "sets the contract address for LP staking"
      },
      "setWarmup(uint256)": {
        "notice": "set warmup period for new stakers"
      },
      "stake(uint256,address)": {
        "notice": "stake OHM to enter warmup"
      },
      "toggleDepositLock()": {
        "notice": "prevent new deposits to address (protection from malicious activity)"
      },
      "unstake(uint256,bool)": {
        "notice": "redeem sOHM for OHM"
      }
    },
    "version": 1
  },
  "storageLayout": {
    "storage": [
      {
        "astId": 917,
        "contract": "contracts/testnet/StakingV1.sol:StakingV1",
        "label": "_owner",
        "offset": 0,
        "slot": "0",
        "type": "t_address"
      },
      {
        "astId": 919,
        "contract": "contracts/testnet/StakingV1.sol:StakingV1",
        "label": "_newOwner",
        "offset": 0,
        "slot": "1",
        "type": "t_address"
      },
      {
        "astId": 1120,
        "contract": "contracts/testnet/StakingV1.sol:StakingV1",
        "label": "epoch",
        "offset": 0,
        "slot": "2",
        "type": "t_struct(Epoch)1118_storage"
      },
      {
        "astId": 1122,
        "contract": "contracts/testnet/StakingV1.sol:StakingV1",
        "label": "distributor",
        "offset": 0,
        "slot": "6",
        "type": "t_address"
      },
      {
        "astId": 1124,
        "contract": "contracts/testnet/StakingV1.sol:StakingV1",
        "label": "locker",
        "offset": 0,
        "slot": "7",
        "type": "t_address"
      },
      {
        "astId": 1126,
        "contract": "contracts/testnet/StakingV1.sol:StakingV1",
        "label": "totalBonus",
        "offset": 0,
        "slot": "8",
        "type": "t_uint256"
      },
      {
        "astId": 1128,
        "contract": "contracts/testnet/StakingV1.sol:StakingV1",
        "label": "warmupContract",
        "offset": 0,
        "slot": "9",
        "type": "t_address"
      },
      {
        "astId": 1130,
        "contract": "contracts/testnet/StakingV1.sol:StakingV1",
        "label": "warmupPeriod",
        "offset": 0,
        "slot": "10",
        "type": "t_uint256"
      },
      {
        "astId": 1192,
        "contract": "contracts/testnet/StakingV1.sol:StakingV1",
        "label": "warmupInfo",
        "offset": 0,
        "slot": "11",
        "type": "t_mapping(t_address,t_struct(Claim)1188_storage)"
      }
    ],
    "types": {
      "t_address": {
        "encoding": "inplace",
        "label": "address",
        "numberOfBytes": "20"
      },
      "t_bool": {
        "encoding": "inplace",
        "label": "bool",
        "numberOfBytes": "1"
      },
      "t_mapping(t_address,t_struct(Claim)1188_storage)": {
        "encoding": "mapping",
        "key": "t_address",
        "label": "mapping(address => struct StakingV1.Claim)",
        "numberOfBytes": "32",
        "value": "t_struct(Claim)1188_storage"
      },
      "t_struct(Claim)1188_storage": {
        "encoding": "inplace",
        "label": "struct StakingV1.Claim",
        "members": [
          {
            "astId": 1181,
            "contract": "contracts/testnet/StakingV1.sol:StakingV1",
            "label": "deposit",
            "offset": 0,
            "slot": "0",
            "type": "t_uint256"
          },
          {
            "astId": 1183,
            "contract": "contracts/testnet/StakingV1.sol:StakingV1",
            "label": "gons",
            "offset": 0,
            "slot": "1",
            "type": "t_uint256"
          },
          {
            "astId": 1185,
            "contract": "contracts/testnet/StakingV1.sol:StakingV1",
            "label": "expiry",
            "offset": 0,
            "slot": "2",
            "type": "t_uint256"
          },
          {
            "astId": 1187,
            "contract": "contracts/testnet/StakingV1.sol:StakingV1",
            "label": "lock",
            "offset": 0,
            "slot": "3",
            "type": "t_bool"
          }
        ],
        "numberOfBytes": "128"
      },
      "t_struct(Epoch)1118_storage": {
        "encoding": "inplace",
        "label": "struct StakingV1.Epoch",
        "members": [
          {
            "astId": 1111,
            "contract": "contracts/testnet/StakingV1.sol:StakingV1",
            "label": "length",
            "offset": 0,
            "slot": "0",
            "type": "t_uint256"
          },
          {
            "astId": 1113,
            "contract": "contracts/testnet/StakingV1.sol:StakingV1",
            "label": "number",
            "offset": 0,
            "slot": "1",
            "type": "t_uint256"
          },
          {
            "astId": 1115,
            "contract": "contracts/testnet/StakingV1.sol:StakingV1",
            "label": "endBlock",
            "offset": 0,
            "slot": "2",
            "type": "t_uint256"
          },
          {
            "astId": 1117,
            "contract": "contracts/testnet/StakingV1.sol:StakingV1",
            "label": "distribute",
            "offset": 0,
            "slot": "3",
            "type": "t_uint256"
          }
        ],
        "numberOfBytes": "128"
      },
      "t_uint256": {
        "encoding": "inplace",
        "label": "uint256",
        "numberOfBytes": "32"
      }
    }
  }
}