{
  "address": "0x0595328847AF962F951a4f8F8eE9A3Bf261e4f6b",
  "abi": [
    {
      "inputs": [
        {
          "internalType": "address",
          "name": "_authority",
          "type": "address"
        }
      ],
      "stateMutability": "nonpayable",
      "type": "constructor"
    },
    {
      "anonymous": false,
      "inputs": [
        {
          "indexed": true,
          "internalType": "address",
          "name": "owner",
          "type": "address"
        },
        {
          "indexed": true,
          "internalType": "address",
          "name": "spender",
          "type": "address"
        },
        {
          "indexed": false,
          "internalType": "uint256",
          "name": "value",
          "type": "uint256"
        }
      ],
      "name": "Approval",
      "type": "event"
    },
    {
      "anonymous": false,
      "inputs": [
        {
          "indexed": true,
          "internalType": "contract IOlympusAuthority",
          "name": "authority",
          "type": "address"
        }
      ],
      "name": "AuthorityUpdated",
      "type": "event"
    },
    {
      "anonymous": false,
      "inputs": [
        {
          "indexed": true,
          "internalType": "address",
          "name": "from",
          "type": "address"
        },
        {
          "indexed": true,
          "internalType": "address",
          "name": "to",
          "type": "address"
        },
        {
          "indexed": false,
          "internalType": "uint256",
          "name": "value",
          "type": "uint256"
        }
      ],
      "name": "Transfer",
      "type": "event"
    },
    {
      "inputs": [],
      "name": "DOMAIN_SEPARATOR",
      "outputs": [
        {
          "internalType": "bytes32",
          "name": "",
          "type": "bytes32"
        }
      ],
      "stateMutability": "view",
      "type": "function"
    },
    {
      "inputs": [
        {
          "internalType": "address",
          "name": "owner",
          "type": "address"
        },
        {
          "internalType": "address",
          "name": "spender",
          "type": "address"
        }
      ],
      "name": "allowance",
      "outputs": [
        {
          "internalType": "uint256",
          "name": "",
          "type": "uint256"
        }
      ],
      "stateMutability": "view",
      "type": "function"
    },
    {
      "inputs": [
        {
          "internalType": "address",
          "name": "spender",
          "type": "address"
        },
        {
          "internalType": "uint256",
          "name": "amount",
          "type": "uint256"
        }
      ],
      "name": "approve",
      "outputs": [
        {
          "internalType": "bool",
          "name": "",
          "type": "bool"
        }
      ],
      "stateMutability": "nonpayable",
      "type": "function"
    },
    {
      "inputs": [],
      "name": "authority",
      "outputs": [
        {
          "internalType": "contract IOlympusAuthority",
          "name": "",
          "type": "address"
        }
      ],
      "stateMutability": "view",
      "type": "function"
    },
    {
      "inputs": [
        {
          "internalType": "address",
          "name": "account",
          "type": "address"
        }
      ],
      "name": "balanceOf",
      "outputs": [
        {
          "internalType": "uint256",
          "name": "",
          "type": "uint256"
        }
      ],
      "stateMutability": "view",
      "type": "function"
    },
    {
      "inputs": [
        {
          "internalType": "uint256",
          "name": "amount",
          "type": "uint256"
        }
      ],
      "name": "burn",
      "outputs": [],
      "stateMutability": "nonpayable",
      "type": "function"
    },
    {
      "inputs": [
        {
          "internalType": "address",
          "name": "account_",
          "type": "address"
        },
        {
          "internalType": "uint256",
          "name": "amount_",
          "type": "uint256"
        }
      ],
      "name": "burnFrom",
      "outputs": [],
      "stateMutability": "nonpayable",
      "type": "function"
    },
    {
      "inputs": [],
      "name": "decimals",
      "outputs": [
        {
          "internalType": "uint8",
          "name": "",
          "type": "uint8"
        }
      ],
      "stateMutability": "view",
      "type": "function"
    },
    {
      "inputs": [
        {
          "internalType": "address",
          "name": "spender",
          "type": "address"
        },
        {
          "internalType": "uint256",
          "name": "subtractedValue",
          "type": "uint256"
        }
      ],
      "name": "decreaseAllowance",
      "outputs": [
        {
          "internalType": "bool",
          "name": "",
          "type": "bool"
        }
      ],
      "stateMutability": "nonpayable",
      "type": "function"
    },
    {
      "inputs": [
        {
          "internalType": "address",
          "name": "recipient_",
          "type": "address"
        }
      ],
      "name": "faucetMint",
      "outputs": [],
      "stateMutability": "nonpayable",
      "type": "function"
    },
    {
      "inputs": [
        {
          "internalType": "address",
          "name": "spender",
          "type": "address"
        },
        {
          "internalType": "uint256",
          "name": "addedValue",
          "type": "uint256"
        }
      ],
      "name": "increaseAllowance",
      "outputs": [
        {
          "internalType": "bool",
          "name": "",
          "type": "bool"
        }
      ],
      "stateMutability": "nonpayable",
      "type": "function"
    },
    {
      "inputs": [
        {
          "internalType": "address",
          "name": "account_",
          "type": "address"
        },
        {
          "internalType": "uint256",
          "name": "amount_",
          "type": "uint256"
        }
      ],
      "name": "mint",
      "outputs": [],
      "stateMutability": "nonpayable",
      "type": "function"
    },
    {
      "inputs": [],
      "name": "name",
      "outputs": [
        {
          "internalType": "string",
          "name": "",
          "type": "string"
        }
      ],
      "stateMutability": "view",
      "type": "function"
    },
    {
      "inputs": [
        {
          "internalType": "address",
          "name": "owner",
          "type": "address"
        }
      ],
      "name": "nonces",
      "outputs": [
        {
          "internalType": "uint256",
          "name": "",
          "type": "uint256"
        }
      ],
      "stateMutability": "view",
      "type": "function"
    },
    {
      "inputs": [
        {
          "internalType": "address",
          "name": "owner",
          "type": "address"
        },
        {
          "internalType": "address",
          "name": "spender",
          "type": "address"
        },
        {
          "internalType": "uint256",
          "name": "value",
          "type": "uint256"
        },
        {
          "internalType": "uint256",
          "name": "deadline",
          "type": "uint256"
        },
        {
          "internalType": "uint8",
          "name": "v",
          "type": "uint8"
        },
        {
          "internalType": "bytes32",
          "name": "r",
          "type": "bytes32"
        },
        {
          "internalType": "bytes32",
          "name": "s",
          "type": "bytes32"
        }
      ],
      "name": "permit",
      "outputs": [],
      "stateMutability": "nonpayable",
      "type": "function"
    },
    {
      "inputs": [
        {
          "internalType": "contract IOlympusAuthority",
          "name": "_newAuthority",
          "type": "address"
        }
      ],
      "name": "setAuthority",
      "outputs": [],
      "stateMutability": "nonpayable",
      "type": "function"
    },
    {
      "inputs": [],
      "name": "symbol",
      "outputs": [
        {
          "internalType": "string",
          "name": "",
          "type": "string"
        }
      ],
      "stateMutability": "view",
      "type": "function"
    },
    {
      "inputs": [],
      "name": "totalSupply",
      "outputs": [
        {
          "internalType": "uint256",
          "name": "",
          "type": "uint256"
        }
      ],
      "stateMutability": "view",
      "type": "function"
    },
    {
      "inputs": [
        {
          "internalType": "address",
          "name": "recipient",
          "type": "address"
        },
        {
          "internalType": "uint256",
          "name": "amount",
          "type": "uint256"
        }
      ],
      "name": "transfer",
      "outputs": [
        {
          "internalType": "bool",
          "name": "",
          "type": "bool"
        }
      ],
      "stateMutability": "nonpayable",
      "type": "function"
    },
    {
      "inputs": [
        {
          "internalType": "address",
          "name": "sender",
          "type": "address"
        },
        {
          "internalType": "address",
          "name": "recipient",
          "type": "address"
        },
        {
          "internalType": "uint256",
          "name": "amount",
          "type": "uint256"
        }
      ],
      "name": "transferFrom",
      "outputs": [
        {
          "internalType": "bool",
          "name": "",
          "type": "bool"
        }
      ],
      "stateMutability": "nonpayable",
      "type": "function"
    }
  ],
  "transactionHash": "0x6fb9f21046d70f47d58d11120466d27308b34d113b02a349af3d003327baaefd",
  "args": [
    "0x4A8c9502A34962a2C6d73c5D181dAaeF3dcDc88D"
  ],
  "solcInputHash": "5809685086eb336edb7b468a91240c1f",
  "bytecode": "0x7f6e71edae12b1b97f4d1f60370fef10105fa2faae0126114a169c64845d6126c9610140526101a0604052600c6101608190526b15539055551213d49256915160a21b61018090815262000057916006919062000243565b503480156200006557600080fd5b5060405162001aa338038062001aa3833981810160405260208110156200008b57600080fd5b50516040805180820182526007808252664f6c796d70757360c81b60208381018290528451808601865260018152603160f81b818301528551808701875293845283820192835285518087019096526003808752624f484d60e81b928701929092528351879686959294929390926009926200010992919062000243565b5081516200011f90600490602085019062000243565b5060f81b7fff00000000000000000000000000000000000000000000000000000000000000166080525050815160208084019190912082519183019190912060e08290526101008190524660c081905291907f8b73c3c69bb8fe3d512ecc4cf759cc79239f7b179b0ffacaa9a75d522b39400f6200019f818484620001fe565b60a052610120525050600780546001600160a01b0319166001600160a01b0387169081179091556040519094507f2f658b440c35314f52658ea8a740e05b284cdc84dc9ae01e891f21b8933e7cad9350600092509050a25050620002ef565b604080516020808201959095528082019390935260608301919091524660808301523060a0808401919091528151808403909101815260c09092019052805191012090565b828054600181600116156101000203166002900490600052602060002090601f0160209004810192826200027b5760008555620002c6565b82601f106200029657805160ff1916838001178555620002c6565b82800160010185558215620002c6579182015b82811115620002c6578251825591602001919060010190620002a9565b50620002d4929150620002d8565b5090565b5b80821115620002d45760008155600101620002d9565b60805160f81c60a05160c05160e05161010051610120516101405161175d6200034660003980610a67525080610efb525080610f3d525080610f1c525080610ea7525080610ecf525080610600525061175d6000f3fe608060405234801561001057600080fd5b506004361061016c5760003560e01c806379cc6790116100cd578063a9059cbb11610081578063d505accf11610066578063d505accf1461043d578063dd62ed3e1461048e578063fc8d44b7146104bc5761016c565b8063a9059cbb146103ed578063bf7e214f146104195761016c565b80637ecebe00116100b25780637ecebe001461039357806395d89b41146103b9578063a457c2d7146103c15761016c565b806379cc6790146103415780637a9e5e4b1461036d5761016c565b80633644e5151161012457806340c10f191161010957806340c10f19146102d057806342966c68146102fe57806370a082311461031b5761016c565b80633644e5151461029c57806339509351146102a45761016c565b806318160ddd1161015557806318160ddd1461022e57806323b872dd14610248578063313ce5671461027e5761016c565b806306fdde0314610171578063095ea7b3146101ee575b600080fd5b6101796104e2565b6040805160208082528351818301528351919283929083019185019080838360005b838110156101b357818101518382015260200161019b565b50505050905090810190601f1680156101e05780820380516001836020036101000a031916815260200191505b509250505060405180910390f35b61021a6004803603604081101561020457600080fd5b506001600160a01b038135169060200135610579565b604080519115158252519081900360200190f35b61023661058f565b60408051918252519081900360200190f35b61021a6004803603606081101561025e57600080fd5b506001600160a01b03813581169160208101359091169060400135610595565b6102866105fe565b6040805160ff9092168252519081900360200190f35b610236610622565b61021a600480360360408110156102ba57600080fd5b506001600160a01b038135169060200135610631565b6102fc600480360360408110156102e657600080fd5b506001600160a01b038135169060200135610667565b005b6102fc6004803603602081101561031457600080fd5b503561079b565b6102366004803603602081101561033157600080fd5b50356001600160a01b03166107a8565b6102fc6004803603604081101561035757600080fd5b506001600160a01b0381351690602001356107c3565b6102fc6004803603602081101561038357600080fd5b50356001600160a01b03166107cd565b610236600480360360208110156103a957600080fd5b50356001600160a01b031661091b565b610179610942565b61021a600480360360408110156103d757600080fd5b506001600160a01b0381351690602001356109a3565b61021a6004803603604081101561040357600080fd5b506001600160a01b0381351690602001356109f2565b6104216109ff565b604080516001600160a01b039092168252519081900360200190f35b6102fc600480360360e081101561045357600080fd5b506001600160a01b03813581169160208101359091169060408101359060608101359060ff6080820135169060a08101359060c00135610a0e565b610236600480360360408110156104a457600080fd5b506001600160a01b0381358116916020013516610b8a565b6102fc600480360360208110156104d257600080fd5b50356001600160a01b0316610bb5565b60038054604080516020601f600260001961010060018816150201909516949094049384018190048102820181019092528281526060939092909183018282801561056e5780601f106105435761010080835404028352916020019161056e565b820191906000526020600020905b81548152906001019060200180831161055157829003601f168201915b505050505090505b90565b6000610586338484610bc4565b50600192915050565b60025490565b60006105a2848484610cb0565b6105f484336105ef85604051806060016040528060288152602001611676602891396001600160a01b038a1660009081526001602090815260408083203384529091529020549190610e0b565b610bc4565b5060019392505050565b7f000000000000000000000000000000000000000000000000000000000000000090565b600061062c610ea2565b905090565b3360008181526001602090815260408083206001600160a01b038716845290915281205490916105869185906105ef9086610f69565b600760009054906101000a90046001600160a01b03166001600160a01b031663fbfa77cf6040518163ffffffff1660e01b815260040160206040518083038186803b1580156106b557600080fd5b505afa1580156106c9573d6000803e3d6000fd5b505050506040513d60208110156106df57600080fd5b50516006906001600160a01b0316331461078c5760405162461bcd60e51b815260206004820190815282546002600019610100600184161502019091160460248301819052909182916044909101908490801561077d5780601f106107525761010080835404028352916020019161077d565b820191906000526020600020905b81548152906001019060200180831161076057829003601f168201915b50509250505060405180910390fd5b506107978282610fca565b5050565b6107a533826110ba565b50565b6001600160a01b031660009081526020819052604090205490565b61079782826111b6565b600760009054906101000a90046001600160a01b03166001600160a01b0316630c340a246040518163ffffffff1660e01b815260040160206040518083038186803b15801561081b57600080fd5b505afa15801561082f573d6000803e3d6000fd5b505050506040513d602081101561084557600080fd5b50516006906001600160a01b031633146108b85760405162461bcd60e51b815260206004820190815282546002600019610100600184161502019091160460248301819052909182916044909101908490801561077d5780601f106107525761010080835404028352916020019161077d565b50600780547fffffffffffffffffffffffff0000000000000000000000000000000000000000166001600160a01b0383169081179091556040517f2f658b440c35314f52658ea8a740e05b284cdc84dc9ae01e891f21b8933e7cad90600090a250565b6001600160a01b038116600090815260056020526040812061093c90611202565b92915050565b60048054604080516020601f600260001961010060018816150201909516949094049384018190048102820181019092528281526060939092909183018282801561056e5780601f106105435761010080835404028352916020019161056e565b600061058633846105ef8560405180606001604052806025815260200161172c602591393360009081526001602090815260408083206001600160a01b038d1684529091529020549190610e0b565b6000610586338484610cb0565b6007546001600160a01b031681565b83421115610a63576040805162461bcd60e51b815260206004820152601d60248201527f45524332305065726d69743a206578706972656420646561646c696e65000000604482015290519081900360640190fd5b60007f0000000000000000000000000000000000000000000000000000000000000000888888610a928c611206565b8960405160200180878152602001866001600160a01b03168152602001856001600160a01b0316815260200184815260200183815260200182815260200196505050505050506040516020818303038152906040528051906020012090506000610afb82611238565b90506000610b0b8287878761124b565b9050896001600160a01b0316816001600160a01b031614610b73576040805162461bcd60e51b815260206004820152601e60248201527f45524332305065726d69743a20696e76616c6964207369676e61747572650000604482015290519081900360640190fd5b610b7e8a8a8a610bc4565b50505050505050505050565b6001600160a01b03918216600090815260016020908152604080832093909416825291909152205490565b6107a5816402540be400610fca565b6001600160a01b038316610c095760405162461bcd60e51b81526004018080602001828103825260248152602001806117086024913960400191505060405180910390fd5b6001600160a01b038216610c4e5760405162461bcd60e51b81526004018080602001828103825260228152602001806115ea6022913960400191505060405180910390fd5b6001600160a01b03808416600081815260016020908152604080832094871680845294825291829020859055815185815291517f8c5be1e5ebec7d5bd14f71427d1e84f3dd0314c0f7b2291e5b200ac8c7c3b9259281900390910190a3505050565b6001600160a01b038316610cf55760405162461bcd60e51b81526004018080602001828103825260258152602001806116e36025913960400191505060405180910390fd5b6001600160a01b038216610d3a5760405162461bcd60e51b81526004018080602001828103825260238152602001806115a56023913960400191505060405180910390fd5b610d458383836111fd565b610d828160405180606001604052806026815260200161160c602691396001600160a01b0386166000908152602081905260409020549190610e0b565b6001600160a01b038085166000908152602081905260408082209390935590841681522054610db19082610f69565b6001600160a01b038084166000818152602081815260409182902094909455805185815290519193928716927fddf252ad1be2c89b69c2b068fc378daa952ba7f163c4a11628f55a4df523b3ef92918290030190a3505050565b60008184841115610e9a5760405162461bcd60e51b81526004018080602001828103825283818151815260200191508051906020019080838360005b83811015610e5f578181015183820152602001610e47565b50505050905090810190601f168015610e8c5780820380516001836020036101000a031916815260200191505b509250505060405180910390fd5b505050900390565b6000467f0000000000000000000000000000000000000000000000000000000000000000811415610ef6577f0000000000000000000000000000000000000000000000000000000000000000915050610576565b610f617f00000000000000000000000000000000000000000000000000000000000000007f00000000000000000000000000000000000000000000000000000000000000007f0000000000000000000000000000000000000000000000000000000000000000611273565b915050610576565b600082820183811015610fc3576040805162461bcd60e51b815260206004820152601b60248201527f536166654d6174683a206164646974696f6e206f766572666c6f770000000000604482015290519081900360640190fd5b9392505050565b6001600160a01b038216611025576040805162461bcd60e51b815260206004820152601f60248201527f45524332303a206d696e7420746f20746865207a65726f206164647265737300604482015290519081900360640190fd5b611031600083836111fd565b60025461103e9082610f69565b6002556001600160a01b0382166000908152602081905260409020546110649082610f69565b6001600160a01b0383166000818152602081815260408083209490945583518581529351929391927fddf252ad1be2c89b69c2b068fc378daa952ba7f163c4a11628f55a4df523b3ef9281900390910190a35050565b6001600160a01b0382166110ff5760405162461bcd60e51b81526004018080602001828103825260218152602001806116c26021913960400191505060405180910390fd5b61110b826000836111fd565b611148816040518060600160405280602281526020016115c8602291396001600160a01b0385166000908152602081905260409020549190610e0b565b6001600160a01b03831660009081526020819052604090205560025461116e90826112b8565b6002556040805182815290516000916001600160a01b038516917fddf252ad1be2c89b69c2b068fc378daa952ba7f163c4a11628f55a4df523b3ef9181900360200190a35050565b60006111e68260405180606001604052806024815260200161169e602491396111df8633610b8a565b9190610e0b565b90506111f3833383610bc4565b6111fd83836110ba565b505050565b5490565b6001600160a01b038116600090815260056020526040812061122781611202565b9150611232816112fa565b50919050565b600061093c611245610ea2565b83611303565b600080600061125c8787878761133e565b9150915061126981611433565b5095945050505050565b604080516020808201959095528082019390935260608301919091524660808301523060a0808401919091528151808403909101815260c09092019052805191012090565b6000610fc383836040518060400160405280601e81526020017f536166654d6174683a207375627472616374696f6e206f766572666c6f770000815250610e0b565b80546001019055565b6040805161190160f01b6020808301919091526022820194909452604280820193909352815180820390930183526062019052805191012090565b6000807f7fffffffffffffffffffffffffffffff5d576e7357a4501ddfe92f46681b20a0831115611375575060009050600361142a565b8460ff16601b1415801561138d57508460ff16601c14155b1561139e575060009050600461142a565b600060018787878760405160008152602001604052604051808581526020018460ff1681526020018381526020018281526020019450505050506020604051602081039080840390855afa1580156113fa573d6000803e3d6000fd5b5050604051601f1901519150506001600160a01b0381166114235760006001925092505061142a565b9150600090505b94509492505050565b600081600481111561144157fe5b141561144c576107a5565b600181600481111561145a57fe5b14156114ad576040805162461bcd60e51b815260206004820152601860248201527f45434453413a20696e76616c6964207369676e61747572650000000000000000604482015290519081900360640190fd5b60028160048111156114bb57fe5b141561150e576040805162461bcd60e51b815260206004820152601f60248201527f45434453413a20696e76616c6964207369676e6174757265206c656e67746800604482015290519081900360640190fd5b600381600481111561151c57fe5b14156115595760405162461bcd60e51b81526004018080602001828103825260228152602001806116326022913960400191505060405180910390fd5b600481600481111561156757fe5b14156107a55760405162461bcd60e51b81526004018080602001828103825260228152602001806116546022913960400191505060405180910390fdfe45524332303a207472616e7366657220746f20746865207a65726f206164647265737345524332303a206275726e20616d6f756e7420657863656564732062616c616e636545524332303a20617070726f766520746f20746865207a65726f206164647265737345524332303a207472616e7366657220616d6f756e7420657863656564732062616c616e636545434453413a20696e76616c6964207369676e6174757265202773272076616c756545434453413a20696e76616c6964207369676e6174757265202776272076616c756545524332303a207472616e7366657220616d6f756e74206578636565647320616c6c6f77616e636545524332303a206275726e20616d6f756e74206578636565647320616c6c6f77616e636545524332303a206275726e2066726f6d20746865207a65726f206164647265737345524332303a207472616e736665722066726f6d20746865207a65726f206164647265737345524332303a20617070726f76652066726f6d20746865207a65726f206164647265737345524332303a2064656372656173656420616c6c6f77616e63652062656c6f77207a65726fa164736f6c6343000705000a",
  "devdoc": {
    "kind": "dev",
    "methods": {
      "DOMAIN_SEPARATOR()": {
        "details": "See {IERC20Permit-DOMAIN_SEPARATOR}."
      },
      "nonces(address)": {
        "details": "See {IERC20Permit-nonces}."
      },
      "permit(address,address,uint256,uint256,uint8,bytes32,bytes32)": {
        "details": "See {IERC20Permit-permit}."
      }
    },
    "version": 1
  },
  "userdoc": {
    "kind": "user",
    "methods": {},
    "version": 1
  },
  "storageLayout": {
    "storage": [
      {
        "astId": 18526,
        "contract": "contracts/testnet/TestnetOhm.sol:TestnetOhm",
        "label": "_balances",
        "offset": 0,
        "slot": "0",
        "type": "t_mapping(t_address,t_uint256)"
      },
      {
        "astId": 18532,
        "contract": "contracts/testnet/TestnetOhm.sol:TestnetOhm",
        "label": "_allowances",
        "offset": 0,
        "slot": "1",
        "type": "t_mapping(t_address,t_mapping(t_address,t_uint256))"
      },
      {
        "astId": 18534,
        "contract": "contracts/testnet/TestnetOhm.sol:TestnetOhm",
        "label": "_totalSupply",
        "offset": 0,
        "slot": "2",
        "type": "t_uint256"
      },
      {
        "astId": 18536,
        "contract": "contracts/testnet/TestnetOhm.sol:TestnetOhm",
        "label": "_name",
        "offset": 0,
        "slot": "3",
        "type": "t_string_storage"
      },
      {
        "astId": 18538,
        "contract": "contracts/testnet/TestnetOhm.sol:TestnetOhm",
        "label": "_symbol",
        "offset": 0,
        "slot": "4",
        "type": "t_string_storage"
      },
      {
        "astId": 19007,
        "contract": "contracts/testnet/TestnetOhm.sol:TestnetOhm",
        "label": "_nonces",
        "offset": 0,
        "slot": "5",
        "type": "t_mapping(t_address,t_struct(Counter)11313_storage)"
      },
      {
        "astId": 19162,
        "contract": "contracts/testnet/TestnetOhm.sol:TestnetOhm",
        "label": "UNAUTHORIZED",
        "offset": 0,
        "slot": "6",
        "type": "t_string_storage"
      },
      {
        "astId": 19164,
        "contract": "contracts/testnet/TestnetOhm.sol:TestnetOhm",
        "label": "authority",
        "offset": 0,
        "slot": "7",
        "type": "t_contract(IOlympusAuthority)10305"
      }
    ],
    "types": {
      "t_address": {
        "encoding": "inplace",
        "label": "address",
        "numberOfBytes": "20"
      },
      "t_contract(IOlympusAuthority)10305": {
        "encoding": "inplace",
        "label": "contract IOlympusAuthority",
        "numberOfBytes": "20"
      },
      "t_mapping(t_address,t_mapping(t_address,t_uint256))": {
        "encoding": "mapping",
        "key": "t_address",
        "label": "mapping(address => mapping(address => uint256))",
        "numberOfBytes": "32",
        "value": "t_mapping(t_address,t_uint256)"
      },
      "t_mapping(t_address,t_struct(Counter)11313_storage)": {
        "encoding": "mapping",
        "key": "t_address",
        "label": "mapping(address => struct Counters.Counter)",
        "numberOfBytes": "32",
        "value": "t_struct(Counter)11313_storage"
      },
      "t_mapping(t_address,t_uint256)": {
        "encoding": "mapping",
        "key": "t_address",
        "label": "mapping(address => uint256)",
        "numberOfBytes": "32",
        "value": "t_uint256"
      },
      "t_string_storage": {
        "encoding": "bytes",
        "label": "string",
        "numberOfBytes": "32"
      },
      "t_struct(Counter)11313_storage": {
        "encoding": "inplace",
        "label": "struct Counters.Counter",
        "members": [
          {
            "astId": 11312,
            "contract": "contracts/testnet/TestnetOhm.sol:TestnetOhm",
            "label": "_value",
            "offset": 0,
            "slot": "0",
            "type": "t_uint256"
          }
        ],
        "numberOfBytes": "32"
      },
      "t_uint256": {
        "encoding": "inplace",
        "label": "uint256",
        "numberOfBytes": "32"
      }
    }
  }
}