{
  "address": "0x5f99F707470E81784eA064377b302Ff111b5a95A",
  "abi": [
    {
      "inputs": [],
      "stateMutability": "nonpayable",
      "type": "constructor"
    },
    {
      "anonymous": false,
      "inputs": [
        {
          "indexed": true,
          "internalType": "address",
          "name": "owner",
          "type": "address"
        },
        {
          "indexed": true,
          "internalType": "address",
          "name": "spender",
          "type": "address"
        },
        {
          "indexed": false,
          "internalType": "uint256",
          "name": "value",
          "type": "uint256"
        }
      ],
      "name": "Approval",
      "type": "event"
    },
    {
      "anonymous": false,
      "inputs": [
        {
          "indexed": true,
          "internalType": "address",
          "name": "previousOwner",
          "type": "address"
        },
        {
          "indexed": true,
          "internalType": "address",
          "name": "newOwner",
          "type": "address"
        }
      ],
      "name": "OwnershipTransferred",
      "type": "event"
    },
    {
      "anonymous": false,
      "inputs": [
        {
          "indexed": true,
          "internalType": "address",
          "name": "from",
          "type": "address"
        },
        {
          "indexed": true,
          "internalType": "address",
          "name": "to",
          "type": "address"
        },
        {
          "indexed": false,
          "internalType": "uint256",
          "name": "value",
          "type": "uint256"
        }
      ],
      "name": "Transfer",
      "type": "event"
    },
    {
      "inputs": [],
      "name": "DOMAIN_SEPARATOR",
      "outputs": [
        {
          "internalType": "bytes32",
          "name": "",
          "type": "bytes32"
        }
      ],
      "stateMutability": "view",
      "type": "function"
    },
    {
      "inputs": [],
      "name": "PERMIT_TYPEHASH",
      "outputs": [
        {
          "internalType": "bytes32",
          "name": "",
          "type": "bytes32"
        }
      ],
      "stateMutability": "view",
      "type": "function"
    },
    {
      "inputs": [
        {
          "internalType": "address",
          "name": "account_",
          "type": "address"
        },
        {
          "internalType": "uint256",
          "name": "amount_",
          "type": "uint256"
        }
      ],
      "name": "_burnFrom",
      "outputs": [],
      "stateMutability": "nonpayable",
      "type": "function"
    },
    {
      "inputs": [
        {
          "internalType": "address",
          "name": "owner",
          "type": "address"
        },
        {
          "internalType": "address",
          "name": "spender",
          "type": "address"
        }
      ],
      "name": "allowance",
      "outputs": [
        {
          "internalType": "uint256",
          "name": "",
          "type": "uint256"
        }
      ],
      "stateMutability": "view",
      "type": "function"
    },
    {
      "inputs": [
        {
          "internalType": "address",
          "name": "spender",
          "type": "address"
        },
        {
          "internalType": "uint256",
          "name": "amount",
          "type": "uint256"
        }
      ],
      "name": "approve",
      "outputs": [
        {
          "internalType": "bool",
          "name": "",
          "type": "bool"
        }
      ],
      "stateMutability": "nonpayable",
      "type": "function"
    },
    {
      "inputs": [
        {
          "internalType": "address",
          "name": "account",
          "type": "address"
        }
      ],
      "name": "balanceOf",
      "outputs": [
        {
          "internalType": "uint256",
          "name": "",
          "type": "uint256"
        }
      ],
      "stateMutability": "view",
      "type": "function"
    },
    {
      "inputs": [
        {
          "internalType": "uint256",
          "name": "amount",
          "type": "uint256"
        }
      ],
      "name": "burn",
      "outputs": [],
      "stateMutability": "nonpayable",
      "type": "function"
    },
    {
      "inputs": [
        {
          "internalType": "address",
          "name": "account_",
          "type": "address"
        },
        {
          "internalType": "uint256",
          "name": "amount_",
          "type": "uint256"
        }
      ],
      "name": "burnFrom",
      "outputs": [],
      "stateMutability": "nonpayable",
      "type": "function"
    },
    {
      "inputs": [],
      "name": "decimals",
      "outputs": [
        {
          "internalType": "uint8",
          "name": "",
          "type": "uint8"
        }
      ],
      "stateMutability": "view",
      "type": "function"
    },
    {
      "inputs": [
        {
          "internalType": "address",
          "name": "spender",
          "type": "address"
        },
        {
          "internalType": "uint256",
          "name": "subtractedValue",
          "type": "uint256"
        }
      ],
      "name": "decreaseAllowance",
      "outputs": [
        {
          "internalType": "bool",
          "name": "",
          "type": "bool"
        }
      ],
      "stateMutability": "nonpayable",
      "type": "function"
    },
    {
      "inputs": [
        {
          "internalType": "address",
          "name": "recipient_",
          "type": "address"
        }
      ],
      "name": "faucetMint",
      "outputs": [],
      "stateMutability": "nonpayable",
      "type": "function"
    },
    {
      "inputs": [
        {
          "internalType": "address",
          "name": "spender",
          "type": "address"
        },
        {
          "internalType": "uint256",
          "name": "addedValue",
          "type": "uint256"
        }
      ],
      "name": "increaseAllowance",
      "outputs": [
        {
          "internalType": "bool",
          "name": "",
          "type": "bool"
        }
      ],
      "stateMutability": "nonpayable",
      "type": "function"
    },
    {
      "inputs": [
        {
          "internalType": "address",
          "name": "account_",
          "type": "address"
        },
        {
          "internalType": "uint256",
          "name": "amount_",
          "type": "uint256"
        }
      ],
      "name": "mint",
      "outputs": [],
      "stateMutability": "nonpayable",
      "type": "function"
    },
    {
      "inputs": [],
      "name": "name",
      "outputs": [
        {
          "internalType": "string",
          "name": "",
          "type": "string"
        }
      ],
      "stateMutability": "view",
      "type": "function"
    },
    {
      "inputs": [
        {
          "internalType": "address",
          "name": "owner",
          "type": "address"
        }
      ],
      "name": "nonces",
      "outputs": [
        {
          "internalType": "uint256",
          "name": "",
          "type": "uint256"
        }
      ],
      "stateMutability": "view",
      "type": "function"
    },
    {
      "inputs": [],
      "name": "owner",
      "outputs": [
        {
          "internalType": "address",
          "name": "",
          "type": "address"
        }
      ],
      "stateMutability": "view",
      "type": "function"
    },
    {
      "inputs": [
        {
          "internalType": "address",
          "name": "owner",
          "type": "address"
        },
        {
          "internalType": "address",
          "name": "spender",
          "type": "address"
        },
        {
          "internalType": "uint256",
          "name": "amount",
          "type": "uint256"
        },
        {
          "internalType": "uint256",
          "name": "deadline",
          "type": "uint256"
        },
        {
          "internalType": "uint8",
          "name": "v",
          "type": "uint8"
        },
        {
          "internalType": "bytes32",
          "name": "r",
          "type": "bytes32"
        },
        {
          "internalType": "bytes32",
          "name": "s",
          "type": "bytes32"
        }
      ],
      "name": "permit",
      "outputs": [],
      "stateMutability": "nonpayable",
      "type": "function"
    },
    {
      "inputs": [],
      "name": "renounceOwnership",
      "outputs": [],
      "stateMutability": "nonpayable",
      "type": "function"
    },
    {
      "inputs": [
        {
          "internalType": "address",
          "name": "vault_",
          "type": "address"
        }
      ],
      "name": "setVault",
      "outputs": [
        {
          "internalType": "bool",
          "name": "",
          "type": "bool"
        }
      ],
      "stateMutability": "nonpayable",
      "type": "function"
    },
    {
      "inputs": [],
      "name": "symbol",
      "outputs": [
        {
          "internalType": "string",
          "name": "",
          "type": "string"
        }
      ],
      "stateMutability": "view",
      "type": "function"
    },
    {
      "inputs": [],
      "name": "totalSupply",
      "outputs": [
        {
          "internalType": "uint256",
          "name": "",
          "type": "uint256"
        }
      ],
      "stateMutability": "view",
      "type": "function"
    },
    {
      "inputs": [
        {
          "internalType": "address",
          "name": "recipient",
          "type": "address"
        },
        {
          "internalType": "uint256",
          "name": "amount",
          "type": "uint256"
        }
      ],
      "name": "transfer",
      "outputs": [
        {
          "internalType": "bool",
          "name": "",
          "type": "bool"
        }
      ],
      "stateMutability": "nonpayable",
      "type": "function"
    },
    {
      "inputs": [
        {
          "internalType": "address",
          "name": "sender",
          "type": "address"
        },
        {
          "internalType": "address",
          "name": "recipient",
          "type": "address"
        },
        {
          "internalType": "uint256",
          "name": "amount",
          "type": "uint256"
        }
      ],
      "name": "transferFrom",
      "outputs": [
        {
          "internalType": "bool",
          "name": "",
          "type": "bool"
        }
      ],
      "stateMutability": "nonpayable",
      "type": "function"
    },
    {
      "inputs": [
        {
          "internalType": "address",
          "name": "newOwner_",
          "type": "address"
        }
      ],
      "name": "transferOwnership",
      "outputs": [],
      "stateMutability": "nonpayable",
      "type": "function"
    },
    {
      "inputs": [],
      "name": "vault",
      "outputs": [
        {
          "internalType": "address",
          "name": "",
          "type": "address"
        }
      ],
      "stateMutability": "view",
      "type": "function"
    }
  ],
  "transactionHash": "0x56656ddc0f29cf36112627eaf6cf81e5974b4102fe85bcd5c307654d36b76068",
  "args": [],
  "solcInputHash": "0ba3bee1104cde9f29ac67a334efacb4",
  "bytecode": "0x60806040523480156200001157600080fd5b50604051806040016040528060078152602001664f6c796d70757360c81b815250604051806040016040528060038152602001624f484d60e81b815250600982600390805190602001906200006892919062000229565b5081516200007e90600490602085019062000229565b506005805460ff191660ff92909216919091179055504690507f8b73c3c69bb8fe3d512ecc4cf759cc79239f7b179b0ffacaa9a75d522b39400f620000c26200018f565b805160209182012060408051808201825260018152603160f81b90840152805180840194909452838101919091527fc89efdaa54c0f20c7adf612882df0950f5a951637e0307cdcb4c672f298b8bc6606084015260808301939093523060a0808401919091528351808403909101815260c0909201928390528151910120600755600880546001600160a01b0319163317908190556001600160a01b0316906000907f8be0079c531659141344cd1fd0a4f28419497f9722a3daafe3b4186f6b6457e0908290a3620002d5565b60038054604080516020601f60026000196101006001881615020190951694909404938401819004810282018101909252828152606093909290918301828280156200021f5780601f10620001f3576101008083540402835291602001916200021f565b820191906000526020600020905b8154815290600101906020018083116200020157829003601f168201915b5050505050905090565b828054600181600116156101000203166002900490600052602060002090601f016020900481019282620002615760008555620002ac565b82601f106200027c57805160ff1916838001178555620002ac565b82800160010185558215620002ac579182015b82811115620002ac5782518255916020019190600101906200028f565b50620002ba929150620002be565b5090565b5b80821115620002ba5760008155600101620002bf565b6114f580620002e56000396000f3fe608060405234801561001057600080fd5b50600436106101a35760003560e01c8063715018a6116100ee578063a457c2d711610097578063dd62ed3e11610071578063dd62ed3e14610501578063f2fde38b1461052f578063fbfa77cf14610555578063fc8d44b71461055d576101a3565b8063a457c2d714610458578063a9059cbb14610484578063d505accf146104b0576101a3565b80638da5cb5b116100c85780638da5cb5b1461040057806395d89b4114610424578063a22b35ce1461042c576101a3565b8063715018a6146103a657806379cc6790146103ae5780637ecebe00146103da576101a3565b80633644e5151161015057806342966c681161012a57806342966c681461033d5780636817031b1461035a57806370a0823114610380576101a3565b80633644e515146102db57806339509351146102e357806340c10f191461030f576101a3565b806323b872dd1161018157806323b872dd1461027f57806330adf81f146102b5578063313ce567146102bd576101a3565b806306fdde03146101a8578063095ea7b31461022557806318160ddd14610265575b600080fd5b6101b0610583565b6040805160208082528351818301528351919283929083019185019080838360005b838110156101ea5781810151838201526020016101d2565b50505050905090810190601f1680156102175780820380516001836020036101000a031916815260200191505b509250505060405180910390f35b6102516004803603604081101561023b57600080fd5b506001600160a01b038135169060200135610619565b604080519115158252519081900360200190f35b61026d61062f565b60408051918252519081900360200190f35b6102516004803603606081101561029557600080fd5b506001600160a01b03813581169160208101359091169060400135610635565b61026d61069e565b6102c56106c2565b6040805160ff9092168252519081900360200190f35b61026d6106cb565b610251600480360360408110156102f957600080fd5b506001600160a01b0381351690602001356106d1565b61033b6004803603604081101561032557600080fd5b506001600160a01b038135169060200135610707565b005b61033b6004803603602081101561035357600080fd5b503561075e565b6102516004803603602081101561037057600080fd5b50356001600160a01b031661076b565b61026d6004803603602081101561039657600080fd5b50356001600160a01b03166107ff565b61033b61081a565b61033b600480360360408110156103c457600080fd5b506001600160a01b0381351690602001356108d0565b61026d600480360360208110156103f057600080fd5b50356001600160a01b03166108da565b610408610901565b604080516001600160a01b039092168252519081900360200190f35b6101b0610910565b61033b6004803603604081101561044257600080fd5b506001600160a01b038135169060200135610971565b6102516004803603604081101561046e57600080fd5b506001600160a01b0381351690602001356109bd565b6102516004803603604081101561049a57600080fd5b506001600160a01b038135169060200135610a0c565b61033b600480360360e08110156104c657600080fd5b506001600160a01b03813581169160208101359091169060408101359060608101359060ff6080820135169060a08101359060c00135610a19565b61026d6004803603604081101561051757600080fd5b506001600160a01b0381358116916020013516610c46565b61033b6004803603602081101561054557600080fd5b50356001600160a01b0316610c71565b610408610d7e565b61033b6004803603602081101561057357600080fd5b50356001600160a01b0316610d8d565b60038054604080516020601f600260001961010060018816150201909516949094049384018190048102820181019092528281526060939092909183018282801561060f5780601f106105e45761010080835404028352916020019161060f565b820191906000526020600020905b8154815290600101906020018083116105f257829003601f168201915b5050505050905090565b6000610626338484610d9c565b50600192915050565b60025490565b6000610642848484610e88565b610694843361068f856040518060600160405280602881526020016113eb602891396001600160a01b038a1660009081526001602090815260408083203384529091529020549190610fe3565b610d9c565b5060019392505050565b7f6e71edae12b1b97f4d1f60370fef10105fa2faae0126114a169c64845d6126c981565b60055460ff1690565b60075481565b3360008181526001602090815260408083206001600160a01b0387168452909152812054909161062691859061068f908661107a565b6009546001600160a01b031633146107505760405162461bcd60e51b81526004018080602001828103825260238152602001806114136023913960400191505060405180910390fd5b61075a82826110db565b5050565b61076833826111cb565b50565b6008546000906001600160a01b031633146107cd576040805162461bcd60e51b815260206004820181905260248201527f4f776e61626c653a2063616c6c6572206973206e6f7420746865206f776e6572604482015290519081900360640190fd5b50600980546001600160a01b03831673ffffffffffffffffffffffffffffffffffffffff199091161790556001919050565b6001600160a01b031660009081526020819052604090205490565b6008546001600160a01b03163314610879576040805162461bcd60e51b815260206004820181905260248201527f4f776e61626c653a2063616c6c6572206973206e6f7420746865206f776e6572604482015290519081900360640190fd5b6008546040516000916001600160a01b0316907f8be0079c531659141344cd1fd0a4f28419497f9722a3daafe3b4186f6b6457e0908390a36008805473ffffffffffffffffffffffffffffffffffffffff19169055565b61075a8282610971565b6001600160a01b03811660009081526006602052604081206108fb906112c7565b92915050565b6008546001600160a01b031690565b60048054604080516020601f600260001961010060018816150201909516949094049384018190048102820181019092528281526060939092909183018282801561060f5780601f106105e45761010080835404028352916020019161060f565b60006109a1826040518060600160405280602481526020016114366024913961099a8633610c46565b9190610fe3565b90506109ae833383610d9c565b6109b883836111cb565b505050565b6000610626338461068f856040518060600160405280602581526020016114c4602591393360009081526001602090815260408083206001600160a01b038d1684529091529020549190610fe3565b6000610626338484610e88565b83421115610a6e576040805162461bcd60e51b815260206004820152601860248201527f5065726d69743a206578706972656420646561646c696e650000000000000000604482015290519081900360640190fd5b6001600160a01b03871660009081526006602052604081207f6e71edae12b1b97f4d1f60370fef10105fa2faae0126114a169c64845d6126c990899089908990610ab7906112c7565b604080516020808201979097526001600160a01b0395861681830152939094166060840152608083019190915260a082015260c08082018990528251808303909101815260e08201835280519084012060075461190160f01b610100840152610102830152610122808301829052835180840390910181526101428301808552815191860191909120600091829052610162840180865281905260ff8a166101828501526101a284018990526101c28401889052935191955092936001926101e280820193601f1981019281900390910190855afa158015610b9d573d6000803e3d6000fd5b5050604051601f1901519150506001600160a01b03811615801590610bd35750896001600160a01b0316816001600160a01b0316145b610c0e5760405162461bcd60e51b81526004018080602001828103825260218152602001806113ca6021913960400191505060405180910390fd5b6001600160a01b038a166000908152600660205260409020610c2f906112cb565b610c3a8a8a8a610d9c565b50505050505050505050565b6001600160a01b03918216600090815260016020908152604080832093909416825291909152205490565b6008546001600160a01b03163314610cd0576040805162461bcd60e51b815260206004820181905260248201527f4f776e61626c653a2063616c6c6572206973206e6f7420746865206f776e6572604482015290519081900360640190fd5b6001600160a01b038116610d155760405162461bcd60e51b815260040180806020018281038252602681526020018061135c6026913960400191505060405180910390fd5b6008546040516001600160a01b038084169216907f8be0079c531659141344cd1fd0a4f28419497f9722a3daafe3b4186f6b6457e090600090a36008805473ffffffffffffffffffffffffffffffffffffffff19166001600160a01b0392909216919091179055565b6009546001600160a01b031690565b610768816402540be4006110db565b6001600160a01b038316610de15760405162461bcd60e51b81526004018080602001828103825260248152602001806114a06024913960400191505060405180910390fd5b6001600160a01b038216610e265760405162461bcd60e51b81526004018080602001828103825260228152602001806113826022913960400191505060405180910390fd5b6001600160a01b03808416600081815260016020908152604080832094871680845294825291829020859055815185815291517f8c5be1e5ebec7d5bd14f71427d1e84f3dd0314c0f7b2291e5b200ac8c7c3b9259281900390910190a3505050565b6001600160a01b038316610ecd5760405162461bcd60e51b815260040180806020018281038252602581526020018061147b6025913960400191505060405180910390fd5b6001600160a01b038216610f125760405162461bcd60e51b81526004018080602001828103825260238152602001806113176023913960400191505060405180910390fd5b610f1d8383836109b8565b610f5a816040518060600160405280602681526020016113a4602691396001600160a01b0386166000908152602081905260409020549190610fe3565b6001600160a01b038085166000908152602081905260408082209390935590841681522054610f89908261107a565b6001600160a01b038084166000818152602081815260409182902094909455805185815290519193928716927fddf252ad1be2c89b69c2b068fc378daa952ba7f163c4a11628f55a4df523b3ef92918290030190a3505050565b600081848411156110725760405162461bcd60e51b81526004018080602001828103825283818151815260200191508051906020019080838360005b8381101561103757818101518382015260200161101f565b50505050905090810190601f1680156110645780820380516001836020036101000a031916815260200191505b509250505060405180910390fd5b505050900390565b6000828201838110156110d4576040805162461bcd60e51b815260206004820152601b60248201527f536166654d6174683a206164646974696f6e206f766572666c6f770000000000604482015290519081900360640190fd5b9392505050565b6001600160a01b038216611136576040805162461bcd60e51b815260206004820152601f60248201527f45524332303a206d696e7420746f20746865207a65726f206164647265737300604482015290519081900360640190fd5b6111413083836109b8565b60025461114e908261107a565b6002556001600160a01b038216600090815260208190526040902054611174908261107a565b6001600160a01b038316600081815260208181526040918290209390935580518481529051919230927fddf252ad1be2c89b69c2b068fc378daa952ba7f163c4a11628f55a4df523b3ef9281900390910190a35050565b6001600160a01b0382166112105760405162461bcd60e51b815260040180806020018281038252602181526020018061145a6021913960400191505060405180910390fd5b61121c826000836109b8565b6112598160405180606001604052806022815260200161133a602291396001600160a01b0385166000908152602081905260409020549190610fe3565b6001600160a01b03831660009081526020819052604090205560025461127f90826112d4565b6002556040805182815290516000916001600160a01b038516917fddf252ad1be2c89b69c2b068fc378daa952ba7f163c4a11628f55a4df523b3ef9181900360200190a35050565b5490565b80546001019055565b60006110d483836040518060400160405280601e81526020017f536166654d6174683a207375627472616374696f6e206f766572666c6f770000815250610fe356fe45524332303a207472616e7366657220746f20746865207a65726f206164647265737345524332303a206275726e20616d6f756e7420657863656564732062616c616e63654f776e61626c653a206e6577206f776e657220697320746865207a65726f206164647265737345524332303a20617070726f766520746f20746865207a65726f206164647265737345524332303a207472616e7366657220616d6f756e7420657863656564732062616c616e63655a65726f537761705065726d69743a20496e76616c6964207369676e617475726545524332303a207472616e7366657220616d6f756e74206578636565647320616c6c6f77616e63655661756c744f776e65643a2063616c6c6572206973206e6f7420746865205661756c7445524332303a206275726e20616d6f756e74206578636565647320616c6c6f77616e636545524332303a206275726e2066726f6d20746865207a65726f206164647265737345524332303a207472616e736665722066726f6d20746865207a65726f206164647265737345524332303a20617070726f76652066726f6d20746865207a65726f206164647265737345524332303a2064656372656173656420616c6c6f77616e63652062656c6f77207a65726fa164736f6c6343000705000a",
  "devdoc": {
    "kind": "dev",
    "methods": {
      "allowance(address,address)": {
        "details": "Returns the remaining number of tokens that `spender` will be allowed to spend on behalf of `owner` through {transferFrom}. This is zero by default. This value changes when {approve} or {transferFrom} are called."
      },
      "approve(address,uint256)": {
        "details": "Sets `amount` as the allowance of `spender` over the caller's tokens. Returns a boolean value indicating whether the operation succeeded. IMPORTANT: Beware that changing an allowance with this method brings the risk that someone may use both the old and the new allowance by unfortunate transaction ordering. One possible solution to mitigate this race condition is to first reduce the spender's allowance to 0 and set the desired value afterwards: https://github.com/ethereum/EIPs/issues/20#issuecomment-263524729 Emits an {Approval} event."
      },
      "balanceOf(address)": {
        "details": "Returns the amount of tokens owned by `account`."
      },
      "totalSupply()": {
        "details": "Returns the amount of tokens in existence."
      },
      "transfer(address,uint256)": {
        "details": "Moves `amount` tokens from the caller's account to `recipient`. Returns a boolean value indicating whether the operation succeeded. Emits a {Transfer} event."
      },
      "transferFrom(address,address,uint256)": {
        "details": "Moves `amount` tokens from `sender` to `recipient` using the allowance mechanism. `amount` is then deducted from the caller's allowance. Returns a boolean value indicating whether the operation succeeded. Emits a {Transfer} event."
      }
    },
    "version": 1
  },
  "userdoc": {
    "kind": "user",
    "methods": {},
    "version": 1
  },
  "storageLayout": {
    "storage": [
      {
        "astId": 1374,
        "contract": "contracts/testnet/TestnetOhmV1.sol:TestnetOhmV1",
        "label": "_balances",
        "offset": 0,
        "slot": "0",
        "type": "t_mapping(t_address,t_uint256)"
      },
      {
        "astId": 1380,
        "contract": "contracts/testnet/TestnetOhmV1.sol:TestnetOhmV1",
        "label": "_allowances",
        "offset": 0,
        "slot": "1",
        "type": "t_mapping(t_address,t_mapping(t_address,t_uint256))"
      },
      {
        "astId": 1382,
        "contract": "contracts/testnet/TestnetOhmV1.sol:TestnetOhmV1",
        "label": "_totalSupply",
        "offset": 0,
        "slot": "2",
        "type": "t_uint256"
      },
      {
        "astId": 1384,
        "contract": "contracts/testnet/TestnetOhmV1.sol:TestnetOhmV1",
        "label": "_name",
        "offset": 0,
        "slot": "3",
        "type": "t_string_storage"
      },
      {
        "astId": 1386,
        "contract": "contracts/testnet/TestnetOhmV1.sol:TestnetOhmV1",
        "label": "_symbol",
        "offset": 0,
        "slot": "4",
        "type": "t_string_storage"
      },
      {
        "astId": 1388,
        "contract": "contracts/testnet/TestnetOhmV1.sol:TestnetOhmV1",
        "label": "_decimals",
        "offset": 0,
        "slot": "5",
        "type": "t_uint8"
      },
      {
        "astId": 1916,
        "contract": "contracts/testnet/TestnetOhmV1.sol:TestnetOhmV1",
        "label": "_nonces",
        "offset": 0,
        "slot": "6",
        "type": "t_mapping(t_address,t_struct(Counter)1840_storage)"
      },
      {
        "astId": 1921,
        "contract": "contracts/testnet/TestnetOhmV1.sol:TestnetOhmV1",
        "label": "DOMAIN_SEPARATOR",
        "offset": 0,
        "slot": "7",
        "type": "t_bytes32"
      },
      {
        "astId": 2086,
        "contract": "contracts/testnet/TestnetOhmV1.sol:TestnetOhmV1",
        "label": "_owner",
        "offset": 0,
        "slot": "8",
        "type": "t_address"
      },
      {
        "astId": 2185,
        "contract": "contracts/testnet/TestnetOhmV1.sol:TestnetOhmV1",
        "label": "_vault",
        "offset": 0,
        "slot": "9",
        "type": "t_address"
      }
    ],
    "types": {
      "t_address": {
        "encoding": "inplace",
        "label": "address",
        "numberOfBytes": "20"
      },
      "t_bytes32": {
        "encoding": "inplace",
        "label": "bytes32",
        "numberOfBytes": "32"
      },
      "t_mapping(t_address,t_mapping(t_address,t_uint256))": {
        "encoding": "mapping",
        "key": "t_address",
        "label": "mapping(address => mapping(address => uint256))",
        "numberOfBytes": "32",
        "value": "t_mapping(t_address,t_uint256)"
      },
      "t_mapping(t_address,t_struct(Counter)1840_storage)": {
        "encoding": "mapping",
        "key": "t_address",
        "label": "mapping(address => struct Counters.Counter)",
        "numberOfBytes": "32",
        "value": "t_struct(Counter)1840_storage"
      },
      "t_mapping(t_address,t_uint256)": {
        "encoding": "mapping",
        "key": "t_address",
        "label": "mapping(address => uint256)",
        "numberOfBytes": "32",
        "value": "t_uint256"
      },
      "t_string_storage": {
        "encoding": "bytes",
        "label": "string",
        "numberOfBytes": "32"
      },
      "t_struct(Counter)1840_storage": {
        "encoding": "inplace",
        "label": "struct Counters.Counter",
        "members": [
          {
            "astId": 1839,
            "contract": "contracts/testnet/TestnetOhmV1.sol:TestnetOhmV1",
            "label": "_value",
            "offset": 0,
            "slot": "0",
            "type": "t_uint256"
          }
        ],
        "numberOfBytes": "32"
      },
      "t_uint256": {
        "encoding": "inplace",
        "label": "uint256",
        "numberOfBytes": "32"
      },
      "t_uint8": {
        "encoding": "inplace",
        "label": "uint8",
        "numberOfBytes": "1"
      }
    }
  }
}